BL51 BANKED LINKER/LOCATER V6.22                                                        06/26/2020  22:34:05  PAGE 1


BL51 BANKED LINKER/LOCATER V6.22, INVOKED BY:
C:\KEIL_V5\C51\BIN\BL51.EXE .\Objects\main.obj, .\Objects\interrupt.obj, .\Objects\mpu6050.obj, .\Objects\mcp401x.obj, .
>> \Objects\lt3741.obj, .\Objects\adc.obj, .\Objects\gpio.obj, .\Objects\pwm.obj, .\Objects\soft_iic.obj, .\Objects\uart
>> .obj, .\Objects\utils.obj TO .\Objects\freescale15 PRINT (.\Listings\freescale15.m51) RAMSIZE (256) CODE (0X0000-0XFF
>> F8) XDATA (0X0000-0X07FF)


MEMORY MODEL: LARGE WITH FLOATING POINT ARITHMETIC


INPUT MODULES INCLUDED:
  .\Objects\main.obj (MAIN)
  .\Objects\interrupt.obj (INTERRUPT)
  .\Objects\mpu6050.obj (MPU6050)
  .\Objects\mcp401x.obj (MCP401X)
  .\Objects\lt3741.obj (LT3741)
  .\Objects\adc.obj (ADC)
  .\Objects\gpio.obj (GPIO)
  .\Objects\pwm.obj (PWM)
  .\Objects\soft_iic.obj (SOFT_IIC)
  .\Objects\uart.obj (UART)
  .\Objects\utils.obj (UTILS)
  C:\KEIL_V5\C51\LIB\C51FPL.LIB (?C?FPADD)
  C:\KEIL_V5\C51\LIB\C51FPL.LIB (?C?FPMUL)
  C:\KEIL_V5\C51\LIB\C51FPL.LIB (?C?FPDIV)
  C:\KEIL_V5\C51\LIB\C51FPL.LIB (?C?FPCMP)
  C:\KEIL_V5\C51\LIB\C51FPL.LIB (?C?FCAST)
  C:\KEIL_V5\C51\LIB\C51FPL.LIB (?C?CASTF)
  C:\KEIL_V5\C51\LIB\C51FPL.LIB (PRINTF)
  C:\KEIL_V5\C51\LIB\C51FPL.LIB (?C?FPGETOPN)
  C:\KEIL_V5\C51\LIB\C51FPL.LIB (?C?FPROUND)
  C:\KEIL_V5\C51\LIB\C51FPL.LIB (?C?FPCONVERT)
  C:\KEIL_V5\C51\LIB\C51FPL.LIB (?C?FTNPWR)
  C:\KEIL_V5\C51\LIB\C51L.LIB (?C_STARTUP)
  C:\KEIL_V5\C51\LIB\C51L.LIB (?C?CLDPTR)
  C:\KEIL_V5\C51\LIB\C51L.LIB (?C?CLDOPTR)
  C:\KEIL_V5\C51\LIB\C51L.LIB (?C?CSTPTR)
  C:\KEIL_V5\C51\LIB\C51L.LIB (?C?IMUL)
  C:\KEIL_V5\C51\LIB\C51L.LIB (?C?IILDX)
  C:\KEIL_V5\C51\LIB\C51L.LIB (?C?LMUL)
  C:\KEIL_V5\C51\LIB\C51L.LIB (?C?ULDIV)
  C:\KEIL_V5\C51\LIB\C51L.LIB (?C?LNEG)
  C:\KEIL_V5\C51\LIB\C51L.LIB (?C?SLCMP)
  C:\KEIL_V5\C51\LIB\C51L.LIB (?C?ULCMP)
  C:\KEIL_V5\C51\LIB\C51L.LIB (?C?ULSHR)
  C:\KEIL_V5\C51\LIB\C51L.LIB (?C?LSTXDATA)
  C:\KEIL_V5\C51\LIB\C51L.LIB (?C?LSTKXDATA)
  C:\KEIL_V5\C51\LIB\C51L.LIB (?C?PLDIXDATA)
  C:\KEIL_V5\C51\LIB\C51L.LIB (?C?PSTXDATA)
  C:\KEIL_V5\C51\LIB\C51L.LIB (?C?CCASE)
  C:\KEIL_V5\C51\LIB\C51L.LIB (?C_INIT)


LINK MAP OF MODULE:  .\Objects\freescale15 (MAIN)


            TYPE    BASE      LENGTH    RELOCATION   SEGMENT NAME
            -----------------------------------------------------
BL51 BANKED LINKER/LOCATER V6.22                                                      06/26/2020  22:34:05  PAGE 2



            * * * * * * *   D A T A   M E M O R Y   * * * * * * *
            REG     0000H     0008H     ABSOLUTE     "REG BANK 0"
            DATA    0008H     0005H     UNIT         _DATA_GROUP_
                    000DH     0013H                  *** GAP ***
            BIT     0020H.0   0001H.1   UNIT         _BIT_GROUP_
            BIT     0021H.1   0000H.4   UNIT         ?BI?_GPIO_SETTING?GPIO
            BIT     0021H.5   0000H.2   UNIT         ?BI?MAIN
                    0021H.7   0000H.1                *** GAP ***
            IDATA   0022H     0001H     UNIT         ?STACK

            * * * * * * *  X D A T A   M E M O R Y  * * * * * * *
            XDATA   0000H     0041H     UNIT         ?XD?MAIN
            XDATA   0041H     0031H     UNIT         _XDATA_GROUP_
            XDATA   0072H     0008H     UNIT         ?XD?TASK_CONSTP_CHARGE?MAIN
            XDATA   007AH     0003H     UNIT         ?XD?_ADC_READ_VOLT?ADC
            XDATA   007DH     0001H     UNIT         ?XD?MPU6050

            * * * * * * *   C O D E   M E M O R Y   * * * * * * *
            CODE    0000H     0003H     ABSOLUTE     
            CODE    0003H     0003H     ABSOLUTE     
            CODE    0006H     0004H     UNIT         ?PR?ADC_CLEAR_FLAG?ADC
            CODE    000AH     0001H     UNIT         ?PR?DRV_MCP401X_INIT?MCP401X
            CODE    000BH     0003H     ABSOLUTE     
            CODE    000EH     0003H     UNIT         ?PR?GLOBAL_INTERRUPT_ENABLE?MAIN
            CODE    0011H     0001H     UNIT         ?PR?SOFTI2CINIT?SOFT_IIC
                    0012H     0001H                  *** GAP ***
            CODE    0013H     0003H     ABSOLUTE     
            CODE    0016H     0022H     UNIT         ?PR?IND_VOLTAGE_UVLO?LT3741
            CODE    0038H     000AH     UNIT         ?PR?_ADC_START?ADC
                    0042H     0001H                  *** GAP ***
            CODE    0043H     0003H     ABSOLUTE     
            CODE    0046H     07F0H     UNIT         ?C?LIB_CODE
            CODE    0836H     0615H     UNIT         ?PR?_PWM_START?PWM
            CODE    0E4BH     0483H     UNIT         ?PR?PRINTF?PRINTF
            CODE    12CEH     02C3H     UNIT         ?PR?TASK_CONSTP_CHARGE?MAIN
            CODE    1591H     0181H     UNIT         ?CO?MAIN
            CODE    1712H     0126H     UNIT         ?PR?TASK_MOTOR_TEST?MAIN
            CODE    1838H     011CH     UNIT         ?PR?TASK_LED?MAIN
            CODE    1954H     00E0H     UNIT         ?PR?_PWM_FORCED?PWM
            CODE    1A34H     00C3H     UNIT         ?PR?MAIN?MAIN
            CODE    1AF7H     00B6H     UNIT         ?PR?_GPIO_INIT?GPIO
            CODE    1BADH     00B5H     UNIT         ?PR?TASK_ADC_PRINT?MAIN
            CODE    1C62H     008CH     UNIT         ?C_C51STARTUP
            CODE    1CEEH     0083H     UNIT         ?C_INITSEG
            CODE    1D71H     0083H     UNIT         ?PR?_GPIO_SETTING?GPIO
            CODE    1DF4H     007DH     UNIT         ?PR?ISR_INT0?INTERRUPT
            CODE    1E71H     006AH     UNIT         ?PR?TASK_PRINT_ENCODER?MAIN
            CODE    1EDBH     006AH     UNIT         ?PR?PORT_INIT?MAIN
            CODE    1F45H     0067H     UNIT         ?PR?ISR_INT1?INTERRUPT
            CODE    1FACH     005BH     UNIT         ?PR?_ADC_READ_VOLT?ADC
            CODE    2007H     0059H     UNIT         ?PR?ISR_T0?INTERRUPT
            CODE    2060H     0045H     UNIT         ?PR?_DELAY_MS?UTILS
            CODE    20A5H     0040H     UNIT         ?PR?_PWM_STOP?PWM
            CODE    20E5H     0036H     UNIT         ?PR?_SOFTI2CWRITE?SOFT_IIC
            CODE    211BH     0033H     UNIT         ?PR?SOFTI2CREADNAK?SOFT_IIC
            CODE    214EH     0033H     UNIT         ?PR?SOFTI2CREADACK?SOFT_IIC
BL51 BANKED LINKER/LOCATER V6.22                                                      06/26/2020  22:34:05  PAGE 3


            CODE    2181H     0031H     UNIT         ?PR?UART2ISR?MPU6050
            CODE    21B2H     0021H     UNIT         ?PR?UART2_TIMER2_INIT?UART
            CODE    21D3H     001CH     UNIT         ?PR?_SET_MCP401X_DATA?MCP401X
            CODE    21EFH     0015H     UNIT         ?PR?ADC_INIT?ADC
            CODE    2204H     0015H     UNIT         ?PR?SOFTI2CSTOP?SOFT_IIC
            CODE    2219H     0011H     UNIT         ?PR?UART_INIT?MAIN
            CODE    222AH     0011H     UNIT         ?PR?GET_SUPERCAP_VOLTAGE?LT3741
            CODE    223BH     0011H     UNIT         ?PR?ADC_GET_VAL?ADC
            CODE    224CH     0011H     UNIT         ?PR?SOFTI2CSTART?SOFT_IIC
            CODE    225DH     000FH     UNIT         ?PR?ENCODER_INIT?MAIN
            CODE    226CH     000EH     UNIT         ?PR?_PUTCHAR?MAIN
            CODE    227AH     000EH     UNIT         ?PR?T0_INTERRUPT_INIT?MAIN
            CODE    2288H     000EH     UNIT         ?PR?_PWM_INIT?PWM
            CODE    2296H     0009H     UNIT         ?PR?_ASSERT?UTILS
            CODE    229FH     0009H     UNIT         ?PR?DELAY1MS?UTILS
            CODE    22A8H     0008H     UNIT         ?PR?_UART_SEND_BYTE?MAIN
            CODE    22B0H     0003H     UNIT         ?PR?GLOBAL_INTERRUPT_DISABLE?MAIN
            CODE    22B3H     0003H     UNIT         ?PR?MPU6050_INIT?MPU6050



OVERLAY MAP OF MODULE:   .\Objects\freescale15 (MAIN)


SEGMENT                                      BIT_GROUP          DATA_GROUP          XDATA_GROUP
  +--> CALLED SEGMENT                     START    LENGTH     START    LENGTH     START    LENGTH
-------------------------------------------------------------------------------------------------
?C_C51STARTUP                             -----    -----      -----    -----      -----    -----
  +--> ?PR?MAIN?MAIN
  +--> ?C_INITSEG

?PR?MAIN?MAIN                             -----    -----      -----    -----      -----    -----
  +--> ?PR?PORT_INIT?MAIN
  +--> ?PR?UART_INIT?MAIN
  +--> ?PR?_PWM_INIT?PWM
  +--> ?PR?ADC_INIT?ADC
  +--> ?PR?ENCODER_INIT?MAIN
  +--> ?PR?_SET_MCP401X_DATA?MCP401X
  +--> ?PR?GLOBAL_INTERRUPT_ENABLE?MAIN
  +--> ?PR?_DELAY_MS?UTILS
  +--> ?PR?_PWM_START?PWM
  +--> ?PR?T0_INTERRUPT_INIT?MAIN
  +--> ?PR?TASK_PRINT_ENCODER?MAIN

?PR?PORT_INIT?MAIN                        -----    -----      -----    -----      -----    -----
  +--> ?PR?_GPIO_INIT?GPIO

?PR?ADC_INIT?ADC                          0020H.0  0000H.1    -----    -----      -----    -----

?PR?_SET_MCP401X_DATA?MCP401X             -----    -----      -----    -----      0041H    0001H
  +--> ?PR?SOFTI2CSTART?SOFT_IIC
  +--> ?PR?_SOFTI2CWRITE?SOFT_IIC
  +--> ?PR?SOFTI2CSTOP?SOFT_IIC

?PR?_SOFTI2CWRITE?SOFT_IIC                0020H.0  0000H.1    -----    -----      -----    -----

?PR?_DELAY_MS?UTILS                       -----    -----      -----    -----      0041H    0004H
BL51 BANKED LINKER/LOCATER V6.22                                                      06/26/2020  22:34:05  PAGE 4


  +--> ?PR?DELAY1MS?UTILS

?PR?_PWM_START?PWM                        -----    -----      -----    -----      0041H    0021H
  +--> ?PR?_PWM_FORCED?PWM

?PR?_PWM_FORCED?PWM                       -----    -----      -----    -----      0062H    0002H

?PR?TASK_PRINT_ENCODER?MAIN               -----    -----      -----    -----      -----    -----
  +--> ?CO?MAIN
  +--> ?PR?PRINTF?PRINTF

?PR?PRINTF?PRINTF                         0020H.0  0001H.1    0008H    0005H      0041H    0030H
  +--> ?PR?_PUTCHAR?MAIN

?PR?_PUTCHAR?MAIN                         -----    -----      -----    -----      0071H    0001H
  +--> ?PR?_UART_SEND_BYTE?MAIN



SYMBOL TABLE OF MODULE:  .\Objects\freescale15 (MAIN)

  VALUE           TYPE          NAME
  ----------------------------------

  -------         MODULE        MAIN
  C:0000H         SYMBOL        _ICE_DUMMY_
  D:0092H         PUBLIC        P1M0
  D:0091H         PUBLIC        P1M1
  D:0080H         PUBLIC        P0
  D:0090H         PUBLIC        P1
  D:00A0H         PUBLIC        P2
  C:22B0H         PUBLIC        global_interrupt_disable
  D:00B0H         PUBLIC        P3
  D:00C0H         PUBLIC        P4
  D:00C8H         PUBLIC        P5
  B:00A8H.7       PUBLIC        EA
  C:1E71H         PUBLIC        task_print_encoder
  D:00BAH         PUBLIC        P_SW2
  D:00A8H         PUBLIC        IE
  X:0033H         SYMBOL        supercap_volt
  C:000EH         PUBLIC        global_interrupt_enable
  B:00A8H.4       PUBLIC        ES
  D:00B8H         PUBLIC        IP
  B:0098H.1       PUBLIC        TI
  D:00D8H         PUBLIC        CCON
  C:1A34H         PUBLIC        main
  X:0037H         SYMBOL        charging_persent
  D:0099H         PUBLIC        SBUF
  D:0098H         PUBLIC        SCON
  D:0089H         PUBLIC        TMOD
  D:0088H         PUBLIC        TCON
  D:008EH         PUBLIC        AUXR
  B:00A8H.1       PUBLIC        ET0
  X:0039H         PUBLIC        encoder_counter
  C:1838H         PUBLIC        task_led
  D:008CH         PUBLIC        TH0
  B:00A8H.0       PUBLIC        EX0
BL51 BANKED LINKER/LOCATER V6.22                                                      06/26/2020  22:34:05  PAGE 5


  B:0088H.0       PUBLIC        IT0
  D:00D6H         PUBLIC        T2H
  B:00A8H.2       PUBLIC        EX1
  B:0088H.2       PUBLIC        IT1
  C:1BADH         PUBLIC        task_adc_print
  D:008AH         PUBLIC        TL0
  D:00D7H         PUBLIC        T2L
  C:2219H         PUBLIC        uart_init
  B:0088H.4       PUBLIC        TR0
  C:1EDBH         PUBLIC        port_init
  C:12CEH         PUBLIC        task_constP_charge
  D:00B7H         PUBLIC        IPH
  C:22A8H         PUBLIC        _uart_send_byte
  C:1712H         PUBLIC        task_motor_test
  C:227AH         PUBLIC        T0_interrupt_init
  X:003DH         PUBLIC        uw_tick
  D:00D0H         PUBLIC        PSW
  C:225DH         PUBLIC        encoder_init
  C:226CH         PUBLIC        _putchar
  -------         PROC          TASK_LED
  -------         DO            
  X:0000H         SYMBOL        task_interval
  X:0004H         SYMBOL        tick_reg
  -------         ENDDO         
  C:1838H         LINE#         62
  C:1838H         LINE#         63
  C:1838H         LINE#         66
  C:1876H         LINE#         67
  C:188AH         LINE#         71
  C:18A2H         LINE#         72
  C:18C9H         LINE#         74
  C:18DAH         LINE#         75
  C:18E0H         LINE#         76
  C:18F1H         LINE#         77
  C:18F5H         LINE#         78
  C:18F5H         LINE#         79
  C:18F5H         LINE#         81
  C:1927H         LINE#         82
  C:1953H         LINE#         83
  -------         ENDPROC       TASK_LED
  -------         PROC          TASK_CONSTP_CHARGE
  -------         DO            
  X:0008H         SYMBOL        task_interval
  X:000CH         SYMBOL        tick_reg
  X:0072H         SYMBOL        chargeP_want
  X:0076H         SYMBOL        supercap_amp_want
  B:0021H.5       SYMBOL        flag_print_at_start
  B:0021H.6       SYMBOL        flag_print_at_stop
  X:0010H         SYMBOL        mcpdata
  X:0012H         SYMBOL        mcpdata_reg
  X:0014H         SYMBOL        charging_persent_reg
  X:0015H         SYMBOL        start_time_tick
  -------         ENDDO         
  C:12CEH         LINE#         85
  C:12CEH         LINE#         86
  C:12CEH         LINE#         91
  C:12D8H         LINE#         93
BL51 BANKED LINKER/LOCATER V6.22                                                      06/26/2020  22:34:05  PAGE 6


  C:12E2H         LINE#         102
  C:1320H         LINE#         103
  C:1334H         LINE#         107
  C:137AH         LINE#         109
  C:139FH         LINE#         110
  C:13CCH         LINE#         112
  C:13D4H         LINE#         115
  C:13D7H         LINE#         116
  C:13D7H         LINE#         117
  C:13D9H         LINE#         118
  C:13F6H         LINE#         119
  C:140AH         LINE#         120
  C:140AH         LINE#         122
  C:142AH         LINE#         123
  C:142AH         LINE#         124
  C:142CH         LINE#         125
  C:1431H         LINE#         127
  C:144EH         LINE#         128
  C:1492H         LINE#         129
  C:1492H         LINE#         131
  C:149EH         LINE#         132
  C:149EH         LINE#         133
  C:14F2H         LINE#         134
  C:150AH         LINE#         135
  C:150AH         LINE#         136
  C:1518H         LINE#         137
  C:151BH         LINE#         138
  C:155BH         LINE#         139
  C:155BH         LINE#         141
  C:157AH         LINE#         142
  C:157AH         LINE#         143
  C:157FH         LINE#         144
  C:1590H         LINE#         145
  C:1590H         LINE#         147
  C:1590H         LINE#         151
  -------         ENDPROC       TASK_CONSTP_CHARGE
  -------         PROC          TASK_MOTOR_TEST
  -------         DO            
  X:0019H         SYMBOL        task_interval
  X:001DH         SYMBOL        tick_reg
  X:0021H         SYMBOL        counter
  -------         ENDDO         
  C:1712H         LINE#         154
  C:1712H         LINE#         155
  C:1712H         LINE#         160
  C:1750H         LINE#         161
  C:1764H         LINE#         165
  C:1779H         LINE#         166
  C:1779H         LINE#         167
  C:1781H         LINE#         168
  C:1781H         LINE#         176
  C:17A1H         LINE#         177
  C:17A1H         LINE#         178
  C:17A1H         LINE#         179
  C:17A1H         LINE#         180
  C:17B5H         LINE#         181
  C:17B5H         LINE#         182
BL51 BANKED LINKER/LOCATER V6.22                                                      06/26/2020  22:34:05  PAGE 7


  C:17B7H         LINE#         183
  C:17B7H         LINE#         184
  C:17B7H         LINE#         185
  C:17B7H         LINE#         186
  C:17CBH         LINE#         187
  C:17CBH         LINE#         188
  C:17CDH         LINE#         189
  C:17CDH         LINE#         190
  C:17CDH         LINE#         191
  C:17CDH         LINE#         192
  C:17F0H         LINE#         193
  C:1804H         LINE#         194
  C:1806H         LINE#         195
  C:1806H         LINE#         196
  C:1815H         LINE#         199
  C:1837H         LINE#         200
  C:1837H         LINE#         201
  C:1837H         LINE#         202
  C:1837H         LINE#         204
  -------         ENDPROC       TASK_MOTOR_TEST
  -------         PROC          TASK_ADC_PRINT
  -------         DO            
  X:0023H         SYMBOL        task_interval
  X:0027H         SYMBOL        tick_reg
  -------         ENDDO         
  C:1BADH         LINE#         207
  C:1BADH         LINE#         208
  C:1BADH         LINE#         212
  C:1BE8H         LINE#         213
  C:1BFCH         LINE#         218
  C:1C61H         LINE#         221
  -------         ENDPROC       TASK_ADC_PRINT
  -------         PROC          TASK_PRINT_ENCODER
  -------         DO            
  X:002BH         SYMBOL        task_interval
  X:002FH         SYMBOL        tick_reg
  -------         ENDDO         
  C:1E71H         LINE#         223
  C:1E71H         LINE#         224
  C:1E71H         LINE#         228
  C:1EACH         LINE#         229
  C:1EC0H         LINE#         233
  C:1EDAH         LINE#         234
  -------         ENDPROC       TASK_PRINT_ENCODER
  -------         PROC          _PUTCHAR
  X:0071H         SYMBOL        c
  C:226CH         LINE#         235
  C:2271H         LINE#         236
  C:2271H         LINE#         237
  C:2274H         LINE#         238
  C:2279H         LINE#         239
  -------         ENDPROC       _PUTCHAR
  -------         PROC          MAIN
  C:1A34H         LINE#         241
  C:1A34H         LINE#         242
  C:1A34H         LINE#         245
  C:1A37H         LINE#         246
BL51 BANKED LINKER/LOCATER V6.22                                                      06/26/2020  22:34:05  PAGE 8


  C:1A3AH         LINE#         247
  C:1A3FH         LINE#         248
  C:1A44H         LINE#         249
  C:1A49H         LINE#         251
  C:1A4EH         LINE#         252
  C:1A51H         LINE#         253
  C:1A56H         LINE#         254
  C:1A59H         LINE#         256
  C:1A64H         LINE#         258
  C:1A87H         LINE#         259
  C:1AAAH         LINE#         260
  C:1ACDH         LINE#         261
  C:1AEFH         LINE#         263
  C:1AF2H         LINE#         264
  C:1AF2H         LINE#         265
  C:1AF2H         LINE#         270
  C:1AF5H         LINE#         271
  -------         ENDPROC       MAIN
  -------         PROC          ENCODER_INIT
  C:225DH         LINE#         275
  C:225DH         LINE#         276
  C:225DH         LINE#         277
  C:225FH         LINE#         278
  C:2261H         LINE#         279
  C:2264H         LINE#         280
  C:2267H         LINE#         282
  C:2269H         LINE#         283
  C:226BH         LINE#         284
  -------         ENDPROC       ENCODER_INIT
  -------         PROC          T0_INTERRUPT_INIT
  C:227AH         LINE#         286
  C:227AH         LINE#         287
  C:227AH         LINE#         288
  C:227DH         LINE#         289
  C:2280H         LINE#         290
  C:2283H         LINE#         291
  C:2285H         LINE#         292
  C:2287H         LINE#         294
  -------         ENDPROC       T0_INTERRUPT_INIT
  -------         PROC          GLOBAL_INTERRUPT_ENABLE
  C:000EH         LINE#         297
  C:000EH         LINE#         298
  C:000EH         LINE#         299
  C:0010H         LINE#         300
  -------         ENDPROC       GLOBAL_INTERRUPT_ENABLE
  -------         PROC          GLOBAL_INTERRUPT_DISABLE
  C:22B0H         LINE#         302
  C:22B0H         LINE#         303
  C:22B0H         LINE#         304
  C:22B2H         LINE#         305
  -------         ENDPROC       GLOBAL_INTERRUPT_DISABLE
  -------         PROC          PORT_INIT
  C:1EDBH         LINE#         307
  C:1EDBH         LINE#         308
  C:1EDBH         LINE#         328
  C:1EDEH         LINE#         329
  C:1EE1H         LINE#         331
BL51 BANKED LINKER/LOCATER V6.22                                                      06/26/2020  22:34:05  PAGE 9


  C:1EE4H         LINE#         332
  C:1EE7H         LINE#         334
  C:1EEAH         LINE#         336
  C:1EF1H         LINE#         337
  C:1EF4H         LINE#         340
  C:1EFDH         LINE#         343
  C:1F06H         LINE#         344
  C:1F0FH         LINE#         345
  C:1F18H         LINE#         348
  C:1F21H         LINE#         349
  C:1F2AH         LINE#         350
  C:1F33H         LINE#         351
  C:1F3CH         LINE#         358
  -------         ENDPROC       PORT_INIT
  -------         PROC          UART_INIT
  C:2219H         LINE#         361
  C:2219H         LINE#         362
  C:2219H         LINE#         372
  C:221CH         LINE#         373
  C:221FH         LINE#         374
  C:2222H         LINE#         375
  C:2225H         LINE#         376
  C:2227H         LINE#         377
  C:2229H         LINE#         379
  -------         ENDPROC       UART_INIT
  -------         PROC          _UART_SEND_BYTE
  D:0007H         SYMBOL        dat
  C:22A8H         LINE#         382
  C:22A8H         LINE#         383
  C:22A8H         LINE#         384
  C:22AAH         LINE#         385
  C:22ADH         LINE#         386
  C:22AFH         LINE#         387
  -------         ENDPROC       _UART_SEND_BYTE
  -------         ENDMOD        MAIN

  -------         MODULE        INTERRUPT
  C:0000H         SYMBOL        _ICE_DUMMY_
  D:0080H         PUBLIC        P0
  D:0090H         PUBLIC        P1
  D:00A0H         PUBLIC        P2
  D:00B0H         PUBLIC        P3
  D:00C0H         PUBLIC        P4
  D:00C8H         PUBLIC        P5
  D:00A8H         PUBLIC        IE
  D:00B8H         PUBLIC        IP
  D:00D8H         PUBLIC        CCON
  C:1DF4H         PUBLIC        isr_int0
  C:1F45H         PUBLIC        isr_int1
  D:0098H         PUBLIC        SCON
  D:0088H         PUBLIC        TCON
  B:0080H.5       PUBLIC        P05
  B:00B0H.4       PUBLIC        P34
  C:2007H         PUBLIC        isr_t0
  D:00D0H         PUBLIC        PSW
  -------         PROC          ISR_INT0
  C:1DF4H         LINE#         4
BL51 BANKED LINKER/LOCATER V6.22                                                      06/26/2020  22:34:05  PAGE 10


  C:1E16H         LINE#         6
  C:1E27H         LINE#         7
  C:1E39H         LINE#         9
  C:1E4FH         LINE#         10
  C:1E51H         LINE#         12
  -------         ENDPROC       ISR_INT0
  -------         PROC          ISR_T0
  C:2007H         LINE#         14
  C:2025H         LINE#         16
  C:2044H         LINE#         17
  -------         ENDPROC       ISR_T0
  -------         PROC          ISR_INT1
  C:1F45H         LINE#         19
  C:1F67H         LINE#         21
  C:1F8CH         LINE#         22
  -------         ENDPROC       ISR_INT1
  -------         ENDMOD        INTERRUPT

  -------         MODULE        MPU6050
  C:0000H         SYMBOL        _ICE_DUMMY_
  D:0080H         PUBLIC        P0
  C:2181H         PUBLIC        Uart2Isr
  D:0090H         PUBLIC        P1
  D:00A0H         PUBLIC        P2
  D:00B0H         PUBLIC        P3
  D:00C0H         PUBLIC        P4
  D:00C8H         PUBLIC        P5
  D:00A8H         PUBLIC        IE
  D:00B8H         PUBLIC        IP
  D:00D8H         PUBLIC        CCON
  D:0098H         PUBLIC        SCON
  X:007DH         PUBLIC        ypr_x
  D:0088H         PUBLIC        TCON
  C:22B3H         PUBLIC        mpu6050_init
  D:009BH         PUBLIC        S2BUF
  D:009AH         PUBLIC        S2CON
  D:00D0H         PUBLIC        PSW
  -------         PROC          MPU6050_INIT
  C:22B3H         LINE#         4
  C:22B3H         LINE#         5
  C:22B3H         LINE#         6
  -------         ENDPROC       MPU6050_INIT
  -------         PROC          UART2ISR
  C:2181H         LINE#         10
  C:218EH         LINE#         12
  C:2193H         LINE#         13
  C:2193H         LINE#         14
  C:2196H         LINE#         16
  C:2196H         LINE#         17
  C:219BH         LINE#         18
  C:219BH         LINE#         19
  C:219EH         LINE#         20
  C:21A4H         LINE#         22
  C:21A4H         LINE#         23
  -------         ENDPROC       UART2ISR
  -------         ENDMOD        MPU6050

BL51 BANKED LINKER/LOCATER V6.22                                                      06/26/2020  22:34:05  PAGE 11


  -------         MODULE        MCP401X
  C:0000H         SYMBOL        _ICE_DUMMY_
  D:0080H         PUBLIC        P0
  D:0090H         PUBLIC        P1
  D:00A0H         PUBLIC        P2
  D:00B0H         PUBLIC        P3
  D:00C0H         PUBLIC        P4
  D:00C8H         PUBLIC        P5
  D:00A8H         PUBLIC        IE
  C:000AH         PUBLIC        drv_mcp401x_init
  D:00B8H         PUBLIC        IP
  D:00D8H         PUBLIC        CCON
  D:0098H         PUBLIC        SCON
  D:0088H         PUBLIC        TCON
  D:00D0H         PUBLIC        PSW
  C:21D3H         PUBLIC        _set_mcp401x_data
  -------         PROC          DRV_MCP401X_INIT
  C:000AH         LINE#         6
  C:000AH         LINE#         7
  C:000AH         LINE#         9
  -------         ENDPROC       DRV_MCP401X_INIT
  -------         PROC          _SET_MCP401X_DATA
  X:0041H         SYMBOL        _data
  C:21D3H         LINE#         19
  C:21D8H         LINE#         20
  C:21D8H         LINE#         21
  C:21D8H         LINE#         22
  C:21DBH         LINE#         23
  C:21E2H         LINE#         24
  C:21E2H         LINE#         25
  C:21E2H         LINE#         26
  C:21E2H         LINE#         27
  C:21E5H         LINE#         28
  C:21E7H         LINE#         29
  -------         ENDPROC       _SET_MCP401X_DATA
  -------         ENDMOD        MCP401X

  -------         MODULE        LT3741
  C:0000H         SYMBOL        _ICE_DUMMY_
  D:0080H         PUBLIC        P0
  D:0090H         PUBLIC        P1
  D:00A0H         PUBLIC        P2
  D:00B0H         PUBLIC        P3
  D:00C0H         PUBLIC        P4
  D:00C8H         PUBLIC        P5
  D:00A8H         PUBLIC        IE
  D:00B8H         PUBLIC        IP
  D:00D8H         PUBLIC        CCON
  D:0098H         PUBLIC        SCON
  D:0088H         PUBLIC        TCON
  C:0016H         PUBLIC        ind_voltage_uvlo
  C:222AH         PUBLIC        get_supercap_voltage
  D:00D0H         PUBLIC        PSW
  -------         PROC          GET_SUPERCAP_VOLTAGE
  C:222AH         LINE#         5
  C:222AH         LINE#         6
  C:222AH         LINE#         7
BL51 BANKED LINKER/LOCATER V6.22                                                      06/26/2020  22:34:05  PAGE 12


  C:223AH         LINE#         8
  -------         ENDPROC       GET_SUPERCAP_VOLTAGE
  -------         PROC          IND_VOLTAGE_UVLO
  C:0016H         LINE#         11
  C:0016H         LINE#         12
  C:0016H         LINE#         13
  C:0037H         LINE#         14
  -------         ENDPROC       IND_VOLTAGE_UVLO
  -------         ENDMOD        LT3741

  -------         MODULE        ADC
  C:0000H         SYMBOL        _ICE_DUMMY_
  D:0080H         PUBLIC        P0
  D:0090H         PUBLIC        P1
  D:00A0H         PUBLIC        P2
  D:00B0H         PUBLIC        P3
  D:00C0H         PUBLIC        P4
  D:00C8H         PUBLIC        P5
  D:00A8H         PUBLIC        IE
  C:0006H         PUBLIC        adc_clear_flag
  D:00BDH         PUBLIC        ADC_RES
  D:00B8H         PUBLIC        IP
  D:00DEH         PUBLIC        ADCCFG
  D:00D8H         PUBLIC        CCON
  D:00BCH         PUBLIC        ADC_CONTR
  D:0098H         PUBLIC        SCON
  D:0088H         PUBLIC        TCON
  C:0038H         PUBLIC        _adc_start
  C:21EFH         PUBLIC        adc_init
  C:1FACH         PUBLIC        _adc_read_volt
  D:00BEH         PUBLIC        ADC_RESL
  C:223BH         PUBLIC        adc_get_val
  D:00D0H         PUBLIC        PSW
  -------         PROC          ADC_INIT
  B:0020H.0       SYMBOL        open
  C:21EFH         LINE#         7
  C:21EFH         LINE#         8
  C:21EFH         LINE#         9
  C:21F2H         LINE#         10
  C:21FDH         LINE#         12
  C:2200H         LINE#         13
  C:2203H         LINE#         14
  C:2203H         LINE#         16
  -------         ENDPROC       ADC_INIT
  -------         PROC          _ADC_READ_VOLT
  X:007AH         SYMBOL        channel
  -------         DO            
  X:007BH         SYMBOL        adcval1
  D:0006H         SYMBOL        adcval2
  -------         ENDDO         
  C:1FACH         LINE#         23
  C:1FB1H         LINE#         24
  C:1FB1H         LINE#         26
  C:1FB6H         LINE#         27
  C:1FC1H         LINE#         28
  C:1FC9H         LINE#         29
  C:1FCCH         LINE#         30
BL51 BANKED LINKER/LOCATER V6.22                                                      06/26/2020  22:34:05  PAGE 13


  C:2006H         LINE#         31
  -------         ENDPROC       _ADC_READ_VOLT
  -------         PROC          _ADC_START
  D:0007H         SYMBOL        channel
  C:0038H         LINE#         39
  C:0038H         LINE#         40
  C:0038H         LINE#         41
  C:003BH         LINE#         42
  C:003EH         LINE#         43
  C:0041H         LINE#         44
  -------         ENDPROC       _ADC_START
  -------         PROC          ADC_GET_VAL
  C:223BH         LINE#         51
  C:223BH         LINE#         52
  C:223BH         LINE#         54
  C:2240H         LINE#         55
  C:2243H         LINE#         56
  C:224BH         LINE#         57
  -------         ENDPROC       ADC_GET_VAL
  -------         PROC          ADC_CLEAR_FLAG
  C:0006H         LINE#         60
  C:0006H         LINE#         61
  C:0006H         LINE#         62
  C:0009H         LINE#         63
  -------         ENDPROC       ADC_CLEAR_FLAG
  -------         ENDMOD        ADC

  -------         MODULE        GPIO
  C:0000H         SYMBOL        _ICE_DUMMY_
  D:0093H         PUBLIC        P0M1
  D:0092H         PUBLIC        P1M0
  D:0096H         PUBLIC        P2M0
  D:0091H         PUBLIC        P1M1
  D:0080H         PUBLIC        P0
  D:00B2H         PUBLIC        P3M0
  D:0095H         PUBLIC        P2M1
  D:0090H         PUBLIC        P1
  D:00B4H         PUBLIC        P4M0
  D:00B1H         PUBLIC        P3M1
  D:00A0H         PUBLIC        P2
  D:00CAH         PUBLIC        P5M0
  D:00B3H         PUBLIC        P4M1
  D:00B0H         PUBLIC        P3
  D:00C9H         PUBLIC        P5M1
  D:00C0H         PUBLIC        P4
  D:00C8H         PUBLIC        P5
  D:00BAH         PUBLIC        P_SW2
  D:00A8H         PUBLIC        IE
  C:1D71H         PUBLIC        _gpio_setting
  D:00B8H         PUBLIC        IP
  D:00D8H         PUBLIC        CCON
  D:0098H         PUBLIC        SCON
  D:0088H         PUBLIC        TCON
  C:1AF7H         PUBLIC        _gpio_init
  D:00D0H         PUBLIC        PSW
  D:0094H         PUBLIC        P0M0
  -------         PROC          _GPIO_INIT
BL51 BANKED LINKER/LOCATER V6.22                                                      06/26/2020  22:34:05  PAGE 14


  D:0007H         SYMBOL        group
  D:0005H         SYMBOL        pin
  D:0003H         SYMBOL        mode
  C:1AF7H         LINE#         14
  C:1AF7H         LINE#         15
  C:1AF7H         LINE#         16
  C:1B11H         LINE#         17
  C:1B11H         LINE#         18
  C:1B11H         LINE#         19
  C:1B15H         LINE#         20
  C:1B1AH         LINE#         22
  C:1B1AH         LINE#         23
  C:1B1EH         LINE#         24
  C:1B1EH         LINE#         25
  C:1B22H         LINE#         26
  C:1B26H         LINE#         28
  C:1B26H         LINE#         29
  C:1B2AH         LINE#         30
  C:1B2AH         LINE#         31
  C:1B2BH         LINE#         33
  C:1B2BH         LINE#         34
  C:1B2FH         LINE#         35
  C:1B34H         LINE#         37
  C:1B34H         LINE#         38
  C:1B38H         LINE#         39
  C:1B38H         LINE#         40
  C:1B3CH         LINE#         41
  C:1B40H         LINE#         43
  C:1B40H         LINE#         44
  C:1B44H         LINE#         45
  C:1B44H         LINE#         46
  C:1B45H         LINE#         48
  C:1B45H         LINE#         49
  C:1B49H         LINE#         50
  C:1B4EH         LINE#         52
  C:1B4EH         LINE#         53
  C:1B52H         LINE#         54
  C:1B52H         LINE#         55
  C:1B56H         LINE#         56
  C:1B5AH         LINE#         58
  C:1B5AH         LINE#         59
  C:1B5EH         LINE#         60
  C:1B5EH         LINE#         61
  C:1B5FH         LINE#         63
  C:1B5FH         LINE#         64
  C:1B63H         LINE#         65
  C:1B68H         LINE#         67
  C:1B68H         LINE#         68
  C:1B6CH         LINE#         69
  C:1B6CH         LINE#         70
  C:1B70H         LINE#         71
  C:1B74H         LINE#         73
  C:1B74H         LINE#         74
  C:1B78H         LINE#         75
  C:1B78H         LINE#         76
  C:1B79H         LINE#         78
  C:1B79H         LINE#         79
BL51 BANKED LINKER/LOCATER V6.22                                                      06/26/2020  22:34:05  PAGE 15


  C:1B7DH         LINE#         80
  C:1B82H         LINE#         82
  C:1B82H         LINE#         83
  C:1B86H         LINE#         84
  C:1B86H         LINE#         85
  C:1B8AH         LINE#         86
  C:1B8EH         LINE#         88
  C:1B8EH         LINE#         89
  C:1B92H         LINE#         90
  C:1B92H         LINE#         91
  C:1B93H         LINE#         93
  C:1B93H         LINE#         94
  C:1B97H         LINE#         95
  C:1B9CH         LINE#         97
  C:1B9CH         LINE#         98
  C:1BA0H         LINE#         99
  C:1BA0H         LINE#         100
  C:1BA4H         LINE#         101
  C:1BA8H         LINE#         103
  C:1BA8H         LINE#         104
  C:1BACH         LINE#         105
  C:1BACH         LINE#         106
  C:1BACH         LINE#         108
  C:1BACH         LINE#         109
  -------         ENDPROC       _GPIO_INIT
  -------         PROC          _GPIO_SETTING
  D:0007H         SYMBOL        group
  D:0005H         SYMBOL        pin
  B:0021H.1       SYMBOL        pu
  B:0021H.2       SYMBOL        schmitt
  B:0021H.3       SYMBOL        sr
  B:0021H.4       SYMBOL        dr
  C:1D71H         LINE#         119
  C:1D71H         LINE#         120
  C:1D71H         LINE#         121
  C:1D74H         LINE#         123
  C:1D7EH         LINE#         124
  C:1D87H         LINE#         126
  C:1D93H         LINE#         129
  C:1D9DH         LINE#         130
  C:1DA6H         LINE#         132
  C:1DB2H         LINE#         135
  C:1DBCH         LINE#         136
  C:1DC5H         LINE#         138
  C:1DD1H         LINE#         141
  C:1DDBH         LINE#         142
  C:1DE4H         LINE#         144
  C:1DF0H         LINE#         146
  C:1DF3H         LINE#         148
  -------         ENDPROC       _GPIO_SETTING
  -------         ENDMOD        GPIO

  -------         MODULE        PWM
  C:0000H         SYMBOL        _ICE_DUMMY_
  C:20A5H         PUBLIC        _pwm_stop
  D:0080H         PUBLIC        P0
  D:0090H         PUBLIC        P1
BL51 BANKED LINKER/LOCATER V6.22                                                      06/26/2020  22:34:05  PAGE 16


  D:00A0H         PUBLIC        P2
  D:00B0H         PUBLIC        P3
  D:00C0H         PUBLIC        P4
  D:00C8H         PUBLIC        P5
  D:00BAH         PUBLIC        P_SW2
  D:00A8H         PUBLIC        IE
  D:00B8H         PUBLIC        IP
  D:00D8H         PUBLIC        CCON
  D:00F6H         PUBLIC        PWMCFG01
  D:00F7H         PUBLIC        PWMCFG23
  C:1954H         PUBLIC        _pwm_forced
  D:00FEH         PUBLIC        PWMCFG45
  D:0098H         PUBLIC        SCON
  D:0088H         PUBLIC        TCON
  D:00F1H         PUBLIC        PWMSET
  C:0836H         PUBLIC        _pwm_start
  C:2288H         PUBLIC        _pwm_init
  D:00D0H         PUBLIC        PSW
  -------         PROC          _PWM_INIT
  D:0007H         SYMBOL        group
  C:2288H         LINE#         3
  C:2288H         LINE#         4
  C:2288H         LINE#         7
  C:2295H         LINE#         8
  -------         ENDPROC       _PWM_INIT
  -------         PROC          _PWM_FORCED
  D:0001H         SYMBOL        group
  X:0062H         SYMBOL        pin
  X:0063H         SYMBOL        sta
  C:1954H         LINE#         16
  C:195EH         LINE#         17
  C:195EH         LINE#         18
  C:1961H         LINE#         19
  C:1967H         LINE#         20
  C:1967H         LINE#         21
  C:1995H         LINE#         22
  C:19A6H         LINE#         23
  C:19A8H         LINE#         25
  C:19A8H         LINE#         26
  C:19E0H         LINE#         27
  C:1A05H         LINE#         28
  C:1A05H         LINE#         29
  C:1A08H         LINE#         31
  C:1A1CH         LINE#         32
  C:1A1CH         LINE#         33
  C:1A1CH         LINE#         34
  C:1A1FH         LINE#         35
  C:1A20H         LINE#         36
  C:1A20H         LINE#         37
  C:1A23H         LINE#         38
  C:1A24H         LINE#         39
  C:1A24H         LINE#         40
  C:1A27H         LINE#         41
  C:1A28H         LINE#         42
  C:1A28H         LINE#         43
  C:1A2BH         LINE#         44
  C:1A2CH         LINE#         45
BL51 BANKED LINKER/LOCATER V6.22                                                      06/26/2020  22:34:05  PAGE 17


  C:1A2CH         LINE#         46
  C:1A2FH         LINE#         47
  C:1A30H         LINE#         48
  C:1A30H         LINE#         49
  C:1A33H         LINE#         50
  C:1A33H         LINE#         52
  C:1A33H         LINE#         53
  C:1A33H         LINE#         54
  C:1A33H         LINE#         56
  -------         ENDPROC       _PWM_FORCED
  -------         PROC          _PWM_START
  X:0041H         SYMBOL        group
  X:0042H         SYMBOL        pin
  X:0043H         SYMBOL        freq
  X:0047H         SYMBOL        duty
  X:004BH         SYMBOL        dead
  X:004CH         SYMBOL        polarity
  -------         DO            
  X:004DH         SYMBOL        PWM_SYSCLKDIV
  X:004EH         SYMBOL        cnt_freq_temp
  X:0052H         SYMBOL        cnt_freq
  X:0056H         SYMBOL        cnt_duty_low
  X:005AH         SYMBOL        cnt_duty_high
  X:005EH         SYMBOL        temp
  -------         ENDDO         
  C:0836H         LINE#         68
  C:083EH         LINE#         69
  C:083EH         LINE#         71
  C:0844H         LINE#         72
  C:084CH         LINE#         74
  C:0856H         LINE#         75
  C:0860H         LINE#         76
  C:086AH         LINE#         77
  C:0874H         LINE#         79
  C:0893H         LINE#         80
  C:0895H         LINE#         81
  C:08B3H         LINE#         82
  C:08B5H         LINE#         83
  C:08D6H         LINE#         84
  C:08E2H         LINE#         85
  C:0902H         LINE#         86
  C:090FH         LINE#         88
  C:090FH         LINE#         93
  C:090FH         LINE#         94
  C:0915H         LINE#         95
  C:094BH         LINE#         96
  C:096EH         LINE#         97
  C:0980H         LINE#         104
  C:09B7H         LINE#         105
  C:0A13H         LINE#         106
  C:0A37H         LINE#         109
  C:0A40H         LINE#         110
  C:0A40H         LINE#         111
  C:0A8DH         LINE#         112
  C:0AC3H         LINE#         113
  C:0AC6H         LINE#         114
  C:0AD1H         LINE#         115
BL51 BANKED LINKER/LOCATER V6.22                                                      06/26/2020  22:34:05  PAGE 18


  C:0AD1H         LINE#         116
  C:0B0DH         LINE#         117
  C:0B5BH         LINE#         118
  C:0B5BH         LINE#         123
  C:0B5EH         LINE#         125
  C:0B6AH         LINE#         126
  C:0B6AH         LINE#         127
  C:0B8BH         LINE#         129
  C:0BAAH         LINE#         130
  C:0BC6H         LINE#         132
  C:0BD8H         LINE#         133
  C:0BDAH         LINE#         135
  C:0C0FH         LINE#         136
  C:0C3AH         LINE#         137
  C:0C5AH         LINE#         138
  C:0C83H         LINE#         140
  C:0C93H         LINE#         141
  C:0C96H         LINE#         143
  C:0C96H         LINE#         144
  C:0CBFH         LINE#         146
  C:0CECH         LINE#         147
  C:0D0CH         LINE#         149
  C:0D1EH         LINE#         150
  C:0D20H         LINE#         152
  C:0D58H         LINE#         153
  C:0D89H         LINE#         154
  C:0DC3H         LINE#         155
  C:0DF4H         LINE#         157
  C:0E19H         LINE#         158
  C:0E19H         LINE#         159
  C:0E1CH         LINE#         161
  C:0E33H         LINE#         162
  C:0E33H         LINE#         163
  C:0E33H         LINE#         164
  C:0E36H         LINE#         165
  C:0E37H         LINE#         166
  C:0E37H         LINE#         167
  C:0E3AH         LINE#         168
  C:0E3BH         LINE#         169
  C:0E3BH         LINE#         170
  C:0E3EH         LINE#         171
  C:0E3FH         LINE#         172
  C:0E3FH         LINE#         173
  C:0E42H         LINE#         174
  C:0E43H         LINE#         175
  C:0E43H         LINE#         176
  C:0E46H         LINE#         177
  C:0E47H         LINE#         178
  C:0E47H         LINE#         179
  C:0E4AH         LINE#         180
  C:0E4AH         LINE#         182
  C:0E4AH         LINE#         183
  C:0E4AH         LINE#         184
  C:0E4AH         LINE#         185
  -------         ENDPROC       _PWM_START
  -------         PROC          _PWM_STOP
  D:0007H         SYMBOL        group
BL51 BANKED LINKER/LOCATER V6.22                                                      06/26/2020  22:34:05  PAGE 19


  D:0003H         SYMBOL        pin
  C:20A5H         LINE#         193
  C:20A7H         LINE#         194
  C:20A7H         LINE#         195
  C:20AAH         LINE#         197
  C:20B0H         LINE#         198
  C:20B0H         LINE#         199
  C:20BCH         LINE#         200
  C:20BEH         LINE#         202
  C:20BEH         LINE#         203
  C:20E1H         LINE#         204
  C:20E1H         LINE#         205
  C:20E4H         LINE#         206
  -------         ENDPROC       _PWM_STOP
  -------         ENDMOD        PWM

  -------         MODULE        SOFT_IIC
  C:0000H         SYMBOL        _ICE_DUMMY_
  D:0080H         PUBLIC        P0
  D:0090H         PUBLIC        P1
  B:0090H.5       PUBLIC        I2C_SCL
  D:00A0H         PUBLIC        P2
  D:00B0H         PUBLIC        P3
  D:00C0H         PUBLIC        P4
  D:00C8H         PUBLIC        P5
  C:2204H         PUBLIC        SoftI2CStop
  D:00A8H         PUBLIC        IE
  D:00B8H         PUBLIC        IP
  D:00D8H         PUBLIC        CCON
  C:214EH         PUBLIC        SoftI2CReadACK
  D:0098H         PUBLIC        SCON
  D:0088H         PUBLIC        TCON
  C:211BH         PUBLIC        SoftI2CReadNAK
  C:20E5H         PUBLIC        _SoftI2CWrite
  C:224CH         PUBLIC        SoftI2CStart
  C:0011H         PUBLIC        SoftI2CInit
  B:0090H.4       PUBLIC        I2C_SDA
  D:00D0H         PUBLIC        PSW
  -------         PROC          SOFTI2CINIT
  C:0011H         LINE#         23
  C:0011H         LINE#         24
  C:0011H         LINE#         26
  -------         ENDPROC       SOFTI2CINIT
  -------         PROC          SOFTI2CSTART
  C:224CH         LINE#         29
  C:224CH         LINE#         30
  C:224CH         LINE#         31
  C:224EH         LINE#         32
  C:2250H         LINE#         33
  C:2254H         LINE#         34
  C:2256H         LINE#         35
  C:225AH         LINE#         36
  C:225CH         LINE#         37
  -------         ENDPROC       SOFTI2CSTART
  -------         PROC          SOFTI2CSTOP
  C:2204H         LINE#         39
  C:2204H         LINE#         40
BL51 BANKED LINKER/LOCATER V6.22                                                      06/26/2020  22:34:05  PAGE 20


  C:2204H         LINE#         41
  C:2206H         LINE#         42
  C:2208H         LINE#         43
  C:220CH         LINE#         44
  C:220EH         LINE#         45
  C:2212H         LINE#         46
  C:2214H         LINE#         47
  C:2218H         LINE#         48
  -------         ENDPROC       SOFTI2CSTOP
  -------         PROC          _SOFTI2CWRITE
  D:0007H         SYMBOL        dat
  -------         DO            
  B:0020H.0       SYMBOL        ack
  D:0006H         SYMBOL        mask
  -------         ENDDO         
  C:20E5H         LINE#         50
  C:20E5H         LINE#         51
  C:20E5H         LINE#         55
  C:20EAH         LINE#         56
  C:20EAH         LINE#         57
  C:20EDH         LINE#         58
  C:20F1H         LINE#         60
  C:20F3H         LINE#         61
  C:20F7H         LINE#         62
  C:20F9H         LINE#         63
  C:20FDH         LINE#         64
  C:20FFH         LINE#         65
  C:2105H         LINE#         66
  C:2107H         LINE#         67
  C:210BH         LINE#         68
  C:210DH         LINE#         69
  C:2111H         LINE#         70
  C:2115H         LINE#         71
  C:2117H         LINE#         73
  C:211AH         LINE#         75
  -------         ENDPROC       _SOFTI2CWRITE
  -------         PROC          SOFTI2CREADNAK
  -------         DO            
  D:0006H         SYMBOL        mask
  D:0007H         SYMBOL        dat
  -------         ENDDO         
  C:211BH         LINE#         77
  C:211BH         LINE#         78
  C:211BH         LINE#         82
  C:211DH         LINE#         83
  C:2122H         LINE#         84
  C:2122H         LINE#         85
  C:2126H         LINE#         86
  C:2128H         LINE#         87
  C:212BH         LINE#         88
  C:2130H         LINE#         90
  C:2133H         LINE#         91
  C:2137H         LINE#         92
  C:2139H         LINE#         93
  C:213FH         LINE#         94
  C:2141H         LINE#         95
  C:2145H         LINE#         96
BL51 BANKED LINKER/LOCATER V6.22                                                      06/26/2020  22:34:05  PAGE 21


  C:2147H         LINE#         97
  C:214BH         LINE#         98
  C:214DH         LINE#         100
  C:214DH         LINE#         101
  -------         ENDPROC       SOFTI2CREADNAK
  -------         PROC          SOFTI2CREADACK
  -------         DO            
  D:0006H         SYMBOL        mask
  D:0007H         SYMBOL        dat
  -------         ENDDO         
  C:214EH         LINE#         103
  C:214EH         LINE#         104
  C:214EH         LINE#         108
  C:2150H         LINE#         109
  C:2155H         LINE#         110
  C:2155H         LINE#         111
  C:2159H         LINE#         112
  C:215BH         LINE#         113
  C:215EH         LINE#         114
  C:2163H         LINE#         116
  C:2166H         LINE#         117
  C:216AH         LINE#         118
  C:216CH         LINE#         119
  C:2172H         LINE#         120
  C:2174H         LINE#         121
  C:2178H         LINE#         122
  C:217AH         LINE#         123
  C:217EH         LINE#         124
  C:2180H         LINE#         126
  C:2180H         LINE#         127
  -------         ENDPROC       SOFTI2CREADACK
  -------         ENDMOD        SOFT_IIC

  -------         MODULE        UART
  C:0000H         SYMBOL        _ICE_DUMMY_
  D:0080H         PUBLIC        P0
  D:0090H         PUBLIC        P1
  D:00B4H         PUBLIC        P4M0
  D:00A0H         PUBLIC        P2
  D:00B3H         PUBLIC        P4M1
  D:00B0H         PUBLIC        P3
  D:00C0H         PUBLIC        P4
  D:00C8H         PUBLIC        P5
  B:00A8H.7       PUBLIC        EA
  D:00BAH         PUBLIC        P_SW2
  D:00A8H         PUBLIC        IE
  D:00B8H         PUBLIC        IP
  D:00D8H         PUBLIC        CCON
  D:0098H         PUBLIC        SCON
  D:0088H         PUBLIC        TCON
  C:21B2H         PUBLIC        uart2_timer2_init
  D:00AFH         PUBLIC        IE2
  D:008EH         PUBLIC        AUXR
  D:00D6H         PUBLIC        T2H
  D:00D7H         PUBLIC        T2L
  D:009AH         PUBLIC        S2CON
  D:00D0H         PUBLIC        PSW
BL51 BANKED LINKER/LOCATER V6.22                                                      06/26/2020  22:34:05  PAGE 22


  -------         PROC          UART2_TIMER2_INIT
  C:21B2H         LINE#         3
  C:21B2H         LINE#         4
  C:21B2H         LINE#         23
  C:21B5H         LINE#         24
  C:21B8H         LINE#         25
  C:21BBH         LINE#         27
  C:21BEH         LINE#         28
  C:21C1H         LINE#         29
  C:21C4H         LINE#         30
  C:21C7H         LINE#         32
  C:21CAH         LINE#         34
  C:21CDH         LINE#         35
  C:21D0H         LINE#         36
  C:21D2H         LINE#         37
  -------         ENDPROC       UART2_TIMER2_INIT
  -------         ENDMOD        UART

  -------         MODULE        UTILS
  C:0000H         SYMBOL        _ICE_DUMMY_
  C:229FH         PUBLIC        Delay1ms
  C:2060H         PUBLIC        _delay_ms
  C:2296H         PUBLIC        _ASSERT
  -------         PROC          _ASSERT
  D:0004H         SYMBOL        expr
  C:2296H         LINE#         4
  C:2296H         LINE#         5
  C:2296H         LINE#         6
  C:229DH         LINE#         9
  -------         ENDPROC       _ASSERT
  -------         PROC          DELAY1MS
  -------         DO            
  D:0007H         SYMBOL        i
  D:0006H         SYMBOL        j
  -------         ENDDO         
  C:229FH         LINE#         13
  C:229FH         LINE#         14
  C:229FH         LINE#         17
  C:22A1H         LINE#         18
  C:22A3H         LINE#         20
  C:22A3H         LINE#         21
  C:22A5H         LINE#         22
  C:22A7H         LINE#         23
  -------         ENDPROC       DELAY1MS
  -------         PROC          _DELAY_MS
  X:0041H         SYMBOL        ms
  C:2060H         LINE#         25
  C:2060H         LINE#         26
  C:2060H         LINE#         27
  C:207BH         LINE#         28
  C:207BH         LINE#         29
  C:207EH         LINE#         30
  C:20A4H         LINE#         31
  -------         ENDPROC       _DELAY_MS
  -------         ENDMOD        UTILS

  -------         MODULE        ?C?FPADD
BL51 BANKED LINKER/LOCATER V6.22                                                      06/26/2020  22:34:05  PAGE 23


  C:004DH         PUBLIC        ?C?FPADD
  C:0049H         PUBLIC        ?C?FPSUB
  -------         ENDMOD        ?C?FPADD

  -------         MODULE        ?C?FPMUL
  C:013EH         PUBLIC        ?C?FPMUL
  -------         ENDMOD        ?C?FPMUL

  -------         MODULE        ?C?FPDIV
  C:0247H         PUBLIC        ?C?FPDIV
  -------         ENDMOD        ?C?FPDIV

  -------         MODULE        ?C?FPCMP
  C:02E6H         PUBLIC        ?C?FPCMP
  C:02E4H         PUBLIC        ?C?FPCMP3
  -------         ENDMOD        ?C?FPCMP

  -------         MODULE        ?C?FCAST
  C:0367H         PUBLIC        ?C?FCASTC
  C:0362H         PUBLIC        ?C?FCASTI
  C:035DH         PUBLIC        ?C?FCASTL
  -------         ENDMOD        ?C?FCAST

  -------         MODULE        ?C?CASTF
  C:039BH         PUBLIC        ?C?CASTF
  -------         ENDMOD        ?C?CASTF

  -------         MODULE        PRINTF
  X:0041H         PUBLIC        ?_PRINTF?BYTE
  X:0041H         PUBLIC        ?_SPRINTF?BYTE
  C:0EB6H         PUBLIC        _PRINTF
  C:0EB0H         PUBLIC        _SPRINTF
  -------         ENDMOD        PRINTF

  -------         MODULE        ?C?FPROUND
  C:041CH         PUBLIC        ?C?FPROUND
  -------         ENDMOD        ?C?FPROUND

  -------         MODULE        ?C?FPCONVERT
  C:0459H         PUBLIC        ?C?FPCONVERT
  -------         ENDMOD        ?C?FPCONVERT

  -------         MODULE        ?C?FTNPWR
  C:058EH         PUBLIC        ?C?FTNPWR
  -------         ENDMOD        ?C?FTNPWR

  -------         MODULE        ?C?CLDPTR
  C:05CEH         PUBLIC        ?C?CLDPTR
  -------         ENDMOD        ?C?CLDPTR

  -------         MODULE        ?C?CLDOPTR
  C:05E7H         PUBLIC        ?C?CLDOPTR
  -------         ENDMOD        ?C?CLDOPTR

  -------         MODULE        ?C?CSTPTR
  C:0614H         PUBLIC        ?C?CSTPTR
  -------         ENDMOD        ?C?CSTPTR
BL51 BANKED LINKER/LOCATER V6.22                                                      06/26/2020  22:34:05  PAGE 24



  -------         MODULE        ?C?IMUL
  C:0626H         PUBLIC        ?C?IMUL
  -------         ENDMOD        ?C?IMUL

  -------         MODULE        ?C?IILDX
  C:0638H         PUBLIC        ?C?IILDX
  -------         ENDMOD        ?C?IILDX

  -------         MODULE        ?C?LMUL
  C:064EH         PUBLIC        ?C?LMUL
  -------         ENDMOD        ?C?LMUL

  -------         MODULE        ?C?ULDIV
  C:06D9H         PUBLIC        ?C?ULDIV
  -------         ENDMOD        ?C?ULDIV

  -------         MODULE        ?C?LNEG
  C:076BH         PUBLIC        ?C?LNEG
  -------         ENDMOD        ?C?LNEG

  -------         MODULE        ?C?SLCMP
  C:0779H         PUBLIC        ?C?SLCMP
  -------         ENDMOD        ?C?SLCMP

  -------         MODULE        ?C?ULCMP
  C:078FH         PUBLIC        ?C?ULCMP
  -------         ENDMOD        ?C?ULCMP

  -------         MODULE        ?C?ULSHR
  C:07A0H         PUBLIC        ?C?ULSHR
  -------         ENDMOD        ?C?ULSHR

  -------         MODULE        ?C?LSTXDATA
  C:07B3H         PUBLIC        ?C?LSTXDATA
  -------         ENDMOD        ?C?LSTXDATA

  -------         MODULE        ?C?LSTKXDATA
  C:07BFH         PUBLIC        ?C?LSTKXDATA
  -------         ENDMOD        ?C?LSTKXDATA

  -------         MODULE        ?C?PLDIXDATA
  C:07F0H         PUBLIC        ?C?PLDIXDATA
  -------         ENDMOD        ?C?PLDIXDATA

  -------         MODULE        ?C?PSTXDATA
  C:0807H         PUBLIC        ?C?PSTXDATA
  -------         ENDMOD        ?C?PSTXDATA

  -------         MODULE        ?C?CCASE
  C:0810H         PUBLIC        ?C?CCASE
  -------         ENDMOD        ?C?CCASE

*** WARNING L16: UNCALLED SEGMENT, IGNORED FOR OVERLAY PROCESS
    SEGMENT: ?PR?TASK_LED?MAIN

*** WARNING L16: UNCALLED SEGMENT, IGNORED FOR OVERLAY PROCESS
BL51 BANKED LINKER/LOCATER V6.22                                                      06/26/2020  22:34:05  PAGE 25


    SEGMENT: ?PR?TASK_CONSTP_CHARGE?MAIN

*** WARNING L16: UNCALLED SEGMENT, IGNORED FOR OVERLAY PROCESS
    SEGMENT: ?PR?TASK_MOTOR_TEST?MAIN

*** WARNING L16: UNCALLED SEGMENT, IGNORED FOR OVERLAY PROCESS
    SEGMENT: ?PR?TASK_ADC_PRINT?MAIN

*** WARNING L16: UNCALLED SEGMENT, IGNORED FOR OVERLAY PROCESS
    SEGMENT: ?PR?GLOBAL_INTERRUPT_DISABLE?MAIN

*** WARNING L16: UNCALLED SEGMENT, IGNORED FOR OVERLAY PROCESS
    SEGMENT: ?PR?MPU6050_INIT?MPU6050

*** WARNING L16: UNCALLED SEGMENT, IGNORED FOR OVERLAY PROCESS
    SEGMENT: ?PR?DRV_MCP401X_INIT?MCP401X

*** WARNING L16: UNCALLED SEGMENT, IGNORED FOR OVERLAY PROCESS
    SEGMENT: ?PR?_GPIO_SETTING?GPIO

*** WARNING L16: UNCALLED SEGMENT, IGNORED FOR OVERLAY PROCESS
    SEGMENT: ?PR?_PWM_STOP?PWM

*** WARNING L16: UNCALLED SEGMENT, IGNORED FOR OVERLAY PROCESS
    SEGMENT: ?PR?SOFTI2CINIT?SOFT_IIC

*** WARNING L16: UNCALLED SEGMENT, IGNORED FOR OVERLAY PROCESS
    SEGMENT: ?PR?SOFTI2CREADNAK?SOFT_IIC

*** WARNING L16: UNCALLED SEGMENT, IGNORED FOR OVERLAY PROCESS
    SEGMENT: ?PR?SOFTI2CREADACK?SOFT_IIC

*** WARNING L16: UNCALLED SEGMENT, IGNORED FOR OVERLAY PROCESS
    SEGMENT: ?PR?_ASSERT?UTILS

Program Size: data=15.7 xdata=126 code=8884
LINK/LOCATE RUN COMPLETE.  13 WARNING(S),  0 ERROR(S)
