C51 COMPILER V9.54   MAIN                                                                  06/26/2020 22:34:04 PAGE 1   


C51 COMPILER V9.54, COMPILATION OF MODULE MAIN
OBJECT MODULE PLACED IN .\Objects\main.obj
COMPILER INVOKED BY: C:\Keil_v5\C51\BIN\C51.EXE app\main.c LARGE OPTIMIZE(8,SPEED) BROWSE MODP2 INCDIR(.\utils;.\chip;.\
                    -drv;.\app) DEBUG OBJECTEXTEND PRINT(.\Listings\main.lst) TABS(2) OBJECT(.\Objects\main.obj)

line level    source

   1          #include "app.h"
   2          
   3          
   4          
   5          uint32_t uw_tick = 0;
   6          int32_t encoder_counter = 0;
   7          
   8          void T0_interrupt_init();
   9          void uart_init();
  10          void uart_send_byte(unsigned char dat);
  11          void port_init();
  12          void encoder_init();
  13          void global_interrupt_enable();
  14          void global_interrupt_disable();
  15          
  16          
  17          
  18          
  19          /*
  20          void task_led()
  21          {
  22            static unsigned long task_interval = 20; //任务执行间隔（毫秒）
  23            static unsigned long tick_reg = 0;      //记录上一次的tick值
  24            static uint8_t reflag = 0;
  25            static int32_t counter = 0;
  26            if(uw_tick - tick_reg > task_interval)
  27              tick_reg = uw_tick; //记录上一次的值
  28            else
  29              return;
  30          
  31            
  32            
  33            
  34            if(!reflag)
  35            {
  36              if(++counter >= 100)
  37              {
  38                set_mcp401x_data(63);
  39                reflag = !reflag;
  40              }
  41                
  42            }
  43            else
  44            {
  45              if(--counter <= 0)
  46              {
  47                reflag = !reflag;
  48                set_mcp401x_data(127);
  49              }
  50            }
  51            pwm_start(PWM_GROUP5, PWM_PIN3, 10000, counter * 1 / 1, 0, PWM_VALID_LOW);//BLUE
  52            pwm_start(PWM_GROUP0, PWM_PIN7, 10000, counter * 1 / 4, 0, PWM_VALID_LOW);//GREEN
  53            pwm_start(PWM_GROUP0, PWM_PIN5, 10000, counter * 1 / 1, 0, PWM_VALID_LOW);//RED
  54            
C51 COMPILER V9.54   MAIN                                                                  06/26/2020 22:34:04 PAGE 2   

  55            pwm_start(PWM_GROUP4, PWM_PIN2, 1000, counter, 0, PWM_VALID_LOW);
  56            
  57          }
  58          */
  59          static int16_t charging_persent = 0;
  60          static float supercap_volt = 0;
  61          #define CV_CHARGE_VOLTAGE_POINT 12.0 //转恒压充电的转折点
  62          void task_led()
  63          {
  64   1        static unsigned long task_interval = 500; //任务执行间隔（毫秒）
  65   1        static unsigned long tick_reg = 0;      //记录上一次的tick值
  66   1        if(uw_tick - tick_reg > task_interval)
  67   1          tick_reg = uw_tick; //记录上一次的值
  68   1        else
  69   1          return;
  70   1        
  71   1        printf("charging_persent:%d\r\n", (int16_t)charging_persent);
  72   1        printf("charging_persent:%1f\r\n", (supercap_volt / CV_CHARGE_VOLTAGE_POINT));
  73   1        
  74   1        if(charging_persent > 90)
  75   1          charging_persent = 100;
  76   1        if(charging_persent < 1)
  77   1          charging_persent = 0;
  78   1        MIN(charging_persent, 100);
*** WARNING C275 IN LINE 78 OF app\main.c: expression with possibly no effect
  79   1        MAX(charging_persent, 0);
*** WARNING C275 IN LINE 79 OF app\main.c: expression with possibly no effect
  80   1        
  81   1        pwm_start(PWM_GROUP0, PWM_PIN5, 1000, 100 - charging_persent, 0, PWM_VALID_LOW); // RED
  82   1        pwm_start(PWM_GROUP5, PWM_PIN3, 1000, charging_persent, 0, PWM_VALID_LOW); // BLUE
  83   1      }
  84          
  85          void task_constP_charge()
  86          { 
  87   1        static unsigned long task_interval = 1; //任务执行间隔（毫秒）
  88   1        static unsigned long tick_reg = 0;      //记录上一次的tick值
  89   1        
  90   1        
  91   1        const float chargeP_want = 20;//恒功率充电期望值（瓦特W）
  92   1        
  93   1        float supercap_amp_want = 0;
  94   1        static bit flag_print_at_start = 0;
  95   1        static bit flag_print_at_stop = 0;
  96   1        static int16_t mcpdata = 0;
  97   1        static int16_t mcpdata_reg = 1000;
  98   1        
  99   1        static uint8_t charging_persent_reg = 0;
 100   1        static uint32_t start_time_tick = 0;
 101   1        
 102   1        if(uw_tick - tick_reg > task_interval)
 103   1          tick_reg = uw_tick; //记录上一次的值
 104   1        else
 105   1          return;
 106   1        
 107   1        supercap_volt += (get_supercap_voltage() - supercap_volt) * 0.1;
 108   1        //supercap_volt = get_supercap_voltage() ;
 109   1        supercap_amp_want = chargeP_want / supercap_volt;
 110   1        charging_persent = (supercap_volt / CV_CHARGE_VOLTAGE_POINT * 100);
 111   1        
 112   1        if(ind_voltage_uvlo())
 113   1          return;
 114   1        
C51 COMPILER V9.54   MAIN                                                                  06/26/2020 22:34:04 PAGE 3   

 115   1        if(!flag_print_at_start)
 116   1        {
 117   2          flag_print_at_start = 1;
 118   2          printf("\r\n===========start charging voltage: %3fV ===========\r\n", supercap_volt);
 119   2          start_time_tick = uw_tick;
 120   2        }
 121   1        
 122   1        if(!flag_print_at_stop && supercap_volt >= CV_CHARGE_VOLTAGE_POINT)
 123   1        {
 124   2            flag_print_at_stop = 1;
 125   2            set_mcp401x_data(5);
 126   2            //LT3741_CTRL2 = 0;
 127   2            printf("\r\n===========end charging voltage: %3fV ===========\r\n", supercap_volt);
 128   2            printf("===========time elapsed: %fS ===========\r\n", (float)(uw_tick - start_time_tick) / 1000);
 129   2        }
 130   1        
 131   1        if(flag_print_at_start && !flag_print_at_stop)
 132   1        {
 133   2          mcpdata = MIN((supercap_amp_want * 0.15  * 38), 60);
 134   2          if(mcpdata_reg - mcpdata > 0)
 135   2          {
 136   3            mcpdata_reg = mcpdata;
 137   3            set_mcp401x_data(mcpdata);
 138   3            printf("supercap_volt:%3f, supercap_amp_want:%3f, mcpdata:%d\r\n", supercap_volt, supercap_amp_want,
             - (int)mcpdata);
 139   3          }
 140   2          
 141   2          if((int)(charging_persent) - (int)(charging_persent_reg) > 0)
 142   2          {
 143   3            charging_persent_reg = charging_persent;
 144   3            printf("now charging: %d %% \r\n", (int)charging_persent);
 145   3          }
 146   2          
 147   2        }
 148   1        
 149   1        
 150   1      
 151   1      }
 152          
 153          
 154          void task_motor_test()
 155          {
 156   1        static unsigned long task_interval = 3000; //任务执行间隔（毫秒）
 157   1        static unsigned long tick_reg = 0;      //记录上一次的tick值
 158   1        static uint16_t counter = 0;
 159   1        
 160   1        if(uw_tick - tick_reg > task_interval)
 161   1          tick_reg = uw_tick; //记录上一次的值
 162   1        else
 163   1          return;
 164   1        
 165   1        if(++counter > 4)
 166   1        {
 167   2          counter = 1;
 168   2        }
 169   1        //gpio_init(GPIO_GROUP4, GPIO_PIN2, GPIO_MODE_OUTPP); //PWM1
 170   1        //gpio_init(GPIO_GROUP4, GPIO_PIN1, GPIO_MODE_OUTPP); //PWM2
 171   1        //gpio_init(GPIO_GROUP3, GPIO_PIN7, GPIO_MODE_OUTPP); //PWM3
 172   1        //gpio_init(GPIO_GROUP3, GPIO_PIN6, GPIO_MODE_OUTPP); //PWM4
 173   1        
 174   1        
 175   1        
C51 COMPILER V9.54   MAIN                                                                  06/26/2020 22:34:04 PAGE 4   

 176   1        switch(counter)
 177   1        {
 178   2          case 1: //正转
 179   2          {
 180   3            pwm_start(PWM_GROUP4, PWM_PIN2, 1000, 50, 0, PWM_VALID_HIGH);
 181   3            pwm_start(PWM_GROUP4, PWM_PIN1, 1000, 0, 0, PWM_VALID_HIGH);
 182   3            break;
 183   3          }
 184   2          case 2: //停止
 185   2          {
 186   3            pwm_start(PWM_GROUP4, PWM_PIN2, 1000, 0, 0, PWM_VALID_HIGH);
 187   3            pwm_start(PWM_GROUP4, PWM_PIN1, 1000, 0, 0, PWM_VALID_HIGH);
 188   3            break;
 189   3          }
 190   2          case 3: //反转
 191   2          {
 192   3            pwm_start(PWM_GROUP4, PWM_PIN2, 1000, 0, 0, PWM_VALID_HIGH);
 193   3            pwm_start(PWM_GROUP4, PWM_PIN1, 1000, 50, 0, PWM_VALID_HIGH);
 194   3            break;
 195   3          }
 196   2          case 4: //停止
 197   2          {
 198   3            pwm_start(PWM_GROUP4, PWM_PIN2, 1000, 0, 0, PWM_VALID_HIGH);
 199   3            pwm_start(PWM_GROUP4, PWM_PIN1, 1000, 0, 0, PWM_VALID_HIGH);
 200   3            break;
 201   3          }
 202   2        }
 203   1        
 204   1      }
 205          
 206          
 207          void task_adc_print()
 208          {
 209   1        static unsigned long task_interval = 1000; //任务执行间隔（毫秒）
 210   1        static unsigned long tick_reg = 0;      //记录上一次的tick值
 211   1      
 212   1        if(uw_tick - tick_reg > task_interval)
 213   1          tick_reg = uw_tick; //记录上一次的值
 214   1        else
 215   1          return;
 216   1      
 217   1        
 218   1        printf("ElecMagnetic_1:%f V, ElecMagnetic_2:%f V, ElecMagnetic_3:%f V, ElecMagnetic_4:%f V, \r\n", adc_r
             -ead_volt(ADC_P00), adc_read_volt(ADC_P01), adc_read_volt(ADC_P02), adc_read_volt(ADC_P03));
 219   1        
 220   1        
 221   1      }
 222          
 223          void task_print_encoder()
 224          {
 225   1        static unsigned long task_interval = 100; //任务执行间隔（毫秒）
 226   1        static unsigned long tick_reg = 0;      //记录上一次的tick值
 227   1      
 228   1        if(uw_tick - tick_reg > task_interval)
 229   1          tick_reg = uw_tick; //记录上一次的值
 230   1        else
 231   1          return;
 232   1        
 233   1        printf("encoder_counter: %d\r\n", (int16_t)encoder_counter);
 234   1      }
 235          char putchar(char c)//printf重定向
 236          {
C51 COMPILER V9.54   MAIN                                                                  06/26/2020 22:34:04 PAGE 5   

 237   1        uart_send_byte(c);
 238   1        return c;
 239   1      }
 240          
 241          void main()
 242          { 
 243   1        
 244   1        
 245   1        port_init();
 246   1        uart_init();
 247   1        pwm_init(PWM_GROUP5);
 248   1        pwm_init(PWM_GROUP0);
 249   1        pwm_init(PWM_GROUP4);
 250   1        //pwm_init(PWM_GROUP3);
 251   1        adc_init(1);
 252   1        encoder_init();
 253   1        set_mcp401x_data(0);
 254   1        global_interrupt_enable();
 255   1        
 256   1        delay_ms(500);
 257   1        
 258   1        pwm_start(PWM_GROUP3, PWM_PIN7, 1000, 50, 0, PWM_VALID_HIGH); //PWM3
 259   1        pwm_start(PWM_GROUP3, PWM_PIN6, 1000, 70, 0, PWM_VALID_HIGH); //PWM4
 260   1        pwm_start(PWM_GROUP4, PWM_PIN2, 1000, 70, 0, PWM_VALID_HIGH); //PWM1
 261   1        pwm_start(PWM_GROUP4, PWM_PIN1, 1000, 70, 0, PWM_VALID_HIGH); //PWM2
 262   1        
 263   1        T0_interrupt_init();
 264   1        while(1)
 265   1        {
 266   2          //task_led();
 267   2          //task_constP_charge();
 268   2          //task_motor_test();
 269   2          //task_adc_print();
 270   2          task_print_encoder();
 271   2        }
 272   1      }
 273          
 274          
 275          void encoder_init()
 276          {
 277   1        IT0  = 1;//0上升下降中断，1仅下降沿中断
 278   1        EX0  = 1;
 279   1        IPH |= 0x01;
 280   1        IP  |= 0x01;
 281   1        
 282   1        IT1  = 1;//0上升下降中断，1仅下降沿中断
 283   1        EX1  = 1;
 284   1      }
 285          
 286          void T0_interrupt_init()
 287          {
 288   1        TMOD = 0x00; 
 289   1        TL0 = (T0_RELOAD);
 290   1        TH0 = (T0_RELOAD>>8); 
 291   1        TR0 = 1; //启动定时器
 292   1        ET0 = 1; //使能定时器中断
 293   1        
 294   1      }
 295          
 296          
 297          void global_interrupt_enable()
 298          {
C51 COMPILER V9.54   MAIN                                                                  06/26/2020 22:34:04 PAGE 6   

 299   1        EA = 1;
 300   1      }
 301          
 302          void global_interrupt_disable()
 303          {
 304   1        EA = 0;
 305   1      }
 306          
 307          void port_init()
 308          {
 309   1        /*
 310   1        //上电默认是浮空输入
 311   1        //全部端口准双向输出（超弱上拉，上拉电流约200ua）
 312   1        P0M0 = 0x00; 
 313   1        P0M1 = 0x00; 
 314   1        P1M0 = 0x00; 
 315   1        P1M1 = 0x00; 
 316   1        P2M0 = 0x00; 
 317   1        P2M1 = 0x00; 
 318   1        P3M0 = 0x00; 
 319   1        P3M1 = 0x00; 
 320   1        P4M0 = 0x00; 
 321   1        P4M1 = 0x00; 
 322   1        P5M0 = 0x00; 
 323   1        P5M1 = 0x00;
 324   1        */
 325   1        
 326   1        
 327   1        //P1.5推挽输出
 328   1        P1M0 |=   0x01 << 5; 
 329   1        P1M1 &= ~(0x01 << 5);
 330   1        //P1.4准双向口
 331   1        P1M0 &= ~(0x01 << 4);
 332   1        P1M1 &= ~(0x01 << 4);
 333   1        
 334   1        P_SW2 |= 0x80;
 335   1        //使能P1.4上拉
 336   1        P1PU  |= 0x01 << 4;
 337   1        P_SW2 &= 0x7F;
 338   1        
 339   1        //SPI
 340   1        gpio_init(GPIO_GROUP2, (GPIO_PIN2|GPIO_PIN3), GPIO_MODE_OUTPP);
*** WARNING C259 IN LINE 340 OF app\main.c: 'parameter 2': different enumeration types
 341   1        
 342   1        //三色LED
 343   1        gpio_init(GPIO_GROUP5, GPIO_PIN3, GPIO_MODE_OUTPP);
 344   1        gpio_init(GPIO_GROUP0, GPIO_PIN5, GPIO_MODE_OUTPP);
 345   1        gpio_init(GPIO_GROUP0, GPIO_PIN7, GPIO_MODE_OUTPP);
 346   1        
 347   1        //电机驱动
 348   1        gpio_init(GPIO_GROUP4, GPIO_PIN2, GPIO_MODE_OUTPP); //PWM1
 349   1        gpio_init(GPIO_GROUP4, GPIO_PIN1, GPIO_MODE_OUTPP); //PWM2
 350   1        gpio_init(GPIO_GROUP3, GPIO_PIN7, GPIO_MODE_OUTPP); //PWM3
 351   1        gpio_init(GPIO_GROUP3, GPIO_PIN6, GPIO_MODE_OUTPP); //PWM4
 352   1        
 353   1        //gpio_init(GPIO_GROUP3, GPIO_PIN2, GPIO_MODE_INOUT);
 354   1        //gpio_init(GPIO_GROUP3, GPIO_PIN3, GPIO_MODE_INOUT);
 355   1        
 356   1        
 357   1        //LT3741 CTRL2
 358   1        gpio_init(GPIO_GROUP4, GPIO_PIN3, GPIO_MODE_INOUT);
 359   1        
C51 COMPILER V9.54   MAIN                                                                  06/26/2020 22:34:04 PAGE 7   

 360   1      }
 361          void uart_init()
 362          {
 363   1        /*SCON  = 0x50;           // SCON: 模式 1, 8-bit UART, 使能接收  
 364   1        TMOD |= 0x20;           // TMOD: timer 1, mode 2, 8-bit 重装
 365   1        TH1   = 0xFD;           // TH1:  重装值 9600 波特率 晶振 11.0592MHz  
 366   1        TR1   = 1;              // TR1:  timer 1 打开                         
 367   1        EA    = 1;              // 打开总中断
 368   1        */
 369   1        
 370   1        
 371   1        //串口1，定时器2
 372   1        SCON = 0x50;
 373   1        T2L = BRT; 
 374   1        T2H = BRT >> 8; 
 375   1        AUXR = 0x15;
 376   1        ES = 0; 
 377   1        EA = 1;
 378   1        
 379   1      }
 380          
 381          
 382          void uart_send_byte(unsigned char dat) //发送一个字符
 383          {
 384   1       SBUF = dat; //SBUF 串行数据缓冲器
 385   1       while(!TI);  //TI发送中断标志位 (当数据发送完毕后由硬件置 1 否则等待硬件置 1)
 386   1       TI = 0; 
 387   1      }
 388          


MODULE INFORMATION:   STATIC OVERLAYABLE
   CODE SIZE        =   1947    ----
   CONSTANT SIZE    =    385    ----
   XDATA SIZE       =     65       9
   PDATA SIZE       =   ----    ----
   DATA SIZE        =   ----    ----
   IDATA SIZE       =   ----    ----
   BIT SIZE         =      2    ----
END OF MODULE INFORMATION.


C51 COMPILATION COMPLETE.  3 WARNING(S),  0 ERROR(S)
