C51 COMPILER V9.54   PWM                                                                   06/26/2020 22:05:21 PAGE 1   


C51 COMPILER V9.54, COMPILATION OF MODULE PWM
OBJECT MODULE PLACED IN .\Objects\pwm.obj
COMPILER INVOKED BY: C:\Keil_v5\C51\BIN\C51.EXE chip\pwm.c LARGE OPTIMIZE(8,SPEED) BROWSE MODP2 INCDIR(.\utils;.\chip;.\
                    -drv;.\app) DEBUG OBJECTEXTEND PRINT(.\Listings\pwm.lst) TABS(2) OBJECT(.\Objects\pwm.obj)

line level    source

   1          #include "chip.h"
   2          //P3.5为默认异常输入口
   3          void pwm_init(pwm_group_t group)
   4          {
   5   1        //PWMSET = 0x00;
   6   1        //PWMSET |= 0x01 << 7;//use global PWMCFG(mirror with PWMCFG01[3:0])
   7   1        PWMSET |= 0x01 << group;
   8   1      } 
   9          
  10          
  11          /*************************************************************************
  12          * @brief  
  13          * @param  sta:pwm强制引脚电平保持，1高电平，0低电平
  14          * @retval 
  15          *************************************************************************/
  16          void pwm_forced(pwm_group_t group, pwm_pin_t pin, pwm_forced_sta_t sta)
  17          {
  18   1        P_SW2 = 0x80;
  19   1        if(group < 3)
  20   1        {
  21   2          (*(unsigned char volatile xdata *)(0xff15 + group * 0x0050 + 8 * pin)) = 0x01 << sta;
  22   2          (*(unsigned char volatile xdata *)(0xff14 + group * 0x0050 + pin * 8)) |= 0x80; // this io controlled 
             -by pwm generator
  23   2        }
  24   1        else
  25   1        {
  26   2          (*(unsigned char volatile xdata *)(0xfc15 + (group - 3) * 0x0050 + 8 * pin)) = 0x01 << sta;
  27   2          (*(unsigned char volatile xdata *)(0xfc14 + (group - 3) * 0x0050 + pin * 8)) |= 0x80; // this io contr
             -olled by pwm generator
  28   2        }
  29   1        P_SW2 = 0x00;
  30   1        
  31   1        switch (group)
  32   1        {
  33   2        case PWM_GROUP0:
  34   2          PWMCFG01 |= 0x01 << 0;
  35   2          break;
  36   2        case PWM_GROUP1:
  37   2          PWMCFG01 |= 0x01 << 4;
  38   2          break;
  39   2        case PWM_GROUP2:
  40   2          PWMCFG23 |= 0x01 << 0;
  41   2          break;
  42   2        case PWM_GROUP3:
  43   2          PWMCFG23 |= 0x01 << 4;
  44   2          break;
  45   2        case PWM_GROUP4:
  46   2          PWMCFG45 |= 0x01 << 0;
  47   2          break;
  48   2        case PWM_GROUP5:
  49   2          PWMCFG45 |= 0x01 << 4;
  50   2          break;
  51   2        
  52   2        default:
C51 COMPILER V9.54   PWM                                                                   06/26/2020 22:05:21 PAGE 2   

  53   2          break;
  54   2        }
  55   1        
  56   1      }
  57          
  58          
  59          /*************************************************************************
  60          * @brief  一组pwm只能公用同一频率，但占空比可以不同。
  61          * @param  freq:pwm频率
  62          * @param  duty:pwm占空比（范围0~100，支持0和100的理想占空比，且实际效果理想）
  63          * @param  dead:pwm死区，一般1~5，填0无死区
  64          * @param  polarity:pwm极性，低电平有效或高电平有效
  65          
  66          * @retval 
  67          *************************************************************************/
  68          void pwm_start(pwm_group_t group, pwm_pin_t pin, uint32_t freq, uint32_t duty, uint8_t dead, pwm_polarity_
             -t polarity)
  69          {
  70   1      #ifdef USING_SMART_CLKDIV
  71   1        int8_t PWM_SYSCLKDIV = -1;  //智能分频，范围0~15
  72   1        uint32_t cnt_freq_temp = 0;
  73   1      #endif //USING_SMART_CLKDIV
  74   1        uint32_t cnt_freq = 0;      //期望PWM频率freq下，需要计数的次数
  75   1        uint32_t cnt_duty_low = 0;  //低电平duty cycle
  76   1        uint32_t cnt_duty_high = 0; //高电平duty cycle
  77   1        int32_t temp = 0;
  78   1        
  79   1        if(polarity == PWM_VALID_LOW && duty >= 100)
  80   1          {pwm_forced(group, pin, PWM_PIN_LOW);return;}
  81   1        else if(polarity == PWM_VALID_LOW && duty == 0)
  82   1          {pwm_forced(group, pin, PWM_PIN_HIGH);return;}
  83   1        else if(polarity == PWM_VALID_HIGH && duty >= 100)
  84   1          {pwm_forced(group, pin, PWM_PIN_HIGH);return;}
  85   1        else if(polarity == PWM_VALID_HIGH && duty == 0)
  86   1          {pwm_forced(group, pin, PWM_PIN_LOW);return;}
  87   1        else
  88   1          {}
  89   1        
  90   1        /* calc cnt */
  91   1        // 时间计算原型：(1 / (FOSC / PWM_SYSCLKDIV)) * cnt_freq = (1 / freq);
  92   1      #ifdef USING_SMART_CLKDIV
  93   1        do{
  94   2          PWM_SYSCLKDIV++;
  95   2          cnt_freq_temp = (FOSC / (PWM_SYSCLKDIV + 1)) / freq;
  96   2        }while(PWM_SYSCLKDIV < 15 && cnt_freq_temp > 32767);
  97   1        cnt_freq = cnt_freq_temp;
  98   1      #else
                cnt_freq = (FOSC / (PWM_SYSCLKDIV + 1)) / freq;
              #endif
 101   1        
 102   1      
 103   1      
 104   1        temp = cnt_freq * duty / 100 / 2;
 105   1        temp -= cnt_freq * dead / 100;
 106   1        temp = temp < 0 ? 0 : temp;
 107   1        //temp = temp > (cnt_freq/2) ? cnt_freq : temp;
 108   1      
 109   1        if(polarity == PWM_VALID_LOW)
 110   1        {
 111   2          cnt_duty_low  = cnt_freq / 2 - temp;
 112   2          cnt_duty_high = cnt_freq / 2 + temp;
 113   2        }
C51 COMPILER V9.54   PWM                                                                   06/26/2020 22:05:21 PAGE 3   

 114   1        else if(polarity == PWM_VALID_HIGH)
 115   1        {
 116   2          cnt_duty_low  = cnt_freq / 2 + temp;
 117   2          cnt_duty_high = cnt_freq / 2 - temp;
 118   2        }
 119   1        
 120   1        /* calc cnt */
 121   1        
 122   1        
 123   1        P_SW2 = 0x80;
 124   1      
 125   1        if(group < 3)
 126   1        {
 127   2          (*(unsigned char volatile xdata *)(0xff15 + group * 0x0050 + 8 * pin)) = 0x00; //unlock pwm pin forced
             - output
 128   2      
 129   2          (*(unsigned char volatile xdata *)(0xff00 + group * 0x0050)) = (uint8_t)(cnt_freq >> 8);
 130   2          (*(unsigned char volatile xdata *)(0xff01 + group * 0x0050)) = (uint8_t)(cnt_freq);
 131   2          
 132   2          (*(unsigned char volatile xdata *)(0xff02 + group * 0x0050))  = PWM_SYSCLKDIV;
 133   2          (*(unsigned char volatile xdata *)(0xff02 + group * 0x0050)) |= 0x00 << 4; //时钟源: 0x00:系统时
             -钟经分频; 0x01:定时器2的溢出; 
 134   2      
 135   2          (*(unsigned char volatile xdata *)(0xff10 + group * 0x0050 + pin * 8 + 0)) = (uint8_t)(cnt_duty_low  >
             -> 8); //T1H
 136   2          (*(unsigned char volatile xdata *)(0xff10 + group * 0x0050 + pin * 8 + 1)) = (uint8_t)(cnt_duty_low  >
             -> 0); //T1L
 137   2          (*(unsigned char volatile xdata *)(0xff10 + group * 0x0050 + pin * 8 + 2)) = (uint8_t)(cnt_duty_high >
             -> 8); //T2H
 138   2          (*(unsigned char volatile xdata *)(0xff10 + group * 0x0050 + pin * 8 + 3)) = (uint8_t)(cnt_duty_high >
             -> 0); //T2L
 139   2      
 140   2          (*(unsigned char volatile xdata *)(0xff14 + group * 0x0050 + pin * 8)) |= 0x80; // this io controlled 
             -by pwm generator
 141   2        }
 142   1        else
 143   1        {
 144   2          (*(unsigned char volatile xdata *)(0xfc15 + (group - 3) * 0x0050 + 8 * pin)) = 0x00; //unlock pwm pin 
             -forced output
 145   2      
 146   2          (*(unsigned char volatile xdata *)(0xfc00 + (group - 3) * 0x0050)) = (uint8_t)(cnt_freq >> 8);
 147   2          (*(unsigned char volatile xdata *)(0xfc01 + (group - 3) * 0x0050)) = (uint8_t)(cnt_freq);
 148   2          
 149   2          (*(unsigned char volatile xdata *)(0xfc02 + (group - 3) * 0x0050)) = PWM_SYSCLKDIV;
 150   2          (*(unsigned char volatile xdata *)(0xfc02 + (group - 3) * 0x0050)) |= 0x00 << 4; //时钟源: 0x00:系
             -统时钟经分频; 0x01:定时器2的溢出; 
 151   2          
 152   2          (*(unsigned char volatile xdata *)(0xfc10 + (group - 3) * 0x0050 + pin * 8 + 0)) = (uint8_t)(cnt_duty_
             -low  >> 8); //T1H
 153   2          (*(unsigned char volatile xdata *)(0xfc10 + (group - 3) * 0x0050 + pin * 8 + 1)) = (uint8_t)(cnt_duty_
             -low  >> 0); //T1L
 154   2          (*(unsigned char volatile xdata *)(0xfc10 + (group - 3) * 0x0050 + pin * 8 + 2)) = (uint8_t)(cnt_duty_
             -high >> 8); //T2H
 155   2          (*(unsigned char volatile xdata *)(0xfc10 + (group - 3) * 0x0050 + pin * 8 + 3)) = (uint8_t)(cnt_duty_
             -high >> 0); //T2L
 156   2                                                      
 157   2          (*(unsigned char volatile xdata *)(0xfc14 + (group - 3) * 0x0050 + pin * 8)) |= 0x80; // this io contr
             -olled by pwm generator
 158   2        }
 159   1        P_SW2 = 0x00;
 160   1      
 161   1        switch (group)
C51 COMPILER V9.54   PWM                                                                   06/26/2020 22:05:21 PAGE 4   

 162   1        {
 163   2        case PWM_GROUP0:
 164   2          PWMCFG01 |= 0x01 << 0;
 165   2          break;
 166   2        case PWM_GROUP1:
 167   2          PWMCFG01 |= 0x01 << 4;
 168   2          break;
 169   2        case PWM_GROUP2:
 170   2          PWMCFG23 |= 0x01 << 0;
 171   2          break;
 172   2        case PWM_GROUP3:
 173   2          PWMCFG23 |= 0x01 << 4;
 174   2          break;
 175   2        case PWM_GROUP4:
 176   2          PWMCFG45 |= 0x01 << 0;
 177   2          break;
 178   2        case PWM_GROUP5:
 179   2          PWMCFG45 |= 0x01 << 4;
 180   2          break;
 181   2        
 182   2        default:
 183   2          break;
 184   2        }
 185   1      }
 186          
 187          
 188          /*************************************************************************
 189          * @brief  停止这个引脚的pwm，把引脚控制权移交回给gpio
 190          * @param  
 191          * @retval 
 192          *************************************************************************/
 193          void pwm_stop(pwm_group_t group, pwm_pin_t pin)
 194          {
 195   1        P_SW2 = 0x80;
 196   1      
 197   1        if(group < 3)
 198   1        {
 199   2          (*(unsigned char volatile xdata *)(0xff14 + group * 0x0050 + pin * 8)) &= 0x7f; // this io controlled 
             -gpio
 200   2        }
 201   1        else
 202   1        {
 203   2          (*(unsigned char volatile xdata *)(0xfc14 + (group - 3) * 0x0050 + pin * 8)) &= 0x7f; // this io contr
             -olled gpio
 204   2        }
 205   1        P_SW2 = 0x00;
 206   1      }


MODULE INFORMATION:   STATIC OVERLAYABLE
   CODE SIZE        =   1859    ----
   CONSTANT SIZE    =   ----    ----
   XDATA SIZE       =   ----      35
   PDATA SIZE       =   ----    ----
   DATA SIZE        =   ----    ----
   IDATA SIZE       =   ----    ----
   BIT SIZE         =   ----    ----
END OF MODULE INFORMATION.


C51 COMPILATION COMPLETE.  0 WARNING(S),  0 ERROR(S)
