BL51 BANKED LINKER/LOCATER V6.22                                                        05/11/2020  12:29:29  PAGE 1


BL51 BANKED LINKER/LOCATER V6.22, INVOKED BY:
C:\KEIL_V5\C51\BIN\BL51.EXE .\Objects\STARTUP.obj, .\Objects\main.obj TO .\Objects\freescale15_mcu2 PRINT (.\Listings\fr
>> eescale15_mcu2.m51) RAMSIZE (256)


MEMORY MODEL: LARGE


INPUT MODULES INCLUDED:
  .\Objects\STARTUP.obj (?C_STARTUP)
  .\Objects\main.obj (MAIN)
  C:\KEIL_V5\C51\LIB\C51L.LIB (?C?CSTPTR)
  C:\KEIL_V5\C51\LIB\C51L.LIB (?C?CSTOPTR)
  C:\KEIL_V5\C51\LIB\C51L.LIB (?C?ILDIX)


LINK MAP OF MODULE:  .\Objects\freescale15_mcu2 (?C_STARTUP)


            TYPE    BASE      LENGTH    RELOCATION   SEGMENT NAME
            -----------------------------------------------------

            * * * * * * *   D A T A   M E M O R Y   * * * * * * *
            REG     0000H     0008H     ABSOLUTE     "REG BANK 0"
                    0008H     0018H                  *** GAP ***
            BIT     0020H.0   0000H.1   UNIT         ?BI?MAIN
            BIT     0020H.1   0000H.1   UNIT         _BIT_GROUP_
                    0020H.2   0000H.6                *** GAP ***
            IDATA   0021H     0001H     UNIT         ?STACK

            * * * * * * *  X D A T A   M E M O R Y  * * * * * * *
            XDATA   0000H     002AH     UNIT         ?XD?MAIN
            XDATA   002AH     0016H     UNIT         _XDATA_GROUP_

            * * * * * * *   C O D E   M E M O R Y   * * * * * * *
            CODE    0000H     0003H     ABSOLUTE     
            CODE    0003H     0878H     UNIT         ?CO?MAIN
            CODE    087BH     01EBH     UNIT         ?PR?DMPINITIALIZE?MAIN
            CODE    0A66H     009AH     UNIT         ?PR?MAIN?MAIN
            CODE    0B00H     0090H     UNIT         ?PR?LOADFIRMWARE?MAIN
            CODE    0B90H     008CH     UNIT         ?PR?_WRITEBITS?MAIN
            CODE    0C1CH     007FH     UNIT         ?PR?_READBITS?MAIN
            CODE    0C9BH     007BH     UNIT         ?PR?_WRITEBIT?MAIN
            CODE    0D16H     0079H     UNIT         ?PR?_I2CREADS?MAIN
            CODE    0D8FH     006DH     UNIT         ?PR?LOADCFGUPD?MAIN
            CODE    0DFCH     0057H     UNIT         ?PR?_I2_FS?MAIN
            CODE    0E53H     004BH     UNIT         ?PR?I2_JS?MAIN
            CODE    0E9EH     004AH     UNIT         ?C?LIB_CODE
            CODE    0EE8H     0046H     UNIT         ?PR?_READBIT?MAIN
            CODE    0F2EH     0045H     UNIT         ?PR?_XDMPUPDATES?MAIN
            CODE    0F73H     0043H     UNIT         ?PR?CSH?MAIN
            CODE    0FB6H     002DH     UNIT         ?PR?INITMPU6050?MAIN
            CODE    0FE3H     002CH     UNIT         ?PR?_I2CWRITE?MAIN
            CODE    100FH     0029H     UNIT         ?PR?GETDEVICEID?MAIN
            CODE    1038H     0023H     UNIT         ?PR?I2_TZ?MAIN
            CODE    105BH     001DH     UNIT         ?PR?I2_QS?MAIN
            CODE    1078H     001DH     UNIT         ?PR?GETFIFOCOUNT?MAIN
            CODE    1095H     0015H     UNIT         ?PR?_DELAYMS?MAIN
BL51 BANKED LINKER/LOCATER V6.22                                                      05/11/2020  12:29:29  PAGE 2


            CODE    10AAH     0010H     UNIT         ?PR?_SENDBYTE?MAIN
            CODE    10BAH     000EH     UNIT         ?PR?_I2CREAD?MAIN
            CODE    10C8H     000CH     UNIT         ?C_C51STARTUP
            CODE    10D4H     0008H     UNIT         ?PR?_READDMP?MAIN
            CODE    10DCH     0003H     UNIT         ?PR?_DELAYUS2X?MAIN



OVERLAY MAP OF MODULE:   .\Objects\freescale15_mcu2 (?C_STARTUP)


SEGMENT                           BIT_GROUP          XDATA_GROUP
  +--> CALLED SEGMENT          START    LENGTH     START    LENGTH
------------------------------------------------------------------
?C_C51STARTUP                  -----    -----      -----    -----
  +--> ?PR?MAIN?MAIN

?PR?MAIN?MAIN                  -----    -----      002AH    0003H
  +--> ?PR?CSH?MAIN
  +--> ?PR?INITMPU6050?MAIN
  +--> ?PR?GETDEVICEID?MAIN
  +--> ?PR?DMPINITIALIZE?MAIN
  +--> ?PR?_WRITEBIT?MAIN
  +--> ?PR?GETFIFOCOUNT?MAIN
  +--> ?PR?_I2CREAD?MAIN
  +--> ?PR?_READDMP?MAIN
  +--> ?PR?_SENDBYTE?MAIN

?PR?INITMPU6050?MAIN           -----    -----      -----    -----
  +--> ?PR?_WRITEBITS?MAIN
  +--> ?PR?_WRITEBIT?MAIN

?PR?_WRITEBITS?MAIN            -----    -----      0035H    0006H
  +--> ?PR?_I2CREAD?MAIN
  +--> ?PR?_I2CWRITE?MAIN

?PR?_I2CREAD?MAIN              -----    -----      -----    -----
  +--> ?PR?_I2CREADS?MAIN

?PR?_I2CREADS?MAIN             -----    -----      003DH    0003H
  +--> ?PR?I2_QS?MAIN
  +--> ?PR?_I2_FS?MAIN
  +--> ?PR?I2_JS?MAIN
  +--> ?PR?I2_TZ?MAIN

?PR?_I2_FS?MAIN                -----    -----      -----    -----
  +--> ?PR?_I2CWRITE?MAIN
  +--> ?PR?I2_QS?MAIN

?PR?_I2CWRITE?MAIN             -----    -----      -----    -----
  +--> ?PR?I2_QS?MAIN
  +--> ?PR?I2_TZ?MAIN

?PR?I2_JS?MAIN                 0020H.1  0000H.1    -----    -----

?PR?_WRITEBIT?MAIN             -----    -----      0035H    0004H
  +--> ?PR?_I2CREAD?MAIN
BL51 BANKED LINKER/LOCATER V6.22                                                      05/11/2020  12:29:29  PAGE 3


  +--> ?PR?_I2CWRITE?MAIN

?PR?GETDEVICEID?MAIN           -----    -----      002DH    0001H
  +--> ?PR?_READBITS?MAIN

?PR?_READBITS?MAIN             -----    -----      0035H    0008H
  +--> ?PR?_I2CREAD?MAIN

?PR?DMPINITIALIZE?MAIN         -----    -----      002DH    0008H
  +--> ?PR?_WRITEBIT?MAIN
  +--> ?PR?_DELAYMS?MAIN
  +--> ?PR?_I2CWRITE?MAIN
  +--> ?PR?_I2CREAD?MAIN
  +--> ?PR?_READBIT?MAIN
  +--> ?PR?_READBITS?MAIN
  +--> ?PR?LOADFIRMWARE?MAIN
  +--> ?PR?LOADCFGUPD?MAIN
  +--> ?PR?_WRITEBITS?MAIN
  +--> ?PR?_XDMPUPDATES?MAIN
  +--> ?PR?GETFIFOCOUNT?MAIN

?PR?_DELAYMS?MAIN              -----    -----      -----    -----
  +--> ?PR?_DELAYUS2X?MAIN

?PR?_READBIT?MAIN              -----    -----      0035H    0005H
  +--> ?PR?_I2CREAD?MAIN

?PR?LOADFIRMWARE?MAIN          -----    -----      0035H    0003H
  +--> ?PR?_I2_FS?MAIN
  +--> ?CO?MAIN
  +--> ?PR?I2_TZ?MAIN

?PR?LOADCFGUPD?MAIN            -----    -----      0035H    0001H
  +--> ?CO?MAIN
  +--> ?PR?_I2CWRITE?MAIN
  +--> ?PR?_I2_FS?MAIN
  +--> ?PR?I2_TZ?MAIN

?PR?_XDMPUPDATES?MAIN          -----    -----      -----    -----
  +--> ?CO?MAIN
  +--> ?PR?_I2CWRITE?MAIN
  +--> ?PR?_I2_FS?MAIN
  +--> ?PR?I2_TZ?MAIN

?PR?GETFIFOCOUNT?MAIN          -----    -----      0035H    0002H
  +--> ?PR?_I2CREADS?MAIN

?PR?_READDMP?MAIN              -----    -----      -----    -----
  +--> ?PR?_I2CREADS?MAIN



SYMBOL TABLE OF MODULE:  .\Objects\freescale15_mcu2 (?C_STARTUP)

  VALUE           TYPE          NAME
  ----------------------------------

BL51 BANKED LINKER/LOCATER V6.22                                                      05/11/2020  12:29:29  PAGE 4


  -------         MODULE        ?C_STARTUP
  C:10C8H         SEGMENT       ?C_C51STARTUP
  I:0021H         SEGMENT       ?STACK
  C:0000H         PUBLIC        ?C_STARTUP
  D:00E0H         SYMBOL        ACC
  D:00F0H         SYMBOL        B
  D:0083H         SYMBOL        DPH
  D:0082H         SYMBOL        DPL
  N:0000H         SYMBOL        IBPSTACK
  N:0100H         SYMBOL        IBPSTACKTOP
  N:0080H         SYMBOL        IDATALEN
  C:10CBH         SYMBOL        IDATALOOP
  N:0000H         SYMBOL        PBPSTACK
  N:0100H         SYMBOL        PBPSTACKTOP
  N:0000H         SYMBOL        PDATALEN
  N:0000H         SYMBOL        PDATASTART
  N:0000H         SYMBOL        PPAGE
  N:0000H         SYMBOL        PPAGEENABLE
  D:00A0H         SYMBOL        PPAGE_SFR
  D:0081H         SYMBOL        SP
  C:10C8H         SYMBOL        STARTUP1
  N:0000H         SYMBOL        XBPSTACK
  N:0000H         SYMBOL        XBPSTACKTOP
  N:0000H         SYMBOL        XDATALEN
  N:0000H         SYMBOL        XDATASTART
  C:0000H         LINE#         126
  C:10C8H         LINE#         133
  C:10CAH         LINE#         134
  C:10CBH         LINE#         135
  C:10CCH         LINE#         136
  C:10CEH         LINE#         185
  C:10D1H         LINE#         196
  -------         ENDMOD        ?C_STARTUP

  -------         MODULE        MAIN
  C:0000H         SYMBOL        _ICE_DUMMY_
  D:0092H         PUBLIC        P1M0
  D:0093H         PUBLIC        P0M1
  D:0096H         PUBLIC        P2M0
  D:0091H         PUBLIC        P1M1
  D:0080H         PUBLIC        P0
  D:00B2H         PUBLIC        P3M0
  D:0095H         PUBLIC        P2M1
  D:0090H         PUBLIC        P1
  D:00B4H         PUBLIC        P4M0
  D:00B1H         PUBLIC        P3M1
  D:00A0H         PUBLIC        P2
  D:00CAH         PUBLIC        P5M0
  D:00B3H         PUBLIC        P4M1
  D:00B0H         PUBLIC        P3
  D:00C9H         PUBLIC        P5M1
  D:00C0H         PUBLIC        P4
  D:00C8H         PUBLIC        P5
  C:0B00H         PUBLIC        loadfirmware
  B:00A8H.7       PUBLIC        EA
  D:00E8H         PUBLIC        P6
  D:00F8H         PUBLIC        P7
BL51 BANKED LINKER/LOCATER V6.22                                                      05/11/2020  12:29:29  PAGE 5


  D:00BAH         PUBLIC        P_SW2
  D:00A8H         PUBLIC        IE
  C:0D16H         PUBLIC        _i2creads
  C:0F2EH         PUBLIC        _xdmpUpdates
  B:00A8H.4       PUBLIC        ES
  D:00B8H         PUBLIC        IP
  B:00D0H.7       PUBLIC        CY
  B:0098H.1       PUBLIC        TI
  C:084CH         PUBLIC        dmpUpdates
  C:10C2H         PUBLIC        _i2cread
  C:0D8FH         PUBLIC        loadcfgupd
  C:10B2H         PUBLIC        _SendByte
  C:100FH         PUBLIC        getDeviceID
  D:00D8H         PUBLIC        CCON
  C:0A66H         PUBLIC        main
  C:0FE3H         PUBLIC        _i2cwrite
  B:0020H.0       PUBLIC        ack
  D:0099H         PUBLIC        SBUF
  C:0C20H         PUBLIC        _readBits
  C:1095H         PUBLIC        _DelayMs
  D:0098H         PUBLIC        SCON
  D:0088H         PUBLIC        TCON
  B:0090H.4       PUBLIC        sda
  C:0EE8H         PUBLIC        _readBit
  D:008EH         PUBLIC        AUXR
  C:0B97H         PUBLIC        _writeBits
  B:0090H.5       PUBLIC        scl
  D:00D6H         PUBLIC        T2H
  C:0CA1H         PUBLIC        _writeBit
  D:00D7H         PUBLIC        T2L
  X:0000H         PUBLIC        dmpdatas
  C:0E15H         PUBLIC        _i2_fs
  C:0E53H         PUBLIC        i2_js
  C:087BH         PUBLIC        dmpInitialize
  C:078CH         PUBLIC        dmpcfgupddata
  C:0F73H         PUBLIC        CSH
  C:105BH         PUBLIC        i2_qs
  C:10D4H         PUBLIC        _readdmp
  C:10DCH         PUBLIC        _DelayUs2x
  C:1038H         PUBLIC        i2_tz
  C:1078H         PUBLIC        getFIFOCount
  C:0FB6H         PUBLIC        initMPU6050
  D:00D0H         PUBLIC        PSW
  C:0003H         PUBLIC        dmpmemorydata
  D:0094H         PUBLIC        P0M0
  -------         PROC          _DELAYUS2X
  D:0007H         SYMBOL        t
  C:10DCH         LINE#         223
  C:10DCH         LINE#         224
  C:10DCH         LINE#         225
  C:10DEH         LINE#         226
  -------         ENDPROC       _DELAYUS2X
  -------         PROC          _DELAYMS
  D:0006H         SYMBOL        t
  C:1095H         LINE#         228
  C:1097H         LINE#         229
  C:1097H         LINE#         231
BL51 BANKED LINKER/LOCATER V6.22                                                      05/11/2020  12:29:29  PAGE 6


  C:109DH         LINE#         232
  C:109DH         LINE#         234
  C:10A2H         LINE#         235
  C:10A7H         LINE#         236
  C:10A9H         LINE#         237
  -------         ENDPROC       _DELAYMS
  -------         PROC          I2_QS
  C:105BH         LINE#         241
  C:105BH         LINE#         242
  C:105BH         LINE#         243
  C:105DH         LINE#         244
  C:105FH         LINE#         245
  C:1063H         LINE#         246
  C:1065H         LINE#         247
  C:106DH         LINE#         248
  C:1075H         LINE#         249
  C:1077H         LINE#         250
  -------         ENDPROC       I2_QS
  -------         PROC          I2_TZ
  C:1038H         LINE#         252
  C:1038H         LINE#         253
  C:1038H         LINE#         254
  C:103AH         LINE#         255
  C:103EH         LINE#         256
  C:1042H         LINE#         257
  C:1044H         LINE#         258
  C:104CH         LINE#         259
  C:1054H         LINE#         260
  C:1056H         LINE#         261
  C:105AH         LINE#         262
  -------         ENDPROC       I2_TZ
  C:0E04H         SYMBOL        L?0134
  C:0E06H         SYMBOL        L?0135
  -------         PROC          L?0133
  -------         ENDPROC       L?0133
  C:0E04H         SYMBOL        L?0134
  C:0E06H         SYMBOL        L?0135
  -------         PROC          _I2_FS
  D:0007H         SYMBOL        Data
  -------         DO            
  D:0006H         SYMBOL        i
  -------         ENDDO         
  C:0E15H         LINE#         263
  C:0E15H         LINE#         264
  C:0E15H         LINE#         265
  C:0E17H         LINE#         266
  C:0E17H         LINE#         267
  C:0E17H         LINE#         268
  C:0E1BH         LINE#         269
  C:0E1DH         LINE#         270
  C:0E1FH         LINE#         271
  C:0E27H         LINE#         272
  C:0E2FH         LINE#         273
  C:0E31H         LINE#         275
  C:0E36H         LINE#         277
  C:0E38H         LINE#         278
  C:0E3AH         LINE#         279
BL51 BANKED LINKER/LOCATER V6.22                                                      05/11/2020  12:29:29  PAGE 7


  C:0E42H         LINE#         280
  C:0E4AH         LINE#         281
  C:0E4EH         LINE#         282
  C:0E50H         LINE#         283
  C:0E52H         LINE#         284
  -------         ENDPROC       _I2_FS
  -------         PROC          I2_JS
  B:0020H.1       SYMBOL        _ack
  -------         DO            
  D:0007H         SYMBOL        i
  D:0006H         SYMBOL        Data
  -------         ENDDO         
  C:0E53H         LINE#         286
  C:0E53H         LINE#         287
  C:0E53H         LINE#         288
  C:0E56H         LINE#         289
  C:0E56H         LINE#         290
  C:0E56H         LINE#         291
  C:0E5AH         LINE#         292
  C:0E5CH         LINE#         293
  C:0E64H         LINE#         294
  C:0E6CH         LINE#         295
  C:0E72H         LINE#         296
  C:0E74H         LINE#         297
  C:0E78H         LINE#         298
  C:0E7DH         LINE#         300
  C:0E81H         LINE#         301
  C:0E83H         LINE#         302
  C:0E8BH         LINE#         303
  C:0E93H         LINE#         304
  C:0E95H         LINE#         305
  C:0E97H         LINE#         306
  C:0E9BH         LINE#         307
  C:0E9DH         LINE#         308
  -------         ENDPROC       I2_JS
  -------         PROC          _I2CWRITE
  D:0004H         SYMBOL        addr
  D:0005H         SYMBOL        Data
  C:0FE3H         LINE#         316
  C:0FE5H         LINE#         317
  C:0FE5H         LINE#         318
  C:0FE8H         LINE#         319
  C:0FEDH         LINE#         320
  C:0FF3H         LINE#         321
  C:0FF8H         LINE#         322
  C:0FFEH         LINE#         323
  C:1003H         LINE#         324
  C:1009H         LINE#         325
  C:100CH         LINE#         326
  C:100EH         LINE#         327
  -------         ENDPROC       _I2CWRITE
  C:10BAH         SYMBOL        L?0142
  C:10BEH         SYMBOL        L?0143
  -------         PROC          L?0141
  -------         ENDPROC       L?0141
  C:10BAH         SYMBOL        L?0142
  C:10BEH         SYMBOL        L?0143
BL51 BANKED LINKER/LOCATER V6.22                                                      05/11/2020  12:29:29  PAGE 8


  -------         PROC          _I2CREAD
  D:0007H         SYMBOL        addr
  D:0001H         SYMBOL        Data
  C:10C2H         LINE#         333
  C:10C2H         LINE#         334
  C:10C2H         LINE#         344
  C:10C7H         LINE#         345
  -------         ENDPROC       _I2CREAD
  -------         PROC          _I2CREADS
  D:0004H         SYMBOL        addr
  D:0005H         SYMBOL        length
  X:003DH         SYMBOL        Data
  -------         DO            
  D:0004H         SYMBOL        i
  -------         ENDDO         
  C:0D16H         LINE#         352
  C:0D23H         LINE#         353
  C:0D23H         LINE#         355
  C:0D24H         LINE#         356
  C:0D27H         LINE#         357
  C:0D2CH         LINE#         358
  C:0D32H         LINE#         359
  C:0D37H         LINE#         360
  C:0D3DH         LINE#         361
  C:0D40H         LINE#         362
  C:0D45H         LINE#         363
  C:0D4BH         LINE#         364
  C:0D52H         LINE#         365
  C:0D52H         LINE#         366
  C:0D6BH         LINE#         367
  C:0D6EH         LINE#         368
  C:0D89H         LINE#         369
  C:0D8CH         LINE#         370
  C:0D8EH         LINE#         371
  -------         ENDPROC       _I2CREADS
  C:0C9BH         SYMBOL        L?0137
  C:0C9DH         SYMBOL        L?0138
  -------         PROC          L?0136
  -------         ENDPROC       L?0136
  C:0C9BH         SYMBOL        L?0137
  C:0C9DH         SYMBOL        L?0138
  -------         PROC          _WRITEBIT
  X:0035H         SYMBOL        addr
  X:0036H         SYMBOL        bitNum
  X:0037H         SYMBOL        Data
  -------         DO            
  X:0038H         SYMBOL        b
  -------         ENDDO         
  C:0CA1H         LINE#         379
  C:0CAEH         LINE#         380
  C:0CAEH         LINE#         382
  C:0CBAH         LINE#         383
  C:0CBAH         LINE#         384
  C:0D06H         LINE#         385
  C:0D13H         LINE#         386
  C:0D13H         LINE#         388
  C:0D15H         LINE#         389
BL51 BANKED LINKER/LOCATER V6.22                                                      05/11/2020  12:29:29  PAGE 9


  -------         ENDPROC       _WRITEBIT
  -------         PROC          L?0144
  -------         ENDPROC       L?0144
  -------         PROC          _WRITEBITS
  X:0035H         SYMBOL        addr
  X:0036H         SYMBOL        bitStart
  X:0037H         SYMBOL        length
  X:0038H         SYMBOL        Data
  -------         DO            
  X:0039H         SYMBOL        b
  X:003AH         SYMBOL        mask
  -------         ENDDO         
  C:0B97H         LINE#         397
  C:0BA4H         LINE#         398
  C:0BA4H         LINE#         406
  C:0BA9H         LINE#         407
  C:0BB5H         LINE#         408
  C:0BB5H         LINE#         409
  C:0BEBH         LINE#         410
  C:0BFDH         LINE#         411
  C:0C00H         LINE#         412
  C:0C09H         LINE#         413
  C:0C0CH         LINE#         415
  C:0C19H         LINE#         416
  C:0C19H         LINE#         418
  C:0C1BH         LINE#         419
  -------         ENDPROC       _WRITEBITS
  -------         PROC          _READBIT
  D:0007H         SYMBOL        addr
  X:0035H         SYMBOL        bitNum
  X:0036H         SYMBOL        Data
  -------         DO            
  X:0039H         SYMBOL        b
  -------         ENDDO         
  C:0EE8H         LINE#         426
  C:0EF6H         LINE#         427
  C:0EF6H         LINE#         429
  C:0F02H         LINE#         430
  C:0F02H         LINE#         431
  C:0F28H         LINE#         432
  C:0F2BH         LINE#         433
  C:0F2BH         LINE#         435
  C:0F2BH         LINE#         436
  C:0F2DH         LINE#         437
  C:0F2DH         LINE#         438
  -------         ENDPROC       _READBIT
  -------         PROC          L?0145
  -------         ENDPROC       L?0145
  -------         PROC          _READBITS
  D:0007H         SYMBOL        addr
  X:0036H         SYMBOL        bitStart
  X:0037H         SYMBOL        length
  X:0038H         SYMBOL        Data
  -------         DO            
  X:003BH         SYMBOL        b
  X:003CH         SYMBOL        mask
  -------         ENDDO         
BL51 BANKED LINKER/LOCATER V6.22                                                      05/11/2020  12:29:29  PAGE 10


  C:0C20H         LINE#         446
  C:0C28H         LINE#         447
  C:0C28H         LINE#         453
  C:0C2DH         LINE#         454
  C:0C39H         LINE#         455
  C:0C39H         LINE#         457
  C:0C6FH         LINE#         458
  C:0C75H         LINE#         459
  C:0C84H         LINE#         460
  C:0C95H         LINE#         461
  C:0C98H         LINE#         462
  C:0C98H         LINE#         464
  C:0C9AH         LINE#         465
  -------         ENDPROC       _READBITS
  -------         PROC          LOADFIRMWARE
  -------         DO            
  X:0035H         SYMBOL        datanum
  D:0001H         SYMBOL        ye
  D:0003H         SYMBOL        i
  D:0005H         SYMBOL        j
  D:0002H         SYMBOL        bank
  X:0037H         SYMBOL        addr
  -------         ENDDO         
  C:0B00H         LINE#         486
  C:0B00H         LINE#         487
  C:0B00H         LINE#         488
  C:0B07H         LINE#         490
  C:0B08H         LINE#         491
  C:0B0AH         LINE#         493
  C:0B0AH         LINE#         494
  C:0B0AH         LINE#         495
  C:0B0EH         LINE#         496
  C:0B12H         LINE#         498
  C:0B14H         LINE#         499
  C:0B1BH         LINE#         500
  C:0B1BH         LINE#         501
  C:0B1DH         LINE#         502
  C:0B1DH         LINE#         503
  C:0B1DH         LINE#         504
  C:0B1DH         LINE#         505
  C:0B20H         LINE#         506
  C:0B22H         LINE#         507
  C:0B22H         LINE#         508
  C:0B3EH         LINE#         509
  C:0B44H         LINE#         510
  C:0B49H         LINE#         511
  C:0B50H         LINE#         512
  C:0B53H         LINE#         513
  C:0B56H         LINE#         514
  C:0B5CH         LINE#         515
  C:0B5EH         LINE#         516
  C:0B5EH         LINE#         517
  C:0B5EH         LINE#         518
  C:0B5EH         LINE#         519
  C:0B61H         LINE#         520
  C:0B63H         LINE#         521
  C:0B63H         LINE#         522
BL51 BANKED LINKER/LOCATER V6.22                                                      05/11/2020  12:29:29  PAGE 11


  C:0B7FH         LINE#         523
  C:0B85H         LINE#         524
  C:0B8AH         LINE#         525
  C:0B8DH         LINE#         526
  C:0B8FH         LINE#         527
  -------         ENDPROC       LOADFIRMWARE
  -------         PROC          LOADCFGUPD
  -------         DO            
  D:0002H         SYMBOL        line
  D:0007H         SYMBOL        bank
  D:0003H         SYMBOL        datacounts
  D:0001H         SYMBOL        bytes2write
  X:0035H         SYMBOL        offset
  D:0005H         SYMBOL        writingcounts
  D:0007H         SYMBOL        special
  -------         ENDDO         
  C:0D8FH         LINE#         528
  C:0D8FH         LINE#         529
  C:0D8FH         LINE#         532
  C:0D91H         LINE#         538
  C:0D92H         LINE#         539
  C:0D92H         LINE#         540
  C:0D9BH         LINE#         541
  C:0DA4H         LINE#         542
  C:0DADH         LINE#         543
  C:0DB4H         LINE#         544
  C:0DB7H         LINE#         545
  C:0DB7H         LINE#         546
  C:0DB7H         LINE#         547
  C:0DBAH         LINE#         548
  C:0DC1H         LINE#         549
  C:0DC1H         LINE#         550
  C:0DCDH         LINE#         551
  C:0DD3H         LINE#         552
  C:0DD6H         LINE#         553
  C:0DD9H         LINE#         554
  C:0DD9H         LINE#         555
  C:0DE1H         LINE#         556
  C:0DE4H         LINE#         557
  C:0DE4H         LINE#         561
  C:0DEBH         LINE#         562
  C:0DEDH         LINE#         564
  C:0DF0H         LINE#         565
  C:0DF0H         LINE#         566
  C:0DF6H         LINE#         567
  C:0DF9H         LINE#         568
  C:0DFBH         LINE#         569
  -------         ENDPROC       LOADCFGUPD
  -------         PROC          _XDMPUPDATES
  D:0003H         SYMBOL        datacounts
  -------         DO            
  D:0005H         SYMBOL        writingcounts
  D:0007H         SYMBOL        bank
  D:0001H         SYMBOL        offset
  D:0002H         SYMBOL        bytes2write
  -------         ENDDO         
  C:0F2EH         LINE#         571
BL51 BANKED LINKER/LOCATER V6.22                                                      05/11/2020  12:29:29  PAGE 12


  C:0F30H         LINE#         572
  C:0F30H         LINE#         574
  C:0F37H         LINE#         575
  C:0F3DH         LINE#         576
  C:0F43H         LINE#         577
  C:0F4AH         LINE#         578
  C:0F4EH         LINE#         579
  C:0F4EH         LINE#         580
  C:0F4EH         LINE#         581
  C:0F51H         LINE#         582
  C:0F58H         LINE#         583
  C:0F58H         LINE#         584
  C:0F64H         LINE#         585
  C:0F6AH         LINE#         586
  C:0F6DH         LINE#         587
  C:0F70H         LINE#         588
  C:0F72H         LINE#         589
  -------         ENDPROC       _XDMPUPDATES
  -------         PROC          GETFIFOCOUNT
  -------         DO            
  X:0035H         SYMBOL        i
  -------         ENDDO         
  C:1078H         LINE#         591
  C:1078H         LINE#         592
  C:1078H         LINE#         594
  C:1085H         LINE#         597
  C:1094H         LINE#         598
  -------         ENDPROC       GETFIFOCOUNT
  -------         PROC          _READDMP
  D:0001H         SYMBOL        Data
  C:10D4H         LINE#         603
  C:10D4H         LINE#         604
  C:10D4H         LINE#         605
  C:10DBH         LINE#         606
  -------         ENDPROC       _READDMP
  -------         PROC          DMPINITIALIZE
  -------         DO            
  X:002DH         SYMBOL        hwRevision
  X:002EH         SYMBOL        otpValid
  X:002FH         SYMBOL        mpuIntStatus
  X:0030H         SYMBOL        xgOffsetTC
  X:0031H         SYMBOL        ygOffsetTC
  X:0032H         SYMBOL        zgOffsetTC
  X:0033H         SYMBOL        fifoCount
  -------         ENDDO         
  C:087BH         LINE#         609
  C:087BH         LINE#         610
  C:087BH         LINE#         614
  C:0884H         LINE#         615
  C:0889H         LINE#         616
  C:0892H         LINE#         617
  C:0899H         LINE#         618
  C:08A0H         LINE#         619
  C:08ABH         LINE#         620
  C:08B2H         LINE#         621
  C:08BDH         LINE#         622
  C:08D4H         LINE#         623
BL51 BANKED LINKER/LOCATER V6.22                                                      05/11/2020  12:29:29  PAGE 13


  C:08E7H         LINE#         624
  C:08FAH         LINE#         628
  C:08FFH         LINE#         629
  C:0904H         LINE#         630
  C:090CH         LINE#         631
  C:0914H         LINE#         632
  C:0922H         LINE#         633
  C:0929H         LINE#         634
  C:0930H         LINE#         635
  C:093EH         LINE#         636
  C:094CH         LINE#         637
  C:0954H         LINE#         638
  C:095BH         LINE#         639
  C:0962H         LINE#         640
  C:0968H         LINE#         641
  C:0975H         LINE#         642
  C:0983H         LINE#         643
  C:0991H         LINE#         644
  C:099BH         LINE#         645
  C:09A5H         LINE#         646
  C:09A8H         LINE#         647
  C:09B3H         LINE#         649
  C:09B6H         LINE#         651
  C:09BDH         LINE#         652
  C:09C4H         LINE#         653
  C:09CBH         LINE#         654
  C:09D2H         LINE#         655
  C:09D5H         LINE#         656
  C:09DEH         LINE#         657
  C:09E7H         LINE#         658
  C:09F0H         LINE#         659
  C:09FAH         LINE#         660
  C:0A04H         LINE#         661
  C:0A0EH         LINE#         662
  C:0A21H         LINE#         663
  C:0A24H         LINE#         665
  C:0A27H         LINE#         666
  C:0A31H         LINE#         667
  C:0A44H         LINE#         668
  C:0A47H         LINE#         670
  C:0A4AH         LINE#         671
  C:0A54H         LINE#         672
  C:0A5DH         LINE#         673
  C:0A60H         LINE#         674
  C:0A63H         LINE#         676
  C:0A65H         LINE#         677
  -------         ENDPROC       DMPINITIALIZE
  -------         PROC          INITMPU6050
  C:0FB6H         LINE#         679
  C:0FB6H         LINE#         680
  C:0FB6H         LINE#         681
  C:0FC5H         LINE#         682
  C:0FCCH         LINE#         683
  C:0FDAH         LINE#         684
  -------         ENDPROC       INITMPU6050
  -------         PROC          GETDEVICEID
  -------         DO            
BL51 BANKED LINKER/LOCATER V6.22                                                      05/11/2020  12:29:29  PAGE 14


  X:002DH         SYMBOL        b
  -------         ENDDO         
  C:100FH         LINE#         687
  C:100FH         LINE#         688
  C:100FH         LINE#         689
  C:1014H         LINE#         690
  C:102AH         LINE#         691
  C:1037H         LINE#         693
  -------         ENDPROC       GETDEVICEID
  -------         PROC          CSH
  C:0F73H         LINE#         695
  C:0F73H         LINE#         696
  C:0F73H         LINE#         697
  C:0F76H         LINE#         698
  C:0F78H         LINE#         699
  C:0F7AH         LINE#         700
  C:0F7CH         LINE#         701
  C:0F7EH         LINE#         702
  C:0F80H         LINE#         703
  C:0F82H         LINE#         704
  C:0F84H         LINE#         705
  C:0F86H         LINE#         706
  C:0F88H         LINE#         707
  C:0F8AH         LINE#         708
  C:0F8CH         LINE#         713
  C:0F8FH         LINE#         714
  C:0F92H         LINE#         716
  C:0F95H         LINE#         717
  C:0F98H         LINE#         719
  C:0F9BH         LINE#         721
  C:0FA2H         LINE#         722
  C:0FA5H         LINE#         733
  C:0FA8H         LINE#         734
  C:0FABH         LINE#         735
  C:0FAEH         LINE#         736
  C:0FB1H         LINE#         737
  C:0FB3H         LINE#         738
  C:0FB5H         LINE#         739
  -------         ENDPROC       CSH
  C:10AAH         SYMBOL        L?0140
  -------         PROC          L?0139
  -------         ENDPROC       L?0139
  C:10AAH         SYMBOL        L?0140
  -------         PROC          _SENDBYTE
  D:0007H         SYMBOL        dat
  C:10B2H         LINE#         740
  C:10B2H         LINE#         741
  C:10B2H         LINE#         742
  C:10B4H         LINE#         743
  C:10B7H         LINE#         744
  C:10B9H         LINE#         745
  -------         ENDPROC       _SENDBYTE
  -------         PROC          MAIN
  -------         DO            
  X:002AH         SYMBOL        zd
  X:002BH         SYMBOL        i
  -------         ENDDO         
BL51 BANKED LINKER/LOCATER V6.22                                                      05/11/2020  12:29:29  PAGE 15


  C:0A66H         LINE#         748
  C:0A66H         LINE#         749
  C:0A66H         LINE#         752
  C:0A69H         LINE#         753
  C:0A6CH         LINE#         754
  C:0A72H         LINE#         755
  C:0A72H         LINE#         756
  C:0A78H         LINE#         757
  C:0A7AH         LINE#         759
  C:0A7AH         LINE#         760
  C:0A7DH         LINE#         761
  C:0A83H         LINE#         762
  C:0A83H         LINE#         763
  C:0A83H         LINE#         764
  C:0A8EH         LINE#         765
  C:0A95H         LINE#         766
  C:0AABH         LINE#         767
  C:0AABH         LINE#         768
  C:0AB4H         LINE#         769
  C:0AB6H         LINE#         770
  C:0ABDH         LINE#         771
  C:0ABDH         LINE#         772
  C:0AD9H         LINE#         774
  C:0AE5H         LINE#         775
  C:0AE5H         LINE#         776
  C:0AE8H         LINE#         777
  C:0AEBH         LINE#         778
  C:0AEEH         LINE#         779
  C:0AF1H         LINE#         780
  C:0AF4H         LINE#         781
  C:0AF7H         LINE#         782
  C:0AFAH         LINE#         783
  C:0AFDH         LINE#         784
  C:0AFDH         LINE#         785
  C:0AFDH         LINE#         787
  -------         ENDPROC       MAIN
  -------         ENDMOD        MAIN

  -------         MODULE        ?C?CSTPTR
  C:0E9EH         PUBLIC        ?C?CSTPTR
  -------         ENDMOD        ?C?CSTPTR

  -------         MODULE        ?C?CSTOPTR
  C:0EB0H         PUBLIC        ?C?CSTOPTR
  -------         ENDMOD        ?C?CSTOPTR

  -------         MODULE        ?C?ILDIX
  C:0ED2H         PUBLIC        ?C?ILDIX
  -------         ENDMOD        ?C?ILDIX

Program Size: data=9.2 xdata=64 code=4319
LINK/LOCATE RUN COMPLETE.  0 WARNING(S),  0 ERROR(S)
