BL51 BANKED LINKER/LOCATER V6.22                                                        07/19/2020  21:18:29  PAGE 1


BL51 BANKED LINKER/LOCATER V6.22, INVOKED BY:
C:\KEIL_V5\C51\BIN\BL51.EXE .\Objects\STARTUP.obj, .\Objects\main.obj, .\Objects\mpu6050.obj, .\Objects\utils.obj TO .\O
>> bjects\freescale15_mcu2 PRINT (.\Listings\freescale15_mcu2.m51) RAMSIZE (256)


MEMORY MODEL: LARGE WITH FLOATING POINT ARITHMETIC


INPUT MODULES INCLUDED:
  .\Objects\STARTUP.obj (?C_STARTUP)
  .\Objects\main.obj (MAIN)
  .\Objects\mpu6050.obj (MPU6050)
  .\Objects\utils.obj (UTILS)
  C:\KEIL_V5\C51\LIB\C51FPL.LIB (?C?FPADD)
  C:\KEIL_V5\C51\LIB\C51FPL.LIB (?C?FPMUL)
  C:\KEIL_V5\C51\LIB\C51FPL.LIB (?C?FPDIV)
  C:\KEIL_V5\C51\LIB\C51FPL.LIB (?C?FPNEG)
  C:\KEIL_V5\C51\LIB\C51FPL.LIB (?C?FCAST)
  C:\KEIL_V5\C51\LIB\C51FPL.LIB (PRINTF)
  C:\KEIL_V5\C51\LIB\C51FPL.LIB (SQRT)
  C:\KEIL_V5\C51\LIB\C51FPL.LIB (ASIN)
  C:\KEIL_V5\C51\LIB\C51FPL.LIB (?C?FPGETOPN)
  C:\KEIL_V5\C51\LIB\C51FPL.LIB (?C?FPROUND)
  C:\KEIL_V5\C51\LIB\C51FPL.LIB (?C?FPCONVERT)
  C:\KEIL_V5\C51\LIB\C51FPL.LIB (ATAN)
  C:\KEIL_V5\C51\LIB\C51FPL.LIB (?C?FTNPWR)
  C:\KEIL_V5\C51\LIB\C51FPL.LIB (?C?FPSERIES)
  C:\KEIL_V5\C51\LIB\C51L.LIB (?C_INIT)
  C:\KEIL_V5\C51\LIB\C51L.LIB (?C?CLDPTR)
  C:\KEIL_V5\C51\LIB\C51L.LIB (?C?CLDOPTR)
  C:\KEIL_V5\C51\LIB\C51L.LIB (?C?CSTPTR)
  C:\KEIL_V5\C51\LIB\C51L.LIB (?C?CSTOPTR)
  C:\KEIL_V5\C51\LIB\C51L.LIB (?C?ULDIV)
  C:\KEIL_V5\C51\LIB\C51L.LIB (?C?LNEG)
  C:\KEIL_V5\C51\LIB\C51L.LIB (?C?ULCMP)
  C:\KEIL_V5\C51\LIB\C51L.LIB (?C?LLDPTR)
  C:\KEIL_V5\C51\LIB\C51L.LIB (?C?LLDOPTR)
  C:\KEIL_V5\C51\LIB\C51L.LIB (?C?LSTPTR)
  C:\KEIL_V5\C51\LIB\C51L.LIB (?C?LSTOPTR)
  C:\KEIL_V5\C51\LIB\C51L.LIB (?C?LLDIDATA)
  C:\KEIL_V5\C51\LIB\C51L.LIB (?C?LLDXDATA)
  C:\KEIL_V5\C51\LIB\C51L.LIB (?C?LLDCODE)
  C:\KEIL_V5\C51\LIB\C51L.LIB (?C?LLDIDATA0)
  C:\KEIL_V5\C51\LIB\C51L.LIB (?C?LLDXDATA0)
  C:\KEIL_V5\C51\LIB\C51L.LIB (?C?LLDCODE0)
  C:\KEIL_V5\C51\LIB\C51L.LIB (?C?LSTIDATA)
  C:\KEIL_V5\C51\LIB\C51L.LIB (?C?LSTXDATA)
  C:\KEIL_V5\C51\LIB\C51L.LIB (?C?LSTKXDATA)
  C:\KEIL_V5\C51\LIB\C51L.LIB (?C?LSTKPTR)
  C:\KEIL_V5\C51\LIB\C51L.LIB (?C?LSTKOPTR)
  C:\KEIL_V5\C51\LIB\C51L.LIB (?C?PLDIXDATA)
  C:\KEIL_V5\C51\LIB\C51L.LIB (?C?PSTXDATA)
  C:\KEIL_V5\C51\LIB\C51L.LIB (?C?CCASE)
  C:\KEIL_V5\C51\LIB\C51L.LIB (?C?LLDPDATA)
  C:\KEIL_V5\C51\LIB\C51L.LIB (?C?LSTPDATA)
  C:\KEIL_V5\C51\LIB\C51L.LIB (?C?LSTKIDATA)
  C:\KEIL_V5\C51\LIB\C51L.LIB (?C?LSTKPDATA)

BL51 BANKED LINKER/LOCATER V6.22                                                      07/19/2020  21:18:29  PAGE 2



LINK MAP OF MODULE:  .\Objects\freescale15_mcu2 (?C_STARTUP)


            TYPE    BASE      LENGTH    RELOCATION   SEGMENT NAME
            -----------------------------------------------------

            * * * * * * *   D A T A   M E M O R Y   * * * * * * *
            REG     0000H     0008H     ABSOLUTE     "REG BANK 0"
            DATA    0008H     0005H     UNIT         _DATA_GROUP_
                    000DH     0013H                  *** GAP ***
            BIT     0020H.0   0001H.1   UNIT         _BIT_GROUP_
                    0021H.1   0000H.7                *** GAP ***
            IDATA   0022H     001CH     UNIT         ?ID?MPU6050
            IDATA   003EH     0018H     UNIT         _IDATA_GROUP_
            IDATA   0056H     0001H     UNIT         ?STACK

            * * * * * * *  X D A T A   M E M O R Y  * * * * * * *
            XDATA   0000H     0046H     UNIT         _XDATA_GROUP_
            XDATA   0046H     0040H     UNIT         ?XD?MAIN
            XDATA   0086H     0010H     UNIT         ?XD?MPU6050
            XDATA   0096H     0004H     UNIT         ?XD?UTILS

            * * * * * * *   C O D E   M E M O R Y   * * * * * * *
            CODE    0000H     0003H     ABSOLUTE     
            CODE    0003H     0008H     UNIT         ?PR?_UART_SEND_BYTE?MAIN
            CODE    000BH     0003H     ABSOLUTE     
            CODE    000EH     0893H     UNIT         ?C?LIB_CODE
            CODE    08A1H     083FH     UNIT         ?PR?_IMUUPDATE?MPU6050
            CODE    10E0H     0483H     UNIT         ?PR?PRINTF?PRINTF
            CODE    1563H     03EFH     UNIT         ?PR?_CALIBRATE_MPU6050?MPU6050
            CODE    1952H     012EH     UNIT         ?PR?_GET_MPU6050?MPU6050
            CODE    1A80H     0122H     UNIT         ?PR?ATAN?ATAN
            CODE    1BA2H     00ACH     UNIT         ?PR?SQRT?SQRT
            CODE    1C4EH     008CH     UNIT         ?C_C51STARTUP
            CODE    1CDAH     0081H     UNIT         ?PR?TASK_PRINT_MPUDATA?MAIN
            CODE    1D5BH     007FH     UNIT         ?C_INITSEG
            CODE    1DDAH     0064H     UNIT         ?PR?_READ_MPU6050?MPU6050
            CODE    1E3EH     0059H     UNIT         ?PR?TASK_REFRESH_MPUDATA?MAIN
            CODE    1E97H     0056H     UNIT         ?PR?_DELAY_MS?MAIN
            CODE    1EEDH     0052H     UNIT         ?PR?TASK_LED?MAIN
            CODE    1F3FH     004BH     UNIT         ?PR?T0_ISR?MAIN
            CODE    1F8AH     003BH     UNIT         ?PR?ASIN?ASIN
            CODE    1FC5H     0036H     UNIT         ?PR?MAIN?MAIN
            CODE    1FFBH     0033H     UNIT         ?PR?PORT_INIT?MAIN
            CODE    202EH     002FH     UNIT         ?PR?INITMPU6050?MPU6050
            CODE    205DH     002CH     UNIT         ?PR?UART_INIT?MAIN
            CODE    2089H     002AH     UNIT         ?PR?INIT_T0_INTERRUPT?MAIN
            CODE    20B3H     0026H     UNIT         ?PR?GET_CLK?UTILS
            CODE    20D9H     0025H     UNIT         ?CO?MPU6050
            CODE    20FEH     0021H     UNIT         ?PR?I2C_RECVBYTE?MPU6050
            CODE    211FH     001AH     UNIT         ?PR?I2C_START?MPU6050
            CODE    2139H     0019H     UNIT         ?PR?_SINGLE_WRITEI2C?MPU6050
            CODE    2152H     0018H     UNIT         ?CO?MAIN
            CODE    216AH     0015H     UNIT         ?PR?_I2C_SENDBYTE?MPU6050
            CODE    217FH     0012H     UNIT         ?PR?I2C_RECVACK?MPU6050
            CODE    2191H     000FH     UNIT         ?PR?I2C_STOP?MPU6050
BL51 BANKED LINKER/LOCATER V6.22                                                      07/19/2020  21:18:29  PAGE 3


            CODE    21A0H     000EH     UNIT         ?PR?_PUTCHAR?MAIN
            CODE    21AEH     000EH     UNIT         ?PR?DRV_MPU6050_INIT?MPU6050
            CODE    21BCH     000CH     UNIT         ?PR?DELAY2US?MPU6050



OVERLAY MAP OF MODULE:   .\Objects\freescale15_mcu2 (?C_STARTUP)


SEGMENT                                   BIT_GROUP          DATA_GROUP          IDATA_GROUP         XDATA_GROUP
  +--> CALLED SEGMENT                  START    LENGTH     START    LENGTH     START    LENGTH     START    LENGTH
------------------------------------------------------------------------------------------------------------------
?C_C51STARTUP                          -----    -----      -----    -----      -----    -----      -----    -----
  +--> ?PR?MAIN?MAIN
  +--> ?C_INITSEG

?PR?MAIN?MAIN                          -----    -----      -----    -----      -----    -----      -----    -----
  +--> ?PR?INIT_T0_INTERRUPT?MAIN
  +--> ?PR?PORT_INIT?MAIN
  +--> ?PR?UART_INIT?MAIN
  +--> ?PR?GET_CLK?UTILS
  +--> ?CO?MAIN
  +--> ?PR?PRINTF?PRINTF
  +--> ?PR?DRV_MPU6050_INIT?MPU6050
  +--> ?PR?_CALIBRATE_MPU6050?MPU6050
  +--> ?PR?TASK_LED?MAIN
  +--> ?PR?TASK_REFRESH_MPUDATA?MAIN
  +--> ?PR?TASK_PRINT_MPUDATA?MAIN

?PR?INIT_T0_INTERRUPT?MAIN             -----    -----      -----    -----      -----    -----      -----    -----
  +--> ?PR?GET_CLK?UTILS

?PR?UART_INIT?MAIN                     -----    -----      -----    -----      -----    -----      -----    -----
  +--> ?PR?GET_CLK?UTILS

?PR?PRINTF?PRINTF                      0020H.0  0001H.1    0008H    0005H      -----    -----      0015H    0030H
  +--> ?PR?_PUTCHAR?MAIN

?PR?_PUTCHAR?MAIN                      -----    -----      -----    -----      -----    -----      0045H    0001H
  +--> ?PR?_UART_SEND_BYTE?MAIN

?PR?DRV_MPU6050_INIT?MPU6050           -----    -----      -----    -----      -----    -----      -----    -----
  +--> ?PR?INITMPU6050?MPU6050
  +--> ?PR?_DELAY_MS?MAIN

?PR?INITMPU6050?MPU6050                -----    -----      -----    -----      -----    -----      -----    -----
  +--> ?PR?DELAY2US?MPU6050
  +--> ?PR?_SINGLE_WRITEI2C?MPU6050

?PR?_SINGLE_WRITEI2C?MPU6050           -----    -----      -----    -----      -----    -----      -----    -----
  +--> ?PR?I2C_START?MPU6050
  +--> ?PR?_I2C_SENDBYTE?MPU6050
  +--> ?PR?I2C_STOP?MPU6050

?PR?I2C_START?MPU6050                  -----    -----      -----    -----      -----    -----      -----    -----
  +--> ?PR?DELAY2US?MPU6050

BL51 BANKED LINKER/LOCATER V6.22                                                      07/19/2020  21:18:29  PAGE 4


?PR?_I2C_SENDBYTE?MPU6050              -----    -----      -----    -----      -----    -----      -----    -----
  +--> ?PR?DELAY2US?MPU6050
  +--> ?PR?I2C_RECVACK?MPU6050

?PR?I2C_RECVACK?MPU6050                -----    -----      -----    -----      -----    -----      -----    -----
  +--> ?PR?DELAY2US?MPU6050

?PR?I2C_STOP?MPU6050                   -----    -----      -----    -----      -----    -----      -----    -----
  +--> ?PR?DELAY2US?MPU6050

?PR?_DELAY_MS?MAIN                     -----    -----      -----    -----      -----    -----      0000H    0008H

?PR?_CALIBRATE_MPU6050?MPU6050         -----    -----      -----    -----      -----    -----      0000H    0015H
  +--> ?PR?_READ_MPU6050?MPU6050
  +--> ?PR?_IMUUPDATE?MPU6050
  +--> ?CO?MPU6050
  +--> ?PR?PRINTF?PRINTF

?PR?_READ_MPU6050?MPU6050              -----    -----      -----    -----      -----    -----      0015H    0003H
  +--> ?PR?I2C_START?MPU6050
  +--> ?PR?_I2C_SENDBYTE?MPU6050
  +--> ?PR?I2C_RECVBYTE?MPU6050
  +--> ?PR?DELAY2US?MPU6050
  +--> ?PR?I2C_STOP?MPU6050

?PR?I2C_RECVBYTE?MPU6050               -----    -----      -----    -----      -----    -----      -----    -----
  +--> ?PR?DELAY2US?MPU6050

?PR?_IMUUPDATE?MPU6050                 -----    -----      0008H    0004H      003EH    0018H      0015H    000FH
  +--> ?PR?SQRT?SQRT
  +--> ?PR?ASIN?ASIN

?PR?SQRT?SQRT                          -----    -----      -----    -----      -----    -----      0024H    0004H

?PR?ASIN?ASIN                          -----    -----      -----    -----      -----    -----      -----    -----
  +--> ?PR?SQRT?SQRT
  +--> ?PR?ATAN?ATAN

?PR?ATAN?ATAN                          0020H.0  0000H.2    -----    -----      -----    -----      0024H    0004H

?PR?TASK_REFRESH_MPUDATA?MAIN          -----    -----      -----    -----      -----    -----      -----    -----
  +--> ?PR?_GET_MPU6050?MPU6050

?PR?_GET_MPU6050?MPU6050               -----    -----      -----    -----      -----    -----      0000H    0013H
  +--> ?PR?_READ_MPU6050?MPU6050
  +--> ?PR?_IMUUPDATE?MPU6050

?PR?TASK_PRINT_MPUDATA?MAIN            -----    -----      -----    -----      -----    -----      -----    -----
  +--> ?CO?MAIN
  +--> ?PR?PRINTF?PRINTF



SYMBOL TABLE OF MODULE:  .\Objects\freescale15_mcu2 (?C_STARTUP)

  VALUE           TYPE          NAME
  ----------------------------------
BL51 BANKED LINKER/LOCATER V6.22                                                      07/19/2020  21:18:29  PAGE 5



  -------         MODULE        ?C_STARTUP
  C:1C4EH         SEGMENT       ?C_C51STARTUP
  I:0056H         SEGMENT       ?STACK
  C:0000H         PUBLIC        ?C_STARTUP
  D:00E0H         SYMBOL        ACC
  D:00F0H         SYMBOL        B
  D:0083H         SYMBOL        DPH
  D:0082H         SYMBOL        DPL
  N:0000H         SYMBOL        IBPSTACK
  N:0100H         SYMBOL        IBPSTACKTOP
  N:0080H         SYMBOL        IDATALEN
  C:1C51H         SYMBOL        IDATALOOP
  N:0000H         SYMBOL        PBPSTACK
  N:0100H         SYMBOL        PBPSTACKTOP
  N:0000H         SYMBOL        PDATALEN
  N:0000H         SYMBOL        PDATASTART
  N:0000H         SYMBOL        PPAGE
  N:0000H         SYMBOL        PPAGEENABLE
  D:00A0H         SYMBOL        PPAGE_SFR
  D:0081H         SYMBOL        SP
  C:1C4EH         SYMBOL        STARTUP1
  N:0000H         SYMBOL        XBPSTACK
  N:0000H         SYMBOL        XBPSTACKTOP
  N:0000H         SYMBOL        XDATALEN
  N:0000H         SYMBOL        XDATASTART
  C:0000H         LINE#         126
  C:1C4EH         LINE#         133
  C:1C50H         LINE#         134
  C:1C51H         LINE#         135
  C:1C52H         LINE#         136
  C:1C54H         LINE#         185
  C:1C57H         LINE#         196
  -------         ENDMOD        ?C_STARTUP

  -------         MODULE        MAIN
  C:0000H         SYMBOL        _ICE_DUMMY_
  D:0093H         PUBLIC        P0M1
  D:0092H         PUBLIC        P1M0
  D:0096H         PUBLIC        P2M0
  D:0091H         PUBLIC        P1M1
  D:0080H         PUBLIC        P0
  D:00B2H         PUBLIC        P3M0
  D:0095H         PUBLIC        P2M1
  D:0090H         PUBLIC        P1
  D:00B4H         PUBLIC        P4M0
  D:00B1H         PUBLIC        P3M1
  D:00A0H         PUBLIC        P2
  D:00CAH         PUBLIC        P5M0
  D:00B3H         PUBLIC        P4M1
  D:00B0H         PUBLIC        P3
  D:00C9H         PUBLIC        P5M1
  D:00C0H         PUBLIC        P4
  D:00C8H         PUBLIC        P5
  B:00A8H.7       PUBLIC        EA
  D:00BAH         PUBLIC        P_SW2
  D:00A8H         PUBLIC        IE
BL51 BANKED LINKER/LOCATER V6.22                                                      07/19/2020  21:18:29  PAGE 6


  C:2089H         PUBLIC        init_t0_interrupt
  C:1CDAH         PUBLIC        task_print_mpudata
  B:00A8H.4       PUBLIC        ES
  D:00B8H         PUBLIC        IP
  B:0098H.1       PUBLIC        TI
  D:00D8H         PUBLIC        CCON
  C:1FC5H         PUBLIC        main
  D:0099H         PUBLIC        SBUF
  C:1F3FH         PUBLIC        T0_isr
  D:0098H         PUBLIC        SCON
  D:0089H         PUBLIC        TMOD
  D:0088H         PUBLIC        TCON
  D:008EH         PUBLIC        AUXR
  B:00A8H.1       PUBLIC        ET0
  C:1EEDH         PUBLIC        task_led
  D:008CH         PUBLIC        TH0
  D:00D6H         PUBLIC        T2H
  D:008AH         PUBLIC        TL0
  D:00D7H         PUBLIC        T2L
  C:1E97H         PUBLIC        _delay_ms
  C:205DH         PUBLIC        uart_init
  B:00C8H.3       PUBLIC        LED
  B:0088H.4       PUBLIC        TR0
  C:1E3EH         PUBLIC        task_refresh_mpudata
  C:1FFBH         PUBLIC        port_init
  C:0003H         PUBLIC        _uart_send_byte
  X:005EH         PUBLIC        mpudata
  X:0082H         PUBLIC        uw_tick
  D:00D0H         PUBLIC        PSW
  C:21A0H         PUBLIC        _putchar
  D:0094H         PUBLIC        P0M0
  -------         PROC          _DELAY_MS
  X:0000H         SYMBOL        ms
  -------         DO            
  X:0004H         SYMBOL        uw_tick_reg
  -------         ENDDO         
  C:1E97H         LINE#         28
  C:1E9DH         LINE#         29
  C:1E9DH         LINE#         30
  C:1EB1H         LINE#         31
  C:1EECH         LINE#         32
  -------         ENDPROC       _DELAY_MS
  -------         PROC          TASK_LED
  -------         DO            
  X:0046H         SYMBOL        task_interval
  X:004AH         SYMBOL        tick_reg
  -------         ENDDO         
  C:1EEDH         LINE#         33
  C:1EEDH         LINE#         34
  C:1EEDH         LINE#         38
  C:1F28H         LINE#         39
  C:1F3CH         LINE#         43
  C:1F3EH         LINE#         44
  -------         ENDPROC       TASK_LED
  -------         PROC          TASK_REFRESH_MPUDATA
  -------         DO            
  X:004EH         SYMBOL        task_interval
BL51 BANKED LINKER/LOCATER V6.22                                                      07/19/2020  21:18:29  PAGE 7


  X:0052H         SYMBOL        tick_reg
  -------         ENDDO         
  C:1E3EH         LINE#         47
  C:1E3EH         LINE#         48
  C:1E3EH         LINE#         53
  C:1E79H         LINE#         54
  C:1E8DH         LINE#         57
  C:1E96H         LINE#         59
  -------         ENDPROC       TASK_REFRESH_MPUDATA
  -------         PROC          TASK_PRINT_MPUDATA
  -------         DO            
  X:0056H         SYMBOL        task_interval
  X:005AH         SYMBOL        tick_reg
  -------         ENDDO         
  C:1CDAH         LINE#         61
  C:1CDAH         LINE#         62
  C:1CDAH         LINE#         66
  C:1D15H         LINE#         67
  C:1D29H         LINE#         73
  C:1D5AH         LINE#         74
  -------         ENDPROC       TASK_PRINT_MPUDATA
  -------         PROC          _PUTCHAR
  X:0045H         SYMBOL        c
  C:21A0H         LINE#         76
  C:21A5H         LINE#         77
  C:21A5H         LINE#         78
  C:21A8H         LINE#         79
  C:21ADH         LINE#         80
  -------         ENDPROC       _PUTCHAR
  -------         PROC          MAIN
  C:1FC5H         LINE#         83
  C:1FC5H         LINE#         84
  C:1FC5H         LINE#         85
  C:1FC8H         LINE#         86
  C:1FCBH         LINE#         87
  C:1FCEH         LINE#         88
  C:1FE4H         LINE#         89
  C:1FE7H         LINE#         90
  C:1FF0H         LINE#         93
  C:1FF0H         LINE#         94
  C:1FF0H         LINE#         95
  C:1FF3H         LINE#         96
  C:1FF6H         LINE#         97
  C:1FF9H         LINE#         100
  -------         ENDPROC       MAIN
  -------         PROC          T0_ISR
  C:1F3FH         LINE#         113
  C:1F56H         LINE#         115
  C:1F75H         LINE#         117
  -------         ENDPROC       T0_ISR
  -------         PROC          INIT_T0_INTERRUPT
  -------         DO            
  D:0006H         SYMBOL        t0_count_need
  D:0004H         SYMBOL        t0_count
  -------         ENDDO         
  C:2089H         LINE#         127
  C:2089H         LINE#         128
BL51 BANKED LINKER/LOCATER V6.22                                                      07/19/2020  21:18:29  PAGE 8


  C:2089H         LINE#         129
  C:209FH         LINE#         130
  C:20A5H         LINE#         133
  C:20A7H         LINE#         134
  C:20A9H         LINE#         135
  C:20ACH         LINE#         136
  C:20ACH         LINE#         138
  C:20AEH         LINE#         139
  C:20B0H         LINE#         140
  C:20B2H         LINE#         141
  -------         ENDPROC       INIT_T0_INTERRUPT
  -------         PROC          PORT_INIT
  C:1FFBH         LINE#         144
  C:1FFBH         LINE#         145
  C:1FFBH         LINE#         148
  C:1FFEH         LINE#         149
  C:2000H         LINE#         150
  C:2002H         LINE#         151
  C:2004H         LINE#         152
  C:2006H         LINE#         153
  C:2008H         LINE#         154
  C:200AH         LINE#         155
  C:200CH         LINE#         156
  C:200EH         LINE#         157
  C:2010H         LINE#         158
  C:2012H         LINE#         159
  C:2014H         LINE#         164
  C:2017H         LINE#         165
  C:201AH         LINE#         167
  C:201DH         LINE#         168
  C:2020H         LINE#         170
  C:2023H         LINE#         172
  C:202AH         LINE#         173
  C:202DH         LINE#         175
  -------         ENDPROC       PORT_INIT
  -------         PROC          UART_INIT
  -------         DO            
  D:0006H         SYMBOL        reload_value
  -------         ENDDO         
  C:205DH         LINE#         179
  C:205DH         LINE#         180
  C:205DH         LINE#         187
  C:207AH         LINE#         190
  C:207DH         LINE#         191
  C:207FH         LINE#         192
  C:2081H         LINE#         193
  C:2084H         LINE#         194
  C:2086H         LINE#         195
  C:2088H         LINE#         197
  -------         ENDPROC       UART_INIT
  -------         PROC          _UART_SEND_BYTE
  D:0007H         SYMBOL        dat
  C:0003H         LINE#         199
  C:0003H         LINE#         200
  C:0003H         LINE#         201
  C:0005H         LINE#         202
  C:0008H         LINE#         203
BL51 BANKED LINKER/LOCATER V6.22                                                      07/19/2020  21:18:29  PAGE 9


  C:000AH         LINE#         204
  -------         ENDPROC       _UART_SEND_BYTE
  -------         ENDMOD        MAIN

  -------         MODULE        MPU6050
  C:0000H         SYMBOL        _ICE_DUMMY_
  D:0080H         PUBLIC        P0
  D:0090H         PUBLIC        P1
  C:217FH         PUBLIC        I2C_RecvACK
  D:00A0H         PUBLIC        P2
  X:0086H         PUBLIC        gx_zero
  D:00B0H         PUBLIC        P3
  X:008AH         PUBLIC        gy_zero
  D:00C0H         PUBLIC        P4
  X:008EH         PUBLIC        gz_zero
  D:00C8H         PUBLIC        P5
  I:0022H         PUBLIC        exInt
  I:0026H         PUBLIC        eyInt
  I:002AH         PUBLIC        ezInt
  C:21C3H         PUBLIC        Delay2us
  D:00A8H         PUBLIC        IE
  C:2139H         PUBLIC        _Single_WriteI2C
  D:00B8H         PUBLIC        IP
  B:00D0H.7       PUBLIC        CY
  C:1DDAH         PUBLIC        _Read_MPU6050
  I:002EH         PUBLIC        q0
  I:0032H         PUBLIC        q1
  I:0036H         PUBLIC        q2
  I:003AH         PUBLIC        q3
  D:00D8H         PUBLIC        CCON
  C:1563H         PUBLIC        _calibrate_mpu6050
  C:211FH         PUBLIC        I2C_Start
  D:0098H         PUBLIC        SCON
  D:0088H         PUBLIC        TCON
  X:0092H         PUBLIC        Kp
  C:1952H         PUBLIC        _get_mpu6050
  C:216AH         PUBLIC        _I2C_SendByte
  C:2191H         PUBLIC        I2C_Stop
  C:20FEH         PUBLIC        I2C_RecvByte
  C:202EH         PUBLIC        InitMPU6050
  B:0090H.4       PUBLIC        SDA
  B:0090H.5       PUBLIC        SCL
  C:21AEH         PUBLIC        drv_mpu6050_init
  C:08A1H         PUBLIC        _IMUupdate
  D:00D0H         PUBLIC        PSW
  C:21BCH         SYMBOL        L?0034
  -------         PROC          L?0033
  -------         ENDPROC       L?0033
  C:21BCH         SYMBOL        L?0034
  -------         PROC          DELAY2US
  -------         DO            
  D:0007H         SYMBOL        i
  -------         ENDDO         
  C:21C3H         LINE#         24
  C:21C3H         LINE#         25
  C:21C3H         LINE#         27
  C:21C5H         LINE#         28
BL51 BANKED LINKER/LOCATER V6.22                                                      07/19/2020  21:18:29  PAGE 10


  C:21C7H         LINE#         29
  -------         ENDPROC       DELAY2US
  -------         PROC          I2C_START
  C:211FH         LINE#         34
  C:211FH         LINE#         35
  C:211FH         LINE#         36
  C:2122H         LINE#         37
  C:2125H         LINE#         38
  C:2127H         LINE#         39
  C:2129H         LINE#         40
  C:212CH         LINE#         41
  C:212FH         LINE#         42
  C:2131H         LINE#         43
  C:2134H         LINE#         44
  C:2136H         LINE#         45
  -------         ENDPROC       I2C_START
  -------         PROC          I2C_STOP
  C:2191H         LINE#         51
  C:2191H         LINE#         52
  C:2191H         LINE#         53
  C:2194H         LINE#         54
  C:2196H         LINE#         55
  C:2198H         LINE#         56
  C:219BH         LINE#         57
  C:219DH         LINE#         58
  -------         ENDPROC       I2C_STOP
  -------         PROC          I2C_RECVACK
  C:217FH         LINE#         64
  C:217FH         LINE#         65
  C:217FH         LINE#         66
  C:2181H         LINE#         67
  C:2184H         LINE#         68
  C:2186H         LINE#         69
  C:2189H         LINE#         70
  C:218BH         LINE#         71
  C:218DH         LINE#         72
  C:2190H         LINE#         73
  C:2190H         LINE#         74
  -------         ENDPROC       I2C_RECVACK
  -------         PROC          _I2C_SENDBYTE
  D:0006H         SYMBOL        dat
  -------         DO            
  D:0005H         SYMBOL        i
  -------         ENDDO         
  C:216AH         LINE#         79
  C:216CH         LINE#         80
  C:216CH         LINE#         82
  C:216EH         LINE#         83
  C:216EH         LINE#         84
  C:2172H         LINE#         85
  C:2174H         LINE#         86
  C:2174H         LINE#         87
  C:2174H         LINE#         88
  C:2174H         LINE#         89
  C:2177H         LINE#         90
  C:217CH         LINE#         91
  -------         ENDPROC       _I2C_SENDBYTE
BL51 BANKED LINKER/LOCATER V6.22                                                      07/19/2020  21:18:29  PAGE 11


  -------         PROC          I2C_RECVBYTE
  -------         DO            
  D:0005H         SYMBOL        i
  D:0006H         SYMBOL        dat
  -------         ENDDO         
  C:20FEH         LINE#         97
  C:20FEH         LINE#         98
  C:20FEH         LINE#         100
  C:2100H         LINE#         101
  C:2102H         LINE#         102
  C:2103H         LINE#         103
  C:2103H         LINE#         104
  C:2107H         LINE#         105
  C:2109H         LINE#         106
  C:210CH         LINE#         107
  C:2112H         LINE#         108
  C:2114H         LINE#         109
  C:2117H         LINE#         110
  C:211CH         LINE#         111
  C:211EH         LINE#         112
  -------         ENDPROC       I2C_RECVBYTE
  -------         PROC          _SINGLE_WRITEI2C
  D:0003H         SYMBOL        REG_Address
  D:0004H         SYMBOL        REG_data
  C:2139H         LINE#         117
  C:213DH         LINE#         118
  C:213DH         LINE#         119
  C:2140H         LINE#         120
  C:2145H         LINE#         121
  C:214AH         LINE#         122
  C:214FH         LINE#         123
  -------         ENDPROC       _SINGLE_WRITEI2C
  -------         PROC          INITMPU6050
  C:202EH         LINE#         153
  C:202EH         LINE#         154
  C:202EH         LINE#         156
  C:2031H         LINE#         157
  C:2034H         LINE#         158
  C:2037H         LINE#         159
  C:203AH         LINE#         161
  C:2041H         LINE#         162
  C:2048H         LINE#         163
  C:204FH         LINE#         164
  C:2056H         LINE#         165
  -------         ENDPROC       INITMPU6050
  -------         PROC          _READ_MPU6050
  X:0015H         SYMBOL        buf
  -------         DO            
  D:0004H         SYMBOL        i
  -------         ENDDO         
  C:1DDAH         LINE#         168
  C:1DE5H         LINE#         169
  C:1DE5H         LINE#         172
  C:1DE8H         LINE#         173
  C:1DEDH         LINE#         174
  C:1DF2H         LINE#         175
  C:1DF5H         LINE#         176
BL51 BANKED LINKER/LOCATER V6.22                                                      07/19/2020  21:18:29  PAGE 12


  C:1DFAH         LINE#         177
  C:1DFCH         LINE#         178
  C:1DFCH         LINE#         179
  C:1E13H         LINE#         180
  C:1E15H         LINE#         181
  C:1E15H         LINE#         182
  C:1E15H         LINE#         183
  C:1E15H         LINE#         184
  C:1E18H         LINE#         185
  C:1E1DH         LINE#         186
  C:1E36H         LINE#         187
  C:1E38H         LINE#         188
  C:1E38H         LINE#         189
  C:1E38H         LINE#         190
  C:1E38H         LINE#         191
  C:1E3BH         LINE#         192
  -------         ENDPROC       _READ_MPU6050
  -------         PROC          _IMUUPDATE
  X:0015H         SYMBOL        mpudata
  -------         DO            
  D:0008H         SYMBOL        norm
  I:003EH         SYMBOL        vx
  I:0042H         SYMBOL        vy
  I:0046H         SYMBOL        vz
  I:004AH         SYMBOL        ex
  I:004EH         SYMBOL        ey
  I:0052H         SYMBOL        ez
  X:0018H         SYMBOL        gx
  X:001CH         SYMBOL        gy
  X:0020H         SYMBOL        gz
  -------         ENDDO         
  C:08A1H         LINE#         285
  C:08ACH         LINE#         286
  C:08ACH         LINE#         290
  C:08C0H         LINE#         291
  C:08E2H         LINE#         292
  C:0904H         LINE#         293
  C:0989H         LINE#         294
  C:09B6H         LINE#         295
  C:09E3H         LINE#         296
  C:0A10H         LINE#         302
  C:0A4BH         LINE#         303
  C:0A86H         LINE#         304
  C:0B00H         LINE#         306
  C:0B4AH         LINE#         307
  C:0B94H         LINE#         308
  C:0BDEH         LINE#         310
  C:0C0BH         LINE#         311
  C:0C38H         LINE#         312
  C:0C65H         LINE#         314
  C:0C9AH         LINE#         315
  C:0CCFH         LINE#         316
  C:0D04H         LINE#         318
  C:0DA7H         LINE#         319
  C:0E3FH         LINE#         320
  C:0ECFH         LINE#         321
  C:0F67H         LINE#         323
BL51 BANKED LINKER/LOCATER V6.22                                                      07/19/2020  21:18:29  PAGE 13


  C:0FE2H         LINE#         324
  C:0FF7H         LINE#         325
  C:100CH         LINE#         326
  C:1021H         LINE#         327
  C:1036H         LINE#         329
  C:108BH         LINE#         330
  -------         ENDPROC       _IMUUPDATE
  -------         PROC          _CALIBRATE_MPU6050
  X:0000H         SYMBOL        mpudata
  -------         DO            
  X:0003H         SYMBOL        i
  X:0005H         SYMBOL        tp
  -------         ENDDO         
  C:1563H         LINE#         334
  C:156EH         LINE#         335
  C:156EH         LINE#         336
  C:1573H         LINE#         338
  C:157DH         LINE#         339
  C:1587H         LINE#         340
  C:1591H         LINE#         341
  C:15A6H         LINE#         342
  C:15B0H         LINE#         343
  C:15BAH         LINE#         344
  C:15C1H         LINE#         345
  C:15D6H         LINE#         346
  C:15E0H         LINE#         347
  C:15E7H         LINE#         348
  C:15E7H         LINE#         349
  C:15F0H         LINE#         350
  C:1642H         LINE#         351
  C:1694H         LINE#         352
  C:16E6H         LINE#         353
  C:1723H         LINE#         354
  C:1760H         LINE#         355
  C:179DH         LINE#         356
  C:17BFH         LINE#         357
  C:17EBH         LINE#         358
  C:1817H         LINE#         359
  C:1843H         LINE#         360
  C:1861H         LINE#         361
  C:187FH         LINE#         362
  C:189DH         LINE#         364
  C:18BBH         LINE#         365
  C:18C2H         LINE#         366
  C:18C2H         LINE#         367
  C:18D0H         LINE#         368
  C:18EFH         LINE#         369
  C:190DH         LINE#         371
  -------         ENDPROC       _CALIBRATE_MPU6050
  -------         PROC          DRV_MPU6050_INIT
  C:21AEH         LINE#         375
  C:21AEH         LINE#         376
  C:21AEH         LINE#         377
  C:21B1H         LINE#         378
  -------         ENDPROC       DRV_MPU6050_INIT
  -------         PROC          _GET_MPU6050
  X:0000H         SYMBOL        mpudata
BL51 BANKED LINKER/LOCATER V6.22                                                      07/19/2020  21:18:29  PAGE 14


  -------         DO            
  X:0003H         SYMBOL        tp
  -------         ENDDO         
  C:1952H         LINE#         382
  C:195DH         LINE#         383
  C:195DH         LINE#         385
  C:1966H         LINE#         387
  C:198CH         LINE#         388
  C:19B2H         LINE#         389
  C:19D8H         LINE#         390
  C:1A0DH         LINE#         391
  C:1A45H         LINE#         392
  C:1A7DH         LINE#         394
  -------         ENDPROC       _GET_MPU6050
  -------         ENDMOD        MPU6050

  -------         MODULE        UTILS
  C:0000H         SYMBOL        _ICE_DUMMY_
  D:0080H         PUBLIC        P0
  D:0090H         PUBLIC        P1
  D:00A0H         PUBLIC        P2
  D:00B0H         PUBLIC        P3
  D:00C0H         PUBLIC        P4
  D:00C8H         PUBLIC        P5
  D:00A8H         PUBLIC        IE
  D:00B8H         PUBLIC        IP
  D:00D8H         PUBLIC        CCON
  D:0098H         PUBLIC        SCON
  D:0088H         PUBLIC        TCON
  C:20B3H         PUBLIC        get_clk
  D:009DH         PUBLIC        IRCBAND
  D:00D0H         PUBLIC        PSW
  X:0096H         PUBLIC        sys_clk
  -------         PROC          GET_CLK
  C:20B3H         LINE#         86
  C:20B3H         LINE#         87
  C:20B3H         LINE#         88
  C:20B7H         LINE#         89
  C:20C2H         LINE#         90
  C:20C9H         LINE#         92
  C:20D0H         LINE#         94
  C:20D8H         LINE#         96
  -------         ENDPROC       GET_CLK
  -------         ENDMOD        UTILS

  -------         MODULE        ?C?FPADD
  C:0015H         PUBLIC        ?C?FPADD
  C:0011H         PUBLIC        ?C?FPSUB
  -------         ENDMOD        ?C?FPADD

  -------         MODULE        ?C?FPMUL
  C:0106H         PUBLIC        ?C?FPMUL
  -------         ENDMOD        ?C?FPMUL

  -------         MODULE        ?C?FPDIV
  C:020FH         PUBLIC        ?C?FPDIV
  -------         ENDMOD        ?C?FPDIV
BL51 BANKED LINKER/LOCATER V6.22                                                      07/19/2020  21:18:29  PAGE 15



  -------         MODULE        ?C?FPNEG
  C:02ACH         PUBLIC        ?C?FPNEG
  -------         ENDMOD        ?C?FPNEG

  -------         MODULE        ?C?FCAST
  C:02C7H         PUBLIC        ?C?FCASTC
  C:02C2H         PUBLIC        ?C?FCASTI
  C:02BDH         PUBLIC        ?C?FCASTL
  -------         ENDMOD        ?C?FCAST

  -------         MODULE        PRINTF
  X:0015H         PUBLIC        ?_PRINTF?BYTE
  X:0015H         PUBLIC        ?_SPRINTF?BYTE
  C:114BH         PUBLIC        _PRINTF
  C:1145H         PUBLIC        _SPRINTF
  -------         ENDMOD        PRINTF

  -------         MODULE        SQRT
  C:1BA6H         PUBLIC        _SQRT
  -------         ENDMOD        SQRT

  -------         MODULE        ASIN
  C:1F8AH         PUBLIC        _ASIN
  -------         ENDMOD        ASIN

  -------         MODULE        ?C?FPROUND
  C:0345H         PUBLIC        ?C?FPROUND
  -------         ENDMOD        ?C?FPROUND

  -------         MODULE        ?C?FPCONVERT
  C:0382H         PUBLIC        ?C?FPCONVERT
  -------         ENDMOD        ?C?FPCONVERT

  -------         MODULE        ATAN
  C:1AA0H         PUBLIC        _ATAN
  -------         ENDMOD        ATAN

  -------         MODULE        ?C?FTNPWR
  C:04B7H         PUBLIC        ?C?FTNPWR
  -------         ENDMOD        ?C?FTNPWR

  -------         MODULE        ?C?CLDPTR
  C:0544H         PUBLIC        ?C?CLDPTR
  -------         ENDMOD        ?C?CLDPTR

  -------         MODULE        ?C?CLDOPTR
  C:055DH         PUBLIC        ?C?CLDOPTR
  -------         ENDMOD        ?C?CLDOPTR

  -------         MODULE        ?C?CSTPTR
  C:058AH         PUBLIC        ?C?CSTPTR
  -------         ENDMOD        ?C?CSTPTR

  -------         MODULE        ?C?CSTOPTR
  C:059CH         PUBLIC        ?C?CSTOPTR
  -------         ENDMOD        ?C?CSTOPTR
BL51 BANKED LINKER/LOCATER V6.22                                                      07/19/2020  21:18:29  PAGE 16



  -------         MODULE        ?C?ULDIV
  C:05FAH         PUBLIC        ?C?ULDIV
  -------         ENDMOD        ?C?ULDIV

  -------         MODULE        ?C?LNEG
  C:068CH         PUBLIC        ?C?LNEG
  -------         ENDMOD        ?C?LNEG

  -------         MODULE        ?C?ULCMP
  C:069AH         PUBLIC        ?C?ULCMP
  -------         ENDMOD        ?C?ULCMP

  -------         MODULE        ?C?LLDPTR
  C:06ABH         PUBLIC        ?C?LLDPTR
  -------         ENDMOD        ?C?LLDPTR

  -------         MODULE        ?C?LLDOPTR
  C:06CBH         PUBLIC        ?C?LLDOPTR
  -------         ENDMOD        ?C?LLDOPTR

  -------         MODULE        ?C?LSTPTR
  C:06FBH         PUBLIC        ?C?LSTPTR
  -------         ENDMOD        ?C?LSTPTR

  -------         MODULE        ?C?LSTOPTR
  C:0715H         PUBLIC        ?C?LSTOPTR
  -------         ENDMOD        ?C?LSTOPTR

  -------         MODULE        ?C?LLDIDATA
  C:0739H         PUBLIC        ?C?LLDIDATA
  -------         ENDMOD        ?C?LLDIDATA

  -------         MODULE        ?C?LLDXDATA
  C:0745H         PUBLIC        ?C?LLDXDATA
  -------         ENDMOD        ?C?LLDXDATA

  -------         MODULE        ?C?LLDCODE
  C:0751H         PUBLIC        ?C?LLDCODE
  -------         ENDMOD        ?C?LLDCODE

  -------         MODULE        ?C?LLDIDATA0
  C:0761H         PUBLIC        ?C?LLDIDATA0
  -------         ENDMOD        ?C?LLDIDATA0

  -------         MODULE        ?C?LLDXDATA0
  C:076EH         PUBLIC        ?C?LLDXDATA0
  -------         ENDMOD        ?C?LLDXDATA0

  -------         MODULE        ?C?LLDCODE0
  C:077AH         PUBLIC        ?C?LLDCODE0
  -------         ENDMOD        ?C?LLDCODE0

  -------         MODULE        ?C?LSTIDATA
  C:078AH         PUBLIC        ?C?LSTIDATA
  -------         ENDMOD        ?C?LSTIDATA

BL51 BANKED LINKER/LOCATER V6.22                                                      07/19/2020  21:18:29  PAGE 17


  -------         MODULE        ?C?LSTXDATA
  C:0796H         PUBLIC        ?C?LSTXDATA
  -------         ENDMOD        ?C?LSTXDATA

  -------         MODULE        ?C?LSTKXDATA
  C:07A2H         PUBLIC        ?C?LSTKXDATA
  -------         ENDMOD        ?C?LSTKXDATA

  -------         MODULE        ?C?LSTKPTR
  C:07D3H         PUBLIC        ?C?LSTKPTR
  -------         ENDMOD        ?C?LSTKPTR

  -------         MODULE        ?C?LSTKOPTR
  C:07EDH         PUBLIC        ?C?LSTKOPTR
  -------         ENDMOD        ?C?LSTKOPTR

  -------         MODULE        ?C?PLDIXDATA
  C:0811H         PUBLIC        ?C?PLDIXDATA
  -------         ENDMOD        ?C?PLDIXDATA

  -------         MODULE        ?C?PSTXDATA
  C:0828H         PUBLIC        ?C?PSTXDATA
  -------         ENDMOD        ?C?PSTXDATA

  -------         MODULE        ?C?CCASE
  C:0831H         PUBLIC        ?C?CCASE
  -------         ENDMOD        ?C?CCASE

  -------         MODULE        ?C?LLDPDATA
  C:0857H         PUBLIC        ?C?LLDPDATA
  -------         ENDMOD        ?C?LLDPDATA

  -------         MODULE        ?C?LSTPDATA
  C:0863H         PUBLIC        ?C?LSTPDATA
  -------         ENDMOD        ?C?LSTPDATA

  -------         MODULE        ?C?LSTKIDATA
  C:086FH         PUBLIC        ?C?LSTKIDATA
  -------         ENDMOD        ?C?LSTKIDATA

  -------         MODULE        ?C?LSTKPDATA
  C:0888H         PUBLIC        ?C?LSTKPDATA
  -------         ENDMOD        ?C?LSTKPDATA

Program Size: data=67.1 xdata=154 code=8648
LINK/LOCATE RUN COMPLETE.  0 WARNING(S),  0 ERROR(S)
