C51 COMPILER V9.54   MAIN                                                                  07/19/2020 21:13:51 PAGE 1   


C51 COMPILER V9.54, COMPILATION OF MODULE MAIN
OBJECT MODULE PLACED IN .\Objects\main.obj
COMPILER INVOKED BY: C:\Keil_v5\C51\BIN\C51.EXE main.c LARGE OPTIMIZE(8,SPEED) BROWSE DEBUG OBJECTEXTEND PRINT(.\Listing
                    -s\main.lst) TABS(2) OBJECT(.\Objects\main.obj)

line level    source

   1          
   2          #include "intrins.h" 
   3          #include "utils.h"
   4          #include "stdio.h"
   5          #include "MPU6050.H"
   6          
   7          
   8          
   9          
  10          #define BRT 115200      //UART波特率
  11          #define T0_TICK_MS 1    //多少毫秒一次系统心跳
  12          
  13          
  14          
  15          sbit LED = P5^3;
  16          
  17          void port_init();
  18          void uart_init();
  19          void init_t0_interrupt();
  20          void uart_send_byte(unsigned char dat);
  21          void drv_mpu6050_init();
  22          void get_mpu6050(mpudata_t* mpudata);
  23          void calibrate_mpu6050(mpudata_t* mpudata);
  24          
  25          uint32_t uw_tick = 0;
  26          mpudata_t mpudata;
  27          
  28          void delay_ms(uint32_t ms)
  29          {
  30   1        uint32_t uw_tick_reg = uw_tick;
  31   1        while(uw_tick - uw_tick_reg < ms);
  32   1      }
  33          void task_led()
  34          {
  35   1        static unsigned long task_interval = 500; //任务执行间隔（毫秒）
  36   1        static unsigned long tick_reg = 0;      //记录上一次的tick值
  37   1        
  38   1        if(uw_tick - tick_reg > task_interval)
  39   1          tick_reg = uw_tick; //记录上一次的值
  40   1        else
  41   1          return;
  42   1      
  43   1        LED = ~LED;
  44   1      }
  45          
  46          
  47          void task_refresh_mpudata()
  48          {
  49   1        static unsigned long task_interval = 10; //任务执行间隔（毫秒）
  50   1        static unsigned long tick_reg = 0;      //记录上一次的tick值
  51   1        
  52   1        
  53   1        if(uw_tick - tick_reg > task_interval)
  54   1          tick_reg = uw_tick; //记录上一次的值
C51 COMPILER V9.54   MAIN                                                                  07/19/2020 21:13:51 PAGE 2   

  55   1        else
  56   1          return;
  57   1        get_mpu6050(&mpudata);
  58   1        
  59   1      }
  60          
  61          void task_print_mpudata()
  62          {
  63   1        static unsigned long task_interval = 100; //任务执行间隔（毫秒）
  64   1        static unsigned long tick_reg = 0;      //记录上一次的tick值
  65   1        
  66   1        if(uw_tick - tick_reg > task_interval)
  67   1          tick_reg = uw_tick; //记录上一次的值
  68   1        else
  69   1          return;
  70   1        
  71   1        //printf("g (%f, %f, %f)\r\n", mpudata.gx, mpudata.gy, mpudata.gz);
  72   1        //printf("a (%f, %f, %f)\r\n", mpudata.ax, mpudata.ay, mpudata.az);
  73   1        printf("(%f, %f)\r\n", mpudata.pitch, mpudata.roll);
  74   1      }
  75          
  76          char putchar(char c)//printf重定向
  77          {
  78   1        uart_send_byte(c);
  79   1        return c;
  80   1      }
  81          
  82          
  83          void main()
  84          {
  85   1        init_t0_interrupt();
  86   1        port_init();
  87   1        uart_init();
  88   1        printf("sys_clk:%f\r\n", (float)get_clk());
  89   1        drv_mpu6050_init();
  90   1        calibrate_mpu6050(&mpudata);
  91   1        
  92   1       
  93   1        while(1)
  94   1        {
  95   2          task_led();
  96   2          task_refresh_mpudata();
  97   2          task_print_mpudata();
  98   2          
  99   2          
 100   2        }
 101   1        
 102   1        
 103   1        
 104   1        
 105   1        while(1);
 106   1      }
 107          
 108          /************************************************************************
 109          * @brief  定时器T0的中断服务函数
 110          * @param  无传入参数
 111          * @retval 无返回值
 112          *************************************************************************/
 113          void T0_isr() interrupt  1
 114          {
 115   1        uw_tick += T0_TICK_MS;        //全局系统心跳计数自增
 116   1        
C51 COMPILER V9.54   MAIN                                                                  07/19/2020 21:13:51 PAGE 3   

 117   1      }
 118          
 119          
 120          
 121          
 122          /************************************************************************
 123          * @brief  启动定时器中断
 124          * @param  无传入参数
 125          * @retval 无返回值
 126          *************************************************************************/
 127          void init_t0_interrupt()
 128          {
 129   1        uint16_t t0_count_need = (get_clk()/12 * T0_TICK_MS/1000 );
 130   1        uint16_t t0_count = (65536 - t0_count_need);
 131   1        
 132   1        //下面给出6步启动定时器中断的方法
 133   1        TH0 = (uint8_t)(t0_count >> 8); //给定时器装载初值        ①
 134   1        TL0 = (uint8_t)(t0_count); //给定时器装载初值        ②
 135   1        TMOD &= 0xF0;     //设置定时器工作模式      ③
 136   1        TMOD |= 0x00;     //设置定时器工作模式      ③
 137   1        //TMOD = 0x00;    //设置定时器工作模式      ③
 138   1        ET0  = true;      //使能定时器T0中断        ④
 139   1        EA   = true;      //使能全局中断            ⑤
 140   1        TR0  = true;      //启动定时器              ⑥
 141   1      }
 142          
 143          
 144          void port_init()
 145          {
 146   1        //上电默认是浮空输入
 147   1        //全部端口准双向输出（超弱上拉，上拉电流约200ua）
 148   1        P0M0 = 0x00; 
 149   1        P0M1 = 0x00; 
 150   1        P1M0 = 0x00; 
 151   1        P1M1 = 0x00; 
 152   1        P2M0 = 0x00; 
 153   1        P2M1 = 0x00; 
 154   1        P3M0 = 0x00; 
 155   1        P3M1 = 0x00; 
 156   1        P4M0 = 0x00; 
 157   1        P4M1 = 0x00; 
 158   1        P5M0 = 0x00; 
 159   1        P5M1 = 0x00;
 160   1        
 161   1        
 162   1        
 163   1        //P1.5推挽输出
 164   1        P1M0 |=   0x01 << 5; 
 165   1        P1M1 &= ~(0x01 << 5);
 166   1        //P1.4准双向口
 167   1        P1M0 &= ~(0x01 << 4);
 168   1        P1M1 &= ~(0x01 << 4);
 169   1        
 170   1        P_SW2 |= 0x80;
 171   1        //使能P1.4上拉
 172   1        P1PU  |= 0x01 << 4;
 173   1        P_SW2 &= 0x7F;
 174   1        
 175   1      }
 176          
 177          
 178          
C51 COMPILER V9.54   MAIN                                                                  07/19/2020 21:13:51 PAGE 4   

 179          void uart_init()
 180          {
 181   1        /*SCON  = 0x50;           // SCON: 模式 1, 8-bit UART, 使能接收  
 182   1        TMOD |= 0x20;           // TMOD: timer 1, mode 2, 8-bit 重装
 183   1        TH1   = 0xFD;           // TH1:  重装值 9600 波特率 晶振 11.0592MHz  
 184   1        TR1   = 1;              // TR1:  timer 1 打开                         
 185   1        EA    = 1;              // 打开总中断
 186   1        */
 187   1        uint16_t reload_value = (65536 - get_clk() / BRT / 4);
 188   1        
 189   1        //串口1，定时器2
 190   1        SCON = 0x50;
 191   1        T2L = reload_value; 
 192   1        T2H = reload_value >> 8; 
 193   1        AUXR = 0x15;
 194   1        ES = 0; 
 195   1        EA = 1;
 196   1        
 197   1      }
 198          
 199          void uart_send_byte(unsigned char dat) //发送一个字符
 200          {
 201   1       SBUF = dat; //SBUF 串行数据缓冲器
 202   1       while(!TI);  //TI发送中断标志位 (当数据发送完毕后由硬件置 1 否则等待硬件置 1)
 203   1       TI = 0; 
 204   1      }


MODULE INFORMATION:   STATIC OVERLAYABLE
   CODE SIZE        =    674    ----
   CONSTANT SIZE    =     24    ----
   XDATA SIZE       =     64       9
   PDATA SIZE       =   ----    ----
   DATA SIZE        =   ----    ----
   IDATA SIZE       =   ----    ----
   BIT SIZE         =   ----    ----
END OF MODULE INFORMATION.


C51 COMPILATION COMPLETE.  0 WARNING(S),  0 ERROR(S)
