C51 COMPILER V9.54   UTILS                                                                 07/19/2020 20:56:01 PAGE 1   


C51 COMPILER V9.54, COMPILATION OF MODULE UTILS
OBJECT MODULE PLACED IN .\Objects\utils.obj
COMPILER INVOKED BY: C:\Keil_v5\C51\BIN\C51.EXE utils.c LARGE OPTIMIZE(8,SPEED) BROWSE DEBUG OBJECTEXTEND PRINT(.\Listin
                    -gs\utils.lst) TABS(2) OBJECT(.\Objects\utils.obj)

line level    source

   1          #include "utils.h"
   2          //系统频率变量
   3          uint32_t sys_clk = 0;
   4          
   5          /*
   6          void Delay1ms()   //@11.0592MHz
   7          {
   8            unsigned char i, j;
   9          
  10            i = 15;
  11            j = 90;
  12            do
  13            {
  14              while (--j);
  15            } while (--i);
  16          }
  17          
  18          void delay_ms(int32_t ms)
  19          {
  20            for(; ms > 0; ms--)
  21            {
  22              Delay1ms();
  23            }
  24          }
  25          
  26          
  27          
  28          
  29          uint16_t pca_delay_1ms = 0;
  30          //--------------------------------------------------------------------------------------------------------
             ------------
  31          //  @brief      pca延时初始化（使用pca_2模块）
  32          //  @param      NULL              
  33          //  @return     void
  34          //  Sample usage:               无需用户调用，用户请使用h文件中的宏定义
  35          //--------------------------------------------------------------------------------------------------------
             ------------
  36          void dealy_init(void)
  37          {
  38            pca_delay_1ms = ((sys_clk) / (12 * 1000));
  39            CCAPM2 = 0x48;  //PCA_2作为软件延时
  40            CMOD = 0X00;  //频率=FSOC/12
  41            CR = 1;     //启动计数
  42          }
  43          //--------------------------------------------------------------------------------------------------------
             ------------
  44          //  @brief      内部使用用户无需关心
  45          //  @param      NULL              
  46          //  @return     void
  47          //  Sample usage:               无需用户调用，用户请使用h文件中的宏定义
  48          //--------------------------------------------------------------------------------------------------------
             ------------
  49          void pca_delay(void)
  50          {
C51 COMPILER V9.54   UTILS                                                                 07/19/2020 20:56:01 PAGE 2   

  51            uint16_t temp;
  52          
  53            temp = (CH<<8 | CL) + pca_delay_1ms;
  54            
  55            CCAP2L = temp;
  56            CCAP2H = (temp >> 8); 
  57            
  58            while(CCF2 == 0);
  59            CCF2 = 0;
  60          }
  61          
  62          
  63          //--------------------------------------------------------------------------------------------------------
             ------------
  64          //  @brief      pca延时函数
  65          //  @param      x             需要延时的时间（us）
  66          //  @return     void
  67          //  Sample usage:               无需用户调用，用户请使用h文件中的宏定义
  68          //--------------------------------------------------------------------------------------------------------
             ------------
  69          void delay_ms(uint16_t ms)
  70          {
  71            while(ms--) pca_delay();
  72          }
  73          
  74          */
  75          
  76          
  77          
  78          
  79          
  80          //--------------------------------------------------------------------------------------------------------
             ------------
  81          //  @brief      获取系统频率
  82          //  @param      NULL            空值
  83          //  @return     void          系统频率
  84          //  Sample usage:               
  85          //--------------------------------------------------------------------------------------------------------
             ------------
  86          uint32_t get_clk(void)
  87          {
  88   1        if(IRCBAND == 0)
  89   1          if(CLKDIV < 2)
  90   1            return 22118400;
  91   1          else
  92   1            return 11059200;
  93   1        else
  94   1          return 33177600;
  95   1          
  96   1      }
  97          /*
  98          void set_clk_33177600Hz()
  99          {
 100            
 101            P_SW2 &= 0x80; 
 102            CKSEL = 0x00; //选择内部 IRC ( 默认 )
 103            IRCBAND = 0x01;//33MHz频段
 104            CLKDIV = 0x01; //时钟不分频
 105            P_SW2 |= 0x7F;
 106            
 107            IRTRIM = 2;//粗调，79200Hz/LSB
 108          
C51 COMPILER V9.54   UTILS                                                                 07/19/2020 20:56:01 PAGE 3   

 109          
 110            sys_clk = 33177600;
 111          }
 112          
 113          void set_clk_11059200Hz()
 114          {
 115            
 116          }
 117          */
 118          
 119          


MODULE INFORMATION:   STATIC OVERLAYABLE
   CODE SIZE        =     38    ----
   CONSTANT SIZE    =   ----    ----
   XDATA SIZE       =      4    ----
   PDATA SIZE       =   ----    ----
   DATA SIZE        =   ----    ----
   IDATA SIZE       =   ----    ----
   BIT SIZE         =   ----    ----
END OF MODULE INFORMATION.


C51 COMPILATION COMPLETE.  0 WARNING(S),  0 ERROR(S)
