BL51 BANKED LINKER/LOCATER V6.22                                                        05/09/2020  10:46:00  PAGE 1


BL51 BANKED LINKER/LOCATER V6.22, INVOKED BY:
C:\KEIL_V5\C51\BIN\BL51.EXE .\Objects\STARTUP.obj, .\Objects\main.obj, .\Objects\utils.obj TO .\Objects\uart_test PRINT 
>> (.\Listings\uart_test.m51) RAMSIZE (256)


MEMORY MODEL: SMALL WITH FLOATING POINT ARITHMETIC


INPUT MODULES INCLUDED:
  .\Objects\STARTUP.obj (?C_STARTUP)
  .\Objects\main.obj (MAIN)
  .\Objects\utils.obj (UTILS)
  C:\KEIL_V5\C51\LIB\C51FPS.LIB (?C?FPADD)
  C:\KEIL_V5\C51\LIB\C51FPS.LIB (?C?FPMUL)
  C:\KEIL_V5\C51\LIB\C51FPS.LIB (?C?CASTF)
  C:\KEIL_V5\C51\LIB\C51FPS.LIB (?C?FPGETOPN)
  C:\KEIL_V5\C51\LIB\C51S.LIB (?C?LNEG)


LINK MAP OF MODULE:  .\Objects\uart_test (?C_STARTUP)


            TYPE    BASE      LENGTH    RELOCATION   SEGMENT NAME
            -----------------------------------------------------

            * * * * * * *   D A T A   M E M O R Y   * * * * * * *
            REG     0000H     0008H     ABSOLUTE     "REG BANK 0"
            DATA    0008H     0012H     UNIT         ?DT?MAIN
            IDATA   001AH     0001H     UNIT         ?STACK

            * * * * * * *   C O D E   M E M O R Y   * * * * * * *
            CODE    0000H     0003H     ABSOLUTE     
            CODE    0003H     028DH     UNIT         ?C?LIB_CODE
            CODE    0290H     00C0H     UNIT         ?PR?MAIN?MAIN
            CODE    0350H     0033H     UNIT         ?PR?PORT_INIT?MAIN
            CODE    0383H     0021H     UNIT         ?PR?UART_INIT?MAIN
            CODE    03A4H     000FH     UNIT         ?PR?_UART_SEND_BYTE?MAIN
            CODE    03B3H     000EH     UNIT         ?PR?DELAY100MS?MAIN
            CODE    03C1H     000CH     UNIT         ?C_C51STARTUP



OVERLAY MAP OF MODULE:   .\Objects\uart_test (?C_STARTUP)


SEGMENT
  +--> CALLED SEGMENT
---------------------
?C_C51STARTUP
  +--> ?PR?MAIN?MAIN

?PR?MAIN?MAIN
  +--> ?PR?PORT_INIT?MAIN
  +--> ?PR?UART_INIT?MAIN
  +--> ?PR?_UART_SEND_BYTE?MAIN
  +--> ?PR?DELAY100MS?MAIN


BL51 BANKED LINKER/LOCATER V6.22                                                      05/09/2020  10:46:00  PAGE 2



SYMBOL TABLE OF MODULE:  .\Objects\uart_test (?C_STARTUP)

  VALUE           TYPE          NAME
  ----------------------------------

  -------         MODULE        ?C_STARTUP
  C:03C1H         SEGMENT       ?C_C51STARTUP
  I:001AH         SEGMENT       ?STACK
  C:0000H         PUBLIC        ?C_STARTUP
  D:00E0H         SYMBOL        ACC
  D:00F0H         SYMBOL        B
  D:0083H         SYMBOL        DPH
  D:0082H         SYMBOL        DPL
  N:0000H         SYMBOL        IBPSTACK
  N:0100H         SYMBOL        IBPSTACKTOP
  N:0080H         SYMBOL        IDATALEN
  C:03C4H         SYMBOL        IDATALOOP
  N:0000H         SYMBOL        PBPSTACK
  N:0100H         SYMBOL        PBPSTACKTOP
  N:0000H         SYMBOL        PDATALEN
  N:0000H         SYMBOL        PDATASTART
  N:0000H         SYMBOL        PPAGE
  N:0000H         SYMBOL        PPAGEENABLE
  D:00A0H         SYMBOL        PPAGE_SFR
  D:0081H         SYMBOL        SP
  C:03C1H         SYMBOL        STARTUP1
  N:0000H         SYMBOL        XBPSTACK
  N:0000H         SYMBOL        XBPSTACKTOP
  N:0000H         SYMBOL        XDATALEN
  N:0000H         SYMBOL        XDATASTART
  C:0000H         LINE#         126
  C:03C1H         LINE#         133
  C:03C3H         LINE#         134
  C:03C4H         LINE#         135
  C:03C5H         LINE#         136
  C:03C7H         LINE#         185
  C:03CAH         LINE#         196
  -------         ENDMOD        ?C_STARTUP

  -------         MODULE        MAIN
  C:0000H         SYMBOL        _ICE_DUMMY_
  D:0092H         PUBLIC        P1M0
  D:0093H         PUBLIC        P0M1
  D:0096H         PUBLIC        P2M0
  D:0091H         PUBLIC        P1M1
  D:0080H         PUBLIC        P0
  D:00B2H         PUBLIC        P3M0
  D:0095H         PUBLIC        P2M1
  D:0090H         PUBLIC        P1
  D:00B4H         PUBLIC        P4M0
  D:00B1H         PUBLIC        P3M1
  D:00A0H         PUBLIC        P2
  D:00CAH         PUBLIC        P5M0
  D:00B3H         PUBLIC        P4M1
  D:00B0H         PUBLIC        P3
  D:00C9H         PUBLIC        P5M1
BL51 BANKED LINKER/LOCATER V6.22                                                      05/09/2020  10:46:00  PAGE 3


  D:00C0H         PUBLIC        P4
  D:00C8H         PUBLIC        P5
  B:00A8H.7       PUBLIC        EA
  D:00E8H         PUBLIC        P6
  D:00F8H         PUBLIC        P7
  D:00BAH         PUBLIC        P_SW2
  D:0008H         PUBLIC        ypr_i16
  D:00A8H         PUBLIC        IE
  D:00B8H         PUBLIC        IP
  D:00D8H         PUBLIC        CCON
  C:0290H         PUBLIC        main
  D:0098H         PUBLIC        SCON
  D:0088H         PUBLIC        TCON
  D:00AFH         PUBLIC        IE2
  D:008EH         PUBLIC        AUXR
  D:00D6H         PUBLIC        T2H
  D:00D7H         PUBLIC        T2L
  C:0383H         PUBLIC        uart_init
  B:00C8H.3       PUBLIC        LED
  D:000EH         PUBLIC        ypr_float
  C:0350H         PUBLIC        port_init
  C:03A8H         PUBLIC        _uart_send_byte
  D:009BH         PUBLIC        S2BUF
  C:03B3H         PUBLIC        Delay100ms
  D:009AH         PUBLIC        S2CON
  D:00D0H         PUBLIC        PSW
  D:0094H         PUBLIC        P0M0
  -------         PROC          DELAY100MS
  -------         DO            
  D:0007H         SYMBOL        i
  D:0006H         SYMBOL        j
  D:0005H         SYMBOL        k
  -------         ENDDO         
  C:03B3H         LINE#         14
  C:03B3H         LINE#         15
  C:03B3H         LINE#         18
  C:03B4H         LINE#         19
  C:03B6H         LINE#         20
  C:03B8H         LINE#         21
  C:03BAH         LINE#         23
  C:03BAH         LINE#         25
  C:03BAH         LINE#         26
  C:03BCH         LINE#         27
  C:03BEH         LINE#         28
  C:03C0H         LINE#         29
  -------         ENDPROC       DELAY100MS
  -------         PROC          MAIN
  C:0290H         LINE#         33
  C:0290H         LINE#         34
  C:0290H         LINE#         35
  C:0293H         LINE#         36
  C:0296H         LINE#         37
  C:02A2H         LINE#         38
  C:02AEH         LINE#         39
  C:02BAH         LINE#         43
  C:02BAH         LINE#         44
  C:02BAH         LINE#         45
BL51 BANKED LINKER/LOCATER V6.22                                                      05/09/2020  10:46:00  PAGE 4


  C:02BCH         LINE#         47
  C:02D5H         LINE#         48
  C:02EEH         LINE#         49
  C:0307H         LINE#         51
  C:030CH         LINE#         52
  C:0311H         LINE#         53
  C:0316H         LINE#         54
  C:031BH         LINE#         55
  C:0320H         LINE#         56
  C:0325H         LINE#         57
  C:032AH         LINE#         58
  C:032FH         LINE#         61
  C:0332H         LINE#         62
  C:034DH         LINE#         63
  -------         ENDPROC       MAIN
  -------         PROC          PORT_INIT
  C:0350H         LINE#         73
  C:0350H         LINE#         74
  C:0350H         LINE#         77
  C:0353H         LINE#         78
  C:0355H         LINE#         79
  C:0357H         LINE#         80
  C:0359H         LINE#         81
  C:035BH         LINE#         82
  C:035DH         LINE#         83
  C:035FH         LINE#         84
  C:0361H         LINE#         85
  C:0363H         LINE#         86
  C:0365H         LINE#         87
  C:0367H         LINE#         88
  C:0369H         LINE#         93
  C:036CH         LINE#         94
  C:036FH         LINE#         96
  C:0372H         LINE#         97
  C:0375H         LINE#         99
  C:0378H         LINE#         101
  C:037FH         LINE#         102
  C:0382H         LINE#         104
  -------         ENDPROC       PORT_INIT
  -------         PROC          UART_INIT
  C:0383H         LINE#         105
  C:0383H         LINE#         106
  C:0383H         LINE#         125
  C:0386H         LINE#         126
  C:0389H         LINE#         127
  C:038CH         LINE#         129
  C:038FH         LINE#         130
  C:0392H         LINE#         131
  C:0395H         LINE#         132
  C:0398H         LINE#         134
  C:039BH         LINE#         136
  C:039EH         LINE#         137
  C:03A1H         LINE#         138
  C:03A3H         LINE#         139
  -------         ENDPROC       UART_INIT
  C:03A4H         SYMBOL        L?0021
  -------         PROC          L?0020
BL51 BANKED LINKER/LOCATER V6.22                                                      05/09/2020  10:46:00  PAGE 5


  -------         ENDPROC       L?0020
  C:03A4H         SYMBOL        L?0021
  -------         PROC          _UART_SEND_BYTE
  D:0007H         SYMBOL        dat
  C:03A8H         LINE#         158
  C:03A8H         LINE#         159
  C:03A8H         LINE#         160
  C:03AAH         LINE#         161
  C:03AFH         LINE#         162
  C:03B2H         LINE#         163
  -------         ENDPROC       _UART_SEND_BYTE
  -------         ENDMOD        MAIN

  -------         MODULE        UTILS
  C:0000H         SYMBOL        _ICE_DUMMY_
  -------         ENDMOD        UTILS

  -------         MODULE        ?C?FPADD
  C:000AH         PUBLIC        ?C?FPADD
  C:0006H         PUBLIC        ?C?FPSUB
  -------         ENDMOD        ?C?FPADD

  -------         MODULE        ?C?FPMUL
  C:00FBH         PUBLIC        ?C?FPMUL
  -------         ENDMOD        ?C?FPMUL

  -------         MODULE        ?C?CASTF
  C:0201H         PUBLIC        ?C?CASTF
  -------         ENDMOD        ?C?CASTF

  -------         MODULE        ?C?LNEG
  C:0282H         PUBLIC        ?C?LNEG
  -------         ENDMOD        ?C?LNEG

Program Size: data=27.0 xdata=0 code=973
LINK/LOCATE RUN COMPLETE.  0 WARNING(S),  0 ERROR(S)
