BL51 BANKED LINKER/LOCATER V6.22                                                        08/23/2020  18:03:24  PAGE 1


BL51 BANKED LINKER/LOCATER V6.22, INVOKED BY:
C:\KEIL_V5\C51\BIN\BL51.EXE .\Objects\main.obj, .\Objects\interrupt.obj, .\Objects\lt3741.obj, .\Objects\mpu6050.obj, .\
>> Objects\sys.obj, .\Objects\motor_drv8833.obj, .\Objects\adc.obj, .\Objects\gpio.obj, .\Objects\pwm.obj, .\Objects\uar
>> t.obj, .\Objects\soft_iic.obj, .\Objects\utils.obj TO .\Objects\keilC51_soft_control PRINT (.\Listings\keilC51_soft_c
>> ontrol.m51) RAMSIZE (256) CODE (0X0000-0XFFF8) XDATA (0X0000-0X07FF)


MEMORY MODEL: LARGE WITH FLOATING POINT ARITHMETIC


INPUT MODULES INCLUDED:
  .\Objects\main.obj (MAIN)
  .\Objects\interrupt.obj (INTERRUPT)
  .\Objects\lt3741.obj (LT3741)
  .\Objects\mpu6050.obj (MPU6050)
  .\Objects\sys.obj (SYS)
  .\Objects\motor_drv8833.obj (MOTOR_DRV8833)
  .\Objects\adc.obj (ADC)
  .\Objects\gpio.obj (GPIO)
  .\Objects\pwm.obj (PWM)
  .\Objects\uart.obj (UART)
  .\Objects\soft_iic.obj (SOFT_IIC)
  .\Objects\utils.obj (UTILS)
  C:\KEIL_V5\C51\LIB\C51FPL.LIB (?C?FPADD)
  C:\KEIL_V5\C51\LIB\C51FPL.LIB (?C?FPMUL)
  C:\KEIL_V5\C51\LIB\C51FPL.LIB (?C?FPDIV)
  C:\KEIL_V5\C51\LIB\C51FPL.LIB (?C?FPCMP)
  C:\KEIL_V5\C51\LIB\C51FPL.LIB (?C?FPNEG)
  C:\KEIL_V5\C51\LIB\C51FPL.LIB (?C?FCAST)
  C:\KEIL_V5\C51\LIB\C51FPL.LIB (?C?CASTF)
  C:\KEIL_V5\C51\LIB\C51FPL.LIB (PRINTF)
  C:\KEIL_V5\C51\LIB\C51FPL.LIB (SQRT)
  C:\KEIL_V5\C51\LIB\C51FPL.LIB (ASIN)
  C:\KEIL_V5\C51\LIB\C51FPL.LIB (?C?FPGETOPN)
  C:\KEIL_V5\C51\LIB\C51FPL.LIB (?C?FPROUND)
  C:\KEIL_V5\C51\LIB\C51FPL.LIB (?C?FPCONVERT)
  C:\KEIL_V5\C51\LIB\C51FPL.LIB (ATAN)
  C:\KEIL_V5\C51\LIB\C51FPL.LIB (?C?FTNPWR)
  C:\KEIL_V5\C51\LIB\C51FPL.LIB (?C?FPSERIES)
  C:\KEIL_V5\C51\LIB\C51L.LIB (?C_STARTUP)
  C:\KEIL_V5\C51\LIB\C51L.LIB (?C?CLDPTR)
  C:\KEIL_V5\C51\LIB\C51L.LIB (?C?CLDOPTR)
  C:\KEIL_V5\C51\LIB\C51L.LIB (?C?CSTPTR)
  C:\KEIL_V5\C51\LIB\C51L.LIB (?C?CSTOPTR)
  C:\KEIL_V5\C51\LIB\C51L.LIB (?C?IMUL)
  C:\KEIL_V5\C51\LIB\C51L.LIB (?C?IILDX)
  C:\KEIL_V5\C51\LIB\C51L.LIB (?C?LMUL)
  C:\KEIL_V5\C51\LIB\C51L.LIB (?C?ULDIV)
  C:\KEIL_V5\C51\LIB\C51L.LIB (?C?SLDIV)
  C:\KEIL_V5\C51\LIB\C51L.LIB (?C?LNEG)
  C:\KEIL_V5\C51\LIB\C51L.LIB (?C?SLCMP)
  C:\KEIL_V5\C51\LIB\C51L.LIB (?C?ULCMP)
  C:\KEIL_V5\C51\LIB\C51L.LIB (?C?ULSHR)
  C:\KEIL_V5\C51\LIB\C51L.LIB (?C?LLDPTR)
  C:\KEIL_V5\C51\LIB\C51L.LIB (?C?LLDOPTR)
  C:\KEIL_V5\C51\LIB\C51L.LIB (?C?LSTPTR)
  C:\KEIL_V5\C51\LIB\C51L.LIB (?C?LSTOPTR)
  C:\KEIL_V5\C51\LIB\C51L.LIB (?C?LLDIDATA)
BL51 BANKED LINKER/LOCATER V6.22                                                      08/23/2020  18:03:24  PAGE 2


  C:\KEIL_V5\C51\LIB\C51L.LIB (?C?LLDXDATA)
  C:\KEIL_V5\C51\LIB\C51L.LIB (?C?LLDCODE)
  C:\KEIL_V5\C51\LIB\C51L.LIB (?C?LLDIDATA0)
  C:\KEIL_V5\C51\LIB\C51L.LIB (?C?LLDXDATA0)
  C:\KEIL_V5\C51\LIB\C51L.LIB (?C?LLDCODE0)
  C:\KEIL_V5\C51\LIB\C51L.LIB (?C?LILDXDATA)
  C:\KEIL_V5\C51\LIB\C51L.LIB (?C?LSTIDATA)
  C:\KEIL_V5\C51\LIB\C51L.LIB (?C?LSTXDATA)
  C:\KEIL_V5\C51\LIB\C51L.LIB (?C?LSTKXDATA)
  C:\KEIL_V5\C51\LIB\C51L.LIB (?C?LSTKPTR)
  C:\KEIL_V5\C51\LIB\C51L.LIB (?C?LSTKOPTR)
  C:\KEIL_V5\C51\LIB\C51L.LIB (?C?OFFXADD)
  C:\KEIL_V5\C51\LIB\C51L.LIB (?C?PLDIXDATA)
  C:\KEIL_V5\C51\LIB\C51L.LIB (?C?PSTXDATA)
  C:\KEIL_V5\C51\LIB\C51L.LIB (?C?CCASE)
  C:\KEIL_V5\C51\LIB\C51L.LIB (?C_INIT)
  C:\KEIL_V5\C51\LIB\C51L.LIB (?C?LLDPDATA)
  C:\KEIL_V5\C51\LIB\C51L.LIB (?C?LSTPDATA)
  C:\KEIL_V5\C51\LIB\C51L.LIB (?C?LSTKIDATA)
  C:\KEIL_V5\C51\LIB\C51L.LIB (?C?LSTKPDATA)


LINK MAP OF MODULE:  .\Objects\keilC51_soft_control (MAIN)


            TYPE    BASE      LENGTH    RELOCATION   SEGMENT NAME
            -----------------------------------------------------

            * * * * * * *   D A T A   M E M O R Y   * * * * * * *
            REG     0000H     0008H     ABSOLUTE     "REG BANK 0"
            DATA    0008H     0005H     UNIT         _DATA_GROUP_
                    000DH     0013H                  *** GAP ***
            BIT     0020H.0   0001H.1   UNIT         _BIT_GROUP_
            BIT     0021H.1   0000H.2   UNIT         ?BI?MAIN
            BIT     0021H.3   0000H.1   UNIT         ?BI?_SOFTI2CWRITE?SOFT_IIC
                    0021H.4   0000H.4                *** GAP ***
            IDATA   0022H     001CH     UNIT         ?ID?MPU6050
            IDATA   003EH     0018H     UNIT         _IDATA_GROUP_
            IDATA   0056H     0001H     UNIT         ?STACK

            * * * * * * *  X D A T A   M E M O R Y  * * * * * * *
            XDATA   0000H     017AH     UNIT         ?XD?MAIN
            XDATA   017AH     0046H     UNIT         _XDATA_GROUP_
            XDATA   01C0H     0010H     UNIT         ?XD?MPU6050
            XDATA   01D0H     0008H     UNIT         ?XD?TASK_CONSTP_CHARGE?MAIN
            XDATA   01D8H     0008H     UNIT         ?XD?_SET_CONST_MOTOR_L?MOTOR_DRV8833
            XDATA   01E0H     0008H     UNIT         ?XD?_SET_CONST_MOTOR_R?MOTOR_DRV8833
            XDATA   01E8H     0008H     UNIT         ?XD?MOTOR_DRV8833
            XDATA   01F0H     0004H     UNIT         ?XD?TASK_PRINT_ENCODER?MAIN
            XDATA   01F4H     0004H     UNIT         ?XD?_SET_MOTOR_PWM_L?MOTOR_DRV8833
            XDATA   01F8H     0004H     UNIT         ?XD?_SET_MOTOR_PWM_R?MOTOR_DRV8833

            * * * * * * *   C O D E   M E M O R Y   * * * * * * *
            CODE    0000H     0003H     ABSOLUTE     
            CODE    0003H     0003H     ABSOLUTE     
            CODE    0006H     0004H     UNIT         ?PR?ADC_CLEAR_FLAG?ADC
            CODE    000AH     0001H     UNIT         ?PR?INT2_ISR?INTERRUPT
BL51 BANKED LINKER/LOCATER V6.22                                                      08/23/2020  18:03:24  PAGE 3


            CODE    000BH     0003H     ABSOLUTE     
            CODE    000EH     0003H     UNIT         ?PR?GLOBAL_INTERRUPT_ENABLE?SYS
            CODE    0011H     0001H     UNIT         ?PR?INT4_ISR?INTERRUPT
            CODE    0012H     0001H     UNIT         ?PR?SOFTI2CINIT?SOFT_IIC
            CODE    0013H     0003H     ABSOLUTE     
            CODE    0016H     003CH     UNIT         ?PR?UART2_TIMER2_INIT?UART
                    0052H     0001H                  *** GAP ***
            CODE    0053H     0003H     ABSOLUTE     
            CODE    0056H     0003H     UNIT         ?PR?GLOBAL_INTERRUPT_DISABLE?SYS
                    0059H     0002H                  *** GAP ***
            CODE    005BH     0003H     ABSOLUTE     
            CODE    005EH     0025H     UNIT         ?CO?MPU6050
            CODE    0083H     0003H     ABSOLUTE     
            CODE    0086H     0A24H     UNIT         ?C?LIB_CODE
            CODE    0AAAH     083FH     UNIT         ?PR?_IMUUPDATE?MPU6050
            CODE    12E9H     0674H     UNIT         ?PR?_PWM_START?PWM
            CODE    195DH     0483H     UNIT         ?PR?PRINTF?PRINTF
            CODE    1DE0H     03EFH     UNIT         ?PR?_CALIBRATE_MPU6050?MPU6050
            CODE    21CFH     032DH     UNIT         ?PR?TASK_SPEED_CONTROL?MAIN
            CODE    24FCH     02CAH     UNIT         ?PR?TASK_REFRESH_ENCODER?MAIN
            CODE    27C6H     028CH     UNIT         ?C_INITSEG
            CODE    2A52H     024BH     UNIT         ?PR?TASK_CONSTP_CHARGE?MAIN
            CODE    2C9DH     0221H     UNIT         ?PR?TASK_TURN_CONTROL?MAIN
            CODE    2EBEH     01FCH     UNIT         ?PR?TASK_STAND_CONTROL?MAIN
            CODE    30BAH     0162H     UNIT         ?CO?MAIN
            CODE    321CH     013BH     UNIT         ?PR?TASK_POWER_LED?MAIN
            CODE    3357H     0135H     UNIT         ?PR?_SET_MOTOR_PWM_L?MOTOR_DRV8833
            CODE    348CH     012EH     UNIT         ?PR?_GET_MPU6050?MPU6050
            CODE    35BAH     0126H     UNIT         ?PR?TASK_TEST_LED?MAIN
            CODE    36E0H     0124H     UNIT         ?PR?TASK_PRINT_ENCODER?MAIN
            CODE    3804H     0122H     UNIT         ?PR?ATAN?ATAN
            CODE    3926H     0120H     UNIT         ?PR?_SET_CONST_MOTOR_L?MOTOR_DRV8833
            CODE    3A46H     0120H     UNIT         ?PR?_SET_CONST_MOTOR_R?MOTOR_DRV8833
            CODE    3B66H     011EH     UNIT         ?PR?_SET_MOTOR_PWM_R?MOTOR_DRV8833
            CODE    3C84H     00E4H     UNIT         ?PR?TASK_POWER_MANAGE?MAIN
            CODE    3D68H     00E0H     UNIT         ?PR?_PWM_FORCED?PWM
            CODE    3E48H     00CAH     UNIT         ?PR?TASK_CONST_MOTOR_TEST?MAIN
            CODE    3F12H     00C6H     UNIT         ?PR?TASK_MOTOR_TEST?MAIN
            CODE    3FD8H     00BCH     UNIT         ?PR?MOTOR_INIT?MOTOR_DRV8833
            CODE    4094H     00B6H     UNIT         ?PR?TASK_MOTOR_CONTROL?MAIN
            CODE    414AH     00B6H     UNIT         ?PR?_GPIO_INIT?GPIO
            CODE    4200H     00B5H     UNIT         ?PR?TASK_ADC_PRINT?MAIN
            CODE    42B5H     00ACH     UNIT         ?PR?SQRT?SQRT
            CODE    4361H     00A8H     UNIT         ?PR?PORT_INIT?MAIN
            CODE    4409H     008CH     UNIT         ?C_C51STARTUP
            CODE    4495H     0083H     UNIT         ?PR?_GPIO_SETTING?GPIO
            CODE    4518H     0081H     UNIT         ?PR?TASK_PRINT_MPUDATA?MAIN
            CODE    4599H     007BH     UNIT         ?PR?ISR_INT0?INTERRUPT
            CODE    4614H     007BH     UNIT         ?PR?ISR_INT1?INTERRUPT
            CODE    468FH     007BH     UNIT         ?PR?INT3_ISR?INTERRUPT
            CODE    470AH     0064H     UNIT         ?PR?_READ_MPU6050?MPU6050
            CODE    476EH     005BH     UNIT         ?PR?_ADC_READ_VOLT?ADC
            CODE    47C9H     0059H     UNIT         ?PR?TASK_REFRESH_MPUDATA?MAIN
            CODE    4822H     0059H     UNIT         ?PR?ISR_T0?INTERRUPT
            CODE    487BH     0056H     UNIT         ?PR?_DELAY_MS?MAIN
            CODE    48D1H     004CH     UNIT         ?PR?MAIN?MAIN
            CODE    491DH     0044H     UNIT         ?C?LDIV
BL51 BANKED LINKER/LOCATER V6.22                                                      08/23/2020  18:03:24  PAGE 4


            CODE    4961H     0040H     UNIT         ?PR?_PWM_STOP?PWM
            CODE    49A1H     003BH     UNIT         ?PR?ASIN?ASIN
            CODE    49DCH     0036H     UNIT         ?PR?_SOFTI2CWRITE?SOFT_IIC
            CODE    4A12H     0033H     UNIT         ?PR?T0_INTERRUPT_INIT?MAIN
            CODE    4A45H     0033H     UNIT         ?PR?SOFTI2CREADNAK?SOFT_IIC
            CODE    4A78H     0033H     UNIT         ?PR?SOFTI2CREADACK?SOFT_IIC
            CODE    4AABH     002FH     UNIT         ?PR?INITMPU6050?MPU6050
            CODE    4ADAH     002CH     UNIT         ?PR?UART_INIT?MAIN
            CODE    4B06H     0026H     UNIT         ?PR?GET_CLK?SYS
            CODE    4B2CH     0022H     UNIT         ?PR?IND_VOLTAGE_UVLO?LT3741
            CODE    4B4EH     0021H     UNIT         ?PR?I2C_RECVBYTE?MPU6050
            CODE    4B6FH     001AH     UNIT         ?PR?I2C_START?MPU6050
            CODE    4B89H     0019H     UNIT         ?PR?_SINGLE_WRITEI2C?MPU6050
            CODE    4BA2H     0015H     UNIT         ?PR?ENCODER_INIT?MAIN
            CODE    4BB7H     0015H     UNIT         ?PR?_I2C_SENDBYTE?MPU6050
            CODE    4BCCH     0015H     UNIT         ?PR?ADC_INIT?ADC
            CODE    4BE1H     0015H     UNIT         ?PR?SOFTI2CSTOP?SOFT_IIC
            CODE    4BF6H     0012H     UNIT         ?PR?I2C_RECVACK?MPU6050
            CODE    4C08H     0012H     UNIT         ?CO?MOTOR_DRV8833
            CODE    4C1AH     0011H     UNIT         ?PR?ADC_GET_VAL?ADC
            CODE    4C2BH     0011H     UNIT         ?PR?SOFTI2CSTART?SOFT_IIC
            CODE    4C3CH     0010H     UNIT         ?PR?GET_SUPERCAP_VOLTAGE?LT3741
            CODE    4C4CH     000FH     UNIT         ?PR?I2C_STOP?MPU6050
            CODE    4C5BH     000EH     UNIT         ?PR?_PUTCHAR?MAIN
            CODE    4C69H     000EH     UNIT         ?PR?DRV_MPU6050_INIT?MPU6050
            CODE    4C77H     000EH     UNIT         ?PR?_PWM_INIT?PWM
            CODE    4C85H     000CH     UNIT         ?PR?DELAY2US?MPU6050
            CODE    4C91H     000AH     UNIT         ?PR?_ADC_START?ADC
            CODE    4C9BH     0009H     UNIT         ?PR?_ASSERT?UTILS
            CODE    4CA4H     0008H     UNIT         ?PR?_UART_SEND_BYTE?MAIN



OVERLAY MAP OF MODULE:   .\Objects\keilC51_soft_control (MAIN)


SEGMENT                                         BIT_GROUP          DATA_GROUP          IDATA_GROUP         XDATA_GROUP
  +--> CALLED SEGMENT                        START    LENGTH     START    LENGTH     START    LENGTH     START    LENGTH
>> 
------------------------------------------------------------------------------------------------------------------------
>> 
?C_C51STARTUP                                -----    -----      -----    -----      -----    -----      -----    -----
  +--> ?PR?MAIN?MAIN
  +--> ?C_INITSEG

?PR?MAIN?MAIN                                -----    -----      -----    -----      -----    -----      -----    -----
  +--> ?PR?T0_INTERRUPT_INIT?MAIN
  +--> ?PR?GLOBAL_INTERRUPT_ENABLE?SYS
  +--> ?PR?PORT_INIT?MAIN
  +--> ?PR?UART_INIT?MAIN
  +--> ?PR?_PWM_INIT?PWM
  +--> ?PR?ADC_INIT?ADC
  +--> ?PR?ENCODER_INIT?MAIN
  +--> ?PR?MOTOR_INIT?MOTOR_DRV8833
  +--> ?PR?DRV_MPU6050_INIT?MPU6050
  +--> ?PR?_CALIBRATE_MPU6050?MPU6050
  +--> ?PR?TASK_POWER_MANAGE?MAIN
BL51 BANKED LINKER/LOCATER V6.22                                                      08/23/2020  18:03:24  PAGE 5


  +--> ?PR?TASK_POWER_LED?MAIN
  +--> ?PR?TASK_REFRESH_MPUDATA?MAIN
  +--> ?PR?TASK_REFRESH_ENCODER?MAIN
  +--> ?PR?TASK_PRINT_MPUDATA?MAIN
  +--> ?PR?TASK_SPEED_CONTROL?MAIN
  +--> ?PR?TASK_STAND_CONTROL?MAIN
  +--> ?PR?TASK_TURN_CONTROL?MAIN

?PR?T0_INTERRUPT_INIT?MAIN                   -----    -----      -----    -----      -----    -----      -----    -----
  +--> ?PR?GET_CLK?SYS

?PR?PORT_INIT?MAIN                           -----    -----      -----    -----      -----    -----      -----    -----
  +--> ?PR?_GPIO_INIT?GPIO
  +--> ?PR?_GPIO_SETTING?GPIO

?PR?_GPIO_SETTING?GPIO                       0020H.0  0000H.4    -----    -----      -----    -----      -----    -----

?PR?UART_INIT?MAIN                           -----    -----      -----    -----      -----    -----      -----    -----
  +--> ?PR?GET_CLK?SYS

?PR?ADC_INIT?ADC                             0020H.0  0000H.1    -----    -----      -----    -----      -----    -----

?PR?MOTOR_INIT?MOTOR_DRV8833                 -----    -----      -----    -----      -----    -----      -----    -----
  +--> ?CO?MOTOR_DRV8833
  +--> ?PR?PRINTF?PRINTF

?PR?PRINTF?PRINTF                            0020H.0  0001H.1    0008H    0005H      -----    -----      018FH    0030H
  +--> ?PR?_PUTCHAR?MAIN

?PR?_PUTCHAR?MAIN                            -----    -----      -----    -----      -----    -----      01BFH    0001H
  +--> ?PR?_UART_SEND_BYTE?MAIN

?PR?DRV_MPU6050_INIT?MPU6050                 -----    -----      -----    -----      -----    -----      -----    -----
  +--> ?PR?INITMPU6050?MPU6050
  +--> ?PR?_DELAY_MS?MAIN

?PR?INITMPU6050?MPU6050                      -----    -----      -----    -----      -----    -----      -----    -----
  +--> ?PR?DELAY2US?MPU6050
  +--> ?PR?_SINGLE_WRITEI2C?MPU6050

?PR?_SINGLE_WRITEI2C?MPU6050                 -----    -----      -----    -----      -----    -----      -----    -----
  +--> ?PR?I2C_START?MPU6050
  +--> ?PR?_I2C_SENDBYTE?MPU6050
  +--> ?PR?I2C_STOP?MPU6050

?PR?I2C_START?MPU6050                        -----    -----      -----    -----      -----    -----      -----    -----
  +--> ?PR?DELAY2US?MPU6050

?PR?_I2C_SENDBYTE?MPU6050                    -----    -----      -----    -----      -----    -----      -----    -----
  +--> ?PR?DELAY2US?MPU6050
  +--> ?PR?I2C_RECVACK?MPU6050

?PR?I2C_RECVACK?MPU6050                      -----    -----      -----    -----      -----    -----      -----    -----
  +--> ?PR?DELAY2US?MPU6050

?PR?I2C_STOP?MPU6050                         -----    -----      -----    -----      -----    -----      -----    -----
  +--> ?PR?DELAY2US?MPU6050
BL51 BANKED LINKER/LOCATER V6.22                                                      08/23/2020  18:03:24  PAGE 6



?PR?_DELAY_MS?MAIN                           -----    -----      -----    -----      -----    -----      017AH    0008H

?PR?_CALIBRATE_MPU6050?MPU6050               -----    -----      -----    -----      -----    -----      017AH    0015H
  +--> ?PR?_READ_MPU6050?MPU6050
  +--> ?PR?_IMUUPDATE?MPU6050
  +--> ?CO?MPU6050
  +--> ?PR?PRINTF?PRINTF

?PR?_READ_MPU6050?MPU6050                    -----    -----      -----    -----      -----    -----      018FH    0003H
  +--> ?PR?I2C_START?MPU6050
  +--> ?PR?_I2C_SENDBYTE?MPU6050
  +--> ?PR?I2C_RECVBYTE?MPU6050
  +--> ?PR?DELAY2US?MPU6050
  +--> ?PR?I2C_STOP?MPU6050

?PR?I2C_RECVBYTE?MPU6050                     -----    -----      -----    -----      -----    -----      -----    -----
  +--> ?PR?DELAY2US?MPU6050

?PR?_IMUUPDATE?MPU6050                       -----    -----      0008H    0004H      003EH    0018H      018FH    000FH
  +--> ?PR?SQRT?SQRT
  +--> ?PR?ASIN?ASIN

?PR?SQRT?SQRT                                -----    -----      -----    -----      -----    -----      019EH    0004H

?PR?ASIN?ASIN                                -----    -----      -----    -----      -----    -----      -----    -----
  +--> ?PR?SQRT?SQRT
  +--> ?PR?ATAN?ATAN

?PR?ATAN?ATAN                                0020H.0  0000H.2    -----    -----      -----    -----      019EH    0004H

?PR?TASK_POWER_MANAGE?MAIN                   -----    -----      -----    -----      -----    -----      -----    -----
  +--> ?PR?GET_SUPERCAP_VOLTAGE?LT3741

?PR?GET_SUPERCAP_VOLTAGE?LT3741              -----    -----      -----    -----      -----    -----      -----    -----
  +--> ?PR?_ADC_READ_VOLT?ADC

?PR?_ADC_READ_VOLT?ADC                       -----    -----      -----    -----      -----    -----      018EH    0003H
  +--> ?PR?_ADC_START?ADC
  +--> ?PR?ADC_GET_VAL?ADC

?PR?ADC_GET_VAL?ADC                          -----    -----      -----    -----      -----    -----      -----    -----
  +--> ?PR?ADC_CLEAR_FLAG?ADC

?PR?TASK_POWER_LED?MAIN                      -----    -----      -----    -----      -----    -----      -----    -----
  +--> ?PR?_PWM_START?PWM

?PR?_PWM_START?PWM                           -----    -----      -----    -----      -----    -----      017AH    0021H
  +--> ?PR?_PWM_FORCED?PWM
  +--> ?PR?GET_CLK?SYS

?PR?_PWM_FORCED?PWM                          -----    -----      -----    -----      -----    -----      019BH    0002H

?PR?TASK_REFRESH_MPUDATA?MAIN                -----    -----      -----    -----      -----    -----      -----    -----
  +--> ?PR?_GET_MPU6050?MPU6050

?PR?_GET_MPU6050?MPU6050                     -----    -----      -----    -----      -----    -----      017AH    0013H
BL51 BANKED LINKER/LOCATER V6.22                                                      08/23/2020  18:03:24  PAGE 7


  +--> ?PR?_READ_MPU6050?MPU6050
  +--> ?PR?_IMUUPDATE?MPU6050

?PR?TASK_REFRESH_ENCODER?MAIN                -----    -----      -----    -----      -----    -----      017AH    0010H

?PR?TASK_PRINT_MPUDATA?MAIN                  -----    -----      -----    -----      -----    -----      -----    -----
  +--> ?CO?MAIN
  +--> ?PR?PRINTF?PRINTF

?PR?TASK_SPEED_CONTROL?MAIN                  -----    -----      -----    -----      -----    -----      017AH    0018H

?PR?TASK_STAND_CONTROL?MAIN                  -----    -----      -----    -----      -----    -----      017AH    000CH

?PR?TASK_TURN_CONTROL?MAIN                   -----    -----      -----    -----      -----    -----      017AH    0014H
  +--> ?PR?_ADC_READ_VOLT?ADC



UNRESOLVED EXTERNAL SYMBOLS:
   _SET_MCP401X_DATA



SYMBOL TABLE OF MODULE:  .\Objects\keilC51_soft_control (MAIN)

  VALUE           TYPE          NAME
  ----------------------------------

  -------         MODULE        MAIN
  C:0000H         SYMBOL        _ICE_DUMMY_
  D:0080H         PUBLIC        P0
  D:0090H         PUBLIC        P1
  D:00A0H         PUBLIC        P2
  X:010FH         PUBLIC        encoder_filted_rate_R
  D:00B0H         PUBLIC        P3
  D:00C0H         PUBLIC        P4
  D:00C8H         PUBLIC        P5
  B:00A8H.7       PUBLIC        EA
  C:36E0H         PUBLIC        task_print_encoder
  D:00A8H         PUBLIC        IE
  C:21CFH         PUBLIC        task_speed_control
  X:0113H         SYMBOL        supercap_volt
  C:3C84H         PUBLIC        task_power_manage
  X:0117H         PUBLIC        power_persent
  C:4518H         PUBLIC        task_print_mpudata
  B:00A8H.4       PUBLIC        ES
  X:0119H         PUBLIC        encoder_total_L
  D:00B8H         PUBLIC        IP
  C:2EBEH         PUBLIC        task_stand_control
  B:0098H.1       PUBLIC        TI
  X:011DH         PUBLIC        encoder_total_R
  X:0121H         PUBLIC        encoder_rate_L
  D:00D8H         PUBLIC        CCON
  X:0125H         PUBLIC        encoder_rate_R
  C:48D1H         PUBLIC        main
  X:0129H         PUBLIC        angle_want
  X:012DH         PUBLIC        angle_zero
BL51 BANKED LINKER/LOCATER V6.22                                                      08/23/2020  18:03:24  PAGE 8


  C:4094H         PUBLIC        task_motor_control
  X:0131H         PUBLIC        speed_want
  D:0099H         PUBLIC        SBUF
  D:0098H         PUBLIC        SCON
  D:0089H         PUBLIC        TMOD
  D:0088H         PUBLIC        TCON
  D:008EH         PUBLIC        AUXR
  X:0135H         PUBLIC        motor_speed_pwmf
  C:2C9DH         PUBLIC        task_turn_control
  B:00A8H.1       PUBLIC        ET0
  D:008CH         PUBLIC        TH0
  B:00A8H.0       PUBLIC        EX0
  B:0088H.0       PUBLIC        IT0
  D:00D6H         PUBLIC        T2H
  B:00A8H.2       PUBLIC        EX1
  B:0088H.2       PUBLIC        IT1
  C:24FCH         PUBLIC        task_refresh_encoder
  X:0139H         PUBLIC        motor_stand_pwmf
  C:4200H         PUBLIC        task_adc_print
  D:008AH         PUBLIC        TL0
  D:00D7H         PUBLIC        T2L
  C:487BH         PUBLIC        _delay_ms
  C:4ADAH         PUBLIC        uart_init
  B:0088H.4       PUBLIC        TR0
  C:47C9H         PUBLIC        task_refresh_mpudata
  C:321CH         PUBLIC        task_power_led
  X:013DH         PUBLIC        power_persent_f
  C:4361H         PUBLIC        port_init
  X:0141H         PUBLIC        flag_charging_end
  C:2A52H         PUBLIC        task_constP_charge
  D:00B7H         PUBLIC        IPH
  C:4CA4H         PUBLIC        _uart_send_byte
  C:3F12H         PUBLIC        task_motor_test
  C:35BAH         PUBLIC        task_test_led
  C:4A12H         PUBLIC        T0_interrupt_init
  X:0142H         PUBLIC        mpudata
  X:0166H         PUBLIC        encoder_counter_L
  C:3E48H         PUBLIC        task_const_motor_test
  X:016AH         PUBLIC        uw_tick
  D:00D0H         PUBLIC        PSW
  C:4BA2H         PUBLIC        encoder_init
  C:4C5BH         PUBLIC        _putchar
  X:016EH         PUBLIC        encoder_filted_rate_L
  X:0172H         PUBLIC        encoder_counter_R
  X:0176H         PUBLIC        motor_turn_pwmf
  -------         PROC          _DELAY_MS
  X:017AH         SYMBOL        ms
  -------         DO            
  X:017EH         SYMBOL        uw_tick_reg
  -------         ENDDO         
  C:487BH         LINE#         43
  C:4881H         LINE#         44
  C:4881H         LINE#         45
  C:4895H         LINE#         46
  C:48D0H         LINE#         47
  -------         ENDPROC       _DELAY_MS
  -------         PROC          TASK_REFRESH_MPUDATA
BL51 BANKED LINKER/LOCATER V6.22                                                      08/23/2020  18:03:24  PAGE 9


  -------         DO            
  X:0000H         SYMBOL        task_interval
  X:0004H         SYMBOL        tick_reg
  -------         ENDDO         
  C:47C9H         LINE#         51
  C:47C9H         LINE#         52
  C:47C9H         LINE#         57
  C:4804H         LINE#         58
  C:4818H         LINE#         61
  C:4821H         LINE#         63
  -------         ENDPROC       TASK_REFRESH_MPUDATA
  -------         PROC          TASK_PRINT_MPUDATA
  -------         DO            
  X:0008H         SYMBOL        task_interval
  X:000CH         SYMBOL        tick_reg
  -------         ENDDO         
  C:4518H         LINE#         65
  C:4518H         LINE#         66
  C:4518H         LINE#         70
  C:4553H         LINE#         71
  C:4567H         LINE#         77
  C:4598H         LINE#         78
  -------         ENDPROC       TASK_PRINT_MPUDATA
  -------         PROC          TASK_TEST_LED
  -------         DO            
  X:0010H         SYMBOL        task_interval
  X:0014H         SYMBOL        tick_reg
  X:0018H         SYMBOL        reflag
  X:0019H         SYMBOL        counter
  -------         ENDDO         
  C:35BAH         LINE#         82
  C:35BAH         LINE#         83
  C:35BAH         LINE#         88
  C:35F8H         LINE#         89
  C:360CH         LINE#         96
  C:3612H         LINE#         97
  C:3612H         LINE#         98
  C:3622H         LINE#         99
  C:3622H         LINE#         100
  C:362EH         LINE#         101
  C:362EH         LINE#         103
  C:3630H         LINE#         105
  C:3630H         LINE#         106
  C:3643H         LINE#         107
  C:3643H         LINE#         108
  C:3654H         LINE#         109
  C:3654H         LINE#         110
  C:3654H         LINE#         111
  C:3680H         LINE#         112
  C:36B4H         LINE#         113
  C:36DFH         LINE#         114
  -------         ENDPROC       TASK_TEST_LED
  -------         PROC          TASK_POWER_LED
  -------         DO            
  X:001DH         SYMBOL        task_interval
  X:0021H         SYMBOL        tick_reg
  X:0025H         SYMBOL        led_twinkle_flag
BL51 BANKED LINKER/LOCATER V6.22                                                      08/23/2020  18:03:24  PAGE 10


  -------         ENDDO         
  C:321CH         LINE#         118
  C:321CH         LINE#         119
  C:321CH         LINE#         124
  C:325AH         LINE#         125
  C:326EH         LINE#         133
  C:327FH         LINE#         134
  C:328EH         LINE#         135
  C:328EH         LINE#         136
  C:32ABH         LINE#         137
  C:32ABH         LINE#         138
  C:32C9H         LINE#         139
  C:32DDH         LINE#         140
  C:32DFH         LINE#         142
  C:32DFH         LINE#         143
  C:32FDH         LINE#         144
  C:3311H         LINE#         145
  C:3311H         LINE#         146
  C:3313H         LINE#         148
  C:3313H         LINE#         149
  C:3334H         LINE#         150
  C:3356H         LINE#         151
  C:3356H         LINE#         153
  -------         ENDPROC       TASK_POWER_LED
  -------         PROC          TASK_POWER_MANAGE
  C:3C84H         LINE#         155
  C:3C84H         LINE#         156
  C:3C84H         LINE#         158
  C:3C8DH         LINE#         159
  C:3CB5H         LINE#         160
  C:3CEEH         LINE#         161
  C:3D21H         LINE#         162
  C:3D3EH         LINE#         163
  C:3D44H         LINE#         164
  C:3D67H         LINE#         165
  -------         ENDPROC       TASK_POWER_MANAGE
  -------         PROC          TASK_CONSTP_CHARGE
  -------         DO            
  X:0026H         SYMBOL        task_interval
  X:002AH         SYMBOL        tick_reg
  X:01D0H         SYMBOL        chargeP_want
  X:01D4H         SYMBOL        supercap_amp_want
  B:0021H.1       SYMBOL        flag_print_at_start
  B:0021H.2       SYMBOL        flag_print_at_stop
  X:002EH         SYMBOL        mcpdata
  X:0030H         SYMBOL        mcpdata_reg
  X:0032H         SYMBOL        power_persent_reg
  X:0033H         SYMBOL        start_time_tick
  -------         ENDDO         
  C:2A52H         LINE#         167
  C:2A52H         LINE#         168
  C:2A52H         LINE#         173
  C:2A5CH         LINE#         175
  C:2A66H         LINE#         184
  C:2AA4H         LINE#         185
  C:2AB8H         LINE#         190
  C:2ADDH         LINE#         193
BL51 BANKED LINKER/LOCATER V6.22                                                      08/23/2020  18:03:24  PAGE 11


  C:2AE5H         LINE#         196
  C:2AE8H         LINE#         197
  C:2AE8H         LINE#         198
  C:2AEAH         LINE#         199
  C:2B07H         LINE#         200
  C:2B1BH         LINE#         201
  C:2B1BH         LINE#         203
  C:2B3BH         LINE#         204
  C:2B3BH         LINE#         205
  C:2B3DH         LINE#         208
  C:2B5AH         LINE#         209
  C:2B9EH         LINE#         210
  C:2B9EH         LINE#         212
  C:2BAAH         LINE#         213
  C:2BAAH         LINE#         214
  C:2BFEH         LINE#         215
  C:2C16H         LINE#         216
  C:2C16H         LINE#         217
  C:2C24H         LINE#         218
  C:2C27H         LINE#         219
  C:2C67H         LINE#         220
  C:2C67H         LINE#         222
  C:2C86H         LINE#         223
  C:2C86H         LINE#         224
  C:2C8BH         LINE#         225
  C:2C9CH         LINE#         226
  C:2C9CH         LINE#         228
  C:2C9CH         LINE#         232
  -------         ENDPROC       TASK_CONSTP_CHARGE
  -------         PROC          TASK_MOTOR_CONTROL
  -------         DO            
  X:0037H         SYMBOL        task_interval
  X:003BH         SYMBOL        tick_reg
  -------         ENDDO         
  C:4094H         LINE#         234
  C:4094H         LINE#         235
  C:4094H         LINE#         239
  C:40CFH         LINE#         240
  C:40E3H         LINE#         244
  C:4116H         LINE#         245
  C:4149H         LINE#         250
  -------         ENDPROC       TASK_MOTOR_CONTROL
  -------         PROC          TASK_CONST_MOTOR_TEST
  -------         DO            
  X:003FH         SYMBOL        task_interval
  X:0043H         SYMBOL        tick_reg
  X:0047H         SYMBOL        counter
  -------         ENDDO         
  C:3E48H         LINE#         252
  C:3E48H         LINE#         253
  C:3E48H         LINE#         259
  C:3E86H         LINE#         260
  C:3E9AH         LINE#         264
  C:3EAFH         LINE#         265
  C:3EAFH         LINE#         266
  C:3EB7H         LINE#         267
  C:3EB7H         LINE#         270
BL51 BANKED LINKER/LOCATER V6.22                                                      08/23/2020  18:03:24  PAGE 12


  C:3ED1H         LINE#         271
  C:3ED1H         LINE#         272
  C:3ED1H         LINE#         273
  C:3ED1H         LINE#         274
  C:3EDCH         LINE#         275
  C:3EE4H         LINE#         276
  C:3EE6H         LINE#         277
  C:3EE6H         LINE#         278
  C:3EE6H         LINE#         279
  C:3EE6H         LINE#         280
  C:3EF1H         LINE#         281
  C:3EF9H         LINE#         282
  C:3EFBH         LINE#         283
  C:3EFBH         LINE#         284
  C:3EFBH         LINE#         285
  C:3EFBH         LINE#         286
  C:3F06H         LINE#         287
  C:3F0EH         LINE#         288
  C:3F0EH         LINE#         289
  C:3F0EH         LINE#         290
  C:3F11H         LINE#         294
  C:3F11H         LINE#         295
  C:3F11H         LINE#         296
  C:3F11H         LINE#         300
  -------         ENDPROC       TASK_CONST_MOTOR_TEST
  -------         PROC          TASK_MOTOR_TEST
  -------         DO            
  X:0049H         SYMBOL        task_interval
  X:004DH         SYMBOL        tick_reg
  X:0051H         SYMBOL        counter
  -------         ENDDO         
  C:3F12H         LINE#         304
  C:3F12H         LINE#         305
  C:3F12H         LINE#         311
  C:3F50H         LINE#         312
  C:3F64H         LINE#         316
  C:3F79H         LINE#         317
  C:3F79H         LINE#         318
  C:3F81H         LINE#         319
  C:3F81H         LINE#         322
  C:3F9BH         LINE#         323
  C:3F9BH         LINE#         324
  C:3F9BH         LINE#         325
  C:3F9BH         LINE#         326
  C:3FA6H         LINE#         327
  C:3FA8H         LINE#         328
  C:3FAAH         LINE#         329
  C:3FAAH         LINE#         330
  C:3FAAH         LINE#         331
  C:3FAAH         LINE#         332
  C:3FB5H         LINE#         333
  C:3FB7H         LINE#         334
  C:3FB9H         LINE#         335
  C:3FB9H         LINE#         336
  C:3FB9H         LINE#         337
  C:3FB9H         LINE#         338
  C:3FC4H         LINE#         339
BL51 BANKED LINKER/LOCATER V6.22                                                      08/23/2020  18:03:24  PAGE 13


  C:3FCCH         LINE#         340
  C:3FCEH         LINE#         341
  C:3FCEH         LINE#         342
  C:3FD7H         LINE#         346
  C:3FD7H         LINE#         347
  C:3FD7H         LINE#         348
  C:3FD7H         LINE#         352
  -------         ENDPROC       TASK_MOTOR_TEST
  -------         PROC          TASK_ADC_PRINT
  -------         DO            
  X:0053H         SYMBOL        task_interval
  X:0057H         SYMBOL        tick_reg
  -------         ENDDO         
  C:4200H         LINE#         355
  C:4200H         LINE#         356
  C:4200H         LINE#         360
  C:423BH         LINE#         361
  C:424FH         LINE#         366
  C:42B4H         LINE#         369
  -------         ENDPROC       TASK_ADC_PRINT
  -------         PROC          TASK_PRINT_ENCODER
  -------         DO            
  X:005BH         SYMBOL        task_interval
  X:005FH         SYMBOL        tick_reg
  X:01F0H         SYMBOL        rate_R
  X:01F2H         SYMBOL        rate_L
  X:0063H         SYMBOL        encoder_counter_L_reg
  X:0067H         SYMBOL        encoder_counter_R_reg
  X:006BH         SYMBOL        encoder_temp_L
  X:006FH         SYMBOL        encoder_temp_R
  -------         ENDDO         
  C:36E0H         LINE#         371
  C:36E0H         LINE#         372
  C:36E0H         LINE#         375
  C:36E7H         LINE#         376
  C:36EBH         LINE#         382
  C:3729H         LINE#         383
  C:373DH         LINE#         387
  C:373FH         LINE#         388
  C:3753H         LINE#         389
  C:3767H         LINE#         390
  C:3769H         LINE#         395
  C:378AH         LINE#         396
  C:37ABH         LINE#         397
  C:37BFH         LINE#         398
  C:37D3H         LINE#         400
  C:37EBH         LINE#         401
  C:3803H         LINE#         404
  -------         ENDPROC       TASK_PRINT_ENCODER
  -------         PROC          _PUTCHAR
  X:01BFH         SYMBOL        c
  C:4C5BH         LINE#         409
  C:4C60H         LINE#         410
  C:4C60H         LINE#         411
  C:4C63H         LINE#         412
  C:4C68H         LINE#         413
  -------         ENDPROC       _PUTCHAR
BL51 BANKED LINKER/LOCATER V6.22                                                      08/23/2020  18:03:24  PAGE 14


  -------         PROC          TASK_STAND_CONTROL
  -------         DO            
  X:0073H         SYMBOL        task_interval
  X:0077H         SYMBOL        tick_reg
  X:017AH         SYMBOL        stand_kp
  X:017EH         SYMBOL        stand_ki
  X:0182H         SYMBOL        stand_kd
  X:007BH         SYMBOL        stand_p
  X:007FH         SYMBOL        stand_i
  X:0083H         SYMBOL        stand_d
  X:0087H         SYMBOL        angle_reg
  -------         ENDDO         
  C:2EBEH         LINE#         415
  C:2EBEH         LINE#         416
  C:2EBEH         LINE#         419
  C:2EDCH         LINE#         423
  C:2F1AH         LINE#         424
  C:2F2EH         LINE#         428
  C:2F4CH         LINE#         433
  C:2F82H         LINE#         434
  C:2FD9H         LINE#         435
  C:300FH         LINE#         436
  C:306FH         LINE#         438
  C:30A5H         LINE#         440
  C:30B9H         LINE#         441
  -------         ENDPROC       TASK_STAND_CONTROL
  -------         PROC          ENCODER_INIT
  C:4BA2H         LINE#         444
  C:4BA2H         LINE#         445
  C:4BA2H         LINE#         446
  C:4BA4H         LINE#         447
  C:4BA6H         LINE#         448
  C:4BA9H         LINE#         449
  C:4BACH         LINE#         451
  C:4BAEH         LINE#         452
  C:4BB0H         LINE#         453
  C:4BB3H         LINE#         454
  C:4BB6H         LINE#         459
  -------         ENDPROC       ENCODER_INIT
  -------         PROC          T0_INTERRUPT_INIT
  -------         DO            
  D:0006H         SYMBOL        t0_count_need
  D:0004H         SYMBOL        t0_count
  -------         ENDDO         
  C:4A12H         LINE#         463
  C:4A12H         LINE#         464
  C:4A12H         LINE#         465
  C:4A31H         LINE#         466
  C:4A37H         LINE#         469
  C:4A39H         LINE#         470
  C:4A3BH         LINE#         471
  C:4A3EH         LINE#         472
  C:4A3EH         LINE#         474
  C:4A40H         LINE#         475
  C:4A42H         LINE#         476
  C:4A44H         LINE#         478
  -------         ENDPROC       T0_INTERRUPT_INIT
BL51 BANKED LINKER/LOCATER V6.22                                                      08/23/2020  18:03:24  PAGE 15


  -------         PROC          PORT_INIT
  C:4361H         LINE#         483
  C:4361H         LINE#         484
  C:4361H         LINE#         517
  C:436AH         LINE#         518
  C:4373H         LINE#         519
  C:4382H         LINE#         522
  C:438BH         LINE#         525
  C:4394H         LINE#         526
  C:439DH         LINE#         527
  C:43A6H         LINE#         530
  C:43AFH         LINE#         531
  C:43B8H         LINE#         532
  C:43C1H         LINE#         533
  C:43CAH         LINE#         534
  C:43D3H         LINE#         535
  C:43DCH         LINE#         538
  C:43E5H         LINE#         539
  C:43EEH         LINE#         540
  C:43F7H         LINE#         541
  C:4400H         LINE#         545
  -------         ENDPROC       PORT_INIT
  -------         PROC          UART_INIT
  -------         DO            
  D:0006H         SYMBOL        reload_value
  -------         ENDDO         
  C:4ADAH         LINE#         549
  C:4ADAH         LINE#         550
  C:4ADAH         LINE#         557
  C:4AF7H         LINE#         560
  C:4AFAH         LINE#         561
  C:4AFCH         LINE#         562
  C:4AFEH         LINE#         563
  C:4B01H         LINE#         564
  C:4B03H         LINE#         565
  C:4B05H         LINE#         567
  -------         ENDPROC       UART_INIT
  -------         PROC          _UART_SEND_BYTE
  D:0007H         SYMBOL        dat
  C:4CA4H         LINE#         569
  C:4CA4H         LINE#         570
  C:4CA4H         LINE#         571
  C:4CA6H         LINE#         572
  C:4CA9H         LINE#         573
  C:4CABH         LINE#         574
  -------         ENDPROC       _UART_SEND_BYTE
  -------         PROC          TASK_TURN_CONTROL
  -------         DO            
  X:008BH         SYMBOL        task_interval
  X:008FH         SYMBOL        tick_reg
  X:017AH         SYMBOL        elecmag1
  X:017EH         SYMBOL        elecmag2
  X:0182H         SYMBOL        elecmag3
  X:0093H         SYMBOL        turn_reg
  X:0186H         SYMBOL        turn_kp
  X:018AH         SYMBOL        turn_kd
  -------         ENDDO         
BL51 BANKED LINKER/LOCATER V6.22                                                      08/23/2020  18:03:24  PAGE 16


  C:2C9DH         LINE#         576
  C:2C9DH         LINE#         577
  C:2C9DH         LINE#         583
  C:2CA7H         LINE#         584
  C:2CB1H         LINE#         586
  C:2CEFH         LINE#         587
  C:2D03H         LINE#         591
  C:2D19H         LINE#         592
  C:2D2FH         LINE#         593
  C:2D45H         LINE#         595
  C:2E55H         LINE#         597
  C:2EBDH         LINE#         600
  -------         ENDPROC       TASK_TURN_CONTROL
  -------         PROC          TASK_REFRESH_ENCODER
  -------         DO            
  X:0097H         SYMBOL        task_interval
  X:009BH         SYMBOL        tick_reg
  X:017AH         SYMBOL        rate_R
  X:017EH         SYMBOL        rate_L
  X:009FH         SYMBOL        encoder_total_L_reg
  X:00A3H         SYMBOL        encoder_total_R_reg
  X:00A7H         SYMBOL        rate_window_L
  X:00CFH         SYMBOL        rate_window_R
  X:00F7H         SYMBOL        index_wadd
  X:00FBH         SYMBOL        index_wget
  X:0182H         SYMBOL        window_out_L
  X:0186H         SYMBOL        window_out_R
  -------         ENDDO         
  C:24FCH         LINE#         602
  C:24FCH         LINE#         603
  C:24FCH         LINE#         606
  C:2506H         LINE#         607
  C:2510H         LINE#         616
  C:251AH         LINE#         617
  C:2524H         LINE#         620
  C:2562H         LINE#         621
  C:2576H         LINE#         626
  C:2578H         LINE#         627
  C:258CH         LINE#         628
  C:25A0H         LINE#         629
  C:25A2H         LINE#         630
  C:25CFH         LINE#         631
  C:25FCH         LINE#         632
  C:2610H         LINE#         633
  C:2624H         LINE#         635
  C:2654H         LINE#         636
  C:2684H         LINE#         637
  C:2696H         LINE#         638
  C:26A0H         LINE#         639
  C:26C7H         LINE#         640
  C:26C7H         LINE#         641
  C:2702H         LINE#         642
  C:273FH         LINE#         643
  C:2761H         LINE#         644
  C:277FH         LINE#         645
  C:279DH         LINE#         647
  C:27B1H         LINE#         648
BL51 BANKED LINKER/LOCATER V6.22                                                      08/23/2020  18:03:24  PAGE 17


  C:27C5H         LINE#         649
  -------         ENDPROC       TASK_REFRESH_ENCODER
  -------         PROC          TASK_SPEED_CONTROL
  -------         DO            
  X:00FFH         SYMBOL        task_interval
  X:0103H         SYMBOL        tick_reg
  X:017AH         SYMBOL        encoder_filted_avg_rate
  X:017EH         SYMBOL        encoder_avg_rate
  X:0182H         SYMBOL        filted_err
  X:0186H         SYMBOL        err
  X:018AH         SYMBOL        speed_kp
  X:018EH         SYMBOL        speed_ki
  X:0107H         SYMBOL        speed_p
  X:010BH         SYMBOL        speed_i
  -------         ENDDO         
  C:21CFH         LINE#         653
  C:21CFH         LINE#         654
  C:21CFH         LINE#         658
  C:21D9H         LINE#         659
  C:21E3H         LINE#         661
  C:21EDH         LINE#         662
  C:21F7H         LINE#         664
  C:2201H         LINE#         665
  C:220BH         LINE#         669
  C:2249H         LINE#         670
  C:225DH         LINE#         677
  C:228BH         LINE#         678
  C:22B9H         LINE#         680
  C:22DEH         LINE#         681
  C:2303H         LINE#         683
  C:2328H         LINE#         685
  C:2384H         LINE#         686
  C:23CAH         LINE#         687
  C:2416H         LINE#         688
  C:2466H         LINE#         689
  C:2466H         LINE#         690
  C:24C2H         LINE#         691
  C:24E7H         LINE#         692
  C:24FBH         LINE#         698
  -------         ENDPROC       TASK_SPEED_CONTROL
  -------         PROC          MAIN
  C:48D1H         LINE#         701
  C:48D1H         LINE#         702
  C:48D1H         LINE#         703
  C:48D4H         LINE#         704
  C:48D7H         LINE#         705
  C:48DAH         LINE#         706
  C:48DDH         LINE#         707
  C:48E2H         LINE#         708
  C:48E7H         LINE#         709
  C:48ECH         LINE#         710
  C:48F1H         LINE#         711
  C:48F4H         LINE#         712
  C:48F7H         LINE#         714
  C:48FAH         LINE#         715
  C:4903H         LINE#         725
  C:4903H         LINE#         726
BL51 BANKED LINKER/LOCATER V6.22                                                      08/23/2020  18:03:24  PAGE 18


  C:4903H         LINE#         728
  C:4906H         LINE#         729
  C:4909H         LINE#         734
  C:490CH         LINE#         735
  C:490FH         LINE#         737
  C:4912H         LINE#         739
  C:4915H         LINE#         740
  C:4918H         LINE#         741
  C:491BH         LINE#         743
  -------         ENDPROC       MAIN
  -------         ENDMOD        MAIN

  -------         MODULE        INTERRUPT
  C:0000H         SYMBOL        _ICE_DUMMY_
  D:0080H         PUBLIC        P0
  D:0090H         PUBLIC        P1
  D:00A0H         PUBLIC        P2
  D:00B0H         PUBLIC        P3
  D:00C0H         PUBLIC        P4
  D:00C8H         PUBLIC        P5
  D:00A8H         PUBLIC        IE
  D:00B8H         PUBLIC        IP
  D:00D8H         PUBLIC        CCON
  C:4599H         PUBLIC        isr_int0
  C:000AH         PUBLIC        INT2_Isr
  C:4614H         PUBLIC        isr_int1
  C:468FH         PUBLIC        INT3_Isr
  C:0011H         PUBLIC        INT4_Isr
  D:0098H         PUBLIC        SCON
  B:00C8H.0       PUBLIC        P50
  D:0088H         PUBLIC        TCON
  B:00C8H.2       PUBLIC        P52
  B:00B0H.6       PUBLIC        P36
  C:4822H         PUBLIC        isr_t0
  D:00D0H         PUBLIC        PSW
  -------         PROC          ISR_INT0
  C:4599H         LINE#         4
  C:45BBH         LINE#         6
  C:45CCH         LINE#         7
  C:45DEH         LINE#         9
  C:45F4H         LINE#         12
  -------         ENDPROC       ISR_INT0
  -------         PROC          ISR_T0
  C:4822H         LINE#         19
  C:4840H         LINE#         21
  C:485FH         LINE#         22
  -------         ENDPROC       ISR_T0
  -------         PROC          ISR_INT1
  C:4614H         LINE#         25
  C:4636H         LINE#         27
  C:4647H         LINE#         28
  C:4659H         LINE#         30
  C:466FH         LINE#         31
  -------         ENDPROC       ISR_INT1
  -------         PROC          INT2_ISR
  C:000AH         LINE#         34
  C:000AH         LINE#         37
BL51 BANKED LINKER/LOCATER V6.22                                                      08/23/2020  18:03:24  PAGE 19


  -------         ENDPROC       INT2_ISR
  -------         PROC          INT3_ISR
  C:468FH         LINE#         38
  C:46B1H         LINE#         40
  C:46C2H         LINE#         41
  C:46D4H         LINE#         43
  C:46EAH         LINE#         44
  -------         ENDPROC       INT3_ISR
  -------         PROC          INT4_ISR
  C:0011H         LINE#         45
  C:0011H         LINE#         48
  -------         ENDPROC       INT4_ISR
  -------         ENDMOD        INTERRUPT

  -------         MODULE        LT3741
  C:0000H         SYMBOL        _ICE_DUMMY_
  D:0080H         PUBLIC        P0
  D:0090H         PUBLIC        P1
  D:00A0H         PUBLIC        P2
  D:00B0H         PUBLIC        P3
  D:00C0H         PUBLIC        P4
  D:00C8H         PUBLIC        P5
  D:00A8H         PUBLIC        IE
  D:00B8H         PUBLIC        IP
  D:00D8H         PUBLIC        CCON
  D:0098H         PUBLIC        SCON
  D:0088H         PUBLIC        TCON
  C:4B2CH         PUBLIC        ind_voltage_uvlo
  C:4C3CH         PUBLIC        get_supercap_voltage
  D:00D0H         PUBLIC        PSW
  -------         PROC          GET_SUPERCAP_VOLTAGE
  C:4C3CH         LINE#         5
  C:4C3CH         LINE#         6
  C:4C3CH         LINE#         11
  C:4C4BH         LINE#         12
  -------         ENDPROC       GET_SUPERCAP_VOLTAGE
  -------         PROC          IND_VOLTAGE_UVLO
  C:4B2CH         LINE#         15
  C:4B2CH         LINE#         16
  C:4B2CH         LINE#         17
  C:4B4DH         LINE#         18
  -------         ENDPROC       IND_VOLTAGE_UVLO
  -------         ENDMOD        LT3741

  -------         MODULE        MPU6050
  C:0000H         SYMBOL        _ICE_DUMMY_
  D:0080H         PUBLIC        P0
  D:0090H         PUBLIC        P1
  C:4BF6H         PUBLIC        I2C_RecvACK
  D:00A0H         PUBLIC        P2
  X:01C0H         PUBLIC        gx_zero
  D:00B0H         PUBLIC        P3
  X:01C4H         PUBLIC        gy_zero
  D:00C0H         PUBLIC        P4
  X:01C8H         PUBLIC        gz_zero
  D:00C8H         PUBLIC        P5
  I:0022H         PUBLIC        exInt
BL51 BANKED LINKER/LOCATER V6.22                                                      08/23/2020  18:03:24  PAGE 20


  I:0026H         PUBLIC        eyInt
  I:002AH         PUBLIC        ezInt
  C:4C8CH         PUBLIC        Delay2us
  D:00A8H         PUBLIC        IE
  C:4B89H         PUBLIC        _Single_WriteI2C
  D:00B8H         PUBLIC        IP
  B:00D0H.7       PUBLIC        CY
  C:470AH         PUBLIC        _Read_MPU6050
  I:002EH         PUBLIC        q0
  I:0032H         PUBLIC        q1
  I:0036H         PUBLIC        q2
  I:003AH         PUBLIC        q3
  D:00D8H         PUBLIC        CCON
  C:1DE0H         PUBLIC        _calibrate_mpu6050
  C:4B6FH         PUBLIC        I2C_Start
  D:0098H         PUBLIC        SCON
  D:0088H         PUBLIC        TCON
  X:01CCH         PUBLIC        Kp
  C:4BB7H         PUBLIC        _I2C_SendByte
  C:348CH         PUBLIC        _get_mpu6050
  C:4C4CH         PUBLIC        I2C_Stop
  C:4B4EH         PUBLIC        I2C_RecvByte
  C:4AABH         PUBLIC        InitMPU6050
  B:0090H.4       PUBLIC        SDA
  B:0090H.5       PUBLIC        SCL
  C:4C69H         PUBLIC        drv_mpu6050_init
  C:0AAAH         PUBLIC        _IMUupdate
  D:00D0H         PUBLIC        PSW
  C:4C85H         SYMBOL        L?0034
  -------         PROC          L?0033
  -------         ENDPROC       L?0033
  C:4C85H         SYMBOL        L?0034
  -------         PROC          DELAY2US
  -------         DO            
  D:0007H         SYMBOL        i
  -------         ENDDO         
  C:4C8CH         LINE#         24
  C:4C8CH         LINE#         25
  C:4C8CH         LINE#         27
  C:4C8EH         LINE#         28
  C:4C90H         LINE#         29
  -------         ENDPROC       DELAY2US
  -------         PROC          I2C_START
  C:4B6FH         LINE#         34
  C:4B6FH         LINE#         35
  C:4B6FH         LINE#         36
  C:4B72H         LINE#         37
  C:4B75H         LINE#         38
  C:4B77H         LINE#         39
  C:4B79H         LINE#         40
  C:4B7CH         LINE#         41
  C:4B7FH         LINE#         42
  C:4B81H         LINE#         43
  C:4B84H         LINE#         44
  C:4B86H         LINE#         45
  -------         ENDPROC       I2C_START
  -------         PROC          I2C_STOP
BL51 BANKED LINKER/LOCATER V6.22                                                      08/23/2020  18:03:24  PAGE 21


  C:4C4CH         LINE#         51
  C:4C4CH         LINE#         52
  C:4C4CH         LINE#         53
  C:4C4FH         LINE#         54
  C:4C51H         LINE#         55
  C:4C53H         LINE#         56
  C:4C56H         LINE#         57
  C:4C58H         LINE#         58
  -------         ENDPROC       I2C_STOP
  -------         PROC          I2C_RECVACK
  C:4BF6H         LINE#         64
  C:4BF6H         LINE#         65
  C:4BF6H         LINE#         66
  C:4BF8H         LINE#         67
  C:4BFBH         LINE#         68
  C:4BFDH         LINE#         69
  C:4C00H         LINE#         70
  C:4C02H         LINE#         71
  C:4C04H         LINE#         72
  C:4C07H         LINE#         73
  C:4C07H         LINE#         74
  -------         ENDPROC       I2C_RECVACK
  -------         PROC          _I2C_SENDBYTE
  D:0006H         SYMBOL        dat
  -------         DO            
  D:0005H         SYMBOL        i
  -------         ENDDO         
  C:4BB7H         LINE#         79
  C:4BB9H         LINE#         80
  C:4BB9H         LINE#         82
  C:4BBBH         LINE#         83
  C:4BBBH         LINE#         84
  C:4BBFH         LINE#         85
  C:4BC1H         LINE#         86
  C:4BC1H         LINE#         87
  C:4BC1H         LINE#         88
  C:4BC1H         LINE#         89
  C:4BC4H         LINE#         90
  C:4BC9H         LINE#         91
  -------         ENDPROC       _I2C_SENDBYTE
  -------         PROC          I2C_RECVBYTE
  -------         DO            
  D:0005H         SYMBOL        i
  D:0006H         SYMBOL        dat
  -------         ENDDO         
  C:4B4EH         LINE#         97
  C:4B4EH         LINE#         98
  C:4B4EH         LINE#         100
  C:4B50H         LINE#         101
  C:4B52H         LINE#         102
  C:4B53H         LINE#         103
  C:4B53H         LINE#         104
  C:4B57H         LINE#         105
  C:4B59H         LINE#         106
  C:4B5CH         LINE#         107
  C:4B62H         LINE#         108
  C:4B64H         LINE#         109
BL51 BANKED LINKER/LOCATER V6.22                                                      08/23/2020  18:03:24  PAGE 22


  C:4B67H         LINE#         110
  C:4B6CH         LINE#         111
  C:4B6EH         LINE#         112
  -------         ENDPROC       I2C_RECVBYTE
  -------         PROC          _SINGLE_WRITEI2C
  D:0003H         SYMBOL        REG_Address
  D:0004H         SYMBOL        REG_data
  C:4B89H         LINE#         117
  C:4B8DH         LINE#         118
  C:4B8DH         LINE#         119
  C:4B90H         LINE#         120
  C:4B95H         LINE#         121
  C:4B9AH         LINE#         122
  C:4B9FH         LINE#         123
  -------         ENDPROC       _SINGLE_WRITEI2C
  -------         PROC          INITMPU6050
  C:4AABH         LINE#         153
  C:4AABH         LINE#         154
  C:4AABH         LINE#         156
  C:4AAEH         LINE#         157
  C:4AB1H         LINE#         158
  C:4AB4H         LINE#         159
  C:4AB7H         LINE#         161
  C:4ABEH         LINE#         162
  C:4AC5H         LINE#         163
  C:4ACCH         LINE#         164
  C:4AD3H         LINE#         165
  -------         ENDPROC       INITMPU6050
  -------         PROC          _READ_MPU6050
  X:018FH         SYMBOL        buf
  -------         DO            
  D:0004H         SYMBOL        i
  -------         ENDDO         
  C:470AH         LINE#         168
  C:4715H         LINE#         169
  C:4715H         LINE#         172
  C:4718H         LINE#         173
  C:471DH         LINE#         174
  C:4722H         LINE#         175
  C:4725H         LINE#         176
  C:472AH         LINE#         177
  C:472CH         LINE#         178
  C:472CH         LINE#         179
  C:4743H         LINE#         180
  C:4745H         LINE#         181
  C:4745H         LINE#         182
  C:4745H         LINE#         183
  C:4745H         LINE#         184
  C:4748H         LINE#         185
  C:474DH         LINE#         186
  C:4766H         LINE#         187
  C:4768H         LINE#         188
  C:4768H         LINE#         189
  C:4768H         LINE#         190
  C:4768H         LINE#         191
  C:476BH         LINE#         192
  -------         ENDPROC       _READ_MPU6050
BL51 BANKED LINKER/LOCATER V6.22                                                      08/23/2020  18:03:24  PAGE 23


  -------         PROC          _IMUUPDATE
  X:018FH         SYMBOL        mpudata
  -------         DO            
  D:0008H         SYMBOL        norm
  I:003EH         SYMBOL        vx
  I:0042H         SYMBOL        vy
  I:0046H         SYMBOL        vz
  I:004AH         SYMBOL        ex
  I:004EH         SYMBOL        ey
  I:0052H         SYMBOL        ez
  X:0192H         SYMBOL        gx
  X:0196H         SYMBOL        gy
  X:019AH         SYMBOL        gz
  -------         ENDDO         
  C:0AAAH         LINE#         285
  C:0AB5H         LINE#         286
  C:0AB5H         LINE#         290
  C:0AC9H         LINE#         291
  C:0AEBH         LINE#         292
  C:0B0DH         LINE#         293
  C:0B92H         LINE#         294
  C:0BBFH         LINE#         295
  C:0BECH         LINE#         296
  C:0C19H         LINE#         302
  C:0C54H         LINE#         303
  C:0C8FH         LINE#         304
  C:0D09H         LINE#         306
  C:0D53H         LINE#         307
  C:0D9DH         LINE#         308
  C:0DE7H         LINE#         310
  C:0E14H         LINE#         311
  C:0E41H         LINE#         312
  C:0E6EH         LINE#         314
  C:0EA3H         LINE#         315
  C:0ED8H         LINE#         316
  C:0F0DH         LINE#         318
  C:0FB0H         LINE#         319
  C:1048H         LINE#         320
  C:10D8H         LINE#         321
  C:1170H         LINE#         323
  C:11EBH         LINE#         324
  C:1200H         LINE#         325
  C:1215H         LINE#         326
  C:122AH         LINE#         327
  C:123FH         LINE#         329
  C:1294H         LINE#         330
  -------         ENDPROC       _IMUUPDATE
  -------         PROC          _CALIBRATE_MPU6050
  X:017AH         SYMBOL        mpudata
  -------         DO            
  X:017DH         SYMBOL        i
  X:017FH         SYMBOL        tp
  -------         ENDDO         
  C:1DE0H         LINE#         334
  C:1DEBH         LINE#         335
  C:1DEBH         LINE#         336
  C:1DF0H         LINE#         338
BL51 BANKED LINKER/LOCATER V6.22                                                      08/23/2020  18:03:24  PAGE 24


  C:1DFAH         LINE#         339
  C:1E04H         LINE#         340
  C:1E0EH         LINE#         341
  C:1E23H         LINE#         342
  C:1E2DH         LINE#         343
  C:1E37H         LINE#         344
  C:1E3EH         LINE#         345
  C:1E53H         LINE#         346
  C:1E5DH         LINE#         347
  C:1E64H         LINE#         348
  C:1E64H         LINE#         349
  C:1E6DH         LINE#         350
  C:1EBFH         LINE#         351
  C:1F11H         LINE#         352
  C:1F63H         LINE#         353
  C:1FA0H         LINE#         354
  C:1FDDH         LINE#         355
  C:201AH         LINE#         356
  C:203CH         LINE#         357
  C:2068H         LINE#         358
  C:2094H         LINE#         359
  C:20C0H         LINE#         360
  C:20DEH         LINE#         361
  C:20FCH         LINE#         362
  C:211AH         LINE#         364
  C:2138H         LINE#         365
  C:213FH         LINE#         366
  C:213FH         LINE#         367
  C:214DH         LINE#         368
  C:216CH         LINE#         369
  C:218AH         LINE#         371
  -------         ENDPROC       _CALIBRATE_MPU6050
  -------         PROC          DRV_MPU6050_INIT
  C:4C69H         LINE#         375
  C:4C69H         LINE#         376
  C:4C69H         LINE#         377
  C:4C6CH         LINE#         378
  -------         ENDPROC       DRV_MPU6050_INIT
  -------         PROC          _GET_MPU6050
  X:017AH         SYMBOL        mpudata
  -------         DO            
  X:017DH         SYMBOL        tp
  -------         ENDDO         
  C:348CH         LINE#         382
  C:3497H         LINE#         383
  C:3497H         LINE#         385
  C:34A0H         LINE#         387
  C:34C6H         LINE#         388
  C:34ECH         LINE#         389
  C:3512H         LINE#         390
  C:3547H         LINE#         391
  C:357FH         LINE#         392
  C:35B7H         LINE#         394
  -------         ENDPROC       _GET_MPU6050
  -------         ENDMOD        MPU6050

  -------         MODULE        SYS
BL51 BANKED LINKER/LOCATER V6.22                                                      08/23/2020  18:03:24  PAGE 25


  C:0000H         SYMBOL        _ICE_DUMMY_
  D:0080H         PUBLIC        P0
  D:0090H         PUBLIC        P1
  D:00A0H         PUBLIC        P2
  C:0056H         PUBLIC        global_interrupt_disable
  D:00B0H         PUBLIC        P3
  D:00C0H         PUBLIC        P4
  D:00C8H         PUBLIC        P5
  B:00A8H.7       PUBLIC        EA
  D:00A8H         PUBLIC        IE
  C:000EH         PUBLIC        global_interrupt_enable
  D:00B8H         PUBLIC        IP
  D:00D8H         PUBLIC        CCON
  D:0098H         PUBLIC        SCON
  D:0088H         PUBLIC        TCON
  C:4B06H         PUBLIC        get_clk
  D:009DH         PUBLIC        IRCBAND
  D:00D0H         PUBLIC        PSW
  -------         PROC          GET_CLK
  C:4B06H         LINE#         12
  C:4B06H         LINE#         13
  C:4B06H         LINE#         14
  C:4B0AH         LINE#         15
  C:4B15H         LINE#         16
  C:4B1CH         LINE#         18
  C:4B23H         LINE#         20
  C:4B2BH         LINE#         22
  -------         ENDPROC       GET_CLK
  -------         PROC          GLOBAL_INTERRUPT_ENABLE
  C:000EH         LINE#         29
  C:000EH         LINE#         30
  C:000EH         LINE#         31
  C:0010H         LINE#         32
  -------         ENDPROC       GLOBAL_INTERRUPT_ENABLE
  -------         PROC          GLOBAL_INTERRUPT_DISABLE
  C:0056H         LINE#         39
  C:0056H         LINE#         40
  C:0056H         LINE#         41
  C:0058H         LINE#         42
  -------         ENDPROC       GLOBAL_INTERRUPT_DISABLE
  -------         ENDMOD        SYS

  -------         MODULE        MOTOR_DRV8833
  C:0000H         SYMBOL        _ICE_DUMMY_
  D:0080H         PUBLIC        P0
  D:0090H         PUBLIC        P1
  D:00A0H         PUBLIC        P2
  D:00B0H         PUBLIC        P3
  D:00C0H         PUBLIC        P4
  D:00C8H         PUBLIC        P5
  D:00A8H         PUBLIC        IE
  D:00B8H         PUBLIC        IP
  C:3926H         PUBLIC        _set_const_motor_L
  C:3A46H         PUBLIC        _set_const_motor_R
  D:00D8H         PUBLIC        CCON
  B:00A0H.6       PUBLIC        MOTOR_EN_L
  D:0098H         PUBLIC        SCON
BL51 BANKED LINKER/LOCATER V6.22                                                      08/23/2020  18:03:24  PAGE 26


  D:0088H         PUBLIC        TCON
  B:00A0H.7       PUBLIC        MOTOR_EN_R
  X:01E8H         PUBLIC        MOTOR_RL_K
  C:3357H         PUBLIC        _set_motor_pwm_L
  C:3B66H         PUBLIC        _set_motor_pwm_R
  C:3FD8H         PUBLIC        motor_init
  X:01ECH         PUBLIC        MOTOR_K_COMP
  D:00D0H         PUBLIC        PSW
  -------         PROC          MOTOR_INIT
  C:3FD8H         LINE#         11
  C:3FD8H         LINE#         12
  C:3FD8H         LINE#         13
  C:3FDAH         LINE#         14
  C:3FDCH         LINE#         16
  C:4005H         LINE#         17
  C:4005H         LINE#         18
  C:4054H         LINE#         19
  C:4054H         LINE#         20
  C:4071H         LINE#         21
  C:4071H         LINE#         22
  C:4071H         LINE#         24
  C:4093H         LINE#         25
  -------         ENDPROC       MOTOR_INIT
  -------         PROC          _SET_CONST_MOTOR_L
  X:01D8H         SYMBOL        pwm_f
  -------         DO            
  X:01DCH         SYMBOL        temp_pwmf
  -------         ENDDO         
  C:3926H         LINE#         28
  C:392CH         LINE#         29
  C:392CH         LINE#         30
  C:3936H         LINE#         31
  C:3992H         LINE#         32
  C:39E9H         LINE#         33
  C:3A28H         LINE#         34
  -------         ENDPROC       _SET_CONST_MOTOR_L
  -------         PROC          _SET_CONST_MOTOR_R
  X:01E0H         SYMBOL        pwm_f
  -------         DO            
  X:01E4H         SYMBOL        temp_pwmf
  -------         ENDDO         
  C:3A46H         LINE#         38
  C:3A4CH         LINE#         39
  C:3A4CH         LINE#         40
  C:3A56H         LINE#         41
  C:3AB2H         LINE#         42
  C:3B09H         LINE#         43
  C:3B48H         LINE#         44
  -------         ENDPROC       _SET_CONST_MOTOR_R
  -------         PROC          _SET_MOTOR_PWM_L
  X:01F4H         SYMBOL        pwm_want
  C:3357H         LINE#         48
  C:335DH         LINE#         49
  C:335DH         LINE#         50
  C:3393H         LINE#         51
  C:33CBH         LINE#         53
  C:33E2H         LINE#         55
BL51 BANKED LINKER/LOCATER V6.22                                                      08/23/2020  18:03:24  PAGE 27


  C:33FEH         LINE#         56
  C:33FEH         LINE#         57
  C:341DH         LINE#         58
  C:343BH         LINE#         59
  C:343DH         LINE#         61
  C:343DH         LINE#         62
  C:3469H         LINE#         63
  C:348BH         LINE#         64
  C:348BH         LINE#         65
  -------         ENDPROC       _SET_MOTOR_PWM_L
  -------         PROC          _SET_MOTOR_PWM_R
  X:01F8H         SYMBOL        pwm_want
  C:3B66H         LINE#         68
  C:3B6CH         LINE#         69
  C:3B6CH         LINE#         70
  C:3BA2H         LINE#         71
  C:3BDAH         LINE#         75
  C:3BF6H         LINE#         76
  C:3BF6H         LINE#         77
  C:3C15H         LINE#         78
  C:3C33H         LINE#         79
  C:3C35H         LINE#         81
  C:3C35H         LINE#         82
  C:3C61H         LINE#         83
  C:3C83H         LINE#         84
  C:3C83H         LINE#         85
  -------         ENDPROC       _SET_MOTOR_PWM_R
  -------         ENDMOD        MOTOR_DRV8833

  -------         MODULE        ADC
  C:0000H         SYMBOL        _ICE_DUMMY_
  D:0080H         PUBLIC        P0
  D:0090H         PUBLIC        P1
  D:00A0H         PUBLIC        P2
  D:00B0H         PUBLIC        P3
  D:00C0H         PUBLIC        P4
  D:00C8H         PUBLIC        P5
  D:00A8H         PUBLIC        IE
  C:0006H         PUBLIC        adc_clear_flag
  D:00BDH         PUBLIC        ADC_RES
  D:00B8H         PUBLIC        IP
  D:00DEH         PUBLIC        ADCCFG
  D:00D8H         PUBLIC        CCON
  D:00BCH         PUBLIC        ADC_CONTR
  D:0098H         PUBLIC        SCON
  D:0088H         PUBLIC        TCON
  C:4C91H         PUBLIC        _adc_start
  C:4BCCH         PUBLIC        adc_init
  C:476EH         PUBLIC        _adc_read_volt
  D:00BEH         PUBLIC        ADC_RESL
  C:4C1AH         PUBLIC        adc_get_val
  D:00D0H         PUBLIC        PSW
  -------         PROC          ADC_INIT
  B:0020H.0       SYMBOL        open
  C:4BCCH         LINE#         7
  C:4BCCH         LINE#         8
  C:4BCCH         LINE#         9
BL51 BANKED LINKER/LOCATER V6.22                                                      08/23/2020  18:03:24  PAGE 28


  C:4BCFH         LINE#         10
  C:4BDAH         LINE#         12
  C:4BDDH         LINE#         13
  C:4BE0H         LINE#         14
  C:4BE0H         LINE#         16
  -------         ENDPROC       ADC_INIT
  -------         PROC          _ADC_READ_VOLT
  X:018EH         SYMBOL        channel
  -------         DO            
  X:018FH         SYMBOL        adcval1
  D:0006H         SYMBOL        adcval2
  -------         ENDDO         
  C:476EH         LINE#         23
  C:4773H         LINE#         24
  C:4773H         LINE#         26
  C:4778H         LINE#         27
  C:4783H         LINE#         28
  C:478BH         LINE#         29
  C:478EH         LINE#         30
  C:47C8H         LINE#         31
  -------         ENDPROC       _ADC_READ_VOLT
  -------         PROC          _ADC_START
  D:0007H         SYMBOL        channel
  C:4C91H         LINE#         39
  C:4C91H         LINE#         40
  C:4C91H         LINE#         41
  C:4C94H         LINE#         42
  C:4C97H         LINE#         43
  C:4C9AH         LINE#         44
  -------         ENDPROC       _ADC_START
  -------         PROC          ADC_GET_VAL
  C:4C1AH         LINE#         51
  C:4C1AH         LINE#         52
  C:4C1AH         LINE#         54
  C:4C1FH         LINE#         55
  C:4C22H         LINE#         56
  C:4C2AH         LINE#         57
  -------         ENDPROC       ADC_GET_VAL
  -------         PROC          ADC_CLEAR_FLAG
  C:0006H         LINE#         60
  C:0006H         LINE#         61
  C:0006H         LINE#         62
  C:0009H         LINE#         63
  -------         ENDPROC       ADC_CLEAR_FLAG
  -------         ENDMOD        ADC

  -------         MODULE        GPIO
  C:0000H         SYMBOL        _ICE_DUMMY_
  D:0093H         PUBLIC        P0M1
  D:0092H         PUBLIC        P1M0
  D:0096H         PUBLIC        P2M0
  D:0091H         PUBLIC        P1M1
  D:0080H         PUBLIC        P0
  D:00B2H         PUBLIC        P3M0
  D:0095H         PUBLIC        P2M1
  D:0090H         PUBLIC        P1
  D:00B4H         PUBLIC        P4M0
BL51 BANKED LINKER/LOCATER V6.22                                                      08/23/2020  18:03:24  PAGE 29


  D:00B1H         PUBLIC        P3M1
  D:00A0H         PUBLIC        P2
  D:00CAH         PUBLIC        P5M0
  D:00B3H         PUBLIC        P4M1
  D:00B0H         PUBLIC        P3
  D:00C9H         PUBLIC        P5M1
  D:00C0H         PUBLIC        P4
  D:00C8H         PUBLIC        P5
  D:00BAH         PUBLIC        P_SW2
  D:00A8H         PUBLIC        IE
  C:4495H         PUBLIC        _gpio_setting
  D:00B8H         PUBLIC        IP
  D:00D8H         PUBLIC        CCON
  D:0098H         PUBLIC        SCON
  D:0088H         PUBLIC        TCON
  C:414AH         PUBLIC        _gpio_init
  D:00D0H         PUBLIC        PSW
  D:0094H         PUBLIC        P0M0
  -------         PROC          _GPIO_INIT
  D:0007H         SYMBOL        group
  D:0005H         SYMBOL        pin
  D:0003H         SYMBOL        mode
  C:414AH         LINE#         14
  C:414AH         LINE#         15
  C:414AH         LINE#         16
  C:4164H         LINE#         17
  C:4164H         LINE#         18
  C:4164H         LINE#         19
  C:4168H         LINE#         20
  C:416DH         LINE#         22
  C:416DH         LINE#         23
  C:4171H         LINE#         24
  C:4171H         LINE#         25
  C:4175H         LINE#         26
  C:4179H         LINE#         28
  C:4179H         LINE#         29
  C:417DH         LINE#         30
  C:417DH         LINE#         31
  C:417EH         LINE#         33
  C:417EH         LINE#         34
  C:4182H         LINE#         35
  C:4187H         LINE#         37
  C:4187H         LINE#         38
  C:418BH         LINE#         39
  C:418BH         LINE#         40
  C:418FH         LINE#         41
  C:4193H         LINE#         43
  C:4193H         LINE#         44
  C:4197H         LINE#         45
  C:4197H         LINE#         46
  C:4198H         LINE#         48
  C:4198H         LINE#         49
  C:419CH         LINE#         50
  C:41A1H         LINE#         52
  C:41A1H         LINE#         53
  C:41A5H         LINE#         54
  C:41A5H         LINE#         55
BL51 BANKED LINKER/LOCATER V6.22                                                      08/23/2020  18:03:24  PAGE 30


  C:41A9H         LINE#         56
  C:41ADH         LINE#         58
  C:41ADH         LINE#         59
  C:41B1H         LINE#         60
  C:41B1H         LINE#         61
  C:41B2H         LINE#         63
  C:41B2H         LINE#         64
  C:41B6H         LINE#         65
  C:41BBH         LINE#         67
  C:41BBH         LINE#         68
  C:41BFH         LINE#         69
  C:41BFH         LINE#         70
  C:41C3H         LINE#         71
  C:41C7H         LINE#         73
  C:41C7H         LINE#         74
  C:41CBH         LINE#         75
  C:41CBH         LINE#         76
  C:41CCH         LINE#         78
  C:41CCH         LINE#         79
  C:41D0H         LINE#         80
  C:41D5H         LINE#         82
  C:41D5H         LINE#         83
  C:41D9H         LINE#         84
  C:41D9H         LINE#         85
  C:41DDH         LINE#         86
  C:41E1H         LINE#         88
  C:41E1H         LINE#         89
  C:41E5H         LINE#         90
  C:41E5H         LINE#         91
  C:41E6H         LINE#         93
  C:41E6H         LINE#         94
  C:41EAH         LINE#         95
  C:41EFH         LINE#         97
  C:41EFH         LINE#         98
  C:41F3H         LINE#         99
  C:41F3H         LINE#         100
  C:41F7H         LINE#         101
  C:41FBH         LINE#         103
  C:41FBH         LINE#         104
  C:41FFH         LINE#         105
  C:41FFH         LINE#         106
  C:41FFH         LINE#         108
  C:41FFH         LINE#         109
  -------         ENDPROC       _GPIO_INIT
  -------         PROC          _GPIO_SETTING
  D:0007H         SYMBOL        group
  D:0005H         SYMBOL        pin
  B:0020H.0       SYMBOL        pu
  B:0020H.1       SYMBOL        schmitt
  B:0020H.2       SYMBOL        sr
  B:0020H.3       SYMBOL        dr
  C:4495H         LINE#         119
  C:4495H         LINE#         120
  C:4495H         LINE#         121
  C:4498H         LINE#         123
  C:44A2H         LINE#         124
  C:44ABH         LINE#         126
BL51 BANKED LINKER/LOCATER V6.22                                                      08/23/2020  18:03:24  PAGE 31


  C:44B7H         LINE#         129
  C:44C1H         LINE#         130
  C:44CAH         LINE#         132
  C:44D6H         LINE#         135
  C:44E0H         LINE#         136
  C:44E9H         LINE#         138
  C:44F5H         LINE#         141
  C:44FFH         LINE#         142
  C:4508H         LINE#         144
  C:4514H         LINE#         146
  C:4517H         LINE#         148
  -------         ENDPROC       _GPIO_SETTING
  -------         ENDMOD        GPIO

  -------         MODULE        PWM
  C:0000H         SYMBOL        _ICE_DUMMY_
  C:4961H         PUBLIC        _pwm_stop
  D:0080H         PUBLIC        P0
  D:0090H         PUBLIC        P1
  D:00A0H         PUBLIC        P2
  D:00B0H         PUBLIC        P3
  D:00C0H         PUBLIC        P4
  D:00C8H         PUBLIC        P5
  D:00BAH         PUBLIC        P_SW2
  D:00A8H         PUBLIC        IE
  D:00B8H         PUBLIC        IP
  D:00D8H         PUBLIC        CCON
  D:00F6H         PUBLIC        PWMCFG01
  D:00F7H         PUBLIC        PWMCFG23
  C:3D68H         PUBLIC        _pwm_forced
  D:00FEH         PUBLIC        PWMCFG45
  D:0098H         PUBLIC        SCON
  D:0088H         PUBLIC        TCON
  D:00F1H         PUBLIC        PWMSET
  C:12E9H         PUBLIC        _pwm_start
  C:4C77H         PUBLIC        _pwm_init
  D:00D0H         PUBLIC        PSW
  -------         PROC          _PWM_INIT
  D:0007H         SYMBOL        group
  C:4C77H         LINE#         3
  C:4C77H         LINE#         4
  C:4C77H         LINE#         7
  C:4C84H         LINE#         8
  -------         ENDPROC       _PWM_INIT
  -------         PROC          _PWM_FORCED
  D:0001H         SYMBOL        group
  X:019BH         SYMBOL        pin
  X:019CH         SYMBOL        sta
  C:3D68H         LINE#         16
  C:3D72H         LINE#         17
  C:3D72H         LINE#         18
  C:3D75H         LINE#         19
  C:3D7BH         LINE#         20
  C:3D7BH         LINE#         21
  C:3DA9H         LINE#         22
  C:3DBAH         LINE#         23
  C:3DBCH         LINE#         25
BL51 BANKED LINKER/LOCATER V6.22                                                      08/23/2020  18:03:24  PAGE 32


  C:3DBCH         LINE#         26
  C:3DF4H         LINE#         27
  C:3E19H         LINE#         28
  C:3E19H         LINE#         29
  C:3E1CH         LINE#         31
  C:3E30H         LINE#         32
  C:3E30H         LINE#         33
  C:3E30H         LINE#         34
  C:3E33H         LINE#         35
  C:3E34H         LINE#         36
  C:3E34H         LINE#         37
  C:3E37H         LINE#         38
  C:3E38H         LINE#         39
  C:3E38H         LINE#         40
  C:3E3BH         LINE#         41
  C:3E3CH         LINE#         42
  C:3E3CH         LINE#         43
  C:3E3FH         LINE#         44
  C:3E40H         LINE#         45
  C:3E40H         LINE#         46
  C:3E43H         LINE#         47
  C:3E44H         LINE#         48
  C:3E44H         LINE#         49
  C:3E47H         LINE#         50
  C:3E47H         LINE#         52
  C:3E47H         LINE#         53
  C:3E47H         LINE#         54
  C:3E47H         LINE#         56
  -------         ENDPROC       _PWM_FORCED
  -------         PROC          _PWM_START
  X:017AH         SYMBOL        group
  X:017BH         SYMBOL        pin
  X:017CH         SYMBOL        freq
  X:0180H         SYMBOL        duty
  X:0184H         SYMBOL        dead
  X:0185H         SYMBOL        polarity
  -------         DO            
  X:0186H         SYMBOL        PWM_SYSCLKDIV
  X:0187H         SYMBOL        cnt_freq_temp
  X:018BH         SYMBOL        cnt_freq
  X:018FH         SYMBOL        cnt_duty_low
  X:0193H         SYMBOL        cnt_duty_high
  X:0197H         SYMBOL        temp
  -------         ENDDO         
  C:12E9H         LINE#         68
  C:12F1H         LINE#         69
  C:12F1H         LINE#         71
  C:12F7H         LINE#         72
  C:12FFH         LINE#         74
  C:1309H         LINE#         75
  C:1313H         LINE#         76
  C:131DH         LINE#         77
  C:1327H         LINE#         80
  C:1348H         LINE#         81
  C:1355H         LINE#         82
  C:1373H         LINE#         83
  C:1380H         LINE#         86
BL51 BANKED LINKER/LOCATER V6.22                                                      08/23/2020  18:03:24  PAGE 33


  C:139FH         LINE#         87
  C:13A1H         LINE#         88
  C:13BFH         LINE#         89
  C:13C1H         LINE#         90
  C:13E2H         LINE#         91
  C:13EEH         LINE#         92
  C:140EH         LINE#         93
  C:141BH         LINE#         95
  C:141BH         LINE#         100
  C:141BH         LINE#         101
  C:1421H         LINE#         102
  C:145DH         LINE#         103
  C:1480H         LINE#         104
  C:1492H         LINE#         111
  C:14C9H         LINE#         112
  C:1525H         LINE#         113
  C:1549H         LINE#         116
  C:1552H         LINE#         117
  C:1552H         LINE#         118
  C:159FH         LINE#         119
  C:15D5H         LINE#         120
  C:15D8H         LINE#         121
  C:15E3H         LINE#         122
  C:15E3H         LINE#         123
  C:161FH         LINE#         124
  C:166DH         LINE#         125
  C:166DH         LINE#         130
  C:1670H         LINE#         132
  C:167CH         LINE#         133
  C:167CH         LINE#         134
  C:169DH         LINE#         136
  C:16BCH         LINE#         137
  C:16D8H         LINE#         139
  C:16EAH         LINE#         140
  C:16ECH         LINE#         142
  C:1721H         LINE#         143
  C:174CH         LINE#         144
  C:176CH         LINE#         145
  C:1795H         LINE#         147
  C:17A5H         LINE#         148
  C:17A8H         LINE#         150
  C:17A8H         LINE#         151
  C:17D1H         LINE#         153
  C:17FEH         LINE#         154
  C:181EH         LINE#         156
  C:1830H         LINE#         157
  C:1832H         LINE#         159
  C:186AH         LINE#         160
  C:189BH         LINE#         161
  C:18D5H         LINE#         162
  C:1906H         LINE#         164
  C:192BH         LINE#         165
  C:192BH         LINE#         166
  C:192EH         LINE#         168
  C:1945H         LINE#         169
  C:1945H         LINE#         170
  C:1945H         LINE#         171
BL51 BANKED LINKER/LOCATER V6.22                                                      08/23/2020  18:03:24  PAGE 34


  C:1948H         LINE#         172
  C:1949H         LINE#         173
  C:1949H         LINE#         174
  C:194CH         LINE#         175
  C:194DH         LINE#         176
  C:194DH         LINE#         177
  C:1950H         LINE#         178
  C:1951H         LINE#         179
  C:1951H         LINE#         180
  C:1954H         LINE#         181
  C:1955H         LINE#         182
  C:1955H         LINE#         183
  C:1958H         LINE#         184
  C:1959H         LINE#         185
  C:1959H         LINE#         186
  C:195CH         LINE#         187
  C:195CH         LINE#         189
  C:195CH         LINE#         190
  C:195CH         LINE#         191
  C:195CH         LINE#         192
  -------         ENDPROC       _PWM_START
  -------         PROC          _PWM_STOP
  D:0007H         SYMBOL        group
  D:0003H         SYMBOL        pin
  C:4961H         LINE#         200
  C:4963H         LINE#         201
  C:4963H         LINE#         202
  C:4966H         LINE#         204
  C:496CH         LINE#         205
  C:496CH         LINE#         206
  C:4978H         LINE#         207
  C:497AH         LINE#         209
  C:497AH         LINE#         210
  C:499DH         LINE#         211
  C:499DH         LINE#         212
  C:49A0H         LINE#         213
  -------         ENDPROC       _PWM_STOP
  -------         ENDMOD        PWM

  -------         MODULE        UART
  C:0000H         SYMBOL        _ICE_DUMMY_
  D:0080H         PUBLIC        P0
  D:0090H         PUBLIC        P1
  D:00B4H         PUBLIC        P4M0
  D:00A0H         PUBLIC        P2
  D:00B3H         PUBLIC        P4M1
  D:00B0H         PUBLIC        P3
  D:00C0H         PUBLIC        P4
  D:00C8H         PUBLIC        P5
  B:00A8H.7       PUBLIC        EA
  D:00BAH         PUBLIC        P_SW2
  D:00A8H         PUBLIC        IE
  D:00B8H         PUBLIC        IP
  D:00D8H         PUBLIC        CCON
  D:0098H         PUBLIC        SCON
  D:0088H         PUBLIC        TCON
  C:0016H         PUBLIC        uart2_timer2_init
BL51 BANKED LINKER/LOCATER V6.22                                                      08/23/2020  18:03:24  PAGE 35


  D:00AFH         PUBLIC        IE2
  D:008EH         PUBLIC        AUXR
  D:00D6H         PUBLIC        T2H
  D:00D7H         PUBLIC        T2L
  D:009AH         PUBLIC        S2CON
  D:00D0H         PUBLIC        PSW
  -------         PROC          UART2_TIMER2_INIT
  -------         DO            
  D:0006H         SYMBOL        reload_value
  -------         ENDDO         
  C:0016H         LINE#         3
  C:0016H         LINE#         4
  C:0016H         LINE#         5
  C:0033H         LINE#         24
  C:0036H         LINE#         25
  C:0038H         LINE#         26
  C:003AH         LINE#         28
  C:003DH         LINE#         29
  C:0040H         LINE#         30
  C:0043H         LINE#         31
  C:0046H         LINE#         33
  C:0049H         LINE#         35
  C:004CH         LINE#         36
  C:004FH         LINE#         37
  C:0051H         LINE#         38
  -------         ENDPROC       UART2_TIMER2_INIT
  -------         ENDMOD        UART

  -------         MODULE        SOFT_IIC
  C:0000H         SYMBOL        _ICE_DUMMY_
  D:0080H         PUBLIC        P0
  D:0090H         PUBLIC        P1
  B:0090H.5       PUBLIC        I2C_SCL
  D:00A0H         PUBLIC        P2
  D:00B0H         PUBLIC        P3
  D:00C0H         PUBLIC        P4
  D:00C8H         PUBLIC        P5
  C:4BE1H         PUBLIC        SoftI2CStop
  D:00A8H         PUBLIC        IE
  D:00B8H         PUBLIC        IP
  D:00D8H         PUBLIC        CCON
  C:4A78H         PUBLIC        SoftI2CReadACK
  D:0098H         PUBLIC        SCON
  D:0088H         PUBLIC        TCON
  C:4A45H         PUBLIC        SoftI2CReadNAK
  C:49DCH         PUBLIC        _SoftI2CWrite
  C:4C2BH         PUBLIC        SoftI2CStart
  C:0012H         PUBLIC        SoftI2CInit
  B:0090H.4       PUBLIC        I2C_SDA
  D:00D0H         PUBLIC        PSW
  -------         PROC          SOFTI2CINIT
  C:0012H         LINE#         23
  C:0012H         LINE#         24
  C:0012H         LINE#         26
  -------         ENDPROC       SOFTI2CINIT
  -------         PROC          SOFTI2CSTART
  C:4C2BH         LINE#         29
BL51 BANKED LINKER/LOCATER V6.22                                                      08/23/2020  18:03:24  PAGE 36


  C:4C2BH         LINE#         30
  C:4C2BH         LINE#         31
  C:4C2DH         LINE#         32
  C:4C2FH         LINE#         33
  C:4C33H         LINE#         34
  C:4C35H         LINE#         35
  C:4C39H         LINE#         36
  C:4C3BH         LINE#         37
  -------         ENDPROC       SOFTI2CSTART
  -------         PROC          SOFTI2CSTOP
  C:4BE1H         LINE#         39
  C:4BE1H         LINE#         40
  C:4BE1H         LINE#         41
  C:4BE3H         LINE#         42
  C:4BE5H         LINE#         43
  C:4BE9H         LINE#         44
  C:4BEBH         LINE#         45
  C:4BEFH         LINE#         46
  C:4BF1H         LINE#         47
  C:4BF5H         LINE#         48
  -------         ENDPROC       SOFTI2CSTOP
  -------         PROC          _SOFTI2CWRITE
  D:0007H         SYMBOL        dat
  -------         DO            
  B:0021H.3       SYMBOL        ack
  D:0006H         SYMBOL        mask
  -------         ENDDO         
  C:49DCH         LINE#         50
  C:49DCH         LINE#         51
  C:49DCH         LINE#         55
  C:49E1H         LINE#         56
  C:49E1H         LINE#         57
  C:49E4H         LINE#         58
  C:49E8H         LINE#         60
  C:49EAH         LINE#         61
  C:49EEH         LINE#         62
  C:49F0H         LINE#         63
  C:49F4H         LINE#         64
  C:49F6H         LINE#         65
  C:49FCH         LINE#         66
  C:49FEH         LINE#         67
  C:4A02H         LINE#         68
  C:4A04H         LINE#         69
  C:4A08H         LINE#         70
  C:4A0CH         LINE#         71
  C:4A0EH         LINE#         73
  C:4A11H         LINE#         75
  -------         ENDPROC       _SOFTI2CWRITE
  -------         PROC          SOFTI2CREADNAK
  -------         DO            
  D:0006H         SYMBOL        mask
  D:0007H         SYMBOL        dat
  -------         ENDDO         
  C:4A45H         LINE#         77
  C:4A45H         LINE#         78
  C:4A45H         LINE#         82
  C:4A47H         LINE#         83
BL51 BANKED LINKER/LOCATER V6.22                                                      08/23/2020  18:03:24  PAGE 37


  C:4A4CH         LINE#         84
  C:4A4CH         LINE#         85
  C:4A50H         LINE#         86
  C:4A52H         LINE#         87
  C:4A55H         LINE#         88
  C:4A5AH         LINE#         90
  C:4A5DH         LINE#         91
  C:4A61H         LINE#         92
  C:4A63H         LINE#         93
  C:4A69H         LINE#         94
  C:4A6BH         LINE#         95
  C:4A6FH         LINE#         96
  C:4A71H         LINE#         97
  C:4A75H         LINE#         98
  C:4A77H         LINE#         100
  C:4A77H         LINE#         101
  -------         ENDPROC       SOFTI2CREADNAK
  -------         PROC          SOFTI2CREADACK
  -------         DO            
  D:0006H         SYMBOL        mask
  D:0007H         SYMBOL        dat
  -------         ENDDO         
  C:4A78H         LINE#         103
  C:4A78H         LINE#         104
  C:4A78H         LINE#         108
  C:4A7AH         LINE#         109
  C:4A7FH         LINE#         110
  C:4A7FH         LINE#         111
  C:4A83H         LINE#         112
  C:4A85H         LINE#         113
  C:4A88H         LINE#         114
  C:4A8DH         LINE#         116
  C:4A90H         LINE#         117
  C:4A94H         LINE#         118
  C:4A96H         LINE#         119
  C:4A9CH         LINE#         120
  C:4A9EH         LINE#         121
  C:4AA2H         LINE#         122
  C:4AA4H         LINE#         123
  C:4AA8H         LINE#         124
  C:4AAAH         LINE#         126
  C:4AAAH         LINE#         127
  -------         ENDPROC       SOFTI2CREADACK
  -------         ENDMOD        SOFT_IIC

  -------         MODULE        UTILS
  C:0000H         SYMBOL        _ICE_DUMMY_
  C:4C9BH         PUBLIC        _ASSERT
  -------         PROC          _ASSERT
  D:0004H         SYMBOL        expr
  C:4C9BH         LINE#         6
  C:4C9BH         LINE#         7
  C:4C9BH         LINE#         8
  C:4CA2H         LINE#         11
  -------         ENDPROC       _ASSERT
  -------         ENDMOD        UTILS

BL51 BANKED LINKER/LOCATER V6.22                                                      08/23/2020  18:03:24  PAGE 38


  -------         MODULE        ?C?FPADD
  C:008DH         PUBLIC        ?C?FPADD
  C:0089H         PUBLIC        ?C?FPSUB
  -------         ENDMOD        ?C?FPADD

  -------         MODULE        ?C?FPMUL
  C:017EH         PUBLIC        ?C?FPMUL
  -------         ENDMOD        ?C?FPMUL

  -------         MODULE        ?C?FPDIV
  C:0287H         PUBLIC        ?C?FPDIV
  -------         ENDMOD        ?C?FPDIV

  -------         MODULE        ?C?FPCMP
  C:0326H         PUBLIC        ?C?FPCMP
  C:0324H         PUBLIC        ?C?FPCMP3
  -------         ENDMOD        ?C?FPCMP

  -------         MODULE        ?C?FPNEG
  C:039DH         PUBLIC        ?C?FPNEG
  -------         ENDMOD        ?C?FPNEG

  -------         MODULE        ?C?FCAST
  C:03B8H         PUBLIC        ?C?FCASTC
  C:03B3H         PUBLIC        ?C?FCASTI
  C:03AEH         PUBLIC        ?C?FCASTL
  -------         ENDMOD        ?C?FCAST

  -------         MODULE        ?C?CASTF
  C:03ECH         PUBLIC        ?C?CASTF
  -------         ENDMOD        ?C?CASTF

  -------         MODULE        PRINTF
  X:018FH         PUBLIC        ?_PRINTF?BYTE
  X:018FH         PUBLIC        ?_SPRINTF?BYTE
  C:19C8H         PUBLIC        _PRINTF
  C:19C2H         PUBLIC        _SPRINTF
  -------         ENDMOD        PRINTF

  -------         MODULE        SQRT
  C:42B9H         PUBLIC        _SQRT
  -------         ENDMOD        SQRT

  -------         MODULE        ASIN
  C:49A1H         PUBLIC        _ASIN
  -------         ENDMOD        ASIN

  -------         MODULE        ?C?FPROUND
  C:046DH         PUBLIC        ?C?FPROUND
  -------         ENDMOD        ?C?FPROUND

  -------         MODULE        ?C?FPCONVERT
  C:04AAH         PUBLIC        ?C?FPCONVERT
  -------         ENDMOD        ?C?FPCONVERT

  -------         MODULE        ATAN
  C:3824H         PUBLIC        _ATAN
BL51 BANKED LINKER/LOCATER V6.22                                                      08/23/2020  18:03:24  PAGE 39


  -------         ENDMOD        ATAN

  -------         MODULE        ?C?FTNPWR
  C:05DFH         PUBLIC        ?C?FTNPWR
  -------         ENDMOD        ?C?FTNPWR

  -------         MODULE        ?C?CLDPTR
  C:066CH         PUBLIC        ?C?CLDPTR
  -------         ENDMOD        ?C?CLDPTR

  -------         MODULE        ?C?CLDOPTR
  C:0685H         PUBLIC        ?C?CLDOPTR
  -------         ENDMOD        ?C?CLDOPTR

  -------         MODULE        ?C?CSTPTR
  C:06B2H         PUBLIC        ?C?CSTPTR
  -------         ENDMOD        ?C?CSTPTR

  -------         MODULE        ?C?CSTOPTR
  C:06C4H         PUBLIC        ?C?CSTOPTR
  -------         ENDMOD        ?C?CSTOPTR

  -------         MODULE        ?C?IMUL
  C:06E6H         PUBLIC        ?C?IMUL
  -------         ENDMOD        ?C?IMUL

  -------         MODULE        ?C?IILDX
  C:06F8H         PUBLIC        ?C?IILDX
  -------         ENDMOD        ?C?IILDX

  -------         MODULE        ?C?LMUL
  C:070EH         PUBLIC        ?C?LMUL
  -------         ENDMOD        ?C?LMUL

  -------         MODULE        ?C?ULDIV
  C:0799H         PUBLIC        ?C?ULDIV
  -------         ENDMOD        ?C?ULDIV

  -------         MODULE        ?C?SLDIV
  C:491DH         PUBLIC        ?C?SLDIV
  -------         ENDMOD        ?C?SLDIV

  -------         MODULE        ?C?LNEG
  C:082BH         PUBLIC        ?C?LNEG
  -------         ENDMOD        ?C?LNEG

  -------         MODULE        ?C?SLCMP
  C:0839H         PUBLIC        ?C?SLCMP
  -------         ENDMOD        ?C?SLCMP

  -------         MODULE        ?C?ULCMP
  C:084FH         PUBLIC        ?C?ULCMP
  -------         ENDMOD        ?C?ULCMP

  -------         MODULE        ?C?ULSHR
  C:0860H         PUBLIC        ?C?ULSHR
  -------         ENDMOD        ?C?ULSHR
BL51 BANKED LINKER/LOCATER V6.22                                                      08/23/2020  18:03:24  PAGE 40



  -------         MODULE        ?C?LLDPTR
  C:0873H         PUBLIC        ?C?LLDPTR
  -------         ENDMOD        ?C?LLDPTR

  -------         MODULE        ?C?LLDOPTR
  C:0893H         PUBLIC        ?C?LLDOPTR
  -------         ENDMOD        ?C?LLDOPTR

  -------         MODULE        ?C?LSTPTR
  C:08C3H         PUBLIC        ?C?LSTPTR
  -------         ENDMOD        ?C?LSTPTR

  -------         MODULE        ?C?LSTOPTR
  C:08DDH         PUBLIC        ?C?LSTOPTR
  -------         ENDMOD        ?C?LSTOPTR

  -------         MODULE        ?C?LLDIDATA
  C:0901H         PUBLIC        ?C?LLDIDATA
  -------         ENDMOD        ?C?LLDIDATA

  -------         MODULE        ?C?LLDXDATA
  C:090DH         PUBLIC        ?C?LLDXDATA
  -------         ENDMOD        ?C?LLDXDATA

  -------         MODULE        ?C?LLDCODE
  C:0919H         PUBLIC        ?C?LLDCODE
  -------         ENDMOD        ?C?LLDCODE

  -------         MODULE        ?C?LLDIDATA0
  C:0929H         PUBLIC        ?C?LLDIDATA0
  -------         ENDMOD        ?C?LLDIDATA0

  -------         MODULE        ?C?LLDXDATA0
  C:0936H         PUBLIC        ?C?LLDXDATA0
  -------         ENDMOD        ?C?LLDXDATA0

  -------         MODULE        ?C?LLDCODE0
  C:0942H         PUBLIC        ?C?LLDCODE0
  -------         ENDMOD        ?C?LLDCODE0

  -------         MODULE        ?C?LILDXDATA
  C:095BH         PUBLIC        ?C?LILDXDATA
  C:0952H         PUBLIC        ?C?LILDXDATA1
  C:0954H         PUBLIC        ?C?LILDXDATA8
  -------         ENDMOD        ?C?LILDXDATA

  -------         MODULE        ?C?LSTIDATA
  C:0987H         PUBLIC        ?C?LSTIDATA
  -------         ENDMOD        ?C?LSTIDATA

  -------         MODULE        ?C?LSTXDATA
  C:0993H         PUBLIC        ?C?LSTXDATA
  -------         ENDMOD        ?C?LSTXDATA

  -------         MODULE        ?C?LSTKXDATA
  C:099FH         PUBLIC        ?C?LSTKXDATA
BL51 BANKED LINKER/LOCATER V6.22                                                      08/23/2020  18:03:24  PAGE 41


  -------         ENDMOD        ?C?LSTKXDATA

  -------         MODULE        ?C?LSTKPTR
  C:09D0H         PUBLIC        ?C?LSTKPTR
  -------         ENDMOD        ?C?LSTKPTR

  -------         MODULE        ?C?LSTKOPTR
  C:09EAH         PUBLIC        ?C?LSTKOPTR
  -------         ENDMOD        ?C?LSTKOPTR

  -------         MODULE        ?C?OFFXADD
  C:0A0EH         PUBLIC        ?C?OFFXADD
  -------         ENDMOD        ?C?OFFXADD

  -------         MODULE        ?C?PLDIXDATA
  C:0A1AH         PUBLIC        ?C?PLDIXDATA
  -------         ENDMOD        ?C?PLDIXDATA

  -------         MODULE        ?C?PSTXDATA
  C:0A31H         PUBLIC        ?C?PSTXDATA
  -------         ENDMOD        ?C?PSTXDATA

  -------         MODULE        ?C?CCASE
  C:0A3AH         PUBLIC        ?C?CCASE
  -------         ENDMOD        ?C?CCASE

  -------         MODULE        ?C?LLDPDATA
  C:0A60H         PUBLIC        ?C?LLDPDATA
  -------         ENDMOD        ?C?LLDPDATA

  -------         MODULE        ?C?LSTPDATA
  C:0A6CH         PUBLIC        ?C?LSTPDATA
  -------         ENDMOD        ?C?LSTPDATA

  -------         MODULE        ?C?LSTKIDATA
  C:0A78H         PUBLIC        ?C?LSTKIDATA
  -------         ENDMOD        ?C?LSTKIDATA

  -------         MODULE        ?C?LSTKPDATA
  C:0A91H         PUBLIC        ?C?LSTKPDATA
  -------         ENDMOD        ?C?LSTKPDATA

*** WARNING L16: UNCALLED SEGMENT, IGNORED FOR OVERLAY PROCESS
    SEGMENT: ?PR?TASK_TEST_LED?MAIN

*** WARNING L16: UNCALLED SEGMENT, IGNORED FOR OVERLAY PROCESS
    SEGMENT: ?PR?TASK_CONSTP_CHARGE?MAIN

*** WARNING L16: UNCALLED SEGMENT, IGNORED FOR OVERLAY PROCESS
    SEGMENT: ?PR?TASK_MOTOR_CONTROL?MAIN

*** WARNING L16: UNCALLED SEGMENT, IGNORED FOR OVERLAY PROCESS
    SEGMENT: ?PR?TASK_CONST_MOTOR_TEST?MAIN

*** WARNING L16: UNCALLED SEGMENT, IGNORED FOR OVERLAY PROCESS
    SEGMENT: ?PR?TASK_MOTOR_TEST?MAIN

BL51 BANKED LINKER/LOCATER V6.22                                                      08/23/2020  18:03:24  PAGE 42


*** WARNING L16: UNCALLED SEGMENT, IGNORED FOR OVERLAY PROCESS
    SEGMENT: ?PR?TASK_ADC_PRINT?MAIN

*** WARNING L16: UNCALLED SEGMENT, IGNORED FOR OVERLAY PROCESS
    SEGMENT: ?PR?TASK_PRINT_ENCODER?MAIN

*** WARNING L16: UNCALLED SEGMENT, IGNORED FOR OVERLAY PROCESS
    SEGMENT: ?PR?GLOBAL_INTERRUPT_DISABLE?SYS

*** WARNING L16: UNCALLED SEGMENT, IGNORED FOR OVERLAY PROCESS
    SEGMENT: ?PR?_PWM_STOP?PWM

*** WARNING L16: UNCALLED SEGMENT, IGNORED FOR OVERLAY PROCESS
    SEGMENT: ?PR?UART2_TIMER2_INIT?UART

*** WARNING L16: UNCALLED SEGMENT, IGNORED FOR OVERLAY PROCESS
    SEGMENT: ?PR?SOFTI2CINIT?SOFT_IIC

*** WARNING L16: UNCALLED SEGMENT, IGNORED FOR OVERLAY PROCESS
    SEGMENT: ?PR?SOFTI2CSTART?SOFT_IIC

*** WARNING L16: UNCALLED SEGMENT, IGNORED FOR OVERLAY PROCESS
    SEGMENT: ?PR?SOFTI2CSTOP?SOFT_IIC

*** WARNING L16: UNCALLED SEGMENT, IGNORED FOR OVERLAY PROCESS
    SEGMENT: ?PR?_SOFTI2CWRITE?SOFT_IIC

*** WARNING L16: UNCALLED SEGMENT, IGNORED FOR OVERLAY PROCESS
    SEGMENT: ?PR?SOFTI2CREADNAK?SOFT_IIC

*** WARNING L16: UNCALLED SEGMENT, IGNORED FOR OVERLAY PROCESS
    SEGMENT: ?PR?SOFTI2CREADACK?SOFT_IIC

*** WARNING L16: UNCALLED SEGMENT, IGNORED FOR OVERLAY PROCESS
    SEGMENT: ?PR?_ASSERT?UTILS

*** WARNING L1: UNRESOLVED EXTERNAL SYMBOL
    SYMBOL:  _SET_MCP401X_DATA
    MODULE:  .\Objects\main.obj (MAIN)

*** WARNING L2: REFERENCE MADE TO UNRESOLVED EXTERNAL
    SYMBOL:  _SET_MCP401X_DATA
    MODULE:  .\Objects\main.obj (MAIN)
    ADDRESS: 2C25H

Program Size: data=67.4 xdata=508 code=19625
LINK/LOCATE RUN COMPLETE.  19 WARNING(S),  0 ERROR(S)
