C51 COMPILER V9.54   MAIN                                                                  08/23/2020 18:03:24 PAGE 1   


C51 COMPILER V9.54, COMPILATION OF MODULE MAIN
OBJECT MODULE PLACED IN .\Objects\main.obj
COMPILER INVOKED BY: C:\Keil_v5\C51\BIN\C51.EXE app\main.c LARGE OPTIMIZE(8,SPEED) BROWSE MODP2 INCDIR(.\utils;.\chip;.\
                    -drv;.\app) DEBUG OBJECTEXTEND PRINT(.\Listings\main.lst) TABS(2) OBJECT(.\Objects\main.obj)

line level    source

   1          #include "app.h"
   2          
   3          
   4          
   5          uint32_t uw_tick = 0;          //全局系统时钟
   6          bool flag_charging_end = false;
   7          
   8          mpudata_t mpudata;             //角度传感器数据
   9          
  10          volatile int32_t encoder_counter_L = 0; //左编码器计数
  11          volatile int32_t encoder_counter_R = 0; //右编码器计数
  12          int32_t encoder_total_L = 0;
  13          int32_t encoder_total_R = 0;
  14          float encoder_filted_rate_L = 0.0;
  15          float encoder_filted_rate_R = 0.0;
  16          float encoder_rate_L = 0.0;
  17          float encoder_rate_R = 0.0;
  18          
  19          float motor_stand_pwmf = 0.0;      //范围0.0~1.0，直立环输出PWM
  20          float motor_turn_pwmf  = 0.0;      //范围0.0~1.0，转向环输出PWM
  21          float motor_speed_pwmf = 0.0;      //
  22          
  23          int16_t power_persent = 0;     //剩余电量百分比 0~100
  24          float power_persent_f = 0.0f;  //剩余电量百分比 0.0~1.0
  25          
  26          const float angle_zero = -25.0;        //（用户填写）小车机械零点，取决于小车重心
  27          float angle_want = -25.0;        //由速度环给出最终期望角
  28          float speed_want = 100.0;        //（用户填写）小车平均速度
  29          
  30          static float supercap_volt = 0;//超级电容实时电压
  31          
  32          
  33          
  34          void T0_interrupt_init();
  35          void uart_init();
  36          void uart_send_byte(unsigned char dat);
  37          void port_init();
  38          void encoder_init();
  39          void global_interrupt_enable();
  40          void global_interrupt_disable();
  41          
  42          
  43          void delay_ms(uint32_t ms)
  44          {
  45   1        uint32_t uw_tick_reg = uw_tick;
  46   1        while(uw_tick - uw_tick_reg < ms);
  47   1      }
  48          
  49          
  50          
  51          void task_refresh_mpudata()
  52          {
  53   1        static unsigned long task_interval = T0_TICK_MS; //任务执行间隔（毫秒）
  54   1        static unsigned long tick_reg = 0;      //记录上一次的tick值
C51 COMPILER V9.54   MAIN                                                                  08/23/2020 18:03:24 PAGE 2   

  55   1        
  56   1        
  57   1        if(uw_tick - tick_reg >= task_interval)
  58   1          tick_reg = uw_tick; //记录上一次的值
  59   1        else
  60   1          return;
  61   1        get_mpu6050(&mpudata);
  62   1        
  63   1      }
  64          
  65          void task_print_mpudata()
  66          {
  67   1        static unsigned long task_interval = 100; //任务执行间隔（毫秒）
  68   1        static unsigned long tick_reg = 0;      //记录上一次的tick值
  69   1        
  70   1        if(uw_tick - tick_reg >= task_interval)
  71   1          tick_reg = uw_tick; //记录上一次的值
  72   1        else
  73   1          return;
  74   1        
  75   1        //printf("g (%f, %f, %f)\r\n", mpudata.gx, mpudata.gy, mpudata.gz);
  76   1        //printf("a (%f, %f, %f)\r\n", mpudata.ax, mpudata.ay, mpudata.az);
  77   1        printf("(%f, %f)\r\n", mpudata.pitch, mpudata.roll);
  78   1      }
  79          
  80          
  81          
  82          void task_test_led()
  83          {
  84   1        static unsigned long task_interval = 10; //任务执行间隔（毫秒）
  85   1        static unsigned long tick_reg = 0;      //记录上一次的tick值
  86   1        static uint8_t reflag = 0;
  87   1        static int32_t counter = 0;
  88   1        if(uw_tick - tick_reg >= task_interval)
  89   1          tick_reg = uw_tick; //记录上一次的值
  90   1        else
  91   1          return;
  92   1      
  93   1        
  94   1        
  95   1        
  96   1        if(!reflag)
  97   1        {
  98   2          if(++counter >= 100)
  99   2          {
 100   3            reflag = !reflag;
 101   3          }
 102   2            
 103   2        }
 104   1        else
 105   1        {
 106   2          if(--counter <= 0)
 107   2          {
 108   3            reflag = !reflag;
 109   3          }
 110   2        }
 111   1        pwm_start(PWM_GROUP5, PWM_PIN3, 10000, counter * 1 / 1, 0, PWM_VALID_LOW);//BLUE
 112   1        pwm_start(PWM_GROUP0, PWM_PIN7, 10000, counter * 1 / 4, 0, PWM_VALID_LOW);//GREEN
 113   1        pwm_start(PWM_GROUP0, PWM_PIN5, 10000, counter * 1 / 1, 0, PWM_VALID_LOW);//RED
 114   1      }
 115          
 116          
C51 COMPILER V9.54   MAIN                                                                  08/23/2020 18:03:24 PAGE 3   

 117          
 118          void task_power_led()
 119          {
 120   1        static unsigned long task_interval = 200; //任务执行间隔（毫秒）
 121   1        static unsigned long tick_reg = 0;      //记录上一次的tick值
 122   1        static bool led_twinkle_flag = false;
 123   1        
 124   1        if(uw_tick - tick_reg >= task_interval)
 125   1          tick_reg = uw_tick; //记录上一次的值
 126   1        else
 127   1          return;
 128   1        
 129   1        //printf("get_supercap_voltage():%f\r\n", get_supercap_voltage());
 130   1        //printf("local_persent:%d\r\n", (int16_t)local_persent);
 131   1        //printf("power_persent_f:%1f\r\n", power_persent_f);
 132   1        
 133   1        led_twinkle_flag = !led_twinkle_flag;
 134   1        if(flag_charging_end || led_twinkle_flag)
 135   1        {
 136   2          if(power_persent_f > 0)
 137   2          {
 138   3            pwm_start(PWM_GROUP0, PWM_PIN5, 1000, 0, 0, PWM_VALID_LOW); // RED
 139   3            pwm_start(PWM_GROUP5, PWM_PIN3, 1000, 50, 0, PWM_VALID_LOW); // BLUE
 140   3          }
 141   2          else
 142   2          {
 143   3            pwm_start(PWM_GROUP0, PWM_PIN5, 1000, 50, 0, PWM_VALID_LOW); // RED
 144   3            pwm_start(PWM_GROUP5, PWM_PIN3, 1000, 0, 0, PWM_VALID_LOW); // BLUE
 145   3          }
 146   2        }
 147   1        else
 148   1        {
 149   2          pwm_start(PWM_GROUP0, PWM_PIN5, 1000, 0, 0, PWM_VALID_LOW); // RED
 150   2          pwm_start(PWM_GROUP5, PWM_PIN3, 1000, 0, 0, PWM_VALID_LOW); // BLUE
 151   2        }
 152   1        
 153   1      }
 154          
 155          void task_power_manage()
 156          {
 157   1        //supercap_volt += (get_supercap_voltage() - supercap_volt) * 0.1; //IIR滤波
 158   1        supercap_volt = get_supercap_voltage() ;
 159   1        power_persent_f = (supercap_volt - BATTERY_ZERO) / (BATTERY_FULL - BATTERY_ZERO);
 160   1        power_persent_f = power_persent_f > 1.0f ? 1.0f:power_persent_f;
 161   1        power_persent_f = power_persent_f < 0.0f ? 0.0f:power_persent_f;
 162   1        if(power_persent_f > 0.8)
 163   1          flag_charging_end = true;
 164   1        power_persent = (int16_t)(power_persent_f * 100);
 165   1      }
 166          
 167          void task_constP_charge()
 168          { 
 169   1        static unsigned long task_interval = 1; //任务执行间隔（毫秒）
 170   1        static unsigned long tick_reg = 0;      //记录上一次的tick值
 171   1        
 172   1        
 173   1        const float chargeP_want = 20;//恒功率充电期望值（瓦特W）
 174   1        
 175   1        float supercap_amp_want = 0;
 176   1        static bit flag_print_at_start = 0;
 177   1        static bit flag_print_at_stop = 0;
 178   1        static int16_t mcpdata = 0;
C51 COMPILER V9.54   MAIN                                                                  08/23/2020 18:03:24 PAGE 4   

 179   1        static int16_t mcpdata_reg = 1000;
 180   1        
 181   1        static uint8_t power_persent_reg = 0;
 182   1        static uint32_t start_time_tick = 0;
 183   1        
 184   1        if(uw_tick - tick_reg >= task_interval)
 185   1          tick_reg = uw_tick; //记录上一次的值
 186   1        else
 187   1          return;
 188   1        
 189   1        
 190   1        supercap_amp_want = chargeP_want / supercap_volt;
 191   1        
 192   1        
 193   1        if(ind_voltage_uvlo())
 194   1          return;
 195   1        
 196   1        if(!flag_print_at_start)
 197   1        {
 198   2          flag_print_at_start = 1;
 199   2          printf("\r\n===========start charging voltage: %3fV ===========\r\n", supercap_volt);
 200   2          start_time_tick = uw_tick;
 201   2        }
 202   1        
 203   1        if(!flag_print_at_stop && supercap_volt >= BATTERY_FULL)
 204   1        {
 205   2            flag_print_at_stop = 1;
 206   2            //set_mcp401x_data(5);
 207   2            //LT3741_CTRL2 = 0;
 208   2            printf("\r\n===========end charging voltage: %3fV ===========\r\n", supercap_volt);
 209   2            printf("===========time elapsed: %1fS ===========\r\n", (float)(uw_tick - start_time_tick) / 1000);
 210   2        }
 211   1        
 212   1        if(flag_print_at_start && !flag_print_at_stop)
 213   1        {
 214   2          mcpdata = MIN((supercap_amp_want * 0.15  * 38), 60);
 215   2          if(mcpdata_reg - mcpdata > 0)
 216   2          {
 217   3            mcpdata_reg = mcpdata;
 218   3            set_mcp401x_data(mcpdata);
 219   3            printf("supercap_volt:%3f, supercap_amp_want:%3f, mcpdata:%d\r\n", supercap_volt, supercap_amp_want,
             - (int)mcpdata);
 220   3          }
 221   2          
 222   2          if((int)(power_persent) - (int)(power_persent_reg) > 0)
 223   2          {
 224   3            power_persent_reg = power_persent;
 225   3            printf("now charging: %d %% \r\n", (int)power_persent);
 226   3          }
 227   2          
 228   2        }
 229   1        
 230   1        
 231   1      
 232   1      }
 233          
 234          void task_motor_control()
 235          {
 236   1        static unsigned long task_interval = T0_TICK_MS; //任务执行间隔（毫秒）
 237   1        static unsigned long tick_reg = 0;      //记录上一次的tick值
 238   1      
 239   1        if(uw_tick - tick_reg >= task_interval)
C51 COMPILER V9.54   MAIN                                                                  08/23/2020 18:03:24 PAGE 5   

 240   1          tick_reg = uw_tick; //记录上一次的值
 241   1        else
 242   1          return;
 243   1      
 244   1        set_const_motor_L((motor_speed_pwmf + motor_stand_pwmf + motor_turn_pwmf));
 245   1        set_const_motor_R((motor_speed_pwmf + motor_stand_pwmf - motor_turn_pwmf));
 246   1        
 247   1        //printf("temp_pwm_L:%d\r\n", temp_pwm_L);
 248   1        //printf("temp_pwm_R:%d\r\n", temp_pwm_R);
 249   1        
 250   1      }
 251          
 252          void task_const_motor_test()
 253          {
 254   1        static unsigned long task_interval = 2000; //任务执行间隔（毫秒）
 255   1        static unsigned long tick_reg = 0;      //记录上一次的tick值
 256   1        extern int16_t test_pwm;
 257   1        static uint16_t counter = 0;
 258   1        
 259   1        if(uw_tick - tick_reg >= task_interval)
 260   1          tick_reg = uw_tick; //记录上一次的值
 261   1        else
 262   1          return;
 263   1        
 264   1        if(++counter > 4)
 265   1        {
 266   2          counter = 1;
 267   2        }
 268   1        
 269   1        
 270   1        switch(counter)
 271   1        {
 272   2          case 1: //正转
 273   2          {
 274   3            set_const_motor_L(80); //LIMIT测试
 275   3            set_const_motor_R(80); //LIMIT测试
 276   3            break;
 277   3          }
 278   2          case 2: //停止
 279   2          {
 280   3            set_const_motor_L(0);
 281   3            set_const_motor_R(0);
 282   3            break;
 283   3          }
 284   2          case 3: //反转
 285   2          {
 286   3            set_const_motor_L(-0.5);
 287   3            set_const_motor_R(-0.5);
 288   3            break;
 289   3          }
 290   2          case 4: //停止
 291   2          {
 292   3            set_const_motor_L(0);
 293   3            set_const_motor_R(0);
 294   3            break;
 295   3          }
 296   2        }
 297   1        
 298   1        
 299   1        
 300   1      }
 301          
C51 COMPILER V9.54   MAIN                                                                  08/23/2020 18:03:24 PAGE 6   

 302          
 303          
 304          void task_motor_test()
 305          {
 306   1        static unsigned long task_interval = 2000; //任务执行间隔（毫秒）
 307   1        static unsigned long tick_reg = 0;      //记录上一次的tick值
 308   1        extern int16_t test_pwm;
 309   1        static uint16_t counter = 0;
 310   1        
 311   1        if(uw_tick - tick_reg >= task_interval)
 312   1          tick_reg = uw_tick; //记录上一次的值
 313   1        else
 314   1          return;
 315   1        
 316   1        if(++counter > 4)
 317   1        {
 318   2          counter = 1;
 319   2        }
 320   1        
 321   1        
 322   1        switch(counter)
 323   1        {
 324   2          case 1: //正转
 325   2          {
 326   3            set_motor_pwm_L(80);
 327   3            set_motor_pwm_R(80);
 328   3            break;
 329   3          }
 330   2          case 2: //停止
 331   2          {
 332   3            set_motor_pwm_L(0);
 333   3            set_motor_pwm_R(0);
 334   3            break;
 335   3          }
 336   2          case 3: //反转
 337   2          {
 338   3            set_motor_pwm_L(-50);
 339   3            set_motor_pwm_R(-50);
 340   3            break;
 341   3          }
 342   2          case 4: //停止
 343   2          {
 344   3            set_motor_pwm_L(0);
 345   3            set_motor_pwm_R(0);
 346   3            break;
 347   3          }
 348   2        }
 349   1        
 350   1        
 351   1        
 352   1      }
 353          
 354          
 355          void task_adc_print()
 356          {
 357   1        static unsigned long task_interval = 1000; //任务执行间隔（毫秒）
 358   1        static unsigned long tick_reg = 0;      //记录上一次的tick值
 359   1      
 360   1        if(uw_tick - tick_reg >= task_interval)
 361   1          tick_reg = uw_tick; //记录上一次的值
 362   1        else
 363   1          return;
C51 COMPILER V9.54   MAIN                                                                  08/23/2020 18:03:24 PAGE 7   

 364   1      
 365   1        
 366   1        printf("ElecMagnetic_1:%f V, ElecMagnetic_2:%f V, ElecMagnetic_3:%f V, ElecMagnetic_4:%f V, \r\n", adc_r
             -ead_volt(ADC_P00), adc_read_volt(ADC_P01), adc_read_volt(ADC_P02), adc_read_volt(ADC_P03));
 367   1        //printf("ADC2:%f, ", adc_read_volt(ADC_P01));
 368   1        
 369   1      }
 370          
 371          void task_print_encoder()
 372          {
 373   1        static unsigned long task_interval = 500; //任务执行间隔（毫秒）
 374   1        static unsigned long tick_reg = 0;      //记录上一次的tick值
 375   1        int16_t rate_R = 0;
 376   1        int16_t rate_L = 0;
 377   1        static int32_t encoder_counter_L_reg = 0;
 378   1        static int32_t encoder_counter_R_reg = 0;
 379   1        static int32_t encoder_temp_L = 0;
 380   1        static int32_t encoder_temp_R = 0;
 381   1        
 382   1        if(uw_tick - tick_reg >= task_interval)
 383   1          tick_reg = uw_tick; //记录上一次的值
 384   1        else
 385   1          return;
 386   1        
 387   1        EA = 0;
 388   1        encoder_temp_L = encoder_counter_L;
 389   1        encoder_temp_R = encoder_counter_R;
 390   1        EA = 1;
 391   1        
 392   1        //printf("encoder_counter_L: %ld, ", encoder_temp_L);
 393   1        //printf("encoder_counter_R: %ld\r\n", encoder_temp_R);
 394   1        
 395   1        rate_L = encoder_temp_L - encoder_counter_L_reg;
 396   1        rate_R = encoder_temp_R - encoder_counter_R_reg;
 397   1        encoder_counter_L_reg = encoder_temp_L;
 398   1        encoder_counter_R_reg = encoder_temp_R;
 399   1        
 400   1        printf("rate_L:%d\r\n", rate_L);
 401   1        printf("rate_R:%d\r\n", rate_R);
 402   1        
 403   1        
 404   1      }
 405          
 406          
 407          
 408          
 409          char putchar(char c)//printf重定向
 410          {
 411   1        uart_send_byte(c);
 412   1        return c;
 413   1      }
 414          
 415          void task_stand_control()
 416          {
 417   1        static unsigned long task_interval = T0_TICK_MS; //任务执行间隔（毫秒）
 418   1        static unsigned long tick_reg = 0;      //记录上一次的tick值
 419   1        float stand_kp = 0.04, stand_ki = 0.003, stand_kd = 0.2;
 420   1        static float stand_p = 0.0,stand_i = 0.0, stand_d = 0.0;
 421   1        static float angle_reg = 0.0;
 422   1        
 423   1        if(uw_tick - tick_reg >= task_interval)
 424   1          tick_reg = uw_tick; //记录上一次的值
C51 COMPILER V9.54   MAIN                                                                  08/23/2020 18:03:24 PAGE 8   

 425   1        else
 426   1          return;
 427   1        
 428   1        if(uw_tick < 2000)
 429   1          return;
 430   1        
 431   1        
 432   1        
 433   1        stand_p = stand_kp * (mpudata.roll - angle_want);
 434   1        stand_i += stand_ki * (mpudata.roll - angle_want);
 435   1        stand_d = stand_kd * (mpudata.roll - angle_reg);
 436   1        LIMIT(stand_i,-0.6,0.6);
 437   1        
 438   1        motor_stand_pwmf =  stand_p + stand_i + stand_d;
 439   1        
 440   1        angle_reg = mpudata.roll;
 441   1      }
 442          
 443          
 444          void encoder_init()
 445          {
 446   1        IT0  = 1;//0上升下降中断，1仅下降沿中断
 447   1        EX0  = 1;
 448   1        IPH |= 0x01 << 0;
 449   1        IP  |= 0x01 << 0;
 450   1        
 451   1        IT1  = 1;//0上升下降中断，1仅下降沿中断
 452   1        EX1  = 1;
 453   1        IPH |= 0x01 << 2;
 454   1        IP  |= 0x01 << 2;
 455   1        
 456   1        //INTCLKO  = 0x10; //使能 INT2 下降沿中断
 457   1        //INTCLKO |= 0x20; //使能 INT3 下降沿中断
 458   1        //INTCLKO |= 0x40; //使能 INT4 下降沿中断
 459   1      }
 460          
 461          
 462          
 463          void T0_interrupt_init()
 464          {
 465   1        uint16_t t0_count_need = (get_clk()/12 * T0_TICK_MS/1000 );
 466   1        uint16_t t0_count = (65536 - t0_count_need);
 467   1        
 468   1        //下面给出6步启动定时器中断的方法
 469   1        TH0 = (uint8_t)(t0_count >> 8); //给定时器装载初值       ①
 470   1        TL0 = (uint8_t)(t0_count);      //给定时器装载初值       ②
 471   1        TMOD &= 0xF0;                   //设置定时器工作模式     ③
 472   1        TMOD |= 0x00;                   //设置定时器工作模式     ③
 473   1        //TMOD = 0x00;                  //设置定时器工作模式     ③
 474   1        ET0  = true;                    //使能定时器T0中断       ④
 475   1        EA   = true;                    //使能全局中断           ⑤
 476   1        TR0  = true;                    //启动定时器             ⑥
 477   1        
 478   1      }
 479          
 480          
 481          
 482          
 483          void port_init()
 484          {
 485   1        /*
 486   1        //上电默认是浮空输入
C51 COMPILER V9.54   MAIN                                                                  08/23/2020 18:03:24 PAGE 9   

 487   1        //全部端口准双向输出（超弱上拉，上拉电流约200ua）
 488   1        P0M0 = 0x00; 
 489   1        P0M1 = 0x00; 
 490   1        P1M0 = 0x00; 
 491   1        P1M1 = 0x00; 
 492   1        P2M0 = 0x00; 
 493   1        P2M1 = 0x00; 
 494   1        P3M0 = 0x00; 
 495   1        P3M1 = 0x00; 
 496   1        P4M0 = 0x00; 
 497   1        P4M1 = 0x00; 
 498   1        P5M0 = 0x00; 
 499   1        P5M1 = 0x00;
 500   1        */
 501   1        
 502   1        /*
 503   1        //P1.5推挽输出
 504   1        P1M0 |=   0x01 << 5; 
 505   1        P1M1 &= ~(0x01 << 5);
 506   1        //P1.4准双向口
 507   1        P1M0 &= ~(0x01 << 4);
 508   1        P1M1 &= ~(0x01 << 4);
 509   1        
 510   1        P_SW2 |= 0x80;
 511   1        //使能P1.4上拉
 512   1        P1PU  |= 0x01 << 4;
 513   1        P_SW2 &= 0x7F;
 514   1        */
 515   1        
 516   1        //mpu6050 iic引脚
 517   1        gpio_init(GPIO_GROUP1, (GPIO_PIN4), GPIO_MODE_INOUT);
 518   1        gpio_init(GPIO_GROUP1, (GPIO_PIN5), GPIO_MODE_OUTPP);
 519   1        gpio_setting(GPIO_GROUP1, GPIO_PIN4, 1, 0, 0, 0);
 520   1        
 521   1        //SPI
 522   1        gpio_init(GPIO_GROUP2, (GPIO_PIN2|GPIO_PIN3), GPIO_MODE_OUTPP);
*** WARNING C259 IN LINE 522 OF app\main.c: 'parameter 2': different enumeration types
 523   1        
 524   1        //三色LED
 525   1        gpio_init(GPIO_GROUP5, GPIO_PIN3, GPIO_MODE_OUTPP); //BLUE
 526   1        gpio_init(GPIO_GROUP0, GPIO_PIN5, GPIO_MODE_OUTPP); //RED
 527   1        gpio_init(GPIO_GROUP0, GPIO_PIN7, GPIO_MODE_OUTPP); //GREEN
 528   1        
 529   1        //电机驱动
 530   1        gpio_init(GPIO_GROUP4, GPIO_PIN4, GPIO_MODE_OUTPP); //PWM1
 531   1        gpio_init(GPIO_GROUP4, GPIO_PIN3, GPIO_MODE_OUTPP); //PWM2
 532   1        gpio_init(GPIO_GROUP4, GPIO_PIN2, GPIO_MODE_OUTPP); //PWM3
 533   1        gpio_init(GPIO_GROUP4, GPIO_PIN1, GPIO_MODE_OUTPP); //PWM4
 534   1        gpio_init(GPIO_GROUP2, GPIO_PIN6, GPIO_MODE_OUTPP); //MOTOR_EN_L
 535   1        gpio_init(GPIO_GROUP2, GPIO_PIN7, GPIO_MODE_OUTPP); //MOTOR_EN_R
 536   1        
 537   1        //AB相电机编码器
 538   1        gpio_init(GPIO_GROUP3, GPIO_PIN2, GPIO_MODE_INOUT);//MOTOR1_PHASEA
 539   1        gpio_init(GPIO_GROUP3, GPIO_PIN3, GPIO_MODE_INOUT);//MOTOR2_PHASEA
 540   1        gpio_init(GPIO_GROUP3, GPIO_PIN4, GPIO_MODE_INOUT);//MOTOR1_PHASEB
 541   1        gpio_init(GPIO_GROUP5, GPIO_PIN0, GPIO_MODE_INOUT);//MOTOR2_PHASEB
 542   1        
 543   1        
 544   1        //LT3741 CTRL2
 545   1        gpio_init(GPIO_GROUP4, GPIO_PIN3, GPIO_MODE_INOUT);
 546   1        
 547   1      }
C51 COMPILER V9.54   MAIN                                                                  08/23/2020 18:03:24 PAGE 10  

 548          
 549          void uart_init()
 550          {
 551   1        /*SCON  = 0x50;           // SCON: 模式 1, 8-bit UART, 使能接收  
 552   1        TMOD |= 0x20;           // TMOD: timer 1, mode 2, 8-bit 重装
 553   1        TH1   = 0xFD;           // TH1:  重装值 9600 波特率 晶振 11.0592MHz  
 554   1        TR1   = 1;              // TR1:  timer 1 打开                         
 555   1        EA    = 1;              // 打开总中断
 556   1        */
 557   1        uint16_t reload_value = (65536 - get_clk() / BRT / 4);
 558   1        
 559   1        //串口1，定时器2
 560   1        SCON = 0x50;
 561   1        T2L = reload_value; 
 562   1        T2H = reload_value >> 8; 
 563   1        AUXR = 0x15;
 564   1        ES = 0; 
 565   1        EA = 1;
 566   1        
 567   1      }
 568          
 569          void uart_send_byte(unsigned char dat) //发送一个字符
 570          {
 571   1       SBUF = dat; //SBUF 串行数据缓冲器
 572   1       while(!TI);  //TI发送中断标志位 (当数据发送完毕后由硬件置 1 否则等待硬件置 1)
 573   1       TI = 0; 
 574   1      }
 575          
 576          void task_turn_control()
 577          {
 578   1        static unsigned long task_interval = 10; //任务执行间隔（毫秒）
 579   1        static unsigned long tick_reg = 0;      //记录上一次的tick值
 580   1        float elecmag1, elecmag2, elecmag3;
 581   1        static float turn_reg = 0.0;
 582   1      
 583   1        float turn_kp = 0.3;
 584   1        float turn_kd = 3;
 585   1        
 586   1        if(uw_tick - tick_reg >= task_interval)
 587   1          tick_reg = uw_tick; //记录上一次的值
 588   1        else
 589   1          return;
 590   1        
 591   1        elecmag1 = adc_read_volt(ADC_P00)/0.4;
 592   1        elecmag2 = adc_read_volt(ADC_P01)/0.67;
 593   1        elecmag3 = adc_read_volt(ADC_P02)/0.24;
 594   1        
 595   1        motor_turn_pwmf = turn_kp * (elecmag3 - elecmag1) / (elecmag1 + elecmag2 + elecmag3) + turn_kd * ((elecma
             -g3 - elecmag1) / (elecmag1 + elecmag2 + elecmag3)-turn_reg);
 596   1        
 597   1        turn_reg = (elecmag3 - elecmag1) / (elecmag1 + elecmag2 + elecmag3);
 598   1        
 599   1        //printf("motor_turn_pwmf:%f\r\n", motor_turn_pwmf);
 600   1      }
 601          
 602          void task_refresh_encoder()
 603          {
 604   1        static unsigned long task_interval = 100; //任务执行间隔（毫秒）
 605   1        static unsigned long tick_reg = 0;      //记录上一次的tick值
 606   1        int32_t rate_R = 0;
 607   1        int32_t rate_L = 0;
 608   1        static int32_t encoder_total_L_reg = 0;
C51 COMPILER V9.54   MAIN                                                                  08/23/2020 18:03:24 PAGE 11  

 609   1        static int32_t encoder_total_R_reg = 0;
 610   1        
 611   1        #define WIN_LEN 10
 612   1        static float rate_window_L[WIN_LEN]={0.0};
 613   1        static float rate_window_R[WIN_LEN]={0.0};
 614   1        static uint32_t index_wadd = 0;
 615   1        static uint32_t index_wget = 0;
 616   1        float window_out_L = 0.0;
 617   1        float window_out_R = 0.0;
 618   1        
 619   1        
 620   1        if(uw_tick - tick_reg >= task_interval)
 621   1          tick_reg = uw_tick; //记录上一次的值
 622   1        else
 623   1          return;
 624   1        
 625   1        
 626   1        EA = 0;
 627   1        encoder_total_L = encoder_counter_L;
 628   1        encoder_total_R = encoder_counter_R;
 629   1        EA = 1;
 630   1        rate_L = encoder_total_L - encoder_total_L_reg;
 631   1        rate_R = encoder_total_R - encoder_total_R_reg;
 632   1        encoder_total_L_reg = encoder_total_L;
 633   1        encoder_total_R_reg = encoder_total_R;
 634   1        
 635   1        rate_window_L[index_wadd] = rate_L;
 636   1        rate_window_R[index_wadd] = rate_R;
 637   1        if(++index_wadd >= WIN_LEN)
 638   1          index_wadd = 0;
 639   1        for(index_wget = 0; index_wget < WIN_LEN; index_wget++)
 640   1        {
 641   2          window_out_L += rate_window_L[index_wget];
 642   2          window_out_R += rate_window_R[index_wget];
 643   2        }
 644   1        window_out_L /= WIN_LEN;
 645   1        window_out_R /= WIN_LEN;
 646   1        
 647   1        encoder_filted_rate_L = window_out_L;
 648   1        encoder_filted_rate_R = window_out_R;
 649   1      }
 650          
 651          
 652          
 653          void task_speed_control()
 654          {
 655   1        static unsigned long task_interval = 100; //任务执行间隔（毫秒）
 656   1        static unsigned long tick_reg = 0;      //记录上一次的tick值
 657   1        
 658   1        float encoder_filted_avg_rate = 0.0;
 659   1        float encoder_avg_rate = 0.0;
 660   1        
 661   1        float filted_err = 0.0;
 662   1        float err = 0.0;
 663   1        
 664   1        const float speed_kp = 0.1;
 665   1        const float speed_ki = 0.0001;
 666   1        static float speed_p = 0.0;
 667   1        static float speed_i = 0.0;
 668   1        
 669   1        if(uw_tick - tick_reg >= task_interval)
 670   1          tick_reg = uw_tick; //记录上一次的值
C51 COMPILER V9.54   MAIN                                                                  08/23/2020 18:03:24 PAGE 12  

 671   1        else
 672   1          return;
 673   1        
 674   1        //printf("encoder_counter_L: %d, ", (int16_t)encoder_counter_L);
 675   1        //printf("encoder_counter_R: %d, ", (int16_t)encoder_counter_R);
 676   1        
 677   1        encoder_filted_avg_rate = (encoder_filted_rate_L + encoder_filted_rate_R) / 2.0;
 678   1        encoder_avg_rate = (encoder_rate_L + encoder_rate_R) / 2.0;
 679   1        
 680   1        filted_err = (speed_want - encoder_filted_avg_rate);
 681   1        err = (speed_want - encoder_avg_rate);
 682   1        
 683   1        speed_p = speed_kp * filted_err;
 684   1        
 685   1        LIMIT(speed_p, - 20, + 20);
 686   1        speed_i += speed_ki * err;
 687   1        if(speed_i > 0.1 && (mpudata.roll - angle_zero < -15))speed_i = 0;
 688   1        else if(speed_i < -0.1 && (mpudata.roll - angle_zero > 15))speed_i = 0;
 689   1        else {};
 690   1        LIMIT(speed_i, - 50, + 50);
 691   1        angle_want = angle_zero + speed_p;
 692   1        motor_speed_pwmf = speed_i;
 693   1        
 694   1        //printf("speed_p:%f, angle_want:%f, motor_speed_pwmf:%f\r\n", speed_p, angle_want, motor_speed_pwmf);
 695   1        //printf("angle_want:%f, \r\n", angle_want);
 696   1        //printf("window_out_L:%f\r\n", window_out_L);
 697   1        //printf("window_out_R:%f\r\n", window_out_R);
 698   1      }
 699          
 700          
 701          void main()
 702          { 
 703   1        T0_interrupt_init();
 704   1        global_interrupt_enable();
 705   1        port_init();
 706   1        uart_init();
 707   1        pwm_init(PWM_GROUP5);
 708   1        pwm_init(PWM_GROUP0);
 709   1        pwm_init(PWM_GROUP4);
 710   1        adc_init(true);
 711   1        encoder_init();
 712   1        motor_init();
 713   1        
 714   1        drv_mpu6050_init();//若mpu器件不正常就会停在这。
 715   1        calibrate_mpu6050(&mpudata);
 716   1        
 717   1        
 718   1        
 719   1        
 720   1        
 721   1        
 722   1        
 723   1        
 724   1        
 725   1        while(1)
 726   1        {
 727   2          //task_test_led();
 728   2          task_power_manage();    //电量管理
 729   2          task_power_led();       //电量指示led
 730   2          //task_constP_charge();
 731   2          //task_const_motor_test();
 732   2          
C51 COMPILER V9.54   MAIN                                                                  08/23/2020 18:03:24 PAGE 13  

 733   2          //task_adc_print();
 734   2          task_refresh_mpudata();
 735   2          task_refresh_encoder();
 736   2          //task_print_encoder();
 737   2          task_print_mpudata();
 738   2          
 739   2          task_speed_control();
 740   2          task_stand_control();
 741   2          task_turn_control();
 742   2          //task_motor_control();
 743   2        }
 744   1      }


MODULE INFORMATION:   STATIC OVERLAYABLE
   CODE SIZE        =   5745    ----
   CONSTANT SIZE    =    354    ----
   XDATA SIZE       =    378      93
   PDATA SIZE       =   ----    ----
   DATA SIZE        =   ----    ----
   IDATA SIZE       =   ----    ----
   BIT SIZE         =      2    ----
END OF MODULE INFORMATION.


C51 COMPILATION COMPLETE.  1 WARNING(S),  0 ERROR(S)
