BL51 BANKED LINKER/LOCATER V6.22                                                        08/16/2020  22:14:32  PAGE 1


BL51 BANKED LINKER/LOCATER V6.22, INVOKED BY:
C:\KEIL_V5\C51\BIN\BL51.EXE .\Objects\main.obj, .\Objects\interrupt.obj, .\Objects\mcp401x.obj, .\Objects\lt3741.obj, .\
>> Objects\motor.obj, .\Objects\mpu6050.obj, .\Objects\sys.obj, .\Objects\adc.obj, .\Objects\gpio.obj, .\Objects\pwm.obj
>> , .\Objects\uart.obj, .\Objects\soft_iic.obj, .\Objects\utils.obj TO .\Objects\freescale15 PRINT (.\Listings\freescal
>> e15.m51) RAMSIZE (256) CODE (0X0000-0XFFF8) XDATA (0X0000-0X07FF)


MEMORY MODEL: LARGE WITH FLOATING POINT ARITHMETIC


INPUT MODULES INCLUDED:
  .\Objects\main.obj (MAIN)
  .\Objects\interrupt.obj (INTERRUPT)
  .\Objects\mcp401x.obj (MCP401X)
  .\Objects\lt3741.obj (LT3741)
  .\Objects\motor.obj (MOTOR)
  .\Objects\mpu6050.obj (MPU6050)
  .\Objects\sys.obj (SYS)
  .\Objects\adc.obj (ADC)
  .\Objects\gpio.obj (GPIO)
  .\Objects\pwm.obj (PWM)
  .\Objects\uart.obj (UART)
  .\Objects\soft_iic.obj (SOFT_IIC)
  .\Objects\utils.obj (UTILS)
  C:\KEIL_V5\C51\LIB\C51FPL.LIB (?C?FPADD)
  C:\KEIL_V5\C51\LIB\C51FPL.LIB (?C?FPMUL)
  C:\KEIL_V5\C51\LIB\C51FPL.LIB (?C?FPDIV)
  C:\KEIL_V5\C51\LIB\C51FPL.LIB (?C?FPCMP)
  C:\KEIL_V5\C51\LIB\C51FPL.LIB (?C?FPNEG)
  C:\KEIL_V5\C51\LIB\C51FPL.LIB (?C?FCAST)
  C:\KEIL_V5\C51\LIB\C51FPL.LIB (?C?CASTF)
  C:\KEIL_V5\C51\LIB\C51FPL.LIB (PRINTF)
  C:\KEIL_V5\C51\LIB\C51FPL.LIB (SQRT)
  C:\KEIL_V5\C51\LIB\C51FPL.LIB (ASIN)
  C:\KEIL_V5\C51\LIB\C51FPL.LIB (?C?FPGETOPN)
  C:\KEIL_V5\C51\LIB\C51FPL.LIB (?C?FPROUND)
  C:\KEIL_V5\C51\LIB\C51FPL.LIB (?C?FPCONVERT)
  C:\KEIL_V5\C51\LIB\C51FPL.LIB (ATAN)
  C:\KEIL_V5\C51\LIB\C51FPL.LIB (?C?FTNPWR)
  C:\KEIL_V5\C51\LIB\C51FPL.LIB (?C?FPSERIES)
  C:\KEIL_V5\C51\LIB\C51L.LIB (?C_STARTUP)
  C:\KEIL_V5\C51\LIB\C51L.LIB (?C?CLDPTR)
  C:\KEIL_V5\C51\LIB\C51L.LIB (?C?CLDOPTR)
  C:\KEIL_V5\C51\LIB\C51L.LIB (?C?CSTPTR)
  C:\KEIL_V5\C51\LIB\C51L.LIB (?C?CSTOPTR)
  C:\KEIL_V5\C51\LIB\C51L.LIB (?C?IMUL)
  C:\KEIL_V5\C51\LIB\C51L.LIB (?C?IILDX)
  C:\KEIL_V5\C51\LIB\C51L.LIB (?C?LMUL)
  C:\KEIL_V5\C51\LIB\C51L.LIB (?C?ULDIV)
  C:\KEIL_V5\C51\LIB\C51L.LIB (?C?LNEG)
  C:\KEIL_V5\C51\LIB\C51L.LIB (?C?SLCMP)
  C:\KEIL_V5\C51\LIB\C51L.LIB (?C?ULCMP)
  C:\KEIL_V5\C51\LIB\C51L.LIB (?C?ULSHR)
  C:\KEIL_V5\C51\LIB\C51L.LIB (?C?LLDPTR)
  C:\KEIL_V5\C51\LIB\C51L.LIB (?C?LLDOPTR)
  C:\KEIL_V5\C51\LIB\C51L.LIB (?C?LSTPTR)
  C:\KEIL_V5\C51\LIB\C51L.LIB (?C?LSTOPTR)
  C:\KEIL_V5\C51\LIB\C51L.LIB (?C?LLDIDATA)
BL51 BANKED LINKER/LOCATER V6.22                                                      08/16/2020  22:14:32  PAGE 2


  C:\KEIL_V5\C51\LIB\C51L.LIB (?C?LLDXDATA)
  C:\KEIL_V5\C51\LIB\C51L.LIB (?C?LLDCODE)
  C:\KEIL_V5\C51\LIB\C51L.LIB (?C?LLDIDATA0)
  C:\KEIL_V5\C51\LIB\C51L.LIB (?C?LLDXDATA0)
  C:\KEIL_V5\C51\LIB\C51L.LIB (?C?LLDCODE0)
  C:\KEIL_V5\C51\LIB\C51L.LIB (?C?LILDXDATA)
  C:\KEIL_V5\C51\LIB\C51L.LIB (?C?LSTIDATA)
  C:\KEIL_V5\C51\LIB\C51L.LIB (?C?LSTXDATA)
  C:\KEIL_V5\C51\LIB\C51L.LIB (?C?LSTKXDATA)
  C:\KEIL_V5\C51\LIB\C51L.LIB (?C?LSTKPTR)
  C:\KEIL_V5\C51\LIB\C51L.LIB (?C?LSTKOPTR)
  C:\KEIL_V5\C51\LIB\C51L.LIB (?C?OFFXADD)
  C:\KEIL_V5\C51\LIB\C51L.LIB (?C?PLDIXDATA)
  C:\KEIL_V5\C51\LIB\C51L.LIB (?C?PSTXDATA)
  C:\KEIL_V5\C51\LIB\C51L.LIB (?C?CCASE)
  C:\KEIL_V5\C51\LIB\C51L.LIB (?C_INIT)
  C:\KEIL_V5\C51\LIB\C51L.LIB (?C?LLDPDATA)
  C:\KEIL_V5\C51\LIB\C51L.LIB (?C?LSTPDATA)
  C:\KEIL_V5\C51\LIB\C51L.LIB (?C?LSTKIDATA)
  C:\KEIL_V5\C51\LIB\C51L.LIB (?C?LSTKPDATA)


LINK MAP OF MODULE:  .\Objects\freescale15 (MAIN)


            TYPE    BASE      LENGTH    RELOCATION   SEGMENT NAME
            -----------------------------------------------------

            * * * * * * *   D A T A   M E M O R Y   * * * * * * *
            REG     0000H     0008H     ABSOLUTE     "REG BANK 0"
            DATA    0008H     0005H     UNIT         _DATA_GROUP_
                    000DH     0013H                  *** GAP ***
            BIT     0020H.0   0001H.1   UNIT         _BIT_GROUP_
            BIT     0021H.1   0000H.2   UNIT         ?BI?MAIN
                    0021H.3   0000H.5                *** GAP ***
            IDATA   0022H     001CH     UNIT         ?ID?MPU6050
            IDATA   003EH     0018H     UNIT         _IDATA_GROUP_
            IDATA   0056H     0001H     UNIT         ?STACK

            * * * * * * *  X D A T A   M E M O R Y  * * * * * * *
            XDATA   0000H     0121H     UNIT         ?XD?MAIN
            XDATA   0121H     0046H     UNIT         _XDATA_GROUP_
            XDATA   0167H     0010H     UNIT         ?XD?MPU6050
            XDATA   0177H     0004H     UNIT         ?XD?TASK_PRINT_ENCODER?MAIN
            XDATA   017BH     0004H     UNIT         ?XD?MOTOR

            * * * * * * *   C O D E   M E M O R Y   * * * * * * *
            CODE    0000H     0003H     ABSOLUTE     
            CODE    0003H     0003H     ABSOLUTE     
            CODE    0006H     0004H     UNIT         ?PR?ADC_CLEAR_FLAG?ADC
            CODE    000AH     0001H     UNIT         ?PR?DRV_MCP401X_INIT?MCP401X
            CODE    000BH     0003H     ABSOLUTE     
            CODE    000EH     0003H     UNIT         ?PR?GLOBAL_INTERRUPT_ENABLE?SYS
            CODE    0011H     0001H     UNIT         ?PR?SOFTI2CINIT?SOFT_IIC
                    0012H     0001H                  *** GAP ***
            CODE    0013H     0003H     ABSOLUTE     
            CODE    0016H     0A24H     UNIT         ?C?LIB_CODE
BL51 BANKED LINKER/LOCATER V6.22                                                      08/16/2020  22:14:32  PAGE 3


            CODE    0A3AH     083FH     UNIT         ?PR?_IMUUPDATE?MPU6050
            CODE    1279H     0674H     UNIT         ?PR?_PWM_START?PWM
            CODE    18EDH     0483H     UNIT         ?PR?PRINTF?PRINTF
            CODE    1D70H     03EFH     UNIT         ?PR?_CALIBRATE_MPU6050?MPU6050
            CODE    215FH     0310H     UNIT         ?PR?TASK_SPEED_CONTROL?MAIN
            CODE    246FH     024BH     UNIT         ?PR?TASK_CONSTP_CHARGE?MAIN
            CODE    26BAH     01F4H     UNIT         ?PR?TASK_STAND_CONTROL?MAIN
            CODE    28AEH     01E1H     UNIT         ?C_INITSEG
            CODE    2A8FH     0183H     UNIT         ?PR?TASK_MOTOR_CONTROL?MAIN
            CODE    2C12H     0162H     UNIT         ?CO?MAIN
            CODE    2D74H     0137H     UNIT         ?PR?_SET_MOTOR_PWM_R?MOTOR
            CODE    2EABH     012EH     UNIT         ?PR?_GET_MPU6050?MPU6050
            CODE    2FD9H     0122H     UNIT         ?PR?ATAN?ATAN
            CODE    30FBH     0121H     UNIT         ?PR?_SET_MOTOR_PWM_L?MOTOR
            CODE    321CH     00FEH     UNIT         ?PR?TASK_POWER_MANAGE?MAIN
            CODE    331AH     00FCH     UNIT         ?PR?TASK_PRINT_ENCODER?MAIN
            CODE    3416H     00ECH     UNIT         ?PR?TASK_LED?MAIN
            CODE    3502H     00E0H     UNIT         ?PR?_PWM_FORCED?PWM
            CODE    35E2H     00C6H     UNIT         ?PR?TASK_MOTOR_TEST?MAIN
            CODE    36A8H     00BCH     UNIT         ?PR?MOTOR_INIT?MOTOR
            CODE    3764H     00B6H     UNIT         ?PR?_GPIO_INIT?GPIO
            CODE    381AH     00B5H     UNIT         ?PR?TASK_ADC_PRINT?MAIN
            CODE    38CFH     00ACH     UNIT         ?PR?SQRT?SQRT
            CODE    397BH     00A8H     UNIT         ?PR?PORT_INIT?MAIN
            CODE    3A23H     008CH     UNIT         ?C_C51STARTUP
            CODE    3AAFH     0083H     UNIT         ?PR?_GPIO_SETTING?GPIO
            CODE    3B32H     0081H     UNIT         ?PR?TASK_PRINT_MPUDATA?MAIN
            CODE    3BB3H     007BH     UNIT         ?PR?ISR_INT0?INTERRUPT
            CODE    3C2EH     007BH     UNIT         ?PR?ISR_INT1?INTERRUPT
            CODE    3CA9H     0064H     UNIT         ?PR?_READ_MPU6050?MPU6050
            CODE    3D0DH     005BH     UNIT         ?PR?_ADC_READ_VOLT?ADC
            CODE    3D68H     0059H     UNIT         ?PR?TASK_REFRESH_MPUDATA?MAIN
            CODE    3DC1H     0059H     UNIT         ?PR?ISR_T0?INTERRUPT
            CODE    3E1AH     0056H     UNIT         ?PR?_DELAY_MS?MAIN
            CODE    3E70H     004EH     UNIT         ?PR?MAIN?MAIN
            CODE    3EBEH     0040H     UNIT         ?PR?_PWM_STOP?PWM
            CODE    3EFEH     003CH     UNIT         ?PR?UART2_TIMER2_INIT?UART
            CODE    3F3AH     003BH     UNIT         ?PR?ASIN?ASIN
            CODE    3F75H     0036H     UNIT         ?PR?_SOFTI2CWRITE?SOFT_IIC
            CODE    3FABH     0033H     UNIT         ?PR?T0_INTERRUPT_INIT?MAIN
            CODE    3FDEH     0033H     UNIT         ?PR?SOFTI2CREADNAK?SOFT_IIC
            CODE    4011H     0033H     UNIT         ?PR?SOFTI2CREADACK?SOFT_IIC
            CODE    4044H     002FH     UNIT         ?PR?INITMPU6050?MPU6050
            CODE    4073H     002CH     UNIT         ?PR?UART_INIT?MAIN
            CODE    409FH     0026H     UNIT         ?PR?GET_CLK?SYS
            CODE    40C5H     0025H     UNIT         ?CO?MPU6050
            CODE    40EAH     0022H     UNIT         ?PR?IND_VOLTAGE_UVLO?LT3741
            CODE    410CH     0021H     UNIT         ?PR?I2C_RECVBYTE?MPU6050
            CODE    412DH     001CH     UNIT         ?PR?_SET_MCP401X_DATA?MCP401X
            CODE    4149H     001AH     UNIT         ?PR?I2C_START?MPU6050
            CODE    4163H     0019H     UNIT         ?PR?_SINGLE_WRITEI2C?MPU6050
            CODE    417CH     0015H     UNIT         ?PR?ENCODER_INIT?MAIN
            CODE    4191H     0015H     UNIT         ?PR?_I2C_SENDBYTE?MPU6050
            CODE    41A6H     0015H     UNIT         ?PR?ADC_INIT?ADC
            CODE    41BBH     0015H     UNIT         ?PR?SOFTI2CSTOP?SOFT_IIC
            CODE    41D0H     0012H     UNIT         ?CO?MOTOR
            CODE    41E2H     0012H     UNIT         ?PR?I2C_RECVACK?MPU6050
BL51 BANKED LINKER/LOCATER V6.22                                                      08/16/2020  22:14:32  PAGE 4


            CODE    41F4H     0011H     UNIT         ?PR?ADC_GET_VAL?ADC
            CODE    4205H     0011H     UNIT         ?PR?SOFTI2CSTART?SOFT_IIC
            CODE    4216H     0010H     UNIT         ?PR?GET_SUPERCAP_VOLTAGE?LT3741
            CODE    4226H     000FH     UNIT         ?PR?I2C_STOP?MPU6050
            CODE    4235H     000EH     UNIT         ?PR?_PUTCHAR?MAIN
            CODE    4243H     000EH     UNIT         ?PR?DRV_MPU6050_INIT?MPU6050
            CODE    4251H     000EH     UNIT         ?PR?_PWM_INIT?PWM
            CODE    425FH     000CH     UNIT         ?PR?DELAY2US?MPU6050
            CODE    426BH     000AH     UNIT         ?PR?_ADC_START?ADC
            CODE    4275H     0009H     UNIT         ?PR?_ASSERT?UTILS
            CODE    427EH     0008H     UNIT         ?PR?_UART_SEND_BYTE?MAIN
            CODE    4286H     0003H     UNIT         ?PR?GLOBAL_INTERRUPT_DISABLE?SYS



OVERLAY MAP OF MODULE:   .\Objects\freescale15 (MAIN)


SEGMENT                                     BIT_GROUP          DATA_GROUP          IDATA_GROUP         XDATA_GROUP
  +--> CALLED SEGMENT                    START    LENGTH     START    LENGTH     START    LENGTH     START    LENGTH
--------------------------------------------------------------------------------------------------------------------
?C_C51STARTUP                            -----    -----      -----    -----      -----    -----      -----    -----
  +--> ?PR?MAIN?MAIN
  +--> ?C_INITSEG

?PR?MAIN?MAIN                            -----    -----      -----    -----      -----    -----      -----    -----
  +--> ?PR?T0_INTERRUPT_INIT?MAIN
  +--> ?PR?GLOBAL_INTERRUPT_ENABLE?SYS
  +--> ?PR?PORT_INIT?MAIN
  +--> ?PR?UART_INIT?MAIN
  +--> ?PR?_PWM_INIT?PWM
  +--> ?PR?ADC_INIT?ADC
  +--> ?PR?ENCODER_INIT?MAIN
  +--> ?PR?MOTOR_INIT?MOTOR
  +--> ?PR?DRV_MPU6050_INIT?MPU6050
  +--> ?PR?_CALIBRATE_MPU6050?MPU6050
  +--> ?PR?_SET_MCP401X_DATA?MCP401X
  +--> ?PR?TASK_LED?MAIN
  +--> ?PR?TASK_POWER_MANAGE?MAIN
  +--> ?PR?TASK_CONSTP_CHARGE?MAIN
  +--> ?PR?TASK_REFRESH_MPUDATA?MAIN
  +--> ?PR?TASK_SPEED_CONTROL?MAIN
  +--> ?PR?TASK_STAND_CONTROL?MAIN
  +--> ?PR?TASK_MOTOR_CONTROL?MAIN

?PR?T0_INTERRUPT_INIT?MAIN               -----    -----      -----    -----      -----    -----      -----    -----
  +--> ?PR?GET_CLK?SYS

?PR?PORT_INIT?MAIN                       -----    -----      -----    -----      -----    -----      -----    -----
  +--> ?PR?_GPIO_INIT?GPIO
  +--> ?PR?_GPIO_SETTING?GPIO

?PR?_GPIO_SETTING?GPIO                   0020H.0  0000H.4    -----    -----      -----    -----      -----    -----

?PR?UART_INIT?MAIN                       -----    -----      -----    -----      -----    -----      -----    -----
  +--> ?PR?GET_CLK?SYS

BL51 BANKED LINKER/LOCATER V6.22                                                      08/16/2020  22:14:32  PAGE 5


?PR?ADC_INIT?ADC                         0020H.0  0000H.1    -----    -----      -----    -----      -----    -----

?PR?MOTOR_INIT?MOTOR                     -----    -----      -----    -----      -----    -----      -----    -----
  +--> ?CO?MOTOR
  +--> ?PR?PRINTF?PRINTF

?PR?PRINTF?PRINTF                        0020H.0  0001H.1    0008H    0005H      -----    -----      0136H    0030H
  +--> ?PR?_PUTCHAR?MAIN

?PR?_PUTCHAR?MAIN                        -----    -----      -----    -----      -----    -----      0166H    0001H
  +--> ?PR?_UART_SEND_BYTE?MAIN

?PR?DRV_MPU6050_INIT?MPU6050             -----    -----      -----    -----      -----    -----      -----    -----
  +--> ?PR?INITMPU6050?MPU6050
  +--> ?PR?_DELAY_MS?MAIN

?PR?INITMPU6050?MPU6050                  -----    -----      -----    -----      -----    -----      -----    -----
  +--> ?PR?DELAY2US?MPU6050
  +--> ?PR?_SINGLE_WRITEI2C?MPU6050

?PR?_SINGLE_WRITEI2C?MPU6050             -----    -----      -----    -----      -----    -----      -----    -----
  +--> ?PR?I2C_START?MPU6050
  +--> ?PR?_I2C_SENDBYTE?MPU6050
  +--> ?PR?I2C_STOP?MPU6050

?PR?I2C_START?MPU6050                    -----    -----      -----    -----      -----    -----      -----    -----
  +--> ?PR?DELAY2US?MPU6050

?PR?_I2C_SENDBYTE?MPU6050                -----    -----      -----    -----      -----    -----      -----    -----
  +--> ?PR?DELAY2US?MPU6050
  +--> ?PR?I2C_RECVACK?MPU6050

?PR?I2C_RECVACK?MPU6050                  -----    -----      -----    -----      -----    -----      -----    -----
  +--> ?PR?DELAY2US?MPU6050

?PR?I2C_STOP?MPU6050                     -----    -----      -----    -----      -----    -----      -----    -----
  +--> ?PR?DELAY2US?MPU6050

?PR?_DELAY_MS?MAIN                       -----    -----      -----    -----      -----    -----      0121H    0008H

?PR?_CALIBRATE_MPU6050?MPU6050           -----    -----      -----    -----      -----    -----      0121H    0015H
  +--> ?PR?_READ_MPU6050?MPU6050
  +--> ?PR?_IMUUPDATE?MPU6050
  +--> ?CO?MPU6050
  +--> ?PR?PRINTF?PRINTF

?PR?_READ_MPU6050?MPU6050                -----    -----      -----    -----      -----    -----      0136H    0003H
  +--> ?PR?I2C_START?MPU6050
  +--> ?PR?_I2C_SENDBYTE?MPU6050
  +--> ?PR?I2C_RECVBYTE?MPU6050
  +--> ?PR?DELAY2US?MPU6050
  +--> ?PR?I2C_STOP?MPU6050

?PR?I2C_RECVBYTE?MPU6050                 -----    -----      -----    -----      -----    -----      -----    -----
  +--> ?PR?DELAY2US?MPU6050

?PR?_IMUUPDATE?MPU6050                   -----    -----      0008H    0004H      003EH    0018H      0136H    000FH
BL51 BANKED LINKER/LOCATER V6.22                                                      08/16/2020  22:14:32  PAGE 6


  +--> ?PR?SQRT?SQRT
  +--> ?PR?ASIN?ASIN

?PR?SQRT?SQRT                            -----    -----      -----    -----      -----    -----      0145H    0004H

?PR?ASIN?ASIN                            -----    -----      -----    -----      -----    -----      -----    -----
  +--> ?PR?SQRT?SQRT
  +--> ?PR?ATAN?ATAN

?PR?ATAN?ATAN                            0020H.0  0000H.2    -----    -----      -----    -----      0145H    0004H

?PR?_SET_MCP401X_DATA?MCP401X            -----    -----      -----    -----      -----    -----      0129H    0001H
  +--> ?PR?SOFTI2CSTART?SOFT_IIC
  +--> ?PR?_SOFTI2CWRITE?SOFT_IIC
  +--> ?PR?SOFTI2CSTOP?SOFT_IIC

?PR?_SOFTI2CWRITE?SOFT_IIC               0020H.0  0000H.1    -----    -----      -----    -----      -----    -----

?PR?TASK_LED?MAIN                        -----    -----      -----    -----      -----    -----      0121H    0002H
  +--> ?PR?_PWM_START?PWM

?PR?_PWM_START?PWM                       -----    -----      -----    -----      -----    -----      012DH    0021H
  +--> ?PR?_PWM_FORCED?PWM
  +--> ?PR?GET_CLK?SYS

?PR?_PWM_FORCED?PWM                      -----    -----      -----    -----      -----    -----      014EH    0002H

?PR?TASK_POWER_MANAGE?MAIN               -----    -----      -----    -----      -----    -----      -----    -----
  +--> ?PR?GET_SUPERCAP_VOLTAGE?LT3741

?PR?GET_SUPERCAP_VOLTAGE?LT3741          -----    -----      -----    -----      -----    -----      -----    -----
  +--> ?PR?_ADC_READ_VOLT?ADC

?PR?_ADC_READ_VOLT?ADC                   -----    -----      -----    -----      -----    -----      0129H    0003H
  +--> ?PR?_ADC_START?ADC
  +--> ?PR?ADC_GET_VAL?ADC

?PR?ADC_GET_VAL?ADC                      -----    -----      -----    -----      -----    -----      -----    -----
  +--> ?PR?ADC_CLEAR_FLAG?ADC

?PR?TASK_CONSTP_CHARGE?MAIN              -----    -----      -----    -----      -----    -----      0121H    0008H
  +--> ?PR?IND_VOLTAGE_UVLO?LT3741
  +--> ?CO?MAIN
  +--> ?PR?PRINTF?PRINTF
  +--> ?PR?_SET_MCP401X_DATA?MCP401X

?PR?IND_VOLTAGE_UVLO?LT3741              -----    -----      -----    -----      -----    -----      -----    -----
  +--> ?PR?_ADC_READ_VOLT?ADC

?PR?TASK_REFRESH_MPUDATA?MAIN            -----    -----      -----    -----      -----    -----      -----    -----
  +--> ?PR?_GET_MPU6050?MPU6050

?PR?_GET_MPU6050?MPU6050                 -----    -----      -----    -----      -----    -----      0121H    0013H
  +--> ?PR?_READ_MPU6050?MPU6050
  +--> ?PR?_IMUUPDATE?MPU6050

?PR?TASK_SPEED_CONTROL?MAIN              -----    -----      -----    -----      -----    -----      0121H    001CH
BL51 BANKED LINKER/LOCATER V6.22                                                      08/16/2020  22:14:32  PAGE 7



?PR?TASK_STAND_CONTROL?MAIN              -----    -----      -----    -----      -----    -----      0121H    000CH

?PR?TASK_MOTOR_CONTROL?MAIN              -----    -----      -----    -----      -----    -----      0121H    0008H
  +--> ?PR?_SET_MOTOR_PWM_L?MOTOR
  +--> ?PR?_SET_MOTOR_PWM_R?MOTOR

?PR?_SET_MOTOR_PWM_L?MOTOR               -----    -----      -----    -----      -----    -----      0129H    0004H
  +--> ?PR?_PWM_START?PWM

?PR?_SET_MOTOR_PWM_R?MOTOR               -----    -----      -----    -----      -----    -----      0129H    0004H
  +--> ?PR?_PWM_START?PWM



SYMBOL TABLE OF MODULE:  .\Objects\freescale15 (MAIN)

  VALUE           TYPE          NAME
  ----------------------------------

  -------         MODULE        MAIN
  C:0000H         SYMBOL        _ICE_DUMMY_
  D:0080H         PUBLIC        P0
  D:0090H         PUBLIC        P1
  D:00A0H         PUBLIC        P2
  D:00B0H         PUBLIC        P3
  D:00C0H         PUBLIC        P4
  D:00C8H         PUBLIC        P5
  B:00A8H.7       PUBLIC        EA
  C:331AH         PUBLIC        task_print_encoder
  D:00A8H         PUBLIC        IE
  C:215FH         PUBLIC        task_speed_control
  X:00D3H         SYMBOL        supercap_volt
  C:321CH         PUBLIC        task_power_manage
  X:00D7H         PUBLIC        power_persent
  C:3B32H         PUBLIC        task_print_mpudata
  B:00A8H.4       PUBLIC        ES
  D:00B8H         PUBLIC        IP
  C:26BAH         PUBLIC        task_stand_control
  B:0098H.1       PUBLIC        TI
  D:00D8H         PUBLIC        CCON
  C:3E70H         PUBLIC        main
  X:00D9H         PUBLIC        angle_want
  X:00DDH         PUBLIC        angle_zero
  C:2A8FH         PUBLIC        task_motor_control
  X:00E1H         PUBLIC        speed_want
  D:0099H         PUBLIC        SBUF
  D:0098H         PUBLIC        SCON
  D:0089H         PUBLIC        TMOD
  D:0088H         PUBLIC        TCON
  D:008EH         PUBLIC        AUXR
  B:00A8H.1       PUBLIC        ET0
  C:3416H         PUBLIC        task_led
  D:008CH         PUBLIC        TH0
  B:00A8H.0       PUBLIC        EX0
  B:0088H.0       PUBLIC        IT0
  D:00D6H         PUBLIC        T2H
BL51 BANKED LINKER/LOCATER V6.22                                                      08/16/2020  22:14:32  PAGE 8


  B:00A8H.2       PUBLIC        EX1
  B:0088H.2       PUBLIC        IT1
  X:00E5H         PUBLIC        motor_stand_pwmf
  C:381AH         PUBLIC        task_adc_print
  D:008AH         PUBLIC        TL0
  D:00D7H         PUBLIC        T2L
  C:3E1AH         PUBLIC        _delay_ms
  C:4073H         PUBLIC        uart_init
  B:0088H.4       PUBLIC        TR0
  C:3D68H         PUBLIC        task_refresh_mpudata
  X:00E9H         PUBLIC        power_persent_f
  C:397BH         PUBLIC        port_init
  C:246FH         PUBLIC        task_constP_charge
  D:00B7H         PUBLIC        IPH
  C:427EH         PUBLIC        _uart_send_byte
  C:35E2H         PUBLIC        task_motor_test
  C:3FABH         PUBLIC        T0_interrupt_init
  X:00EDH         PUBLIC        mpudata
  X:0111H         PUBLIC        encoder_counter_L
  X:0115H         PUBLIC        uw_tick
  D:00D0H         PUBLIC        PSW
  C:417CH         PUBLIC        encoder_init
  C:4235H         PUBLIC        _putchar
  X:0119H         PUBLIC        encoder_counter_R
  X:011DH         PUBLIC        motor_turn_pwmf
  -------         PROC          _DELAY_MS
  X:0121H         SYMBOL        ms
  -------         DO            
  X:0125H         SYMBOL        uw_tick_reg
  -------         ENDDO         
  C:3E1AH         LINE#         34
  C:3E20H         LINE#         35
  C:3E20H         LINE#         36
  C:3E34H         LINE#         37
  C:3E6FH         LINE#         38
  -------         ENDPROC       _DELAY_MS
  -------         PROC          TASK_REFRESH_MPUDATA
  -------         DO            
  X:0000H         SYMBOL        task_interval
  X:0004H         SYMBOL        tick_reg
  -------         ENDDO         
  C:3D68H         LINE#         42
  C:3D68H         LINE#         43
  C:3D68H         LINE#         48
  C:3DA3H         LINE#         49
  C:3DB7H         LINE#         52
  C:3DC0H         LINE#         54
  -------         ENDPROC       TASK_REFRESH_MPUDATA
  -------         PROC          TASK_PRINT_MPUDATA
  -------         DO            
  X:0008H         SYMBOL        task_interval
  X:000CH         SYMBOL        tick_reg
  -------         ENDDO         
  C:3B32H         LINE#         56
  C:3B32H         LINE#         57
  C:3B32H         LINE#         61
  C:3B6DH         LINE#         62
BL51 BANKED LINKER/LOCATER V6.22                                                      08/16/2020  22:14:32  PAGE 9


  C:3B81H         LINE#         68
  C:3BB2H         LINE#         69
  -------         ENDPROC       TASK_PRINT_MPUDATA
  -------         PROC          TASK_LED
  -------         DO            
  X:0010H         SYMBOL        task_interval
  X:0014H         SYMBOL        tick_reg
  X:0121H         SYMBOL        local_persent
  -------         ENDDO         
  C:3416H         LINE#         109
  C:3416H         LINE#         110
  C:3416H         LINE#         113
  C:3425H         LINE#         115
  C:3463H         LINE#         116
  C:3477H         LINE#         123
  C:3488H         LINE#         124
  C:348EH         LINE#         125
  C:349FH         LINE#         126
  C:34A3H         LINE#         129
  C:34D5H         LINE#         130
  C:3501H         LINE#         131
  -------         ENDPROC       TASK_LED
  -------         PROC          TASK_POWER_MANAGE
  C:321CH         LINE#         133
  C:321CH         LINE#         134
  C:321CH         LINE#         135
  C:3262H         LINE#         137
  C:328AH         LINE#         138
  C:32C3H         LINE#         139
  C:32F6H         LINE#         141
  C:3319H         LINE#         142
  -------         ENDPROC       TASK_POWER_MANAGE
  -------         PROC          TASK_CONSTP_CHARGE
  -------         DO            
  X:0018H         SYMBOL        task_interval
  X:001CH         SYMBOL        tick_reg
  X:0121H         SYMBOL        chargeP_want
  X:0125H         SYMBOL        supercap_amp_want
  B:0021H.1       SYMBOL        flag_print_at_start
  B:0021H.2       SYMBOL        flag_print_at_stop
  X:0020H         SYMBOL        mcpdata
  X:0022H         SYMBOL        mcpdata_reg
  X:0024H         SYMBOL        power_persent_reg
  X:0025H         SYMBOL        start_time_tick
  -------         ENDDO         
  C:246FH         LINE#         144
  C:246FH         LINE#         145
  C:246FH         LINE#         150
  C:2479H         LINE#         152
  C:2483H         LINE#         161
  C:24C1H         LINE#         162
  C:24D5H         LINE#         167
  C:24FAH         LINE#         170
  C:2502H         LINE#         173
  C:2505H         LINE#         174
  C:2505H         LINE#         175
  C:2507H         LINE#         176
BL51 BANKED LINKER/LOCATER V6.22                                                      08/16/2020  22:14:32  PAGE 10


  C:2524H         LINE#         177
  C:2538H         LINE#         178
  C:2538H         LINE#         180
  C:2558H         LINE#         181
  C:2558H         LINE#         182
  C:255AH         LINE#         185
  C:2577H         LINE#         186
  C:25BBH         LINE#         187
  C:25BBH         LINE#         189
  C:25C7H         LINE#         190
  C:25C7H         LINE#         191
  C:261BH         LINE#         192
  C:2633H         LINE#         193
  C:2633H         LINE#         194
  C:2641H         LINE#         195
  C:2644H         LINE#         196
  C:2684H         LINE#         197
  C:2684H         LINE#         199
  C:26A3H         LINE#         200
  C:26A3H         LINE#         201
  C:26A8H         LINE#         202
  C:26B9H         LINE#         203
  C:26B9H         LINE#         205
  C:26B9H         LINE#         209
  -------         ENDPROC       TASK_CONSTP_CHARGE
  -------         PROC          TASK_MOTOR_CONTROL
  -------         DO            
  X:0029H         SYMBOL        task_interval
  X:002DH         SYMBOL        tick_reg
  X:0121H         SYMBOL        temp_pwmf_L
  X:0125H         SYMBOL        temp_pwmf_R
  -------         ENDDO         
  C:2A8FH         LINE#         211
  C:2A8FH         LINE#         212
  C:2A8FH         LINE#         216
  C:2A99H         LINE#         217
  C:2AA3H         LINE#         219
  C:2AE1H         LINE#         220
  C:2AF5H         LINE#         224
  C:2B65H         LINE#         225
  C:2BD5H         LINE#         227
  C:2BF3H         LINE#         228
  C:2C11H         LINE#         233
  -------         ENDPROC       TASK_MOTOR_CONTROL
  -------         PROC          TASK_MOTOR_TEST
  -------         DO            
  X:0031H         SYMBOL        task_interval
  X:0035H         SYMBOL        tick_reg
  X:0039H         SYMBOL        counter
  -------         ENDDO         
  C:35E2H         LINE#         234
  C:35E2H         LINE#         235
  C:35E2H         LINE#         241
  C:3620H         LINE#         242
  C:3634H         LINE#         246
  C:3649H         LINE#         247
  C:3649H         LINE#         248
BL51 BANKED LINKER/LOCATER V6.22                                                      08/16/2020  22:14:32  PAGE 11


  C:3651H         LINE#         249
  C:3651H         LINE#         252
  C:366BH         LINE#         253
  C:366BH         LINE#         254
  C:366BH         LINE#         255
  C:366BH         LINE#         256
  C:3676H         LINE#         257
  C:3678H         LINE#         258
  C:367AH         LINE#         259
  C:367AH         LINE#         260
  C:367AH         LINE#         261
  C:367AH         LINE#         262
  C:3685H         LINE#         263
  C:3687H         LINE#         264
  C:3689H         LINE#         265
  C:3689H         LINE#         266
  C:3689H         LINE#         267
  C:3689H         LINE#         268
  C:3694H         LINE#         269
  C:369CH         LINE#         270
  C:369EH         LINE#         271
  C:369EH         LINE#         272
  C:36A7H         LINE#         276
  C:36A7H         LINE#         277
  C:36A7H         LINE#         278
  C:36A7H         LINE#         282
  -------         ENDPROC       TASK_MOTOR_TEST
  -------         PROC          TASK_ADC_PRINT
  -------         DO            
  X:003BH         SYMBOL        task_interval
  X:003FH         SYMBOL        tick_reg
  -------         ENDDO         
  C:381AH         LINE#         285
  C:381AH         LINE#         286
  C:381AH         LINE#         290
  C:3855H         LINE#         291
  C:3869H         LINE#         296
  C:38CEH         LINE#         299
  -------         ENDPROC       TASK_ADC_PRINT
  -------         PROC          TASK_PRINT_ENCODER
  -------         DO            
  X:0043H         SYMBOL        task_interval
  X:0047H         SYMBOL        tick_reg
  X:0177H         SYMBOL        rate_R
  X:0179H         SYMBOL        rate_L
  X:004BH         SYMBOL        encoder_counter_L_reg
  X:004FH         SYMBOL        encoder_counter_R_reg
  -------         ENDDO         
  C:331AH         LINE#         301
  C:331AH         LINE#         302
  C:331AH         LINE#         305
  C:3321H         LINE#         306
  C:3325H         LINE#         310
  C:3363H         LINE#         311
  C:3377H         LINE#         317
  C:3379H         LINE#         318
  C:339AH         LINE#         319
BL51 BANKED LINKER/LOCATER V6.22                                                      08/16/2020  22:14:32  PAGE 12


  C:33BBH         LINE#         320
  C:33CFH         LINE#         321
  C:33E3H         LINE#         322
  C:33E5H         LINE#         324
  C:33FDH         LINE#         325
  C:3415H         LINE#         328
  -------         ENDPROC       TASK_PRINT_ENCODER
  -------         PROC          _PUTCHAR
  X:0166H         SYMBOL        c
  C:4235H         LINE#         333
  C:423AH         LINE#         334
  C:423AH         LINE#         335
  C:423DH         LINE#         336
  C:4242H         LINE#         337
  -------         ENDPROC       _PUTCHAR
  -------         PROC          TASK_STAND_CONTROL
  -------         DO            
  X:0053H         SYMBOL        task_interval
  X:0057H         SYMBOL        tick_reg
  X:0121H         SYMBOL        stand_kp
  X:0125H         SYMBOL        stand_ki
  X:0129H         SYMBOL        stand_kd
  X:005BH         SYMBOL        stand_p
  X:005FH         SYMBOL        stand_i
  X:0063H         SYMBOL        stand_d
  X:0067H         SYMBOL        angle_reg
  -------         ENDDO         
  C:26BAH         LINE#         339
  C:26BAH         LINE#         340
  C:26BAH         LINE#         343
  C:26D8H         LINE#         347
  C:2716H         LINE#         348
  C:272AH         LINE#         352
  C:2748H         LINE#         357
  C:277EH         LINE#         358
  C:27D5H         LINE#         359
  C:280BH         LINE#         360
  C:2863H         LINE#         362
  C:2899H         LINE#         364
  C:28ADH         LINE#         365
  -------         ENDPROC       TASK_STAND_CONTROL
  -------         PROC          ENCODER_INIT
  C:417CH         LINE#         368
  C:417CH         LINE#         369
  C:417CH         LINE#         370
  C:417EH         LINE#         371
  C:4180H         LINE#         372
  C:4183H         LINE#         373
  C:4186H         LINE#         375
  C:4188H         LINE#         376
  C:418AH         LINE#         377
  C:418DH         LINE#         378
  C:4190H         LINE#         379
  -------         ENDPROC       ENCODER_INIT
  -------         PROC          T0_INTERRUPT_INIT
  -------         DO            
  D:0006H         SYMBOL        t0_count_need
BL51 BANKED LINKER/LOCATER V6.22                                                      08/16/2020  22:14:32  PAGE 13


  D:0004H         SYMBOL        t0_count
  -------         ENDDO         
  C:3FABH         LINE#         383
  C:3FABH         LINE#         384
  C:3FABH         LINE#         385
  C:3FCAH         LINE#         386
  C:3FD0H         LINE#         389
  C:3FD2H         LINE#         390
  C:3FD4H         LINE#         391
  C:3FD7H         LINE#         392
  C:3FD7H         LINE#         394
  C:3FD9H         LINE#         395
  C:3FDBH         LINE#         396
  C:3FDDH         LINE#         398
  -------         ENDPROC       T0_INTERRUPT_INIT
  -------         PROC          PORT_INIT
  C:397BH         LINE#         403
  C:397BH         LINE#         404
  C:397BH         LINE#         437
  C:3984H         LINE#         438
  C:398DH         LINE#         439
  C:399CH         LINE#         442
  C:39A5H         LINE#         445
  C:39AEH         LINE#         446
  C:39B7H         LINE#         447
  C:39C0H         LINE#         450
  C:39C9H         LINE#         451
  C:39D2H         LINE#         452
  C:39DBH         LINE#         453
  C:39E4H         LINE#         454
  C:39EDH         LINE#         455
  C:39F6H         LINE#         458
  C:39FFH         LINE#         459
  C:3A08H         LINE#         460
  C:3A11H         LINE#         461
  C:3A1AH         LINE#         465
  -------         ENDPROC       PORT_INIT
  -------         PROC          UART_INIT
  -------         DO            
  D:0006H         SYMBOL        reload_value
  -------         ENDDO         
  C:4073H         LINE#         469
  C:4073H         LINE#         470
  C:4073H         LINE#         477
  C:4090H         LINE#         480
  C:4093H         LINE#         481
  C:4095H         LINE#         482
  C:4097H         LINE#         483
  C:409AH         LINE#         484
  C:409CH         LINE#         485
  C:409EH         LINE#         487
  -------         ENDPROC       UART_INIT
  -------         PROC          _UART_SEND_BYTE
  D:0007H         SYMBOL        dat
  C:427EH         LINE#         489
  C:427EH         LINE#         490
  C:427EH         LINE#         491
BL51 BANKED LINKER/LOCATER V6.22                                                      08/16/2020  22:14:32  PAGE 14


  C:4280H         LINE#         492
  C:4283H         LINE#         493
  C:4285H         LINE#         494
  -------         ENDPROC       _UART_SEND_BYTE
  -------         PROC          TASK_SPEED_CONTROL
  -------         DO            
  X:006BH         SYMBOL        task_interval
  X:006FH         SYMBOL        tick_reg
  X:0121H         SYMBOL        rate_R
  X:0123H         SYMBOL        rate_L
  X:0125H         SYMBOL        temp_encoder_L
  X:0129H         SYMBOL        temp_encoder_R
  X:0073H         SYMBOL        encoder_counter_L_reg
  X:0077H         SYMBOL        encoder_counter_R_reg
  X:007BH         SYMBOL        rate_window_L
  X:00A3H         SYMBOL        rate_window_R
  X:00CBH         SYMBOL        index_wadd
  X:00CFH         SYMBOL        index_wget
  X:012DH         SYMBOL        window_out_L
  X:0131H         SYMBOL        window_out_R
  X:0135H         SYMBOL        filted_rate
  X:0139H         SYMBOL        speed_kp
  -------         ENDDO         
  C:215FH         LINE#         497
  C:215FH         LINE#         498
  C:215FH         LINE#         501
  C:2166H         LINE#         502
  C:216AH         LINE#         503
  C:2172H         LINE#         504
  C:217CH         LINE#         513
  C:2186H         LINE#         514
  C:2190H         LINE#         515
  C:219AH         LINE#         517
  C:21A4H         LINE#         519
  C:21E2H         LINE#         520
  C:21F6H         LINE#         526
  C:21F8H         LINE#         527
  C:220CH         LINE#         528
  C:2220H         LINE#         529
  C:2222H         LINE#         530
  C:2243H         LINE#         531
  C:2264H         LINE#         532
  C:2278H         LINE#         533
  C:228CH         LINE#         535
  C:22B6H         LINE#         536
  C:22E0H         LINE#         537
  C:22F2H         LINE#         538
  C:22FCH         LINE#         539
  C:2323H         LINE#         540
  C:2323H         LINE#         541
  C:235EH         LINE#         542
  C:239BH         LINE#         543
  C:23BDH         LINE#         544
  C:23DBH         LINE#         545
  C:23F9H         LINE#         547
  C:2427H         LINE#         549
  C:246EH         LINE#         553
BL51 BANKED LINKER/LOCATER V6.22                                                      08/16/2020  22:14:32  PAGE 15


  -------         ENDPROC       TASK_SPEED_CONTROL
  -------         PROC          MAIN
  C:3E70H         LINE#         556
  C:3E70H         LINE#         557
  C:3E70H         LINE#         558
  C:3E73H         LINE#         559
  C:3E76H         LINE#         560
  C:3E79H         LINE#         561
  C:3E7CH         LINE#         562
  C:3E81H         LINE#         563
  C:3E86H         LINE#         564
  C:3E8BH         LINE#         565
  C:3E90H         LINE#         566
  C:3E93H         LINE#         567
  C:3E96H         LINE#         568
  C:3E99H         LINE#         569
  C:3EA2H         LINE#         570
  C:3EA7H         LINE#         580
  C:3EA7H         LINE#         581
  C:3EA7H         LINE#         582
  C:3EAAH         LINE#         583
  C:3EADH         LINE#         584
  C:3EB0H         LINE#         589
  C:3EB3H         LINE#         590
  C:3EB6H         LINE#         591
  C:3EB9H         LINE#         594
  C:3EBCH         LINE#         595
  -------         ENDPROC       MAIN
  -------         ENDMOD        MAIN

  -------         MODULE        INTERRUPT
  C:0000H         SYMBOL        _ICE_DUMMY_
  D:0080H         PUBLIC        P0
  D:0090H         PUBLIC        P1
  D:00A0H         PUBLIC        P2
  D:00B0H         PUBLIC        P3
  D:00C0H         PUBLIC        P4
  D:00C8H         PUBLIC        P5
  D:00A8H         PUBLIC        IE
  D:00B8H         PUBLIC        IP
  D:00D8H         PUBLIC        CCON
  C:3BB3H         PUBLIC        isr_int0
  C:3C2EH         PUBLIC        isr_int1
  D:0098H         PUBLIC        SCON
  B:00C8H.0       PUBLIC        P50
  D:0088H         PUBLIC        TCON
  B:00B0H.4       PUBLIC        P34
  C:3DC1H         PUBLIC        isr_t0
  D:00D0H         PUBLIC        PSW
  -------         PROC          ISR_INT0
  C:3BB3H         LINE#         4
  C:3BD5H         LINE#         6
  C:3BE6H         LINE#         7
  C:3BF8H         LINE#         9
  C:3C0EH         LINE#         12
  -------         ENDPROC       ISR_INT0
  -------         PROC          ISR_T0
BL51 BANKED LINKER/LOCATER V6.22                                                      08/16/2020  22:14:32  PAGE 16


  C:3DC1H         LINE#         19
  C:3DDFH         LINE#         21
  C:3DFEH         LINE#         22
  -------         ENDPROC       ISR_T0
  -------         PROC          ISR_INT1
  C:3C2EH         LINE#         25
  C:3C50H         LINE#         27
  C:3C61H         LINE#         28
  C:3C73H         LINE#         30
  C:3C89H         LINE#         31
  -------         ENDPROC       ISR_INT1
  -------         ENDMOD        INTERRUPT

  -------         MODULE        MCP401X
  C:0000H         SYMBOL        _ICE_DUMMY_
  D:0080H         PUBLIC        P0
  D:0090H         PUBLIC        P1
  D:00A0H         PUBLIC        P2
  D:00B0H         PUBLIC        P3
  D:00C0H         PUBLIC        P4
  D:00C8H         PUBLIC        P5
  D:00A8H         PUBLIC        IE
  C:000AH         PUBLIC        drv_mcp401x_init
  D:00B8H         PUBLIC        IP
  D:00D8H         PUBLIC        CCON
  D:0098H         PUBLIC        SCON
  D:0088H         PUBLIC        TCON
  D:00D0H         PUBLIC        PSW
  C:412DH         PUBLIC        _set_mcp401x_data
  -------         PROC          DRV_MCP401X_INIT
  C:000AH         LINE#         6
  C:000AH         LINE#         7
  C:000AH         LINE#         9
  -------         ENDPROC       DRV_MCP401X_INIT
  -------         PROC          _SET_MCP401X_DATA
  X:0129H         SYMBOL        _data
  C:412DH         LINE#         19
  C:4132H         LINE#         20
  C:4132H         LINE#         21
  C:4132H         LINE#         22
  C:4135H         LINE#         23
  C:413CH         LINE#         24
  C:413CH         LINE#         25
  C:413CH         LINE#         26
  C:413CH         LINE#         27
  C:413FH         LINE#         28
  C:4141H         LINE#         29
  -------         ENDPROC       _SET_MCP401X_DATA
  -------         ENDMOD        MCP401X

  -------         MODULE        LT3741
  C:0000H         SYMBOL        _ICE_DUMMY_
  D:0080H         PUBLIC        P0
  D:0090H         PUBLIC        P1
  D:00A0H         PUBLIC        P2
  D:00B0H         PUBLIC        P3
  D:00C0H         PUBLIC        P4
BL51 BANKED LINKER/LOCATER V6.22                                                      08/16/2020  22:14:32  PAGE 17


  D:00C8H         PUBLIC        P5
  D:00A8H         PUBLIC        IE
  D:00B8H         PUBLIC        IP
  D:00D8H         PUBLIC        CCON
  D:0098H         PUBLIC        SCON
  D:0088H         PUBLIC        TCON
  C:40EAH         PUBLIC        ind_voltage_uvlo
  C:4216H         PUBLIC        get_supercap_voltage
  D:00D0H         PUBLIC        PSW
  -------         PROC          GET_SUPERCAP_VOLTAGE
  C:4216H         LINE#         5
  C:4216H         LINE#         6
  C:4216H         LINE#         11
  C:4225H         LINE#         12
  -------         ENDPROC       GET_SUPERCAP_VOLTAGE
  -------         PROC          IND_VOLTAGE_UVLO
  C:40EAH         LINE#         15
  C:40EAH         LINE#         16
  C:40EAH         LINE#         17
  C:410BH         LINE#         18
  -------         ENDPROC       IND_VOLTAGE_UVLO
  -------         ENDMOD        LT3741

  -------         MODULE        MOTOR
  C:0000H         SYMBOL        _ICE_DUMMY_
  D:0080H         PUBLIC        P0
  D:0090H         PUBLIC        P1
  D:00A0H         PUBLIC        P2
  D:00B0H         PUBLIC        P3
  D:00C0H         PUBLIC        P4
  D:00C8H         PUBLIC        P5
  D:00A8H         PUBLIC        IE
  D:00B8H         PUBLIC        IP
  D:00D8H         PUBLIC        CCON
  B:00A0H.6       PUBLIC        MOTOR_EN_L
  D:0098H         PUBLIC        SCON
  D:0088H         PUBLIC        TCON
  B:00A0H.7       PUBLIC        MOTOR_EN_R
  C:30FBH         PUBLIC        _set_motor_pwm_L
  C:2D74H         PUBLIC        _set_motor_pwm_R
  C:36A8H         PUBLIC        motor_init
  X:017BH         PUBLIC        MOTOR_K_COMP
  D:00D0H         PUBLIC        PSW
  -------         PROC          MOTOR_INIT
  C:36A8H         LINE#         5
  C:36A8H         LINE#         6
  C:36A8H         LINE#         7
  C:36AAH         LINE#         8
  C:36ACH         LINE#         10
  C:36D5H         LINE#         11
  C:36D5H         LINE#         12
  C:3724H         LINE#         13
  C:3724H         LINE#         14
  C:3741H         LINE#         15
  C:3741H         LINE#         16
  C:3741H         LINE#         18
  C:3763H         LINE#         19
BL51 BANKED LINKER/LOCATER V6.22                                                      08/16/2020  22:14:32  PAGE 18


  -------         ENDPROC       MOTOR_INIT
  -------         PROC          _SET_MOTOR_PWM_L
  X:0129H         SYMBOL        pwm_want
  C:30FBH         LINE#         22
  C:3101H         LINE#         23
  C:3101H         LINE#         24
  C:3137H         LINE#         25
  C:316FH         LINE#         27
  C:318BH         LINE#         28
  C:318BH         LINE#         29
  C:31B5H         LINE#         30
  C:31C9H         LINE#         31
  C:31CBH         LINE#         33
  C:31CBH         LINE#         34
  C:31EBH         LINE#         35
  C:321BH         LINE#         36
  C:321BH         LINE#         37
  -------         ENDPROC       _SET_MOTOR_PWM_L
  -------         PROC          _SET_MOTOR_PWM_R
  X:0129H         SYMBOL        pwm_want
  C:2D74H         LINE#         39
  C:2D7AH         LINE#         40
  C:2D7AH         LINE#         41
  C:2DB0H         LINE#         42
  C:2DE8H         LINE#         44
  C:2DFFH         LINE#         46
  C:2E1BH         LINE#         47
  C:2E1BH         LINE#         48
  C:2E45H         LINE#         49
  C:2E59H         LINE#         50
  C:2E5BH         LINE#         52
  C:2E5BH         LINE#         53
  C:2E7BH         LINE#         54
  C:2EAAH         LINE#         55
  C:2EAAH         LINE#         56
  -------         ENDPROC       _SET_MOTOR_PWM_R
  -------         ENDMOD        MOTOR

  -------         MODULE        MPU6050
  C:0000H         SYMBOL        _ICE_DUMMY_
  D:0080H         PUBLIC        P0
  D:0090H         PUBLIC        P1
  C:41E2H         PUBLIC        I2C_RecvACK
  D:00A0H         PUBLIC        P2
  X:0167H         PUBLIC        gx_zero
  D:00B0H         PUBLIC        P3
  X:016BH         PUBLIC        gy_zero
  D:00C0H         PUBLIC        P4
  X:016FH         PUBLIC        gz_zero
  D:00C8H         PUBLIC        P5
  I:0022H         PUBLIC        exInt
  I:0026H         PUBLIC        eyInt
  I:002AH         PUBLIC        ezInt
  C:4266H         PUBLIC        Delay2us
  D:00A8H         PUBLIC        IE
  C:4163H         PUBLIC        _Single_WriteI2C
  D:00B8H         PUBLIC        IP
BL51 BANKED LINKER/LOCATER V6.22                                                      08/16/2020  22:14:32  PAGE 19


  B:00D0H.7       PUBLIC        CY
  C:3CA9H         PUBLIC        _Read_MPU6050
  I:002EH         PUBLIC        q0
  I:0032H         PUBLIC        q1
  I:0036H         PUBLIC        q2
  I:003AH         PUBLIC        q3
  D:00D8H         PUBLIC        CCON
  C:1D70H         PUBLIC        _calibrate_mpu6050
  C:4149H         PUBLIC        I2C_Start
  D:0098H         PUBLIC        SCON
  D:0088H         PUBLIC        TCON
  X:0173H         PUBLIC        Kp
  C:4191H         PUBLIC        _I2C_SendByte
  C:2EABH         PUBLIC        _get_mpu6050
  C:4226H         PUBLIC        I2C_Stop
  C:410CH         PUBLIC        I2C_RecvByte
  C:4044H         PUBLIC        InitMPU6050
  B:0090H.4       PUBLIC        SDA
  B:0090H.5       PUBLIC        SCL
  C:4243H         PUBLIC        drv_mpu6050_init
  C:0A3AH         PUBLIC        _IMUupdate
  D:00D0H         PUBLIC        PSW
  C:425FH         SYMBOL        L?0034
  -------         PROC          L?0033
  -------         ENDPROC       L?0033
  C:425FH         SYMBOL        L?0034
  -------         PROC          DELAY2US
  -------         DO            
  D:0007H         SYMBOL        i
  -------         ENDDO         
  C:4266H         LINE#         24
  C:4266H         LINE#         25
  C:4266H         LINE#         27
  C:4268H         LINE#         28
  C:426AH         LINE#         29
  -------         ENDPROC       DELAY2US
  -------         PROC          I2C_START
  C:4149H         LINE#         34
  C:4149H         LINE#         35
  C:4149H         LINE#         36
  C:414CH         LINE#         37
  C:414FH         LINE#         38
  C:4151H         LINE#         39
  C:4153H         LINE#         40
  C:4156H         LINE#         41
  C:4159H         LINE#         42
  C:415BH         LINE#         43
  C:415EH         LINE#         44
  C:4160H         LINE#         45
  -------         ENDPROC       I2C_START
  -------         PROC          I2C_STOP
  C:4226H         LINE#         51
  C:4226H         LINE#         52
  C:4226H         LINE#         53
  C:4229H         LINE#         54
  C:422BH         LINE#         55
  C:422DH         LINE#         56
BL51 BANKED LINKER/LOCATER V6.22                                                      08/16/2020  22:14:32  PAGE 20


  C:4230H         LINE#         57
  C:4232H         LINE#         58
  -------         ENDPROC       I2C_STOP
  -------         PROC          I2C_RECVACK
  C:41E2H         LINE#         64
  C:41E2H         LINE#         65
  C:41E2H         LINE#         66
  C:41E4H         LINE#         67
  C:41E7H         LINE#         68
  C:41E9H         LINE#         69
  C:41ECH         LINE#         70
  C:41EEH         LINE#         71
  C:41F0H         LINE#         72
  C:41F3H         LINE#         73
  C:41F3H         LINE#         74
  -------         ENDPROC       I2C_RECVACK
  -------         PROC          _I2C_SENDBYTE
  D:0006H         SYMBOL        dat
  -------         DO            
  D:0005H         SYMBOL        i
  -------         ENDDO         
  C:4191H         LINE#         79
  C:4193H         LINE#         80
  C:4193H         LINE#         82
  C:4195H         LINE#         83
  C:4195H         LINE#         84
  C:4199H         LINE#         85
  C:419BH         LINE#         86
  C:419BH         LINE#         87
  C:419BH         LINE#         88
  C:419BH         LINE#         89
  C:419EH         LINE#         90
  C:41A3H         LINE#         91
  -------         ENDPROC       _I2C_SENDBYTE
  -------         PROC          I2C_RECVBYTE
  -------         DO            
  D:0005H         SYMBOL        i
  D:0006H         SYMBOL        dat
  -------         ENDDO         
  C:410CH         LINE#         97
  C:410CH         LINE#         98
  C:410CH         LINE#         100
  C:410EH         LINE#         101
  C:4110H         LINE#         102
  C:4111H         LINE#         103
  C:4111H         LINE#         104
  C:4115H         LINE#         105
  C:4117H         LINE#         106
  C:411AH         LINE#         107
  C:4120H         LINE#         108
  C:4122H         LINE#         109
  C:4125H         LINE#         110
  C:412AH         LINE#         111
  C:412CH         LINE#         112
  -------         ENDPROC       I2C_RECVBYTE
  -------         PROC          _SINGLE_WRITEI2C
  D:0003H         SYMBOL        REG_Address
BL51 BANKED LINKER/LOCATER V6.22                                                      08/16/2020  22:14:32  PAGE 21


  D:0004H         SYMBOL        REG_data
  C:4163H         LINE#         117
  C:4167H         LINE#         118
  C:4167H         LINE#         119
  C:416AH         LINE#         120
  C:416FH         LINE#         121
  C:4174H         LINE#         122
  C:4179H         LINE#         123
  -------         ENDPROC       _SINGLE_WRITEI2C
  -------         PROC          INITMPU6050
  C:4044H         LINE#         153
  C:4044H         LINE#         154
  C:4044H         LINE#         156
  C:4047H         LINE#         157
  C:404AH         LINE#         158
  C:404DH         LINE#         159
  C:4050H         LINE#         161
  C:4057H         LINE#         162
  C:405EH         LINE#         163
  C:4065H         LINE#         164
  C:406CH         LINE#         165
  -------         ENDPROC       INITMPU6050
  -------         PROC          _READ_MPU6050
  X:0136H         SYMBOL        buf
  -------         DO            
  D:0004H         SYMBOL        i
  -------         ENDDO         
  C:3CA9H         LINE#         168
  C:3CB4H         LINE#         169
  C:3CB4H         LINE#         172
  C:3CB7H         LINE#         173
  C:3CBCH         LINE#         174
  C:3CC1H         LINE#         175
  C:3CC4H         LINE#         176
  C:3CC9H         LINE#         177
  C:3CCBH         LINE#         178
  C:3CCBH         LINE#         179
  C:3CE2H         LINE#         180
  C:3CE4H         LINE#         181
  C:3CE4H         LINE#         182
  C:3CE4H         LINE#         183
  C:3CE4H         LINE#         184
  C:3CE7H         LINE#         185
  C:3CECH         LINE#         186
  C:3D05H         LINE#         187
  C:3D07H         LINE#         188
  C:3D07H         LINE#         189
  C:3D07H         LINE#         190
  C:3D07H         LINE#         191
  C:3D0AH         LINE#         192
  -------         ENDPROC       _READ_MPU6050
  -------         PROC          _IMUUPDATE
  X:0136H         SYMBOL        mpudata
  -------         DO            
  D:0008H         SYMBOL        norm
  I:003EH         SYMBOL        vx
  I:0042H         SYMBOL        vy
BL51 BANKED LINKER/LOCATER V6.22                                                      08/16/2020  22:14:32  PAGE 22


  I:0046H         SYMBOL        vz
  I:004AH         SYMBOL        ex
  I:004EH         SYMBOL        ey
  I:0052H         SYMBOL        ez
  X:0139H         SYMBOL        gx
  X:013DH         SYMBOL        gy
  X:0141H         SYMBOL        gz
  -------         ENDDO         
  C:0A3AH         LINE#         285
  C:0A45H         LINE#         286
  C:0A45H         LINE#         290
  C:0A59H         LINE#         291
  C:0A7BH         LINE#         292
  C:0A9DH         LINE#         293
  C:0B22H         LINE#         294
  C:0B4FH         LINE#         295
  C:0B7CH         LINE#         296
  C:0BA9H         LINE#         302
  C:0BE4H         LINE#         303
  C:0C1FH         LINE#         304
  C:0C99H         LINE#         306
  C:0CE3H         LINE#         307
  C:0D2DH         LINE#         308
  C:0D77H         LINE#         310
  C:0DA4H         LINE#         311
  C:0DD1H         LINE#         312
  C:0DFEH         LINE#         314
  C:0E33H         LINE#         315
  C:0E68H         LINE#         316
  C:0E9DH         LINE#         318
  C:0F40H         LINE#         319
  C:0FD8H         LINE#         320
  C:1068H         LINE#         321
  C:1100H         LINE#         323
  C:117BH         LINE#         324
  C:1190H         LINE#         325
  C:11A5H         LINE#         326
  C:11BAH         LINE#         327
  C:11CFH         LINE#         329
  C:1224H         LINE#         330
  -------         ENDPROC       _IMUUPDATE
  -------         PROC          _CALIBRATE_MPU6050
  X:0121H         SYMBOL        mpudata
  -------         DO            
  X:0124H         SYMBOL        i
  X:0126H         SYMBOL        tp
  -------         ENDDO         
  C:1D70H         LINE#         334
  C:1D7BH         LINE#         335
  C:1D7BH         LINE#         336
  C:1D80H         LINE#         338
  C:1D8AH         LINE#         339
  C:1D94H         LINE#         340
  C:1D9EH         LINE#         341
  C:1DB3H         LINE#         342
  C:1DBDH         LINE#         343
  C:1DC7H         LINE#         344
BL51 BANKED LINKER/LOCATER V6.22                                                      08/16/2020  22:14:32  PAGE 23


  C:1DCEH         LINE#         345
  C:1DE3H         LINE#         346
  C:1DEDH         LINE#         347
  C:1DF4H         LINE#         348
  C:1DF4H         LINE#         349
  C:1DFDH         LINE#         350
  C:1E4FH         LINE#         351
  C:1EA1H         LINE#         352
  C:1EF3H         LINE#         353
  C:1F30H         LINE#         354
  C:1F6DH         LINE#         355
  C:1FAAH         LINE#         356
  C:1FCCH         LINE#         357
  C:1FF8H         LINE#         358
  C:2024H         LINE#         359
  C:2050H         LINE#         360
  C:206EH         LINE#         361
  C:208CH         LINE#         362
  C:20AAH         LINE#         364
  C:20C8H         LINE#         365
  C:20CFH         LINE#         366
  C:20CFH         LINE#         367
  C:20DDH         LINE#         368
  C:20FCH         LINE#         369
  C:211AH         LINE#         371
  -------         ENDPROC       _CALIBRATE_MPU6050
  -------         PROC          DRV_MPU6050_INIT
  C:4243H         LINE#         375
  C:4243H         LINE#         376
  C:4243H         LINE#         377
  C:4246H         LINE#         378
  -------         ENDPROC       DRV_MPU6050_INIT
  -------         PROC          _GET_MPU6050
  X:0121H         SYMBOL        mpudata
  -------         DO            
  X:0124H         SYMBOL        tp
  -------         ENDDO         
  C:2EABH         LINE#         382
  C:2EB6H         LINE#         383
  C:2EB6H         LINE#         385
  C:2EBFH         LINE#         387
  C:2EE5H         LINE#         388
  C:2F0BH         LINE#         389
  C:2F31H         LINE#         390
  C:2F66H         LINE#         391
  C:2F9EH         LINE#         392
  C:2FD6H         LINE#         394
  -------         ENDPROC       _GET_MPU6050
  -------         ENDMOD        MPU6050

  -------         MODULE        SYS
  C:0000H         SYMBOL        _ICE_DUMMY_
  D:0080H         PUBLIC        P0
  D:0090H         PUBLIC        P1
  D:00A0H         PUBLIC        P2
  C:4286H         PUBLIC        global_interrupt_disable
  D:00B0H         PUBLIC        P3
BL51 BANKED LINKER/LOCATER V6.22                                                      08/16/2020  22:14:32  PAGE 24


  D:00C0H         PUBLIC        P4
  D:00C8H         PUBLIC        P5
  B:00A8H.7       PUBLIC        EA
  D:00A8H         PUBLIC        IE
  C:000EH         PUBLIC        global_interrupt_enable
  D:00B8H         PUBLIC        IP
  D:00D8H         PUBLIC        CCON
  D:0098H         PUBLIC        SCON
  D:0088H         PUBLIC        TCON
  C:409FH         PUBLIC        get_clk
  D:009DH         PUBLIC        IRCBAND
  D:00D0H         PUBLIC        PSW
  -------         PROC          GET_CLK
  C:409FH         LINE#         12
  C:409FH         LINE#         13
  C:409FH         LINE#         14
  C:40A3H         LINE#         15
  C:40AEH         LINE#         16
  C:40B5H         LINE#         18
  C:40BCH         LINE#         20
  C:40C4H         LINE#         22
  -------         ENDPROC       GET_CLK
  -------         PROC          GLOBAL_INTERRUPT_ENABLE
  C:000EH         LINE#         29
  C:000EH         LINE#         30
  C:000EH         LINE#         31
  C:0010H         LINE#         32
  -------         ENDPROC       GLOBAL_INTERRUPT_ENABLE
  -------         PROC          GLOBAL_INTERRUPT_DISABLE
  C:4286H         LINE#         39
  C:4286H         LINE#         40
  C:4286H         LINE#         41
  C:4288H         LINE#         42
  -------         ENDPROC       GLOBAL_INTERRUPT_DISABLE
  -------         ENDMOD        SYS

  -------         MODULE        ADC
  C:0000H         SYMBOL        _ICE_DUMMY_
  D:0080H         PUBLIC        P0
  D:0090H         PUBLIC        P1
  D:00A0H         PUBLIC        P2
  D:00B0H         PUBLIC        P3
  D:00C0H         PUBLIC        P4
  D:00C8H         PUBLIC        P5
  D:00A8H         PUBLIC        IE
  C:0006H         PUBLIC        adc_clear_flag
  D:00BDH         PUBLIC        ADC_RES
  D:00B8H         PUBLIC        IP
  D:00DEH         PUBLIC        ADCCFG
  D:00D8H         PUBLIC        CCON
  D:00BCH         PUBLIC        ADC_CONTR
  D:0098H         PUBLIC        SCON
  D:0088H         PUBLIC        TCON
  C:426BH         PUBLIC        _adc_start
  C:41A6H         PUBLIC        adc_init
  C:3D0DH         PUBLIC        _adc_read_volt
  D:00BEH         PUBLIC        ADC_RESL
BL51 BANKED LINKER/LOCATER V6.22                                                      08/16/2020  22:14:32  PAGE 25


  C:41F4H         PUBLIC        adc_get_val
  D:00D0H         PUBLIC        PSW
  -------         PROC          ADC_INIT
  B:0020H.0       SYMBOL        open
  C:41A6H         LINE#         7
  C:41A6H         LINE#         8
  C:41A6H         LINE#         9
  C:41A9H         LINE#         10
  C:41B4H         LINE#         12
  C:41B7H         LINE#         13
  C:41BAH         LINE#         14
  C:41BAH         LINE#         16
  -------         ENDPROC       ADC_INIT
  -------         PROC          _ADC_READ_VOLT
  X:0129H         SYMBOL        channel
  -------         DO            
  X:012AH         SYMBOL        adcval1
  D:0006H         SYMBOL        adcval2
  -------         ENDDO         
  C:3D0DH         LINE#         23
  C:3D12H         LINE#         24
  C:3D12H         LINE#         26
  C:3D17H         LINE#         27
  C:3D22H         LINE#         28
  C:3D2AH         LINE#         29
  C:3D2DH         LINE#         30
  C:3D67H         LINE#         31
  -------         ENDPROC       _ADC_READ_VOLT
  -------         PROC          _ADC_START
  D:0007H         SYMBOL        channel
  C:426BH         LINE#         39
  C:426BH         LINE#         40
  C:426BH         LINE#         41
  C:426EH         LINE#         42
  C:4271H         LINE#         43
  C:4274H         LINE#         44
  -------         ENDPROC       _ADC_START
  -------         PROC          ADC_GET_VAL
  C:41F4H         LINE#         51
  C:41F4H         LINE#         52
  C:41F4H         LINE#         54
  C:41F9H         LINE#         55
  C:41FCH         LINE#         56
  C:4204H         LINE#         57
  -------         ENDPROC       ADC_GET_VAL
  -------         PROC          ADC_CLEAR_FLAG
  C:0006H         LINE#         60
  C:0006H         LINE#         61
  C:0006H         LINE#         62
  C:0009H         LINE#         63
  -------         ENDPROC       ADC_CLEAR_FLAG
  -------         ENDMOD        ADC

  -------         MODULE        GPIO
  C:0000H         SYMBOL        _ICE_DUMMY_
  D:0093H         PUBLIC        P0M1
  D:0092H         PUBLIC        P1M0
BL51 BANKED LINKER/LOCATER V6.22                                                      08/16/2020  22:14:32  PAGE 26


  D:0096H         PUBLIC        P2M0
  D:0091H         PUBLIC        P1M1
  D:0080H         PUBLIC        P0
  D:00B2H         PUBLIC        P3M0
  D:0095H         PUBLIC        P2M1
  D:0090H         PUBLIC        P1
  D:00B4H         PUBLIC        P4M0
  D:00B1H         PUBLIC        P3M1
  D:00A0H         PUBLIC        P2
  D:00CAH         PUBLIC        P5M0
  D:00B3H         PUBLIC        P4M1
  D:00B0H         PUBLIC        P3
  D:00C9H         PUBLIC        P5M1
  D:00C0H         PUBLIC        P4
  D:00C8H         PUBLIC        P5
  D:00BAH         PUBLIC        P_SW2
  D:00A8H         PUBLIC        IE
  C:3AAFH         PUBLIC        _gpio_setting
  D:00B8H         PUBLIC        IP
  D:00D8H         PUBLIC        CCON
  D:0098H         PUBLIC        SCON
  D:0088H         PUBLIC        TCON
  C:3764H         PUBLIC        _gpio_init
  D:00D0H         PUBLIC        PSW
  D:0094H         PUBLIC        P0M0
  -------         PROC          _GPIO_INIT
  D:0007H         SYMBOL        group
  D:0005H         SYMBOL        pin
  D:0003H         SYMBOL        mode
  C:3764H         LINE#         14
  C:3764H         LINE#         15
  C:3764H         LINE#         16
  C:377EH         LINE#         17
  C:377EH         LINE#         18
  C:377EH         LINE#         19
  C:3782H         LINE#         20
  C:3787H         LINE#         22
  C:3787H         LINE#         23
  C:378BH         LINE#         24
  C:378BH         LINE#         25
  C:378FH         LINE#         26
  C:3793H         LINE#         28
  C:3793H         LINE#         29
  C:3797H         LINE#         30
  C:3797H         LINE#         31
  C:3798H         LINE#         33
  C:3798H         LINE#         34
  C:379CH         LINE#         35
  C:37A1H         LINE#         37
  C:37A1H         LINE#         38
  C:37A5H         LINE#         39
  C:37A5H         LINE#         40
  C:37A9H         LINE#         41
  C:37ADH         LINE#         43
  C:37ADH         LINE#         44
  C:37B1H         LINE#         45
  C:37B1H         LINE#         46
BL51 BANKED LINKER/LOCATER V6.22                                                      08/16/2020  22:14:32  PAGE 27


  C:37B2H         LINE#         48
  C:37B2H         LINE#         49
  C:37B6H         LINE#         50
  C:37BBH         LINE#         52
  C:37BBH         LINE#         53
  C:37BFH         LINE#         54
  C:37BFH         LINE#         55
  C:37C3H         LINE#         56
  C:37C7H         LINE#         58
  C:37C7H         LINE#         59
  C:37CBH         LINE#         60
  C:37CBH         LINE#         61
  C:37CCH         LINE#         63
  C:37CCH         LINE#         64
  C:37D0H         LINE#         65
  C:37D5H         LINE#         67
  C:37D5H         LINE#         68
  C:37D9H         LINE#         69
  C:37D9H         LINE#         70
  C:37DDH         LINE#         71
  C:37E1H         LINE#         73
  C:37E1H         LINE#         74
  C:37E5H         LINE#         75
  C:37E5H         LINE#         76
  C:37E6H         LINE#         78
  C:37E6H         LINE#         79
  C:37EAH         LINE#         80
  C:37EFH         LINE#         82
  C:37EFH         LINE#         83
  C:37F3H         LINE#         84
  C:37F3H         LINE#         85
  C:37F7H         LINE#         86
  C:37FBH         LINE#         88
  C:37FBH         LINE#         89
  C:37FFH         LINE#         90
  C:37FFH         LINE#         91
  C:3800H         LINE#         93
  C:3800H         LINE#         94
  C:3804H         LINE#         95
  C:3809H         LINE#         97
  C:3809H         LINE#         98
  C:380DH         LINE#         99
  C:380DH         LINE#         100
  C:3811H         LINE#         101
  C:3815H         LINE#         103
  C:3815H         LINE#         104
  C:3819H         LINE#         105
  C:3819H         LINE#         106
  C:3819H         LINE#         108
  C:3819H         LINE#         109
  -------         ENDPROC       _GPIO_INIT
  -------         PROC          _GPIO_SETTING
  D:0007H         SYMBOL        group
  D:0005H         SYMBOL        pin
  B:0020H.0       SYMBOL        pu
  B:0020H.1       SYMBOL        schmitt
  B:0020H.2       SYMBOL        sr
BL51 BANKED LINKER/LOCATER V6.22                                                      08/16/2020  22:14:32  PAGE 28


  B:0020H.3       SYMBOL        dr
  C:3AAFH         LINE#         119
  C:3AAFH         LINE#         120
  C:3AAFH         LINE#         121
  C:3AB2H         LINE#         123
  C:3ABCH         LINE#         124
  C:3AC5H         LINE#         126
  C:3AD1H         LINE#         129
  C:3ADBH         LINE#         130
  C:3AE4H         LINE#         132
  C:3AF0H         LINE#         135
  C:3AFAH         LINE#         136
  C:3B03H         LINE#         138
  C:3B0FH         LINE#         141
  C:3B19H         LINE#         142
  C:3B22H         LINE#         144
  C:3B2EH         LINE#         146
  C:3B31H         LINE#         148
  -------         ENDPROC       _GPIO_SETTING
  -------         ENDMOD        GPIO

  -------         MODULE        PWM
  C:0000H         SYMBOL        _ICE_DUMMY_
  C:3EBEH         PUBLIC        _pwm_stop
  D:0080H         PUBLIC        P0
  D:0090H         PUBLIC        P1
  D:00A0H         PUBLIC        P2
  D:00B0H         PUBLIC        P3
  D:00C0H         PUBLIC        P4
  D:00C8H         PUBLIC        P5
  D:00BAH         PUBLIC        P_SW2
  D:00A8H         PUBLIC        IE
  D:00B8H         PUBLIC        IP
  D:00D8H         PUBLIC        CCON
  D:00F6H         PUBLIC        PWMCFG01
  D:00F7H         PUBLIC        PWMCFG23
  C:3502H         PUBLIC        _pwm_forced
  D:00FEH         PUBLIC        PWMCFG45
  D:0098H         PUBLIC        SCON
  D:0088H         PUBLIC        TCON
  D:00F1H         PUBLIC        PWMSET
  C:1279H         PUBLIC        _pwm_start
  C:4251H         PUBLIC        _pwm_init
  D:00D0H         PUBLIC        PSW
  -------         PROC          _PWM_INIT
  D:0007H         SYMBOL        group
  C:4251H         LINE#         3
  C:4251H         LINE#         4
  C:4251H         LINE#         7
  C:425EH         LINE#         8
  -------         ENDPROC       _PWM_INIT
  -------         PROC          _PWM_FORCED
  D:0001H         SYMBOL        group
  X:014EH         SYMBOL        pin
  X:014FH         SYMBOL        sta
  C:3502H         LINE#         16
  C:350CH         LINE#         17
BL51 BANKED LINKER/LOCATER V6.22                                                      08/16/2020  22:14:32  PAGE 29


  C:350CH         LINE#         18
  C:350FH         LINE#         19
  C:3515H         LINE#         20
  C:3515H         LINE#         21
  C:3543H         LINE#         22
  C:3554H         LINE#         23
  C:3556H         LINE#         25
  C:3556H         LINE#         26
  C:358EH         LINE#         27
  C:35B3H         LINE#         28
  C:35B3H         LINE#         29
  C:35B6H         LINE#         31
  C:35CAH         LINE#         32
  C:35CAH         LINE#         33
  C:35CAH         LINE#         34
  C:35CDH         LINE#         35
  C:35CEH         LINE#         36
  C:35CEH         LINE#         37
  C:35D1H         LINE#         38
  C:35D2H         LINE#         39
  C:35D2H         LINE#         40
  C:35D5H         LINE#         41
  C:35D6H         LINE#         42
  C:35D6H         LINE#         43
  C:35D9H         LINE#         44
  C:35DAH         LINE#         45
  C:35DAH         LINE#         46
  C:35DDH         LINE#         47
  C:35DEH         LINE#         48
  C:35DEH         LINE#         49
  C:35E1H         LINE#         50
  C:35E1H         LINE#         52
  C:35E1H         LINE#         53
  C:35E1H         LINE#         54
  C:35E1H         LINE#         56
  -------         ENDPROC       _PWM_FORCED
  -------         PROC          _PWM_START
  X:012DH         SYMBOL        group
  X:012EH         SYMBOL        pin
  X:012FH         SYMBOL        freq
  X:0133H         SYMBOL        duty
  X:0137H         SYMBOL        dead
  X:0138H         SYMBOL        polarity
  -------         DO            
  X:0139H         SYMBOL        PWM_SYSCLKDIV
  X:013AH         SYMBOL        cnt_freq_temp
  X:013EH         SYMBOL        cnt_freq
  X:0142H         SYMBOL        cnt_duty_low
  X:0146H         SYMBOL        cnt_duty_high
  X:014AH         SYMBOL        temp
  -------         ENDDO         
  C:1279H         LINE#         68
  C:1281H         LINE#         69
  C:1281H         LINE#         71
  C:1287H         LINE#         72
  C:128FH         LINE#         74
  C:1299H         LINE#         75
BL51 BANKED LINKER/LOCATER V6.22                                                      08/16/2020  22:14:32  PAGE 30


  C:12A3H         LINE#         76
  C:12ADH         LINE#         77
  C:12B7H         LINE#         80
  C:12D8H         LINE#         81
  C:12E5H         LINE#         82
  C:1303H         LINE#         83
  C:1310H         LINE#         86
  C:132FH         LINE#         87
  C:1331H         LINE#         88
  C:134FH         LINE#         89
  C:1351H         LINE#         90
  C:1372H         LINE#         91
  C:137EH         LINE#         92
  C:139EH         LINE#         93
  C:13ABH         LINE#         95
  C:13ABH         LINE#         100
  C:13ABH         LINE#         101
  C:13B1H         LINE#         102
  C:13EDH         LINE#         103
  C:1410H         LINE#         104
  C:1422H         LINE#         111
  C:1459H         LINE#         112
  C:14B5H         LINE#         113
  C:14D9H         LINE#         116
  C:14E2H         LINE#         117
  C:14E2H         LINE#         118
  C:152FH         LINE#         119
  C:1565H         LINE#         120
  C:1568H         LINE#         121
  C:1573H         LINE#         122
  C:1573H         LINE#         123
  C:15AFH         LINE#         124
  C:15FDH         LINE#         125
  C:15FDH         LINE#         130
  C:1600H         LINE#         132
  C:160CH         LINE#         133
  C:160CH         LINE#         134
  C:162DH         LINE#         136
  C:164CH         LINE#         137
  C:1668H         LINE#         139
  C:167AH         LINE#         140
  C:167CH         LINE#         142
  C:16B1H         LINE#         143
  C:16DCH         LINE#         144
  C:16FCH         LINE#         145
  C:1725H         LINE#         147
  C:1735H         LINE#         148
  C:1738H         LINE#         150
  C:1738H         LINE#         151
  C:1761H         LINE#         153
  C:178EH         LINE#         154
  C:17AEH         LINE#         156
  C:17C0H         LINE#         157
  C:17C2H         LINE#         159
  C:17FAH         LINE#         160
  C:182BH         LINE#         161
  C:1865H         LINE#         162
BL51 BANKED LINKER/LOCATER V6.22                                                      08/16/2020  22:14:32  PAGE 31


  C:1896H         LINE#         164
  C:18BBH         LINE#         165
  C:18BBH         LINE#         166
  C:18BEH         LINE#         168
  C:18D5H         LINE#         169
  C:18D5H         LINE#         170
  C:18D5H         LINE#         171
  C:18D8H         LINE#         172
  C:18D9H         LINE#         173
  C:18D9H         LINE#         174
  C:18DCH         LINE#         175
  C:18DDH         LINE#         176
  C:18DDH         LINE#         177
  C:18E0H         LINE#         178
  C:18E1H         LINE#         179
  C:18E1H         LINE#         180
  C:18E4H         LINE#         181
  C:18E5H         LINE#         182
  C:18E5H         LINE#         183
  C:18E8H         LINE#         184
  C:18E9H         LINE#         185
  C:18E9H         LINE#         186
  C:18ECH         LINE#         187
  C:18ECH         LINE#         189
  C:18ECH         LINE#         190
  C:18ECH         LINE#         191
  C:18ECH         LINE#         192
  -------         ENDPROC       _PWM_START
  -------         PROC          _PWM_STOP
  D:0007H         SYMBOL        group
  D:0003H         SYMBOL        pin
  C:3EBEH         LINE#         200
  C:3EC0H         LINE#         201
  C:3EC0H         LINE#         202
  C:3EC3H         LINE#         204
  C:3EC9H         LINE#         205
  C:3EC9H         LINE#         206
  C:3ED5H         LINE#         207
  C:3ED7H         LINE#         209
  C:3ED7H         LINE#         210
  C:3EFAH         LINE#         211
  C:3EFAH         LINE#         212
  C:3EFDH         LINE#         213
  -------         ENDPROC       _PWM_STOP
  -------         ENDMOD        PWM

  -------         MODULE        UART
  C:0000H         SYMBOL        _ICE_DUMMY_
  D:0080H         PUBLIC        P0
  D:0090H         PUBLIC        P1
  D:00B4H         PUBLIC        P4M0
  D:00A0H         PUBLIC        P2
  D:00B3H         PUBLIC        P4M1
  D:00B0H         PUBLIC        P3
  D:00C0H         PUBLIC        P4
  D:00C8H         PUBLIC        P5
  B:00A8H.7       PUBLIC        EA
BL51 BANKED LINKER/LOCATER V6.22                                                      08/16/2020  22:14:32  PAGE 32


  D:00BAH         PUBLIC        P_SW2
  D:00A8H         PUBLIC        IE
  D:00B8H         PUBLIC        IP
  D:00D8H         PUBLIC        CCON
  D:0098H         PUBLIC        SCON
  D:0088H         PUBLIC        TCON
  C:3EFEH         PUBLIC        uart2_timer2_init
  D:00AFH         PUBLIC        IE2
  D:008EH         PUBLIC        AUXR
  D:00D6H         PUBLIC        T2H
  D:00D7H         PUBLIC        T2L
  D:009AH         PUBLIC        S2CON
  D:00D0H         PUBLIC        PSW
  -------         PROC          UART2_TIMER2_INIT
  -------         DO            
  D:0006H         SYMBOL        reload_value
  -------         ENDDO         
  C:3EFEH         LINE#         3
  C:3EFEH         LINE#         4
  C:3EFEH         LINE#         5
  C:3F1BH         LINE#         24
  C:3F1EH         LINE#         25
  C:3F20H         LINE#         26
  C:3F22H         LINE#         28
  C:3F25H         LINE#         29
  C:3F28H         LINE#         30
  C:3F2BH         LINE#         31
  C:3F2EH         LINE#         33
  C:3F31H         LINE#         35
  C:3F34H         LINE#         36
  C:3F37H         LINE#         37
  C:3F39H         LINE#         38
  -------         ENDPROC       UART2_TIMER2_INIT
  -------         ENDMOD        UART

  -------         MODULE        SOFT_IIC
  C:0000H         SYMBOL        _ICE_DUMMY_
  D:0080H         PUBLIC        P0
  D:0090H         PUBLIC        P1
  B:0090H.5       PUBLIC        I2C_SCL
  D:00A0H         PUBLIC        P2
  D:00B0H         PUBLIC        P3
  D:00C0H         PUBLIC        P4
  D:00C8H         PUBLIC        P5
  C:41BBH         PUBLIC        SoftI2CStop
  D:00A8H         PUBLIC        IE
  D:00B8H         PUBLIC        IP
  D:00D8H         PUBLIC        CCON
  C:4011H         PUBLIC        SoftI2CReadACK
  D:0098H         PUBLIC        SCON
  D:0088H         PUBLIC        TCON
  C:3FDEH         PUBLIC        SoftI2CReadNAK
  C:3F75H         PUBLIC        _SoftI2CWrite
  C:4205H         PUBLIC        SoftI2CStart
  C:0011H         PUBLIC        SoftI2CInit
  B:0090H.4       PUBLIC        I2C_SDA
  D:00D0H         PUBLIC        PSW
BL51 BANKED LINKER/LOCATER V6.22                                                      08/16/2020  22:14:32  PAGE 33


  -------         PROC          SOFTI2CINIT
  C:0011H         LINE#         23
  C:0011H         LINE#         24
  C:0011H         LINE#         26
  -------         ENDPROC       SOFTI2CINIT
  -------         PROC          SOFTI2CSTART
  C:4205H         LINE#         29
  C:4205H         LINE#         30
  C:4205H         LINE#         31
  C:4207H         LINE#         32
  C:4209H         LINE#         33
  C:420DH         LINE#         34
  C:420FH         LINE#         35
  C:4213H         LINE#         36
  C:4215H         LINE#         37
  -------         ENDPROC       SOFTI2CSTART
  -------         PROC          SOFTI2CSTOP
  C:41BBH         LINE#         39
  C:41BBH         LINE#         40
  C:41BBH         LINE#         41
  C:41BDH         LINE#         42
  C:41BFH         LINE#         43
  C:41C3H         LINE#         44
  C:41C5H         LINE#         45
  C:41C9H         LINE#         46
  C:41CBH         LINE#         47
  C:41CFH         LINE#         48
  -------         ENDPROC       SOFTI2CSTOP
  -------         PROC          _SOFTI2CWRITE
  D:0007H         SYMBOL        dat
  -------         DO            
  B:0020H.0       SYMBOL        ack
  D:0006H         SYMBOL        mask
  -------         ENDDO         
  C:3F75H         LINE#         50
  C:3F75H         LINE#         51
  C:3F75H         LINE#         55
  C:3F7AH         LINE#         56
  C:3F7AH         LINE#         57
  C:3F7DH         LINE#         58
  C:3F81H         LINE#         60
  C:3F83H         LINE#         61
  C:3F87H         LINE#         62
  C:3F89H         LINE#         63
  C:3F8DH         LINE#         64
  C:3F8FH         LINE#         65
  C:3F95H         LINE#         66
  C:3F97H         LINE#         67
  C:3F9BH         LINE#         68
  C:3F9DH         LINE#         69
  C:3FA1H         LINE#         70
  C:3FA5H         LINE#         71
  C:3FA7H         LINE#         73
  C:3FAAH         LINE#         75
  -------         ENDPROC       _SOFTI2CWRITE
  -------         PROC          SOFTI2CREADNAK
  -------         DO            
BL51 BANKED LINKER/LOCATER V6.22                                                      08/16/2020  22:14:32  PAGE 34


  D:0006H         SYMBOL        mask
  D:0007H         SYMBOL        dat
  -------         ENDDO         
  C:3FDEH         LINE#         77
  C:3FDEH         LINE#         78
  C:3FDEH         LINE#         82
  C:3FE0H         LINE#         83
  C:3FE5H         LINE#         84
  C:3FE5H         LINE#         85
  C:3FE9H         LINE#         86
  C:3FEBH         LINE#         87
  C:3FEEH         LINE#         88
  C:3FF3H         LINE#         90
  C:3FF6H         LINE#         91
  C:3FFAH         LINE#         92
  C:3FFCH         LINE#         93
  C:4002H         LINE#         94
  C:4004H         LINE#         95
  C:4008H         LINE#         96
  C:400AH         LINE#         97
  C:400EH         LINE#         98
  C:4010H         LINE#         100
  C:4010H         LINE#         101
  -------         ENDPROC       SOFTI2CREADNAK
  -------         PROC          SOFTI2CREADACK
  -------         DO            
  D:0006H         SYMBOL        mask
  D:0007H         SYMBOL        dat
  -------         ENDDO         
  C:4011H         LINE#         103
  C:4011H         LINE#         104
  C:4011H         LINE#         108
  C:4013H         LINE#         109
  C:4018H         LINE#         110
  C:4018H         LINE#         111
  C:401CH         LINE#         112
  C:401EH         LINE#         113
  C:4021H         LINE#         114
  C:4026H         LINE#         116
  C:4029H         LINE#         117
  C:402DH         LINE#         118
  C:402FH         LINE#         119
  C:4035H         LINE#         120
  C:4037H         LINE#         121
  C:403BH         LINE#         122
  C:403DH         LINE#         123
  C:4041H         LINE#         124
  C:4043H         LINE#         126
  C:4043H         LINE#         127
  -------         ENDPROC       SOFTI2CREADACK
  -------         ENDMOD        SOFT_IIC

  -------         MODULE        UTILS
  C:0000H         SYMBOL        _ICE_DUMMY_
  C:4275H         PUBLIC        _ASSERT
  -------         PROC          _ASSERT
  D:0004H         SYMBOL        expr
BL51 BANKED LINKER/LOCATER V6.22                                                      08/16/2020  22:14:32  PAGE 35


  C:4275H         LINE#         6
  C:4275H         LINE#         7
  C:4275H         LINE#         8
  C:427CH         LINE#         11
  -------         ENDPROC       _ASSERT
  -------         ENDMOD        UTILS

  -------         MODULE        ?C?FPADD
  C:001DH         PUBLIC        ?C?FPADD
  C:0019H         PUBLIC        ?C?FPSUB
  -------         ENDMOD        ?C?FPADD

  -------         MODULE        ?C?FPMUL
  C:010EH         PUBLIC        ?C?FPMUL
  -------         ENDMOD        ?C?FPMUL

  -------         MODULE        ?C?FPDIV
  C:0217H         PUBLIC        ?C?FPDIV
  -------         ENDMOD        ?C?FPDIV

  -------         MODULE        ?C?FPCMP
  C:02B6H         PUBLIC        ?C?FPCMP
  C:02B4H         PUBLIC        ?C?FPCMP3
  -------         ENDMOD        ?C?FPCMP

  -------         MODULE        ?C?FPNEG
  C:032DH         PUBLIC        ?C?FPNEG
  -------         ENDMOD        ?C?FPNEG

  -------         MODULE        ?C?FCAST
  C:0348H         PUBLIC        ?C?FCASTC
  C:0343H         PUBLIC        ?C?FCASTI
  C:033EH         PUBLIC        ?C?FCASTL
  -------         ENDMOD        ?C?FCAST

  -------         MODULE        ?C?CASTF
  C:037CH         PUBLIC        ?C?CASTF
  -------         ENDMOD        ?C?CASTF

  -------         MODULE        PRINTF
  X:0136H         PUBLIC        ?_PRINTF?BYTE
  X:0136H         PUBLIC        ?_SPRINTF?BYTE
  C:1958H         PUBLIC        _PRINTF
  C:1952H         PUBLIC        _SPRINTF
  -------         ENDMOD        PRINTF

  -------         MODULE        SQRT
  C:38D3H         PUBLIC        _SQRT
  -------         ENDMOD        SQRT

  -------         MODULE        ASIN
  C:3F3AH         PUBLIC        _ASIN
  -------         ENDMOD        ASIN

  -------         MODULE        ?C?FPROUND
  C:03FDH         PUBLIC        ?C?FPROUND
  -------         ENDMOD        ?C?FPROUND
BL51 BANKED LINKER/LOCATER V6.22                                                      08/16/2020  22:14:32  PAGE 36



  -------         MODULE        ?C?FPCONVERT
  C:043AH         PUBLIC        ?C?FPCONVERT
  -------         ENDMOD        ?C?FPCONVERT

  -------         MODULE        ATAN
  C:2FF9H         PUBLIC        _ATAN
  -------         ENDMOD        ATAN

  -------         MODULE        ?C?FTNPWR
  C:056FH         PUBLIC        ?C?FTNPWR
  -------         ENDMOD        ?C?FTNPWR

  -------         MODULE        ?C?CLDPTR
  C:05FCH         PUBLIC        ?C?CLDPTR
  -------         ENDMOD        ?C?CLDPTR

  -------         MODULE        ?C?CLDOPTR
  C:0615H         PUBLIC        ?C?CLDOPTR
  -------         ENDMOD        ?C?CLDOPTR

  -------         MODULE        ?C?CSTPTR
  C:0642H         PUBLIC        ?C?CSTPTR
  -------         ENDMOD        ?C?CSTPTR

  -------         MODULE        ?C?CSTOPTR
  C:0654H         PUBLIC        ?C?CSTOPTR
  -------         ENDMOD        ?C?CSTOPTR

  -------         MODULE        ?C?IMUL
  C:0676H         PUBLIC        ?C?IMUL
  -------         ENDMOD        ?C?IMUL

  -------         MODULE        ?C?IILDX
  C:0688H         PUBLIC        ?C?IILDX
  -------         ENDMOD        ?C?IILDX

  -------         MODULE        ?C?LMUL
  C:069EH         PUBLIC        ?C?LMUL
  -------         ENDMOD        ?C?LMUL

  -------         MODULE        ?C?ULDIV
  C:0729H         PUBLIC        ?C?ULDIV
  -------         ENDMOD        ?C?ULDIV

  -------         MODULE        ?C?LNEG
  C:07BBH         PUBLIC        ?C?LNEG
  -------         ENDMOD        ?C?LNEG

  -------         MODULE        ?C?SLCMP
  C:07C9H         PUBLIC        ?C?SLCMP
  -------         ENDMOD        ?C?SLCMP

  -------         MODULE        ?C?ULCMP
  C:07DFH         PUBLIC        ?C?ULCMP
  -------         ENDMOD        ?C?ULCMP

BL51 BANKED LINKER/LOCATER V6.22                                                      08/16/2020  22:14:32  PAGE 37


  -------         MODULE        ?C?ULSHR
  C:07F0H         PUBLIC        ?C?ULSHR
  -------         ENDMOD        ?C?ULSHR

  -------         MODULE        ?C?LLDPTR
  C:0803H         PUBLIC        ?C?LLDPTR
  -------         ENDMOD        ?C?LLDPTR

  -------         MODULE        ?C?LLDOPTR
  C:0823H         PUBLIC        ?C?LLDOPTR
  -------         ENDMOD        ?C?LLDOPTR

  -------         MODULE        ?C?LSTPTR
  C:0853H         PUBLIC        ?C?LSTPTR
  -------         ENDMOD        ?C?LSTPTR

  -------         MODULE        ?C?LSTOPTR
  C:086DH         PUBLIC        ?C?LSTOPTR
  -------         ENDMOD        ?C?LSTOPTR

  -------         MODULE        ?C?LLDIDATA
  C:0891H         PUBLIC        ?C?LLDIDATA
  -------         ENDMOD        ?C?LLDIDATA

  -------         MODULE        ?C?LLDXDATA
  C:089DH         PUBLIC        ?C?LLDXDATA
  -------         ENDMOD        ?C?LLDXDATA

  -------         MODULE        ?C?LLDCODE
  C:08A9H         PUBLIC        ?C?LLDCODE
  -------         ENDMOD        ?C?LLDCODE

  -------         MODULE        ?C?LLDIDATA0
  C:08B9H         PUBLIC        ?C?LLDIDATA0
  -------         ENDMOD        ?C?LLDIDATA0

  -------         MODULE        ?C?LLDXDATA0
  C:08C6H         PUBLIC        ?C?LLDXDATA0
  -------         ENDMOD        ?C?LLDXDATA0

  -------         MODULE        ?C?LLDCODE0
  C:08D2H         PUBLIC        ?C?LLDCODE0
  -------         ENDMOD        ?C?LLDCODE0

  -------         MODULE        ?C?LILDXDATA
  C:08EBH         PUBLIC        ?C?LILDXDATA
  C:08E2H         PUBLIC        ?C?LILDXDATA1
  C:08E4H         PUBLIC        ?C?LILDXDATA8
  -------         ENDMOD        ?C?LILDXDATA

  -------         MODULE        ?C?LSTIDATA
  C:0917H         PUBLIC        ?C?LSTIDATA
  -------         ENDMOD        ?C?LSTIDATA

  -------         MODULE        ?C?LSTXDATA
  C:0923H         PUBLIC        ?C?LSTXDATA
  -------         ENDMOD        ?C?LSTXDATA
BL51 BANKED LINKER/LOCATER V6.22                                                      08/16/2020  22:14:32  PAGE 38



  -------         MODULE        ?C?LSTKXDATA
  C:092FH         PUBLIC        ?C?LSTKXDATA
  -------         ENDMOD        ?C?LSTKXDATA

  -------         MODULE        ?C?LSTKPTR
  C:0960H         PUBLIC        ?C?LSTKPTR
  -------         ENDMOD        ?C?LSTKPTR

  -------         MODULE        ?C?LSTKOPTR
  C:097AH         PUBLIC        ?C?LSTKOPTR
  -------         ENDMOD        ?C?LSTKOPTR

  -------         MODULE        ?C?OFFXADD
  C:099EH         PUBLIC        ?C?OFFXADD
  -------         ENDMOD        ?C?OFFXADD

  -------         MODULE        ?C?PLDIXDATA
  C:09AAH         PUBLIC        ?C?PLDIXDATA
  -------         ENDMOD        ?C?PLDIXDATA

  -------         MODULE        ?C?PSTXDATA
  C:09C1H         PUBLIC        ?C?PSTXDATA
  -------         ENDMOD        ?C?PSTXDATA

  -------         MODULE        ?C?CCASE
  C:09CAH         PUBLIC        ?C?CCASE
  -------         ENDMOD        ?C?CCASE

  -------         MODULE        ?C?LLDPDATA
  C:09F0H         PUBLIC        ?C?LLDPDATA
  -------         ENDMOD        ?C?LLDPDATA

  -------         MODULE        ?C?LSTPDATA
  C:09FCH         PUBLIC        ?C?LSTPDATA
  -------         ENDMOD        ?C?LSTPDATA

  -------         MODULE        ?C?LSTKIDATA
  C:0A08H         PUBLIC        ?C?LSTKIDATA
  -------         ENDMOD        ?C?LSTKIDATA

  -------         MODULE        ?C?LSTKPDATA
  C:0A21H         PUBLIC        ?C?LSTKPDATA
  -------         ENDMOD        ?C?LSTKPDATA

*** WARNING L16: UNCALLED SEGMENT, IGNORED FOR OVERLAY PROCESS
    SEGMENT: ?PR?TASK_PRINT_MPUDATA?MAIN

*** WARNING L16: UNCALLED SEGMENT, IGNORED FOR OVERLAY PROCESS
    SEGMENT: ?PR?TASK_MOTOR_TEST?MAIN

*** WARNING L16: UNCALLED SEGMENT, IGNORED FOR OVERLAY PROCESS
    SEGMENT: ?PR?TASK_ADC_PRINT?MAIN

*** WARNING L16: UNCALLED SEGMENT, IGNORED FOR OVERLAY PROCESS
    SEGMENT: ?PR?TASK_PRINT_ENCODER?MAIN

BL51 BANKED LINKER/LOCATER V6.22                                                      08/16/2020  22:14:32  PAGE 39


*** WARNING L16: UNCALLED SEGMENT, IGNORED FOR OVERLAY PROCESS
    SEGMENT: ?PR?DRV_MCP401X_INIT?MCP401X

*** WARNING L16: UNCALLED SEGMENT, IGNORED FOR OVERLAY PROCESS
    SEGMENT: ?PR?GLOBAL_INTERRUPT_DISABLE?SYS

*** WARNING L16: UNCALLED SEGMENT, IGNORED FOR OVERLAY PROCESS
    SEGMENT: ?PR?_PWM_STOP?PWM

*** WARNING L16: UNCALLED SEGMENT, IGNORED FOR OVERLAY PROCESS
    SEGMENT: ?PR?UART2_TIMER2_INIT?UART

*** WARNING L16: UNCALLED SEGMENT, IGNORED FOR OVERLAY PROCESS
    SEGMENT: ?PR?SOFTI2CINIT?SOFT_IIC

*** WARNING L16: UNCALLED SEGMENT, IGNORED FOR OVERLAY PROCESS
    SEGMENT: ?PR?SOFTI2CREADNAK?SOFT_IIC

*** WARNING L16: UNCALLED SEGMENT, IGNORED FOR OVERLAY PROCESS
    SEGMENT: ?PR?SOFTI2CREADACK?SOFT_IIC

*** WARNING L16: UNCALLED SEGMENT, IGNORED FOR OVERLAY PROCESS
    SEGMENT: ?PR?_ASSERT?UTILS

Program Size: data=67.3 xdata=383 code=17032
LINK/LOCATE RUN COMPLETE.  12 WARNING(S),  0 ERROR(S)
