C51 COMPILER V9.54   MAIN                                                                  07/24/2020 14:27:54 PAGE 1   


C51 COMPILER V9.54, COMPILATION OF MODULE MAIN
OBJECT MODULE PLACED IN .\Objects\main.obj
COMPILER INVOKED BY: C:\Keil_v5\C51\BIN\C51.EXE app\main.c LARGE OPTIMIZE(8,SPEED) BROWSE MODP2 INCDIR(.\utils;.\chip;.\
                    -drv;.\app) DEBUG OBJECTEXTEND PRINT(.\Listings\main.lst) TABS(2) OBJECT(.\Objects\main.obj)

line level    source

   1          #include "app.h"
   2          
   3          
   4          
   5          uint32_t uw_tick = 0;          //全局系统时钟
   6          
   7          mpudata_t mpudata;             //角度传感器数据
   8          
   9          int32_t encoder_counter_L = 0; //左编码器计数
  10          int32_t encoder_counter_R = 0; //右编码器计数
  11          float motor_stand_pwmf = 0.0;      //范围0.0~1.0，直立环输出PWM
  12          float motor_turn_pwmf  = 0.0;      //范围0.0~1.0，转向环输出PWM
  13          
  14          int16_t power_persent = 0;     //剩余电量百分比 0~100
  15          float power_persent_f = 0.0f;  //剩余电量百分比 0.0~1.0
  16          
  17          float angle_zero = 0.5;        //（用户填写）小车机械零点，取决于小车重心
  18          float angle_want = 0.0;        //由速度环给出最终期望角
  19          float speed_want = 0.0;        //（用户填写）小车平均速度
  20          
  21          static float supercap_volt = 0;//超级电容实时电压
  22          
  23          
  24          
  25          void T0_interrupt_init();
  26          void uart_init();
  27          void uart_send_byte(unsigned char dat);
  28          void port_init();
  29          void encoder_init();
  30          void global_interrupt_enable();
  31          void global_interrupt_disable();
  32          
  33          
  34          void delay_ms(uint32_t ms)
  35          {
  36   1        uint32_t uw_tick_reg = uw_tick;
  37   1        while(uw_tick - uw_tick_reg < ms);
  38   1      }
  39          
  40          
  41          
  42          void task_refresh_mpudata()
  43          {
  44   1        static unsigned long task_interval = T0_TICK_MS; //任务执行间隔（毫秒）
  45   1        static unsigned long tick_reg = 0;      //记录上一次的tick值
  46   1        
  47   1        
  48   1        if(uw_tick - tick_reg >= task_interval)
  49   1          tick_reg = uw_tick; //记录上一次的值
  50   1        else
  51   1          return;
  52   1        get_mpu6050(&mpudata);
  53   1        
  54   1      }
C51 COMPILER V9.54   MAIN                                                                  07/24/2020 14:27:54 PAGE 2   

  55          
  56          void task_print_mpudata()
  57          {
  58   1        static unsigned long task_interval = 100; //任务执行间隔（毫秒）
  59   1        static unsigned long tick_reg = 0;      //记录上一次的tick值
  60   1        
  61   1        if(uw_tick - tick_reg >= task_interval)
  62   1          tick_reg = uw_tick; //记录上一次的值
  63   1        else
  64   1          return;
  65   1        
  66   1        //printf("g (%f, %f, %f)\r\n", mpudata.gx, mpudata.gy, mpudata.gz);
  67   1        //printf("a (%f, %f, %f)\r\n", mpudata.ax, mpudata.ay, mpudata.az);
  68   1        printf("(%f, %f)\r\n", mpudata.pitch, mpudata.roll);
  69   1      }
  70          
  71          
  72          /*
  73          void task_led()
  74          {
  75            static unsigned long task_interval = 10; //任务执行间隔（毫秒）
  76            static unsigned long tick_reg = 0;      //记录上一次的tick值
  77            static uint8_t reflag = 0;
  78            static int32_t counter = 0;
  79            if(uw_tick - tick_reg >= task_interval)
  80              tick_reg = uw_tick; //记录上一次的值
  81            else
  82              return;
  83          
  84            
  85            
  86            
  87            if(!reflag)
  88            {
  89              if(++counter >= 100)
  90              {
  91                reflag = !reflag;
  92              }
  93                
  94            }
  95            else
  96            {
  97              if(--counter <= 0)
  98              {
  99                reflag = !reflag;
 100              }
 101            }
 102            pwm_start(PWM_GROUP5, PWM_PIN3, 10000, counter * 1 / 1, 0, PWM_VALID_LOW);//BLUE
 103            pwm_start(PWM_GROUP0, PWM_PIN7, 10000, counter * 1 / 4, 0, PWM_VALID_LOW);//GREEN
 104            pwm_start(PWM_GROUP0, PWM_PIN5, 10000, counter * 1 / 1, 0, PWM_VALID_LOW);//RED
 105          }
 106          
 107          */
 108          
 109          void task_led()
 110          {
 111   1        static unsigned long task_interval = 500; //任务执行间隔（毫秒）
 112   1        static unsigned long tick_reg = 0;      //记录上一次的tick值
 113   1        int16_t local_persent = power_persent;//复制到局部变量
 114   1        
 115   1        if(uw_tick - tick_reg >= task_interval)
 116   1          tick_reg = uw_tick; //记录上一次的值
C51 COMPILER V9.54   MAIN                                                                  07/24/2020 14:27:54 PAGE 3   

 117   1        else
 118   1          return;
 119   1      
 120   1        //printf("local_persent:%d\r\n", (int16_t)local_persent);
 121   1        //printf("power_persent_f:%1f\r\n", power_persent_f);
 122   1        
 123   1        if(local_persent > 90)
 124   1          local_persent = 100;
 125   1        if(local_persent < 10)
 126   1          local_persent = 0;
 127   1        
 128   1        
 129   1        pwm_start(PWM_GROUP0, PWM_PIN5, 1000, 100 - local_persent, 0, PWM_VALID_LOW); // RED
 130   1        pwm_start(PWM_GROUP5, PWM_PIN3, 1000, local_persent, 0, PWM_VALID_LOW); // BLUE
 131   1      }
 132          
 133          void task_power_manage()
 134          {
 135   1        supercap_volt += (get_supercap_voltage() - supercap_volt) * 0.1; //IIR滤波
 136   1        //supercap_volt = get_supercap_voltage() ;
 137   1        power_persent_f = (supercap_volt - BATTERY_ZERO) / (BATTERY_FULL - BATTERY_ZERO);
 138   1        power_persent_f = power_persent_f > 1.0f ? 1.0f:power_persent_f;
 139   1        power_persent_f = power_persent_f < 0.0f ? 0.0f:power_persent_f;
 140   1        
 141   1        power_persent = (int16_t)(power_persent_f * 100);
 142   1      }
 143          
 144          void task_constP_charge()
 145          { 
 146   1        static unsigned long task_interval = 1; //任务执行间隔（毫秒）
 147   1        static unsigned long tick_reg = 0;      //记录上一次的tick值
 148   1        
 149   1        
 150   1        const float chargeP_want = 20;//恒功率充电期望值（瓦特W）
 151   1        
 152   1        float supercap_amp_want = 0;
 153   1        static bit flag_print_at_start = 0;
 154   1        static bit flag_print_at_stop = 0;
 155   1        static int16_t mcpdata = 0;
 156   1        static int16_t mcpdata_reg = 1000;
 157   1        
 158   1        static uint8_t power_persent_reg = 0;
 159   1        static uint32_t start_time_tick = 0;
 160   1        
 161   1        if(uw_tick - tick_reg >= task_interval)
 162   1          tick_reg = uw_tick; //记录上一次的值
 163   1        else
 164   1          return;
 165   1        
 166   1        
 167   1        supercap_amp_want = chargeP_want / supercap_volt;
 168   1        
 169   1        
 170   1        if(ind_voltage_uvlo())
 171   1          return;
 172   1        
 173   1        if(!flag_print_at_start)
 174   1        {
 175   2          flag_print_at_start = 1;
 176   2          printf("\r\n===========start charging voltage: %3fV ===========\r\n", supercap_volt);
 177   2          start_time_tick = uw_tick;
 178   2        }
C51 COMPILER V9.54   MAIN                                                                  07/24/2020 14:27:54 PAGE 4   

 179   1        
 180   1        if(!flag_print_at_stop && supercap_volt >= BATTERY_FULL)
 181   1        {
 182   2            flag_print_at_stop = 1;
 183   2            //set_mcp401x_data(5);
 184   2            //LT3741_CTRL2 = 0;
 185   2            printf("\r\n===========end charging voltage: %3fV ===========\r\n", supercap_volt);
 186   2            printf("===========time elapsed: %1fS ===========\r\n", (float)(uw_tick - start_time_tick) / 1000);
 187   2        }
 188   1        
 189   1        if(flag_print_at_start && !flag_print_at_stop)
 190   1        {
 191   2          mcpdata = MIN((supercap_amp_want * 0.15  * 38), 60);
 192   2          if(mcpdata_reg - mcpdata > 0)
 193   2          {
 194   3            mcpdata_reg = mcpdata;
 195   3            set_mcp401x_data(mcpdata);
 196   3            printf("supercap_volt:%3f, supercap_amp_want:%3f, mcpdata:%d\r\n", supercap_volt, supercap_amp_want,
             - (int)mcpdata);
 197   3          }
 198   2          
 199   2          if((int)(power_persent) - (int)(power_persent_reg) > 0)
 200   2          {
 201   3            power_persent_reg = power_persent;
 202   3            printf("now charging: %d %% \r\n", (int)power_persent);
 203   3          }
 204   2          
 205   2        }
 206   1        
 207   1        
 208   1      
 209   1      }
 210          
 211          void task_motor_control()
 212          {
 213   1        static unsigned long task_interval = T0_TICK_MS; //任务执行间隔（毫秒）
 214   1        static unsigned long tick_reg = 0;      //记录上一次的tick值
 215   1        extern float MOTOR_K_COMP;
 216   1        float temp_pwmf_L = 0.0;
 217   1        float temp_pwmf_R = 0.0;
 218   1      
 219   1        if(uw_tick - tick_reg >= task_interval)
 220   1          tick_reg = uw_tick; //记录上一次的值
 221   1        else
 222   1          return;
 223   1        
 224   1        temp_pwmf_L = (motor_stand_pwmf + motor_turn_pwmf)  * MOTOR_K_COMP / (MOTOR_K_COMP + power_persent_f); /
             -/ 电压补偿
 225   1        temp_pwmf_R = (motor_stand_pwmf - motor_turn_pwmf) * MOTOR_K_COMP / (MOTOR_K_COMP + power_persent_f); //
             - 电压补偿
 226   1        
 227   1        set_motor_pwm_L((int32_t)(temp_pwmf_L * 100));
 228   1        set_motor_pwm_R((int32_t)(temp_pwmf_R * 100));
 229   1        
 230   1        //printf("temp_pwm_L:%d\r\n", temp_pwm_L);
 231   1        //printf("temp_pwm_R:%d\r\n", temp_pwm_R);
 232   1        
 233   1      }
 234          void task_motor_test()
 235          {
 236   1        static unsigned long task_interval = 1000; //任务执行间隔（毫秒）
 237   1        static unsigned long tick_reg = 0;      //记录上一次的tick值
C51 COMPILER V9.54   MAIN                                                                  07/24/2020 14:27:54 PAGE 5   

 238   1        extern int16_t test_pwm;
 239   1        static uint16_t counter = 0;
 240   1        
 241   1        if(uw_tick - tick_reg >= task_interval)
 242   1          tick_reg = uw_tick; //记录上一次的值
 243   1        else
 244   1          return;
 245   1        
 246   1        if(++counter > 4)
 247   1        {
 248   2          counter = 1;
 249   2        }
 250   1        
 251   1        
 252   1        switch(counter)
 253   1        {
 254   2          case 1: //正转
 255   2          {
 256   3            set_motor_pwm_L(50);
 257   3            set_motor_pwm_R(50);
 258   3            break;
 259   3          }
 260   2          case 2: //停止
 261   2          {
 262   3            set_motor_pwm_L(0);
 263   3            set_motor_pwm_R(0);
 264   3            break;
 265   3          }
 266   2          case 3: //反转
 267   2          {
 268   3            set_motor_pwm_L(-50);
 269   3            set_motor_pwm_R(-50);
 270   3            break;
 271   3          }
 272   2          case 4: //停止
 273   2          {
 274   3            set_motor_pwm_L(0);
 275   3            set_motor_pwm_R(0);
 276   3            break;
 277   3          }
 278   2        }
 279   1        
 280   1        
 281   1        
 282   1      }
 283          
 284          
 285          void task_adc_print()
 286          {
 287   1        static unsigned long task_interval = 1000; //任务执行间隔（毫秒）
 288   1        static unsigned long tick_reg = 0;      //记录上一次的tick值
 289   1      
 290   1        if(uw_tick - tick_reg >= task_interval)
 291   1          tick_reg = uw_tick; //记录上一次的值
 292   1        else
 293   1          return;
 294   1      
 295   1        
 296   1        printf("ElecMagnetic_1:%f V, ElecMagnetic_2:%f V, ElecMagnetic_3:%f V, ElecMagnetic_4:%f V, \r\n", adc_r
             -ead_volt(ADC_P00), adc_read_volt(ADC_P01), adc_read_volt(ADC_P02), adc_read_volt(ADC_P03));
 297   1        //printf("ADC2:%f, ", adc_read_volt(ADC_P01));
 298   1        
C51 COMPILER V9.54   MAIN                                                                  07/24/2020 14:27:54 PAGE 6   

 299   1      }
 300          
 301          void task_print_encoder()
 302          {
 303   1        static unsigned long task_interval = 1000; //任务执行间隔（毫秒）
 304   1        static unsigned long tick_reg = 0;      //记录上一次的tick值
 305   1        int16_t rate_R = 0;
 306   1        int16_t rate_L = 0;
 307   1        static int32_t encoder_counter_L_reg = 0;
 308   1        static int32_t encoder_counter_R_reg = 0;
 309   1        
 310   1        if(uw_tick - tick_reg >= task_interval)
 311   1          tick_reg = uw_tick; //记录上一次的值
 312   1        else
 313   1          return;
 314   1        
 315   1        //printf("encoder_counter_L: %d, ", (int16_t)encoder_counter_L);
 316   1        //printf("encoder_counter_R: %d, ", (int16_t)encoder_counter_R);
 317   1        EA = 0;
 318   1        rate_L = encoder_counter_L - encoder_counter_L_reg;
 319   1        rate_R = encoder_counter_R - encoder_counter_R_reg;
 320   1        encoder_counter_L_reg = encoder_counter_L;
 321   1        encoder_counter_R_reg = encoder_counter_R;
 322   1        EA = 1;
 323   1        
 324   1        printf("rate_L:%d\r\n", rate_L);
 325   1        printf("rate_R:%d\r\n", rate_R);
 326   1        
 327   1        
 328   1      }
 329          
 330          
 331          
 332          
 333          char putchar(char c)//printf重定向
 334          {
 335   1        uart_send_byte(c);
 336   1        return c;
 337   1      }
 338          
 339          void task_stand_control()
 340          {
 341   1        static unsigned long task_interval = T0_TICK_MS; //任务执行间隔（毫秒）
 342   1        static unsigned long tick_reg = 0;      //记录上一次的tick值
 343   1        float stand_kp = 0.02, stand_ki = 0.001, stand_kd = 0.1;
 344   1        static float stand_p = 0.0,stand_i = 0.0, stand_d = 0.0;
 345   1        static float angle_reg = 0.0;
 346   1        
 347   1        if(uw_tick - tick_reg >= task_interval)
 348   1          tick_reg = uw_tick; //记录上一次的值
 349   1        else
 350   1          return;
 351   1        
 352   1        if(uw_tick < 5000)
 353   1          return;
 354   1        
 355   1        
 356   1        
 357   1        stand_p = stand_kp * (mpudata.roll - angle_want);
 358   1        stand_i += stand_ki * (mpudata.roll - angle_want);
 359   1        stand_d = stand_kd * (mpudata.roll - angle_reg);
 360   1        stand_i = LIMIT(stand_i,-0.5,0.5);
C51 COMPILER V9.54   MAIN                                                                  07/24/2020 14:27:54 PAGE 7   

 361   1        
 362   1        motor_stand_pwmf =  stand_p + stand_i + stand_d;
 363   1        
 364   1        angle_reg = mpudata.roll;
 365   1      }
 366          
 367          
 368          void encoder_init()
 369          {
 370   1        IT0  = 1;//0上升下降中断，1仅下降沿中断
 371   1        EX0  = 1;
 372   1        IPH |= 0x01 << 0;
 373   1        IP  |= 0x01 << 0;
 374   1        
 375   1        IT1  = 1;//0上升下降中断，1仅下降沿中断
 376   1        EX1  = 1;
 377   1        IPH |= 0x01 << 2;
 378   1        IP  |= 0x01 << 2;
 379   1      }
 380          
 381          
 382          
 383          void T0_interrupt_init()
 384          {
 385   1        uint16_t t0_count_need = (get_clk()/12 * T0_TICK_MS/1000 );
 386   1        uint16_t t0_count = (65536 - t0_count_need);
 387   1        
 388   1        //下面给出6步启动定时器中断的方法
 389   1        TH0 = (uint8_t)(t0_count >> 8); //给定时器装载初值       ①
 390   1        TL0 = (uint8_t)(t0_count);      //给定时器装载初值       ②
 391   1        TMOD &= 0xF0;                   //设置定时器工作模式     ③
 392   1        TMOD |= 0x00;                   //设置定时器工作模式     ③
 393   1        //TMOD = 0x00;                  //设置定时器工作模式     ③
 394   1        ET0  = true;                    //使能定时器T0中断       ④
 395   1        EA   = true;                    //使能全局中断           ⑤
 396   1        TR0  = true;                    //启动定时器             ⑥
 397   1        
 398   1      }
 399          
 400          
 401          
 402          
 403          void port_init()
 404          {
 405   1        /*
 406   1        //上电默认是浮空输入
 407   1        //全部端口准双向输出（超弱上拉，上拉电流约200ua）
 408   1        P0M0 = 0x00; 
 409   1        P0M1 = 0x00; 
 410   1        P1M0 = 0x00; 
 411   1        P1M1 = 0x00; 
 412   1        P2M0 = 0x00; 
 413   1        P2M1 = 0x00; 
 414   1        P3M0 = 0x00; 
 415   1        P3M1 = 0x00; 
 416   1        P4M0 = 0x00; 
 417   1        P4M1 = 0x00; 
 418   1        P5M0 = 0x00; 
 419   1        P5M1 = 0x00;
 420   1        */
 421   1        
 422   1        /*
C51 COMPILER V9.54   MAIN                                                                  07/24/2020 14:27:54 PAGE 8   

 423   1        //P1.5推挽输出
 424   1        P1M0 |=   0x01 << 5; 
 425   1        P1M1 &= ~(0x01 << 5);
 426   1        //P1.4准双向口
 427   1        P1M0 &= ~(0x01 << 4);
 428   1        P1M1 &= ~(0x01 << 4);
 429   1        
 430   1        P_SW2 |= 0x80;
 431   1        //使能P1.4上拉
 432   1        P1PU  |= 0x01 << 4;
 433   1        P_SW2 &= 0x7F;
 434   1        */
 435   1        
 436   1        //mpu6050 iic引脚
 437   1        gpio_init(GPIO_GROUP1, (GPIO_PIN4), GPIO_MODE_INOUT);
 438   1        gpio_init(GPIO_GROUP1, (GPIO_PIN5), GPIO_MODE_OUTPP);
 439   1        gpio_setting(GPIO_GROUP1, GPIO_PIN4, 1, 0, 0, 0);
 440   1        
 441   1        //SPI
 442   1        gpio_init(GPIO_GROUP2, (GPIO_PIN2|GPIO_PIN3), GPIO_MODE_OUTPP);
*** WARNING C259 IN LINE 442 OF app\main.c: 'parameter 2': different enumeration types
 443   1        
 444   1        //三色LED
 445   1        gpio_init(GPIO_GROUP5, GPIO_PIN3, GPIO_MODE_OUTPP); //BLUE
 446   1        gpio_init(GPIO_GROUP0, GPIO_PIN5, GPIO_MODE_OUTPP); //RED
 447   1        gpio_init(GPIO_GROUP0, GPIO_PIN7, GPIO_MODE_OUTPP); //GREEN
 448   1        
 449   1        //电机驱动
 450   1        gpio_init(GPIO_GROUP4, GPIO_PIN4, GPIO_MODE_OUTPP); //PWM1
 451   1        gpio_init(GPIO_GROUP4, GPIO_PIN3, GPIO_MODE_OUTPP); //PWM2
 452   1        gpio_init(GPIO_GROUP4, GPIO_PIN2, GPIO_MODE_OUTPP); //PWM3
 453   1        gpio_init(GPIO_GROUP4, GPIO_PIN1, GPIO_MODE_OUTPP); //PWM4
 454   1        gpio_init(GPIO_GROUP2, GPIO_PIN6, GPIO_MODE_OUTPP); //MOTOR_EN_L
 455   1        gpio_init(GPIO_GROUP2, GPIO_PIN7, GPIO_MODE_OUTPP); //MOTOR_EN_R
 456   1        
 457   1        //AB相电机编码器
 458   1        gpio_init(GPIO_GROUP3, GPIO_PIN2, GPIO_MODE_INOUT);//MOTOR1_PHASEA
 459   1        gpio_init(GPIO_GROUP3, GPIO_PIN3, GPIO_MODE_INOUT);//MOTOR2_PHASEA
 460   1        gpio_init(GPIO_GROUP3, GPIO_PIN4, GPIO_MODE_INOUT);//MOTOR1_PHASEB
 461   1        gpio_init(GPIO_GROUP5, GPIO_PIN0, GPIO_MODE_INOUT);//MOTOR2_PHASEB
 462   1        
 463   1        
 464   1        //LT3741 CTRL2
 465   1        gpio_init(GPIO_GROUP4, GPIO_PIN3, GPIO_MODE_INOUT);
 466   1        
 467   1      }
 468          
 469          void uart_init()
 470          {
 471   1        /*SCON  = 0x50;           // SCON: 模式 1, 8-bit UART, 使能接收  
 472   1        TMOD |= 0x20;           // TMOD: timer 1, mode 2, 8-bit 重装
 473   1        TH1   = 0xFD;           // TH1:  重装值 9600 波特率 晶振 11.0592MHz  
 474   1        TR1   = 1;              // TR1:  timer 1 打开                         
 475   1        EA    = 1;              // 打开总中断
 476   1        */
 477   1        uint16_t reload_value = (65536 - get_clk() / BRT / 4);
 478   1        
 479   1        //串口1，定时器2
 480   1        SCON = 0x50;
 481   1        T2L = reload_value; 
 482   1        T2H = reload_value >> 8; 
 483   1        AUXR = 0x15;
C51 COMPILER V9.54   MAIN                                                                  07/24/2020 14:27:54 PAGE 9   

 484   1        ES = 0; 
 485   1        EA = 1;
 486   1        
 487   1      }
 488          
 489          void uart_send_byte(unsigned char dat) //发送一个字符
 490          {
 491   1       SBUF = dat; //SBUF 串行数据缓冲器
 492   1       while(!TI);  //TI发送中断标志位 (当数据发送完毕后由硬件置 1 否则等待硬件置 1)
 493   1       TI = 0; 
 494   1      }
 495          
 496          
 497          void task_speed_control()
 498          {
 499   1        static unsigned long task_interval = 100; //任务执行间隔（毫秒）
 500   1        static unsigned long tick_reg = 0;      //记录上一次的tick值
 501   1        int16_t rate_R = 0;
 502   1        int16_t rate_L = 0;
 503   1        int32_t temp_encoder_L = 0;
 504   1        int32_t temp_encoder_R = 0;
 505   1        static int32_t encoder_counter_L_reg = 0;
 506   1        static int32_t encoder_counter_R_reg = 0;
 507   1        
 508   1        #define WIN_LEN 10
 509   1        static float rate_window_L[WIN_LEN]={0.0};
 510   1        static float rate_window_R[WIN_LEN]={0.0};
 511   1        static uint32_t index_wadd = 0;
 512   1        static uint32_t index_wget = 0;
 513   1        float window_out_L = 0.0;
 514   1        float window_out_R = 0.0;
 515   1        float filted_rate = 0.0;
 516   1        
 517   1        float speed_kp = 0.1;
 518   1        
 519   1        if(uw_tick - tick_reg >= task_interval)
 520   1          tick_reg = uw_tick; //记录上一次的值
 521   1        else
 522   1          return;
 523   1        
 524   1        //printf("encoder_counter_L: %d, ", (int16_t)encoder_counter_L);
 525   1        //printf("encoder_counter_R: %d, ", (int16_t)encoder_counter_R);
 526   1        EA = 0;
 527   1        temp_encoder_L = encoder_counter_L;
 528   1        temp_encoder_R = encoder_counter_R;
 529   1        EA = 1;
 530   1        rate_L = temp_encoder_L - encoder_counter_L_reg;
 531   1        rate_R = temp_encoder_R - encoder_counter_R_reg;
 532   1        encoder_counter_L_reg = temp_encoder_L;
 533   1        encoder_counter_R_reg = temp_encoder_R;
 534   1        
 535   1        rate_window_L[index_wadd] = rate_L;
 536   1        rate_window_R[index_wadd] = rate_R;
 537   1        if(++index_wadd >= WIN_LEN)
 538   1          index_wadd = 0;
 539   1        for(index_wget = 0; index_wget < WIN_LEN; index_wget++)
 540   1        {
 541   2          window_out_L += rate_window_L[index_wget];
 542   2          window_out_R += rate_window_R[index_wget];
 543   2        }
 544   1        window_out_L /= WIN_LEN;
 545   1        window_out_R /= WIN_LEN;
C51 COMPILER V9.54   MAIN                                                                  07/24/2020 14:27:54 PAGE 10  

 546   1        
 547   1        filted_rate = (window_out_L + window_out_R) / 2;
 548   1        
 549   1        angle_want = angle_zero + speed_kp * (speed_want - filted_rate);
 550   1        
 551   1        //printf("window_out_L:%f\r\n", window_out_L);
 552   1        //printf("window_out_R:%f\r\n", window_out_R);
 553   1      }
 554          
 555          
 556          void main()
 557          { 
 558   1        T0_interrupt_init();
 559   1        global_interrupt_enable();
 560   1        port_init();
 561   1        uart_init();
 562   1        pwm_init(PWM_GROUP5);
 563   1        pwm_init(PWM_GROUP0);
 564   1        pwm_init(PWM_GROUP4);
 565   1        adc_init(true);
 566   1        encoder_init();
 567   1        motor_init();
 568   1        drv_mpu6050_init();//若mpu器件不正常就会停在这。
 569   1        calibrate_mpu6050(&mpudata);
 570   1        set_mcp401x_data(10);//若mcp器件不正常就会停在这。
 571   1        
 572   1        
 573   1        
 574   1        
 575   1        
 576   1        
 577   1        
 578   1        
 579   1        
 580   1        while(1)
 581   1        {
 582   2          task_led();
 583   2          task_power_manage();
 584   2          task_constP_charge();
 585   2          //task_motor_test();
 586   2          //task_print_encoder();
 587   2          //task_adc_print();
 588   2          //task_print_mpudata();
 589   2          task_refresh_mpudata();
 590   2          task_speed_control();
 591   2          task_stand_control();
 592   2          
 593   2          
 594   2          task_motor_control();
 595   2        }
 596   1      }


MODULE INFORMATION:   STATIC OVERLAYABLE
   CODE SIZE        =   4067    ----
   CONSTANT SIZE    =    354    ----
   XDATA SIZE       =    289      71
   PDATA SIZE       =   ----    ----
   DATA SIZE        =   ----    ----
   IDATA SIZE       =   ----    ----
   BIT SIZE         =      2    ----
END OF MODULE INFORMATION.

C51 COMPILER V9.54   MAIN                                                                  07/24/2020 14:27:54 PAGE 11  


C51 COMPILATION COMPLETE.  1 WARNING(S),  0 ERROR(S)
