:030000000203C137
:0C03C100787FE4F6D8FD758119020290E7
:0D03B300007F067E9D7D3BDDFEDEFCDFFA57
:0103C000221A
:1002900012035012038375118F7510C2750F3175DB
:1002A0000E417515EC7514517513057512427519CB
:1002B0003375183375175E751642B2CBE4FFFE7DB9
:1002C000207C41AB11AA10A90FA80E1200FB12024C
:1002D000018E088F09E4FFFE7D207C41AB15AA1436
:1002E000A913A8121200FB1202018E0A8F0BE4FF61
:1002F000FE7D207C41AB19AA18A917A8161200FB95
:100300001202018E0C8F0D7F5B1203A87F5B12031C
:10031000A8E5081203A4AF091203A8E50A1203A472
:10032000AF0B1203A8E50C1203A4AF0D1203A81221
:1003300003B3AF11AE10AD0FAC0E7BCD7ACC79CC40
:10034000783D12000A8F118E108D0F8C0E0202BAAA
:10035000E4F594F593F592F591F596F595F5B2F5EA
:10036000B1F5B4F5B3F5CAF5C94392205391DF5303
:1003700092EF5391EF43BA8090FE11E04410F05396
:03038000BA7F221F
:10038300759A1075D7E875D6FF53B4BF53B3BF53EF
:10039300B47F53B37F43BA01758E14E4F5AFD2AF84
:0103A3002237
:0403A400FF3395E0AE
:0B03A8008F9BE59A30E1FB539AFD2289
:1000030002026DE86480F8E933E83360110460F0BC
:10001300ED33EC337009E8FCE9FDEAFEEBFF220463
:1000230060DED3EB9FEA9EE99DE8C2E78CF0C2F75E
:1000330095F0400CE8CCF8E9CDF9EACEFAEBCFFB2A
:1000430012023885D0F05804700320D5B3E8047049
:10005300075002B2D502027792D5EC0460F7E4CCE4
:10006300C0E0C398F8603B94186008400DD0E0FBF3
:1000730002024FE4FBFAC9FC8028E830E406E4C935
:10008300FBE4CAFCE830E305E4C9CACBFCE8540747
:100093006010F8C3E913F9EA13FAEB13FBEC13FC52
:1000A300D8F130F52FC3E49CFCEF9BFFEE9AFEEDF5
:1000B30099FDD0E0FBEF4E4D4C701222DB030202A0
:1000C30074EC2CFCEF33FFEE33FEED33FDED30E744
:1000D300EB02024FEF2BFFEE3AFEED39FDD0E0FBD2
:1000E30050130BBB0003020277ED13FDEE13FEEF7B
:0800F30013FFEC13FC02024FA5
:1000FB00EC4D6011E8497017ED33EC3304600DE4FF
:10010B00FCFFFEFD22E933E8330470F802026D12A6
:10011B00023858046009E4CC2481500628500902A7
:10012B000277284003020274C0E0EB4A7044B980A6
:10013B0006D0E0FB020263EF4E701CBD8008EBFFA4
:10014B00EAFEE9FD80EBE98DF0A4FEE5F00201E4A7
:10015B00E9CDF9EAFEEBFFEF89F0A4FCE5F0CE89DF
:10016B00F0A42EFFE435F0CD89F0A42DFEE435F09C
:10017B008067EF4E7005BD80D780C3EF8BF0A4ACCA
:10018B00F0EE8BF0A42CFCE435F0F8EF8AF0A42C05
:10019B00E5F038FCE433CB8DF0A42CFCE5F03BF818
:1001AB00EE8AF0A42CFCE5F038F8E433CF89F0A408
:1001BB002CFCE5F038CF3400CE89F0A42FFFE5F00E
:1001CB003EFEE433C98DF0A42EFEE5F039CD8AF066
:1001DB00A42FFFE5F03EFEE43DFD33D0E0FB5007DE
:1001EB000BBB000F020277EC2CFCEF33FFEE33FE60
:0601FB00ED33FD02024F8E
:10020100EDD2E7CD33EC3392D524814006E4FFFEF5
:10021100FDFC22FCE4CFCECDCC24E0501174FF8054
:10022100EDC3CC13CCCD13CDCE13CECF13CF0470F1
:07023100F030D5DE0202826D
:10023800E9D2E7C933E833F892D5EDD2E7CD33EC0C
:0702480033FC5002B2D52285
:10024F00EC30E7100FBF000C0EBE00080DBD000410
:10025F000BEB6014A2D5EB13FCED92E7FD2274FFBC
:10026F00FCFDFEFF22E480F8A2D574FF13FC7D8015
:03027F00E480EF29
:0E028200C3E49FFFE49EFEE49DFDE49CFC228D
:00000001FF
