:03000000022123B7
:0C212300787FE4F6D8FD75814B02216A3C
:0F27DC002825662C2025662C202566290D0A004D
:1025E900410053FC410054674C00470000000000C3
:1025F90000000000000000440055000000004400F5
:1026090031000001F44400350000000044003900A5
:0A26190000006444003D00000000D2
:1024C100900035E0F8A3E0F9A3E0FAA3E0FB900067
:1024D10055E0FCA3E0FDA3E0FEA3E0C39BFFEE9A61
:1024E100FEED99FDEC98FC900031E0F8A3E0F9A332
:1024F100E0FAA3E0FBC31206F95016900055E0FC88
:10250100A3E0FDA3E0FEA3E0FF900035120820B296
:01251100CBFE
:0125120022A6
:101F6F0090003DE0F8A3E0F9A3E0FAA3E0FB9000B6
:101F7F0055E0FCA3E0FDA3E0FEA3E0C39BFFEE9AB8
:101F8F00FEED99FDEC98FC900039E0F8A3E0F9A381
:101F9F00E0FAA3E0FBC31206F95059900055E0FC9C
:101FAF00A3E0FDA3E0FEA3E0FF90003D1208207B1D
:101FBF00FF7A2779DC900047E0FCA3E0FDA3E0FE69
:101FCF00A3E0FF90000312082090004BE0FCA3E079
:101FDF00FDA3E0FEA3E0FF90000712082090004F42
:101FEF00E0FCA3E0FDA3E0FEA3E0FF90000B1208CE
:041FFF002012119FFC
:0120030022BA
:0E27EB00900030EFF0120003900030E0FF226B
:10270E0012265F1227CB12276512279D1224C112A3
:0D271E001F6F7B017A0079471221AF80EF19
:03000B00022413B9
:10241300C0E0C0F0C083C082C0D075D000C000C08F
:1024230004C005C006C007900054E0F58A9000532D
:10243300E0F58C900055E0FCA3E0FDA3E0FEA3E0F3
:102443002401FFE43EFEE43DFDE43CFC9000551214
:102453000820D007D006D005D004D000D0D0D08239
:07246300D083D0F0D0E0327D
:10279D00900054E0F58A900053E0F58C5389F04396
:0927AD008901D2A9D2AFD28C221D
:10265F00E4F594F593F592F591F596F595F5B2F5B8
:10266F00B1F5B4F5B3F5CAF5C94392205391DF43E1
:0D267F00BA8090FE11E04410F053BA7F22A3
:1027CB0075985075D7E875D6FF758E15C2ACD2AF1C
:0127DB0022DB
:080003008F993099FDC299228A
:1008BC00FB00003E000B00360001000200030000AC
:1008CC0000650054FFEF0000FA80000B128200015B
:1008DC00000200000000000000000000000000000A
:1008EC0000280000FFFF4581FFFFFA7200000000A6
:1008FC00000003E80000000100017FFFFFFE800103
:10090C00001B0000000000000000000000000000C0
:10091C00003E03304000000002CAE3093E800000A4
:10092C0020000000000000004000000060000000FB
:10093C0041FF000000000B2A000016550000218228
:10094C00FD872650FD800000001F00000005800080
:10095C000000000000010000000200000003000085
:10096C00400000000000046F0002653200005EC011
:10097C00400000000000000000000000000000002B
:10098C00FB8C6F5DFD5D08D9007C733B006C12CC59
:10099C003200139D3200D0D632000800400001F422
:1009AC00FFE68079020000000000D0D6000027107E
:1009BC00FB000000400000000000000000000000F0
:1009CC000000000100000000000001000100000018
:1009DC000000FA36FFBC308E0005FBF0FFD95BC877
:1009EC00FFD09ABE000010A9FFF41EB200CEBBF7D8
:1009FC000000000100000004000200020200000CD4
:100A0C00FFC280000001800000CF80004000000089
:100A1C0000000001000000000000060000000014AF
:100A2C0000000000000000000000000000000000BA
:100A3C0000000000000000000000000000000000AA
:100A4C00000000000000000000000000000000009A
:100A5C0000000000033F68B6793528BCC67ED16C17
:100A6C0080000000400000000000B26A000000009E
:100A7C00000000000000000000003FF0000000300B
:100A8C00000000000000000000000000000000005A
:100A9C00000000000000000000000000000000004A
:100AAC000000254D002F706D000005AE000C02D02B
:100ABC000000000000650054FFEF00000000000083
:100ACC00000001000044000000000C0000000100C8
:100ADC00000000000065000000540000FFEF000063
:100AEC0000000000000000000000000000000000FA
:100AFC0040000000000000000000000000000000AA
:100B0C004000000000000000000000000000000099
:100B1C0000000001000000020000000000000000C6
:100B2C0000000000000000000000000000000000B9
:100B3C0000000000000000000000000000000000A9
:100B4C00001B00000000000000000000000000007E
:100B5C000000000000000000000000000000000089
:100B6C000000000000000000000000004000000039
:100B7C00001B00000000000000000000000000004E
:100B8C000000000000000000000000000000000059
:100B9C000000000000000000000000000000000049
:100BAC000000000000000000000000000000000039
:100BBC00D8DCBAA2F1DEB2B8B4A88191F74A907F22
:100BCC00916AF3F9DBA8F9B0BAA080F2CE81F3C236
:100BDC00F1C1F2C3F3CCA2B280F1C6D880BAA7DFC0
:100BEC00DFDFF2A7C3CBC5B6F087A2942448703CD4
:100BFC0095406834589B78A2F183922D557DD8B1DD
:100C0C00B4B8A1D09180F270F370F27C80A8F1019D
:100C1C00B09887D943D886C988BAA1F20EB8978004
:100C2C00F1A9DFDFDFAADFDFDFF2AAC5CDC7A90C90
:100C3C00C92C97979797F1A989264666B0B4BA80C4
:100C4C00ACDEF2CAF1B28C02A9B69800890E161E5F
:100C5C00B8A9B4992C547CB08AA896365676F1B9BA
:100C6C00AFB4B083C0B8A89711B18F98B9AFF024C6
:100C7C000844106418F1A329557DAF83B593AFF0E8
:100C8C00002850F1A3869F61A6DADEDFD9FAA3868D
:100C9C0096DB31A6D9F8DFBAA68FC2C5C7B28CC114
:100CAC00B8A2DFDFDFA3DFDFDFD8D8F1B8A8B286C8
:100CBC00B4980D355DB8AA98B0872D353DB2B6BA4B
:100CCC00AF8C96198F9FA70E161EB49AB8AA872CB4
:100CDC00547CB9A3DEDFDFA3B180F2C4CDC9F1B877
:100CEC00A9B499830D355D89B9A32D557DB593A311
:100CFC000E161EA92C547CB8B4B0F19783A811849D
:100D0C00A50998A383F0DA240844106418D8F1A537
:100D1C0029557DA58595021A2E3A565A4048F9F365
:100D2C00A3D9F8F098832408441064189782A8F18A
:100D3C0011F098A2240844106418DAF3DED883A5C5
:100D4C009401D9A302F1A2C3C5C7D8F18492A24DD4
:100D5C00DA2AD84869D92AD86855DA32D85071D9E4
:100D6C0032D8705DDA3AD85879D93AD87893A34DFD
:100D7C00DA2AD84869D92AD86855DA32D85071D9C4
:100D8C0032D8705DDA3AD85879D93AD878A88A9A94
:100D9C00F02850789EF38818F19F1D98A8D908D890
:100DAC00C89F129EF315A8DA1210D8F1AFC8978716
:100DBC0034B5B994A421F3D922D8F22DF3D92AD879
:100DCC00F235F3D932D881A4606061D961D86C68EE
:100DDC0069D969D8747071D971D8B1A384193D5D82
:100DEC00A3831A3E5E931030811011B8B0AF8F946C
:100DFC00F2DA3ED8B49AA88729DAF8D8879A35DA85
:100E0C00F8D8879A3DDAF8D8B1B9A49885022E564D
:100E1C00A581000C14A397B08AF12DD928D84DD9EF
:100E2C0048D86DD968D8B1840DDA0ED8A32983DAE5
:100E3C002C0ED8A3844983DA2C4C0ED8B8B0A88ACF
:100E4C009AF520AADADFD8A840AAD0DADED8A860B2
:100E5C00AADAD0DFD8F19786A8319B069907AB9711
:100E6C0028889BF00C201440B8B0B4A88C9CF004DB
:100E7C002851791D301438B282ABD0982C50507850
:100E8C00789BF11AB0F08A9CA82951798B29517959
:100E9C008A2470598B2058718A4469388B39406880
:100EAC008A6448318B304960A588200971584468A0
:100EBC00113964493019F1AC002C547CF08CA80425
:100ECC00285078F1889726A85998AC8C022646664B
:100EDC00F0899CA8295179247059446938644831A7
:100EEC00A98809205970AB11384069A8193148609C
:100EFC008CA83C415C207C00F187981986A86E7602
:100F0C007EA999882D557D9EB9A38A228A6E8A5610
:100F1C008A5E9FB183062646660E2E4E6E9DB8AD38
:100F2C00002C547CF2B18CB499B9A32D557D8191D0
:100F3C00AC38AD3AB58391AC2DD928D84DD948D819
:100F4C006DD968D88C9DAE29D904AED851D904AED0
:100F5C00D879D904D881F39DAD008DAE1981ADD966
:100F6C0001D8F2AEDA26D88E912983A7D9ADADADD2
:100F7C00ADF32AD8D8F1B0AC89913E5E76F3AC2EA5
:100F8C002EF1B18C5A9CAC2C2828289CAC3018A87B
:100F9C00988128343C9724A728343C9C24F2B089AF
:100FAC00AC912C4C6C8A9B2DD9D8D851D9D8D879E6
:100FBC00D9D8D8F19E88A331DAD8D8912DD928D890
:100FCC004DD948D86DD968D8B18393353D8025DA91
:100FDC00D8D88569DAD8D8B49381A328343CF3AB3C
:100FEC008BF8A391B609B4D9ABDEFAB0879CB9A340
:100FFC00DDF1A3A3A3A395F1A3A3A39DF1A3A3A3A5
:10100C00A3F2A3B49080F2A3A3A3A3A3A3A3A3A32B
:10101C00A3B2A3A3A3A3A3A3B087B599F1A3A3A33E
:10102C0098F1A3A3A3A397A3A3A3A3F39BA3A3DCCC
:10103C00B9A7F1262626D8D8FF037B034CCD6C0329
:10104C00AB0336567600680402CB47A202180400A4
:10105C00058BC1010C0400000000037F060CC92C99
:10106C00979797038903264666006C02200002407E
:10107C0004000000000244040000000002480400C8
:10108C00000000024C0400000000025004000000AC
:10109C00000254040000000002580400000000028A
:1010AC005C040000000002BC040000000001EC0421
:1010BC0000004000037F060CC92C9797970402038D
:1010CC000D355D040904872D353D00A3010000009A
:1010DC000001078601FE074105F120283038077E04
:1010EC0001300746019A074704F1283038076C0491
:1010FC00F1283038021602000101B202FFFF019004
:10110C00040923A135016A020600016008000000F1
:10111C0000000000000060044000000001620200BA
:08112C00000060040040000017
:03280F00DFFE22C7
:1027B600AE07AF061EEF600C7FF512280F7FF512ED
:0527C600280F80EE2247
:10272B00D294D29500000000C2940000000000007B
:0D273B0000000000000000000000C2952218
:10278200C294D2950000000000000000000000008A
:0B27920000000000D2940000000022B4
:10246A007F6D1226B990000AE0FD7F6E1226B9121E
:09247A00272B7FD01224837F6F11
:10248300E4FEEF25E0FF9294D295000000000000E7
:1024930000000000000000000000C2950EEEB4082A
:1024A300E1D294D29500000000000000000000007B
:0D24B3000000000000A2949209C295D2948E
:0124C00022F9
:10251300E4FFFEEE25E0FED295000000000000007F
:10252300000000000000000000A294E4334EFEC24D
:1025330095000000000FEFB408D9A2009294D29541
:102543000000000000000000000000000000000088
:0A255300C295D29400000000AF060C
:01255D00225B
:1026B900AC0712272B7FD01224833009037F002215
:1026C900AF041224833009037F0022AF051224834B
:0C26D9003009037F00221227827F0122BB
:0827F9007A0079027B017F3AAE
:062801007D0112232D22CF
:0D232D00900019EBF0A3EAF0A3E9F0AC0773
:10233A001D12272B7FD01224833009037F0022AF7E
:10234A00041224833009037F002212272B7FD11223
:10235A0024833009037F0022E4FCECC39D501CC295
:10236A0000122513900019E0FBA3E0FAA3E0F98C10
:10237A0082758300EF1206040C80DFD20012251347
:10238A00900019E0FBA3E0FAA3E0F9AE058E82758E
:0B239A008300EF1206041227827F016F
:0123A5002215
:0622B2007D027B017F6A42
:0D22B800900016EDF0A3EBF0900015EFF094
:1022C5007B017A007918122801EF6059900017E018
:1022D5006020900016E0FF74017E00A807088005C5
:1022E500C333CE33CED8F9FF900018E0FDEF4DFF94
:1022F5008021900016E0FF74017E00A80708800584
:10230500C333CE33CED8F9F4FF900018E0FDE4FED8
:10231500EF5DFF900018EFF0900015E0FF900018BA
:07232500E0FD0226B97F0074
:01232C00228E
:07209400F07B027D047F1BBD
:0D209B00900009EDF0A3EBF0900008EFF0CD
:1020A800E490000DF07B017A00790C122801EF60B2
:1020B8006790000AE0FD74017E00A805088005C34A
:1020C80033CE33CED8F924FFFFEE34FFFE9000095B
:1020D800E0C39D04FDEFA805088005C333CE33CEC9
:1020E800D8F9FF90000DF090000BE0FEA8050880DD
:1020F80002C333D8FC90000BF05FFEF0A3E0FDEFC5
:10210800F4FFED5FF0E04EF0900008E0FF90000C67
:0A211800E0FD1226B97F01227F00CE
:01212200229A
:0E255E00900008EDF0A3EBF0A3EAF0A3E9F083
:10256C007B017A00790C122801EF6029900008E0B9
:10257C00FF7401A807088002C333D8FCFF90000C3D
:10258C00E05FFF900009E0FBA3E0FAA3E0F9EF1293
:07259C0005F27F01227F0020
:0125A3002215
:042233007B067D06A3
:08223700900009EDF0A3EBF0AB
:10223F00E490000FF07B017A00790E122801EF6015
:10224F005F90000AE0FD74017E00A805088005C3B9
:10225F0033CE33CED8F924FFFFEE34FFFE900009C2
:10226F00E0C39D04FDEFA805088005C333CE33CE30
:10227F00D8F9FF90000FF090000EE05FF0E0FFA89C
:10228F0005088002C313D8FC90000EF0E0FF900009
:10229F000BE0FBA3E0FAA3E0F9EF1205F27F0122B6
:0222AF007F00AE
:0122B100220A
:10200400E4900008F0A3F0FAA3F0EAB407047B0814
:1020140080027B10E4F9E9C39B503BAD0212246AB1
:10202400E4FD900008E475F001120626FE74BC2558
:10203400F0F58274083EF583E493FF12248330099B
:10204400037F00220DEDB410D990000AE02410F0B3
:102054001227820980C00AEA640870AE7D07122440
:102064006AE4FB900008E475F001120626FE74BCD5
:1020740025F0F58274083EF583E493FF122483303F
:0F20840009037F00220BEBB409D91227827F01D9
:01209300222A
:1023A600E4FBFAAF030BEF90104593FFAE030BEE81
:1023B60093900008F0AE030BEE90104593F9AD072D
:1023C6007F6D1226B9900008122472E4FDEDC399C0
:1023D6005015AF030BEF90104593FF12248330097D
:1023E600037F00220D80E6E97017AF030BEF901014
:1023F6004593B401097D327F381226B980037F00E8
:0C240600220AEA641E709C1227827F01EB
:0124120022A7
:0225A400AB0783
:1025A6000BEF90110593FFAE030BEE93F9AE030B01
:1025B600EE93FAAD077F6D1226B9AF01AD0712246F
:1025C60074E4FDEDC39A5015AF030BEF901105931C
:1025D600FF1224833009037F00220D80E612278232
:0225E6007F0074
:0125E80022D0
:102748007B017A0079157D027F7212232D90001586
:0C275800E0FEA3E07C002400FFEC3EFE4D
:012764002252
:082807007D2A7F7412232D22AB
:101883007B017D077F6B1222B87F1E1227B6E4FB14
:101893007D067F6B1222B87D707F6D1226B97D069F
:1018A3007F6E1226B97B017A0079007F6F122801BF
:1018B300E4FD7F6D1226B97B017A007901E4FF1202
:1018C300255E90000B7401F0A37400F0A37403F081
:1018D3007B067D06E4FF12223790000B7401F0A310
:1018E3007400F0A37404F07F0112223390000B7490
:1018F30001F0A37400F0A37405F07F021222337D7C
:101903007F7F251226B9E4FB7D057F6A1222B87D0D
:10191300687F251226B97D011222B47F141227B6DF
:10192300122004EF7002FF221223A6EF7002FF229F
:1019330090000B7403F0FB7D027F6B12209B7D12E2
:101943007F381226B97D047F191226B990000B74D3
:1019530001F07B030D7F1A12209B90000B7403F0A0
:10196300FB7D027F1A12209B90000B7403122094BC
:101973007D037F701226B9E4FD7F711226B9E4FB63
:10198300FF1222B8900003E090000BF07B067D0667
:10199300E4FF12209B900004E090000BF07B067D97
:1019A300067F0112209B900005E090000BF07B0660
:1019B3007D067F0212209BE4FF1225A47F051225DA
:1019C300A41222B2122748900006EEF0A3EFF01201
:1019D30022B27D027F1F1226B97D9C7F211226B978
:1019E3007D507F201226B9E4FD7F221226B91222F0
:1019F300B27B017D067F6A1222B87B017D077F6A75
:101A03001222B87B017D037F6A1222B87F0C122554
:101A1300A47F111225A47F1C1225A412274890002D
:101A230006EEF0A3EFF0C39403EE940040ED122210
:101A3300B21227F97F231225A4122748900006EE3D
:101A4300F0A3EFF0C39403EE940040ED1222B21220
:101A530027F97F281225A4E4FB7D077F6A1222B8A9
:081A63001222B21227F97F01E3
:011A6B002258
:10268C0090000B7401F07B037D027F6B12209BE4A6
:10269C0090000B122094E490000BF07B027D047FE1
:0D26AC001C12209B7B017D067F6B0222B873
:1026E500E4900000F090000B04F0A37400F0A374D4
:1026F50000F07B067D067F75122237900000E0B45E
:0827050034047F0180027F0013
:01270D0022A9
:0B1A6C00900024EBF0A3EAF0A3E9F0E7
:101A7700A3E0FBA3E0FAA3E0F99000011205C5FD7E
:101A87007C001205ACFEE42DFFEC3EF9900024E04B
:101A9700FBA3E0FAA3E0C98FF012069F900027E0AE
:101AA700FBA3E0FAA3E0F99000041205C5FE90003D
:101AB700051205C52400FFEC3EFE900024E0FBA3C1
:101AC700E0FAA3E0F9900002EE8FF01206BE900054
:101AD70027E0FBA3E0FAA3E0F99000081205C5FE92
:101AE7009000091205C52400FFEC3EFE900024E09B
:101AF700FBA3E0FAA3E0F9900004EE8FF01206BE14
:101B0700900027E0FBA3E0FAA3E0F990000C120590
:101B1700C5FE90000D1205C52400FFEC3EFE9000A7
:101B270024E0FBA3E0FAA3E0F9900006EE8FF012A1
:101B370006BEE490002AF0A3F090002AE0FEA3E09E
:101B4700FFC39404EE648094804003021C28EF25B1
:101B5700E0FFEE33FE900024E0FBA3E0FAA3E0F9F8
:101B67008F828E83120667FFAEF0EE20E703021C1A
:101B770017EF7003EE648090002B6073E025E0FFA1
:101B870090002AE033FE8F82F583120667FD9000EE
:101B97002CE5F0F0A3EDF08F828E8374FFF5F01241
:101BA70006BE90002BE025E0FF90002AE0338F82ED
:101BB700F583120667F4FDE5F0F4FC90002BE025B1
:101BC700E0FF90002AE033FE8F82F583EC8DF01260
:101BD70006BEE92FF9EA3EFA12063CFF90002CE018
:101BE70045F0FEA3E04FFFEE8FF012069F8021E045
:101BF70025E0FF90002AE033FE900024E0FBA3E0FD
:101C0700FAA3E0F98F828E83748075F0001206BE06
:101C170090002BE004F0700690002AE004F0021B0D
:051C2700407E007F017A
:011C2C002295
:0B1D4F00900015EBF0A3EAF0A3E9F010
:101D5A00A3E0F9A3E0FAA3E0900027C9F0A3EAF010
:101D6A00A3E9F07B017A00791B121A6C900023EF29
:101D7A00F07003021E1E90001BE0FCA3E0FDEC12B3
:101D8A0002B1E4FBFA7980784612020F900015E05E
:101D9A00FBA3E0FAA3E0F912075A90001DE0FCA3A6
:101DAA00E0FDEC1202B1E4FBFA7980784612020FE8
:101DBA00900015E0FBA3E0FAA3E0F99000041207F3
:101DCA007490001FE0FCA3E0FDEC1202B1E4FBFA00
:101DDA007980784612020F900015E0FBA3E0FAA37F
:101DEA00E0F9900008120774900021E0FCA3E0FDDE
:101DFA00EC1202B1E4FBFA7980784612020F9000E5
:101E0A0015E0FBA3E0FAA3E0F990000C1207747E38
:0B1E1A00007F0122900023E0FF7E000B
:011E2500229A
:1015B700900015EBF0A3EAF0A3E9F0A3E0FBA3E0AA
:1015C700FAA3E0F990000C12072A9000081207F01E
:1015D700120106C004C005C006C007900018E0FB52
:1015E700A3E0FAA3E0F990000412072A1207D01229
:1015F7000106D003D002D001D000120015E4FBFA97
:10160700F97840120106C004C005C006C007900063
:1016170018E0FBA3E0FAA3E0F990000412072A9070
:1016270000041207F0120106C004C005C006C00777
:10163700900018E0FBA3E0FAA3E0F912070A1207EB
:10164700D0120106D003D002D001D000120011C081
:1016570004C005C006C007900018E0FBA3E0FAA38A
:10166700E0F990000812072A9000081207F012010B
:1016770006A804A905AA06AB07D007D006D005D04F
:1016870004120011C004C005C006C007900018E08E
:10169700FBA3E0FAA3E0F990000C12072A90000CD4
:1016A7001207F0120106D003D002D001D0001200B9
:1016B7001590001F120820D007D006D005D00412BD
:1016C7001ED27B337A337965784212010690001572
:1016D700E0FBA3E0FAA3E0F912075A900018E0FB39
:1016E700A3E0FAA3E0F990000C12072A9000041275
:1016F70007F0120106C004C005C006C00790001815
:10170700E0FBA3E0FAA3E0F990000812072A12070A
:10171700D0120106A804A905AA06AB07D007D00670
:10172700D005D004120011E4FBFAF978C0120106C3
:101737001226247B337A33796578421201069000AA
:1017470015E0FBA3E0FAA3E0F990000412077490F8
:101757000018E0FBA3E0FAA3E0F990000812072ABB
:101767009000041207F0120106C004C005C006C0AD
:1017770007900018E0FBA3E0FAA3E0F990000C1231
:10178700072A1207D0120106D003D002D001D000D9
:10179700120015E4FBFAF97840120106C004C005EF
:1017A700C006C007900018E0FBA3E0FAA3E0F99099
:1017B700000412072A9000041207F0120106C00461
:1017C700C005C006C007900018E0FBA3E0FAA3E03D
:1017D700F912070A1207D0120106D003D002D0016E
:1017E700D000120015C004C005C006C0079000183D
:1017F700E0FBA3E0FAA3E0F990000812072A9000A3
:10180700081207F0120106A804A905AA06AB07D01B
:1018170007D006D005D004120011C004C005C006C9
:10182700C007900018E0FBA3E0FAA3E0F990000CD2
:1018370012072A90000C1207F0120106A804A90546
:10184700AA06AB07D007D006D005D0041200119026
:10185700001F120820D007D006D005D004121ED2D0
:101867007B337A3379657842120106900015E0FBE5
:0C187700A3E0FAA3E0F990000802077457
:1027650012268C1226E5EF6008121883EF7002809E
:0D277500FE1222B27B017D077F6A0222B8AE
:0B21AF00900000EBF0A3EAF0A3E9F0C1
:1021BA00122748900014EFF07A0079131227FD9045
:1021CA000013E020E409A3E0B40009E4B404051212
:1021DA0022B28023900013E030E11C900014E0C387
:1021EA00942A500A122748900014EFF080ED7B00E1
:1021FA007A007922122807900018E4F0A37400F0FC
:10220A00A37422F07B017A007903121D4F90001803
:10221A007401F0A37400F0A37403F0900000E0FBD3
:09222A00A3E0FAA3E0F90215B7E4
:10000E0002031FE86480F8E933E83360110460F0FE
:10001E00ED33EC337009E8FCE9FDEAFEEBFF220458
:10002E0060DED3EB9FEA9EE99DE8C2E78CF0C2F753
:10003E0095F0400CE8CCF8E9CDF9EACEFAEBCFFB1F
:10004E001202EA85D0F05804700320D5B3E804708C
:10005E00075002B2D502032992D5EC0460F7E4CC26
:10006E00C0E0C398F8603B94186008400DD0E0FBE8
:10007E00020301E4FBFAC9FC8028E830E406E4C977
:10008E00FBE4CAFCE830E305E4C9CACBFCE854073C
:10009E006010F8C3E913F9EA13FAEB13FBEC13FC47
:1000AE00D8F130F52FC3E49CFCEF9BFFEE9AFEEDEA
:1000BE0099FDD0E0FBEF4E4D4C701222DB03020394
:1000CE0026EC2CFCEF33FFEE33FEED33FDED30E787
:1000DE00EB020301EF2BFFEE3AFEED39FDD0E0FB14
:1000EE0050130BBB0003020329ED13FDEE13FEEFBD
:0800FE0013FFEC13FC020301E7
:10010600EC4D6011E8497017ED33EC3304600DE4F3
:10011600FCFFFEFD22E933E8330470F802031F12E8
:1001260002EA58046009E4CC2481500628500902EA
:100136000329284003020326C0E0EB4A7044B98035
:1001460006D0E0FB020315EF4E701CBD8008EBFFE6
:10015600EAFEE9FD80EBE98DF0A4FEE5F00201EF91
:10016600E9CDF9EAFEEBFFEF89F0A4FCE5F0CE89D4
:10017600F0A42EFFE435F0CD89F0A42DFEE435F091
:100186008067EF4E7005BD80D780C3EF8BF0A4ACBF
:10019600F0EE8BF0A42CFCE435F0F8EF8AF0A42CFA
:1001A600E5F038FCE433CB8DF0A42CFCE5F03BF80D
:1001B600EE8AF0A42CFCE5F038F8E433CF89F0A4FD
:1001C6002CFCE5F038CF3400CE89F0A42FFFE5F003
:1001D6003EFEE433C98DF0A42EFEE5F039CD8AF05B
:1001E600A42FFFE5F03EFEE43DFD33D0E0FB5007D3
:1001F6000BBB000F020329EC2CFCEF33FFEE33FEA2
:06020600ED33FD020301CF
:10020C00020329EC5D046005E85904700302031F26
:10021C001202EA580460F6EC4860F2EC7004FDFE41
:10022C00FF22C860DB2481C85009C39860025006C5
:10023C000203269850CAF582E9294B4A7005AB8215
:10024C0002031575F0007C1A7880C3EF9BEE9AEDD3
:10025C0099400DC3EF9BFFEE9AFEED99FDE842F03D
:10026C00DC23ACF0D0E0FFD0E0FED0E0FDAB822090
:10027C00E7101BEB60BAEC2CFCEF33FFEE33FEED1A
:10028C0033FD020301E803F830E705C0F075F00018
:10029C00EF2FFFEE33FEED33FD40B830E7C280AAFE
:1002AC0075F020800E75F010800575F0087D007ECD
:1002BC00007F003392D530D5031206EBEC3340109F
:1002CC00EF33FFEE33FEED33FDEC33FCD5F0ED22D6
:0E02DC00E5F0247EA2D513CC92E7CDCEFF2212
:10113400E5082403F582E43400F583E005082290F1
:101144000000300703900003E475F00112082C023C
:1011540005AC2000E97F2ED2008018EF540F2490B4
:10116400D43440D4FF30040BEF24BFB41A0050032E
:101174002461FFE50960021509050CE50C70020500
:101184000B30070E900000E475F00112082CEF02FA
:1011940005F20227EB7403D2078003E4C207F508C3
:1011A400900000120843E4F509F50BF50CE509601D
:1011B400077F2012117780F5750AFFC201C200C2B1
:1011C40002C203C205C206C208121143FF700D30E9
:1011D40007057F00121188AF0CAE0B22B4255FC245
:1011E400D5C204121143FF24D0B40A00501A75F07A
:1011F4000A780930D50508B6FF0106C6A426F620EC
:10120400D5047002D20380D924CFB41A00EF50045D
:10121400C2E5D20402147AD20180C6D20080C0D2C0
:101224000280BCD2D580BAD20580B47F2012117757
:101234002002077401B5090040F1121134FF1211A4
:10124400770211B1D208D2068095121134FB121123
:1012540034FA121134F94A4B700679787A157BFF07
:1012640020022EE509602A7E008E82758300120515
:10127400C560060EEE650A70F0C2D5EBC0E0EAC0A8
:10128400E0E9C0E0EE1214DBD0E0F9D0E0FAD0E0FF
:10129400FB1205ACFF60AAEBC0E0EAC0E0E9C0E0E5
:1012A400121177D0E02401F9D0E03400FAD0E0FB49
:1012B400E50A0460DCD50AD98087D20280A2121420
:1012C400BD60F7E50A7001041203ADA90A600DE5DB
:1012D4000A600914F50A121565EF60F3EA30E702B3
:1012E400F404C3995079EAF4250A0430E701E404CC
:1012F400F50A800D1214BD60C1EA050A250A12031D
:10130400ADEA90002FF030E701E4250A04D50A0481
:10131400200501141214DBE4C0E012156590002FBF
:10132400E0601320E70714F012115F802204F0D06C
:10133400E014C0E07F0012115FE50A600712115645
:10134400150A800B300503121156D0E00211B1D0FA
:10135400E00480C41214BD609EE50A041203AD903B
:10136400002FEAF0E50A20050260010424041214A7
:01137400DB9D
:1013750074FF04C0E012156512115FE50A2005022D
:101385006003121156D0E0B50AE87F451211699045
:10139500002FE07F2B30E7047F2DF404C0E012110D
:1013A50077D0E075F00A84C0F0121160D0E0121118
:1013B500600211B1791080027908C206C20880085E
:1013C500D2D5790A8004790AC2D5E50A047002F5F6
:1013D5000AE4FAFDFEFF121134FC7B08200113120A
:1013E5001134FD7B1030000A121134FE121134FF46
:1013F5007B20EC3382D592D55013C3E43000069F91
:10140500FFE49EFEE42001039DFDE49CFCE4CBF893
:10141500C201EC700CCFCECDCCE824F8F870F38087
:1014250017C3EF33FFEE33FEED33FDEC33FCEB3347
:10143500FB994002FB0FD8E9EB300105F8D0E0C479
:1014450048B201C0E00AEC4D4E4F78207B0070C2D7
:10145500EAB50A0040BCC0E01214DDD0F0D0E020AF
:101465000104C4C0E0C4B201C0F0121160D0F0D5CF
:10147500F0EB0211B112084C124E5313B958121F5A
:101485004C121B4213BD4F13C54413C549123443B7
:1014950013CB5512F84613584512C24715985012EA
:1014A500232D12272E124A2B122B23124820158189
:1014B5002A11E34800001242E50AB4FF03750A0643
:1014C500121134FC121134FD121134FE121134FFC5
:1014D5009000280203EA790AA2D5200314300509F1
:1014E500B910020404B9080104A2D520060250016E
:1014F500042002689202B509005034C0E07F203014
:1015050003197F30A20272067205500F121534C2FC
:1015150002C206C205C2087F30800F300503E9C04C
:10152500E0121177300503D0E0F9D0E0B509CC30F1
:1015350005177F30B9100C1211777F583004077FDB
:10154500788003B908031211773002057F2D021147
:10155500777F202008F87F2B2006F322920280CF88
:101565007F00B40700500B2428F582E43400F5838E
:10157500E0FF22286E756C6C2900D20112113430FF
:1015850001F8C201780930D50108F60211E32D50A2
:101595004349581211342403B405004001E4901561
:1015A5009393121168743A121168D20375090402F3
:0215B50013B968
:101ED20090001B12082090001FE0F8A3E0F9A3E095
:101EE200FAA3E0FB90001BE0FCA3E0FDA3E0FEA34D
:101EF200E0FF12020F121C4D90001B1208209000EE
:101F02001FE030E75990001BE0FCA3E0FDA3E0FED8
:101F1200A3E0FFECC0E0EDC0E0EEC0E0EFC0E0E423
:101F2200FFFEFDFC90001BE0F8A3E0F9A3E0FAA39A
:101F3200E0FB1203347BDB600250087A0F794978A8
:101F42004080067A0F794978C0D0E0FFD0E0FED019
:101F5200E0FDD0E0FC12001590001B12082090005A
:0D1F62001BE0FCA3E0FDA3E0FEA3E0FF22D6
:10262400ECC0E0F8EDC0E0F9EEC0E0FAEFC0E0FB8A
:10263400120106EC6480FC7B007A007980783F12FA
:102644000015121E2AD0E0CFFBD0E0CEFAD0E0CDA8
:0B265400F9D0E0CCF812020F021C4D80
:1002EA00E9D2E7C933E833F892D5EDD2E7CD33EC5A
:0702FA0033FC5002B2D522D3
:10030100EC30E7100FBF000C0EBE00080DBD00045D
:100311000BEB6014A2D5EB13FCED92E7FD2274FF09
:10032100FCFDFEFF22E480F8A2D574FF13FC7D8062
:03033100E480EF76
:1003340074F8CC6480CCC86480C8F58204604FC370
:10034400EB9FF5F0EA9E42F0E99D42F0E89C45F00F
:10035400603C501DE5825FFFE582D313CB5BCBF499
:100364002B5582FB50280ABA002409B900200880C2
:100374001DE5825BFBE582D313CF5FCFF4C3132F5C
:100384005582FF50090EBE00050DBD00010CC3EBE4
:100394009FF5F0EA9E42F0E99D42F0E89C45F0604A
:0903A40007CC4820E701B3EC226C
:1003AD00F920E73624F950037907E4F42402FBE53C
:1003BD0082158270021583DBF6E024FB501BE96089
:1003CD0014E4F0E582158270021583E004F0B40A9E
:0D03DD0008E4F0D9EE7401F00A22C2D52226
:1003EA00ED33EC3392D5FA602AB4FF33EDC2E77BE2
:1003FA00FF60067A04790FE4227A04791820D5047A
:10040A007A047913224E614E002B494E46002D493B
:10041A004E4600E47A08F0A3DAFC7B00740722C097
:10042A0083C082ECC0E0EDC0E0EEC0E0EFC0E0EADD
:10043A0075F010A4CAABF075F04DA42BFBE435F0AF
:10044A00FCEA2410FAEB34C5FBEC34D9FCEDC2E724
:10045A00FF75F056A4F42411C5F0F434C58FF0A446
:10046A002AE5F03BE43CF020E71412051FD0E0FF38
:10047A00D0E0FED0E0FDD0E0FC12020F8014F404BC
:10048A0012051FD0E0FFD0E0FED0E0FDD0E0FC1264
:10049A000106D082D083E0FAEDD2E7CD33EC3324E3
:1004AA0082FBE4C3CF33CFCE33CECD33CD33DBF3B0
:1004BA007B0775F00A846004F0A31B0AE5F0F0A339
:1004CA008FF0740AA4FFACF08EF0740AA42CFEAC70
:1004DA00F050010C8DF0740AA42CFDE435F0F0A361
:0504EA00DBDE740722B7
:101E260002031F22EDA2E7D2E7F9EC3340F260F39A
:101E3600B4FF08ED547F70E8020329F82481C2E05C
:101E4600C0E0F40428FAC313FCED92E7FD90001BF2
:101E5600120820EEA2E7E9BA7F02C3133400940009
:101E6600FA75F091A4E5F013F494FE8AF0A433E534
:101E7600F033248CD313FDE492E7FE7F007C3F759C
:101E86008302ECC0E0F8EDC0E0F9EEC0E0FAEFC086
:101E9600E0FB8583F090001B12079885F083120201
:101EA6000FD0E0FBD0E0FAD0E0F9D0E0F812001550
:101EB600ED6480FD30E7011CD583C7ED33CC33F8E4
:0C1EC600D0E0A2E71328C313CC13FD22C8
:101C2D00BE1249253E4CCCCDBEAAAAAB3F800000CA
:101C3D003E7ADBB03EED63383F24BC7D3F490FDB80
:101C4D00ED33ECC2E7CC339200B4FF13ED547F605B
:101C5D000302031F7FDB7E0F7DC97C3F021D42C245
:101C6D0001C3947F401E7007EDD2E794904015EFAD
:101C7D00FBEEFAEDF9ECF87F007E007D807C3F12E3
:101C8D00020FD201ED33EC33248430E705E4C0E0DC
:101C9D00806B04FAEDD2E754F0C333DAFD54073408
:101CAD00002323C0E0CCC0E0F8EDC0E0F9EEC0E0C9
:101CBD00FAEFC0E0FBE41202B6EC24FEFC90002328
:101CCD001208201201067B007A007980783F1200FD
:101CDD0015900023E0B2E7CCF0A3E0CDF0A3E0CE69
:101CED00F0A3E0CFF0D0E0FBD0E0FAD0E0F9D0E007
:101CFD00F81200159000231207B412020F90002362
:101D0D00120820901C2D740312055F9000231207FA
:101D1D00B4120106D0E0600F2439F582E4341CF5CD
:101D2D00831207C012001530010B7BDB7A0F79C9C6
:101D3D0078BF120015ED33EC336006ECA20092E78C
:021D4D00FC2276
:1004EF003F8000004120000042C80000447A000015
:1004FF00461C400047C35000497424004B18968097
:10050F004CBEBC205A0E1BCA6753C21C749DC5AE8D
:10051F00FB60065407601C232312054DEB54386013
:10052F0009120539120548120106ECF8EDF9EEFA39
:10053F00EFCB22EB12054880F1543803241C9004B2
:10054F00EFFE93FC0EEE93FD0EEE930ECE93FF2275
:10055F00C0E0EFFBEEFAEDF9ECF8120106D0E0F592
:10056F00F0EFFBEEFAEDF9ECF81207A4A3A3A3A3A7
:10057F00E8C0E0E9C0E0EAC0E0EBC0E0C0F0120183
:10058F00061207C0A3A3A3A3120015D0F0D0E0FB5F
:0D059F00D0E0FAD0E0F9D0E0F8D5F0D42299
:10212F0002270EE493A3F8E493A34003F68001F291
:10213F0008DFF48029E493A3F85407240CC8C333B1
:10214F00C4540F4420C8834004F456800146F6DF80
:10215F00E4800B01020408102040809025E9E47E02
:10216F00019360BCA3FF543F30E509541FFEE49375
:10217F00A360010ECF54C025E060A840B8E493A33C
:10218F00FAE493A3F8E493A3C8C582C8CAC583CA67
:10219F00F0A3C8C582C8CAC583CADFE9DEE780BE1F
:0126230000B6
:1005AC00BB010689828A83E0225002E722BBFE024D
:0905BC00E32289828A83E4932280
:1005C500BB010CE58229F582E5833AF583E02250EB
:1005D50006E92582F8E622BBFE06E92582F8E22235
:0D05E500E58229F582E5833AF583E493224F
:1005F200BB010689828A83F0225002F722BBFE01E8
:02060200F322E1
:10060400F8BB010DE58229F582E5833AF583E8F02C
:10061400225006E92582C8F622BBFE05E92582C8D8
:02062400F222C0
:10062600A3F8E0C5F025F0F0E58215827002158387
:06063600E0C838F0E822E4
:10063C00BB010A89828A83E0F5F0A3E02250068789
:10064C00F009E71922BBFE07E3F5F009E31922894B
:0B065C00828A83E493F5F0740193227E
:10066700BB0110E58229F582E5833AF583E0F5F0D1
:10067700A3E0225009E92582F886F008E622BBFEAE
:100687000AE92582F8E2F5F008E222E5832AF583F4
:08069700E993F5F0A3E99322B9
:10069F00BB010A89828A83F0E5F0A3F0225006F7A6
:0F06AF0009A7F01922BBFE06F3E5F009F31922A3
:1006BE00F8BB0111E58229F582E5833AF583E8F06E
:1006CE00E5F0A3F0225009E92582C8F608A6F0222B
:0D06DE00BBFE09E92582C8F2E5F008F22212
:0E06EB00C3E49FFFE49EFEE49DFDE49CFC2220
:1006F900EB9FF5F0EA9E42F0E99D42F0E89C45F057
:0107090022CD
:10070A00BB010789828A830207985005E9F8020823
:10071A0072BBFE05E9F802087E89828A830207A471
:10072A00BB010DE58229F582E5833AF58302079834
:10073A005007E92582F8020872BBFE07E92582F80C
:10074A0002087EE58229F582E5833AF5830207A449
:10075A00BB010789828A830208205005E9F802084A
:0A076A00A4BBFE05E9F80208B02266
:10077400BB010DE58229F582E5833AF58302082061
:100784005007E92582F80208A4BBFE07E92582F890
:040794000208B02285
:0C079800E0FCA3E0FDA3E0FEA3E0FF22D4
:1007A400E493FC740193FD740293FE740393FF229B
:0C07B400E0F8A3E0F9A3E0FAA3E0FB22C8
:1007C000E493F8740193F9740293FA740393FB228F
:1007D000BB010789828A830207B45005E9F8020841
:1007E0008ABBFE05E9F802089789828A830207C05E
:1007F000BB010DE58229F582E5833AF5830207B452
:100800005007E92582F802088ABBFE07E92582F82D
:10081000020897E58229F582E5833AF5830207C04D
:0C082000ECF0A3EDF0A3EEF0A3EFF0224B
:10082C00F8E0FBA3A3E0F925F0F0E5821582700255
:07083C001583E0FA38F022F9
:09084300EBF0A3EAF0A3E9F022B6
:10084C00D083D082F8E4937012740193700DA3A33B
:10085C0093F8740193F5828883E47374029368604F
:06086C00EFA3A3A380DF4F
:0C087200E6FC08E6FD08E6FE08E6FF22B2
:0C087E00E2FC08E2FD08E2FE08E2FF22B6
:0D088A00E6FB08E6F908E6FA08E6CBF822DE
:0D089700E2FB08E2F908E2FA08E2CBF822E1
:0C08A400ECF608EDF608EEF608EFF62280
:0C08B000ECF208EDF208EEF208EFF22284
:00000001FF
