:101591006368617267696E675F70657273656E74A7
:1015A1003A25640D0A006368617267696E675F704E
:1015B100657273656E743A2531660D0A000D0A3D38
:1015C1003D3D3D3D3D3D3D3D3D3D7374617274206A
:1015D1006368617267696E6720766F6C74616765B5
:1015E1003A2025336656203D3D3D3D3D3D3D3D3D47
:1015F1003D3D0D0A000D0A3D3D3D3D3D3D3D3D3D1D
:101601003D3D656E64206368617267696E6720762F
:101611006F6C746167653A2025336656203D3D3D08
:101621003D3D3D3D3D3D3D3D0D0A003D3D3D3D3D89
:101631003D3D3D3D3D3D74696D6520656C61707357
:1016410065643A20256653203D3D3D3D3D3D3D3D90
:101651003D3D3D0D0A0073757065726361705F7683
:101661006F6C743A2533662C2073757065726361F3
:10167100705F616D705F77616E743A2533662C20FF
:101681006D6370646174613A25640D0A006E6F7751
:10169100206368617267696E673A20256420252599
:1016A100200D0A00456C65634D61676E6574696361
:1016B1005F313A256620562C20456C65634D616784
:1016C1006E657469635F323A256620562C20456C3D
:1016D10065634D61676E657469635F333A256620A2
:1016E100562C20456C65634D61676E657469635F57
:1016F100343A256620562C200D0A00656E636F640E
:1017010065725F636F756E7465723A2025640D0AA8
:0117110000D7
:101CEE0044003D00000000440039000000004200A6
:101CFE0037000044003300000000440000000001E3
:101D0E00F4440004000000004400080000000144F8
:101D1E00000C00000000C10DC10E42001000004278
:101D2E00001203E8410014004400150000000044B6
:101D3E00001900000BB844001D00000000420021F5
:101D4E000000440023000003E844002700000000C8
:0E1D5E0044002B0000006444002F0000000031
:10183800900004E0F8A3E0F9A3E0FAA3E0FB90002D
:101848003DE0FCA3E0FDA3E0FEA3E0C39BFFEE9A0E
:10185800FEED99FDEC98FC900000E0F8A3E0F9A3F8
:10186800E0FAA3E0FBC312078F400302195390006C
:101878003DE0FCA3E0FDA3E0FEA3E0FF900004121E
:1018880007B37BFF7A157991900037E0FFA3E090CA
:101898000044CFF0A3EFF0120EB6E4FBFA794078DB
:1018A80041900033E0FCA3E0FDA3E0FEA3E0FF12BB
:1018B80002479000441207B37BFF7A1579A7120EEE
:1018C800B6D3900038E0945A900037E06480948052
:1018D8004006E4F0A37464F0C3900038E0940190EB
:1018E8000037E0648094805004E4F0A3F090004353
:1018F8001207BF000003E8900037E0FEA3E0FFC333
:1019080074649FFFE49EFE3395E0FDFC900047124F
:1019180007B3E490004BF0A3F07D05FF1208369062
:1019280000431207BF000003E8900037E0FEA3E081
:10193800FFEE3395E0FDFC9000471207B3E49000FA
:0B1948004BF0A3F07D037F0512083672
:011953002271
:1012CE009000721207BF41A000009000761207BF77
:1012DE000000000090000CE0F8A3E0F9A3E0FAA3F0
:1012EE00E0FB90003DE0FCA3E0FDA3E0FEA3E0C325
:1012FE009BFFEE9AFEED99FDEC98FC900008E0F84D
:10130E00A3E0F9A3E0FAA3E0FBC312078F400302A8
:10131E00159090003DE0FCA3E0FDA3E0FEA3E0FFEE
:10132E0090000C1207B3900033E0F8A3E0F9A3E0AD
:10133E00FAA3E0FBC000C001C002C00312222A9033
:10134E000033E0F8A3E0F9A3E0FAA3E0FB120049B2
:10135E007BCD7ACC79CC783D12013ED003D002D031
:10136E0001D00012004D9000331207B3900033E00D
:10137E00F8A3E0F9A3E0FAA3E0FB900072E0FCA36F
:10138E00E0FDA3E0FEA3E0FF1202479000761207F5
:10139E00B3E4FBFA79407841900033E0FCA3E0FD22
:1013AE00A3E0FEA3E0FF120247E4FBFA79C87842FD
:1013BE0012013E12039B900037EEF0A3EFF01200E5
:1013CE00165003021590200D33D20D7BFF7A15793E
:1013DE00BE900033E0FCA3E0FDA3E0FEA3E0FF908F
:1013EE0000441207B3120EB690003DE0FCA3E0FDE0
:1013FE00A3E0FEA3E0FF9000151207B3300E030228
:10140E001492E4FFFE7D407C41900033E0F8A3E0AF
:10141E00F9A3E0FAA3E0FB1202E44068D20E7F05C6
:10142E001221D37BFF7A1579F6900033E0FCA3E00E
:10143E00FDA3E0FEA3E0FF9000441207B3120EB628
:10144E00900015E0F8A3E0F9A3E0FAA3E0FB90000A
:10145E003DE0FCA3E0FDA3E0FEA3E0C39BFFEE9AFC
:10146E00FEED99FDEC98FCE412035DE4FBFA797A4B
:10147E0078441202479000441207B37BFF7A167924
:10148E002C120EB6200D03021590300E030215908D
:10149E007F677E667DB67C40900076E0F8A3E0F92B
:1014AE00A3E0FAA3E0FB12013EE4FBFA7970784266
:1014BE001202E4601D401B7F677E667DB67C409005
:1014CE000076E0F8A3E0F9A3E0FAA3E0FB12013EF8
:1014DE008007E4FFFE7D707C4212039B900010EEAD
:1014EE00F0A3EFF0C3900013E09FFF900012E09E78
:1014FE00FED3EF9400EE648094804051900010E093
:10150E00FEA3E0FFA3EEF0A3EFF01221D37BFF7A50
:10151E00167957900033E0FCA3E0FDA3E0FEA3E0B4
:10152E00FF9000441207B3900076E0FCA3E0FDA309
:10153E00E0FEA3E0FF9000481207B3900010E0FF1A
:10154E00A3E090004CCFF0A3EFF0120EB690001473
:10155E00E0FF900037E0FCA3E0FDC39FFFEC94009A
:10156E00FED3EF9400EE648094804016900014ED4C
:10157E00F07BFF7A16798E900044ECF0A3EDF0121A
:02158E000EB697
:011590002238
:1017120090001DE0F8A3E0F9A3E0FAA3E0FB90003B
:101722003DE0FCA3E0FDA3E0FEA3E0C39BFFEE9A35
:10173200FEED99FDEC98FC900019E0F8A3E0F9A306
:10174200E0FAA3E0FBC312078F40030218379000B0
:101752003DE0FCA3E0FDA3E0FEA3E0FF90001D122C
:1017620007B3900021E475F001120638FED3E5F0CC
:101772009404EE94004008900021E4F0A304F09059
:101782000021E0FEA3E0FFEE6003021837EF24FE23
:10179200602314603614601D24036003021837901E
:1017A20000431207BF000003E89000471207BF0082
:1017B200000032804F9000431207BF000003E89000
:1017C20000471207BF000000008039900043120753
:1017D200BF000003E89000471207BF00000000E4CA
:1017E20090004BF0A304F07D027F041208369000B3
:1017F200431207BF000003E89000471207BF000032
:1018020000328023E490004BF0A304F07D027F04B9
:101812001208369000431207BF000003E890004709
:101822001207BF00000000E490004BF0A304F0FD9B
:051832007F04120836DE
:01183700228E
:101BAD00900027E0F8A3E0F9A3E0FAA3E0FB900092
:101BBD003DE0FCA3E0FDA3E0FEA3E0C39BFFEE9A96
:101BCD00FEED99FDEC98FC900023E0F8A3E0F9A35D
:101BDD00E0FAA3E0FBC312078F507990003DE0FCC3
:101BED00A3E0FDA3E0FEA3E0FF9000271207B37F63
:101BFD0008121FACC004C005C006C0077F09121F24
:101C0D00ACC004C005C006C0077F0A121FACC004DB
:101C1D00C005C006C0077F0B121FAC900050120705
:101C2D00B3D007D006D005D00490004C1207B3D026
:101C3D0007D006D005D0049000481207B3D007D0C6
:101C4D0006D005D0049000441207B37BFF7A1679B5
:041C5D00A5120EB608
:011C61002260
:101E710090002FE0F8A3E0F9A3E0FAA3E0FB9000C3
:101E81003DE0FCA3E0FDA3E0FEA3E0C39BFFEE9ACF
:101E9100FEED99FDEC98FC90002BE0F8A3E0F9A38E
:101EA100E0FAA3E0FBC312078F502E90003DE0FC47
:101EB100A3E0FDA3E0FEA3E0FF90002F1207B37B98
:101EC100FF7A1679FC900039A3A3E0FFA3E090000C
:091ED10044CFF0A3EFF0120EB6AD
:011EDA0022E5
:0E226C00900071EFF01222A8900071E0FF22A6
:101A3400121EDB1222197F05122288E4FF1222886B
:101A44007F04122288D2001221EF12225DE4FF12D9
:101A540021D312000E7FF47E017D007C00122060F1
:101A64009000431207BF000003E89000471207BF2D
:101A740000000032E490004BF0A304F07D077F03E4
:101A84001208369000431207BF000003E890004795
:101A94001207BF00000046E490004BF0A304F07D61
:101AA400067F031208369000431207BF000003E8C4
:101AB4009000471207BF00000046E490004BF0A3DB
:101AC40004F07D027F041208369000431207BF0021
:101AD4000003E89000471207BF00000046E49000AE
:101AE4004BF0A304F0FD7F0412083612227A121E72
:031AF4007180FB03
:0F225D00D288D2A843B70143B801D28AD2AA22AD
:0E227A00E4F589758A67758CFCD28CD2A92296
:03000E00D2AF224C
:0322B000C2AF2298
:101EDB004392205391DF5392EF5391EF43BA80908B
:101EEB00FE11E04410F053BA7F7B017D0C7F021290
:101EFB001AF77B017D087F05121AF77B017D20E421
:101F0B00FF121AF77B017D80E4FF121AF77B017D2C
:101F1B00047F04121AF77B017D027F04121AF77BF0
:101F2B00017D807F03121AF77B017D407F03121A1C
:0A1F3B00F7E4FB7D087F04021AF7AB
:1022190075985075D7E875D6FF758E15C2ACD2AFD3
:012229002292
:0822A8008F993099FDC29922C3
:03000300021DF4E7
:101DF400C0E0C0F0C083C08263A201C083C082C0BF
:101E0400D075D000C000C001C002C004C005C00627
:101E1400C007900039E0FCA3E0FDA3E0FEA3E0FFCF
:101E240030B412E4FAF9F8EF2401FFEA3EFEE93D8A
:101E3400FDE83C800FEF24FFFFEE34FFFEED34FF9E
:101E4400FDEC34FFFC9000391207B3B285D007D003
:101E540006D005D004D002D001D000D0D0D082D09A
:0D1E64008363A201D082D083D0F0D0E032A1
:03000B00022007C9
:10200700C0E0C0F0C083C08263A201C083C082C0A9
:10201700D075D000C000C004C005C006C00790003E
:102027003DE0FCA3E0FDA3E0FEA3E02401FFE43EC6
:10203700FEE43DFDE43CFC90003D1207B3D007D021
:1020470006D005D004D000D0D0D082D08363A201BF
:09205700D082D083D0F0D0E03239
:03001300021F4584
:101F4500C0E0C0F0C083C08263A201C083C082C06C
:101F5500D075D000C000C001C002C004C005C006D5
:101F6500C007900039E0FCA3E0FDA3E0FEA3E0FF7D
:101F7500E4FAF9F8EF2401FFEA3EFEE93DFDE83C0D
:101F8500FC9000391207B3D007D006D005D004D095
:101F950002D001D000D0D0D082D08363A201D082FC
:071FA500D083D0F0D0E03240
:041D6C0041007D00B5
:0322B3000221B253
:0300430002218116
:10218100C0E0C083C08263A201C083C082E59A30EF
:10219100E103539AFDE59A30E009539AFE90007DE0
:1021A100E59BF0D082D08363A201D082D083D0E0BE
:0121B10032FB
:01000A0022D3
:1021D300900041EFF012224C7F5E1220E540051281
:0C21E300220480F1900041E0FF0220E5A2
:10222A007F03121FAC7BCA7AA17961784112013E01
:01223A002281
:100016007F02121FACE4FBFA7930784112013EE40C
:10002600FBFA798078411202E460054003D380012F
:02003600C322E3
:1021EF00E4F5BCA20033C4333333548042BCE4F56E
:0521FF00DE43DE20229A
:051FAC0090007AEFF047
:101FB1007F0F12003812223B90007BEEF0A3EFF06E
:101FC10090007AE0FF12003812223BAD07AC06E424
:101FD1001203627BEC7A517998783F12013EC0047A
:101FE100C005C006C00790007BE0FCA3E0FDE41241
:101FF1000362A804A905AA06AB07D007D006D0053D
:05200100D004120247AB
:0120060022B7
:0A00380053BCF0EF42BC43BC402271
:10223B00E5BC30E5FB120006AFBDEFFEADBEEDFF1A
:01224B002270
:0400060053BCDF22E6
:101AF700EF14603014604714605E1460751470034F
:101B0700021B9324056003021BACEB30E105ED4299
:101B1700938004EDF45293EB30E004ED429422ED10
:101B2700F4529422EB30E105ED42918004EDF4523A
:101B370091EB30E004ED429222EDF4529222EB3029
:101B4700E105ED42958004EDF45295EB30E004EDAC
:101B5700429622EDF4529622EB30E105ED42B18038
:101B670004EDF452B1EB30E004ED42B222EDF45251
:101B7700B222EB30E105ED42B38004EDF452B3EB52
:101B870030E004ED42B422EDF452B422EB30E1052B
:101B9700ED42C98004EDF452C9EB30E004ED42CACE
:061BA70022EDF452CA22F7
:101D710075BA80EF2410FBE434FE3009098B82F53B
:101D810083E04DF0800C8B82F583E0FEEDF4FCEEF8
:101D91005CF0EF2418FBE434FE300A098B82F583F2
:101DA100E04DF0800C8B82F583E0FEEDF4FCEE5CFF
:101DB100F0EF2420FBE434FE300B098B82F583E045
:101DC1004DF0800C8B82F583E0FEEDF4FCEE5CF0CF
:101DD100EF2428FFE434FE300C098F82F583E04DB7
:101DE100F0800C8F82F583E0FFEDF4FEEF5EF0757D
:031DF100BA802293
:0E2288007401A807088002C333D8FC42F1227B
:10195400900062EDF0A3EBF0A90775BA80E9C39497
:10196400035041E0FF7401A807088002C333D8FC88
:10197400FDE975F050A42415FBE5F034FFFA90005E
:1019840062E075F008A42BFFE5F03A8F82F583ED51
:10199400F0E975F050A42414FDE5F034FFFC900048
:1019A40062E0804C900063E0FF7401A807088002A5
:1019B400C333D8FCFBE9FF7E007C007D5012062671
:1019C400EF2425FDEE34FBFC900062E0FA75F0088C
:1019D400A42DFFE5F03C8F82F583EBF0E9FF7E0058
:1019E4007C007D50120626EF2424FDEE34FBFCEA35
:1019F40075F008A42DFFE5F03C8F82F583E0448068
:101A0400F0E4F5BAE9146014146015146016146057
:101A1400171460182405701743F6012243F61022A8
:101A240043F7012243F7102243FE012243FE102212
:08083600900041EFF0A3EDF08A
:10083E0090004D74FFF0A31207BF0000000090005F
:10084E00521207BF000000009000561207BF0000B2
:10085E00000090005A1207BF0000000090005E12C8
:10086E0007BF0000000090004CE0701B7F64FEFD8F
:10087E00FC900047E0F8A3E0F9A3E0FAA3E0FBC385
:10088E0012078F4002806D90004CE0701AFFFEFD43
:10089E00FC900047E0F8A3E0F9A3E0FAA3E0FBC365
:1008AE0012078F7002802190004CE0B40126E47F85
:1008BE0064FEFDFC900047E0F8A3E0F9A3E0FAA384
:1008CE00E0FBC312078F400C900041E0FFA3E0FD58
:1008DE007B01802A90004CE0B40126E4FFFEFDFC73
:1008EE00900047E0F8A3E0F9A3E0FAA3E0FBC312FF
:1008FE00078F700D900041E0FFA3E0FDE4FB0219AD
:10090E005490004DE004F0E0FF3395E0FEEF24013B
:10091E00FFE43EAB07FA3395E0F9F87F007EC07D29
:10092E00A87C001206D9900043E0F8A3E0F9A3E0FA
:10093E00FAA3E0FB1206D990004E1207B390004DB9
:10094E00E0C36480948F5018E47FFF7E7FFDFCA38C
:10095E00E0F8A3E0F9A3E0FAA3E0FB12078F50A1A1
:10096E0090004EE0FCA3E0FDA3E0FEA3E0FFA31287
:10097E0007B3900047E0FCA3E0FDA3E0FEA3E0FF79
:10098E00900052E0F8A3E0F9A3E0FAA3E0FB120610
:10099E004EE47B64FAF9F81206D9E47B02FAF9F810
:1009AE001206D990005E1207B390005EE0FCA3E041
:1009BE00FDA3E0FEA3E0FFC004C005C006C0079083
:1009CE00004BE0FFE4FCFDFE900052E0F8A3E0F9DE
:1009DE00A3E0FAA3E0FB12064EE47B64FAF9F812E8
:1009EE0006D9AB07AA06A905A804D007D006D005DC
:1009FE00D004C3EF9BFFEE9AFEED99FDEC98FC90B0
:100A0E00005E1207B390005EE0FCEC335007E4FF8B
:100A1E00FEFDFC800E90005EE0FCA3E0FDA3E0FE78
:100A2E00A3E0FF90005E1207B390004CE06003025B
:100A3E000AC67B02FAF9F8900052E0FCA3E0FDA38F
:100A4E00E0FEA3E0FF1206D9C004C005C006C00731
:100A5E0090005EE0FCA3E0FDA3E0FEA3E0FBAA068F
:100A6E00A905A804D007D006D005D004C3EF9BFF7C
:100A7E00EE9AFEED99FDEC98FC9000561207B3E449
:100A8E007B02FAF9F8900052E0FCA3E0FDA3E0FE31
:100A9E00A3E0FF1206D9A804A905AA06AB07900089
:100AAE005EE0FCA3E0FDA3E0FEA3E02BFFEA3EFE2A
:100ABE00E93DFDE83C020B5490004CE064016003FC
:100ACE00020B5B7B02FAF9F8900052E0FCA3E0FD0A
:100ADE00A3E0FEA3E0FF1206D9A804A905AA06AB5F
:100AEE000790005EE0FCA3E0FDA3E0FEA3E02BFF79
:100AFE00EA3EFEE93DFDE83CFC9000561207B3E4E9
:100B0E007B02FAF9F8900052E0FCA3E0FDA3E0FEB0
:100B1E00A3E0FF1206D9C004C005C006C0079000AE
:100B2E005EE0FCA3E0FDA3E0FEA3E0FBAA06A905A0
:100B3E00A804D007D006D005D004C3EF9BFFEE9AD1
:100B4E00FEED99FDEC98FC90005A1207B375BA8031
:100B5E00900041E0C394034003020C96E0F975F057
:100B6E0050A4FBAAF02415FDEA34FFFCA3E075F0B7
:100B7E0008A42DFFE5F03C8F82F583E4F09000523F
:100B8E00E0FCA3E0FDA3E0FEA3E0FF78081207A0BF
:100B9E00E42BFDEA34FF8D82F583EFF0900052A333
:100BAE00A3A3E0FDE975F050A4FFAEF02401FBEE27
:100BBE0034FF8B82F583EDF090004DE0FDEF2402C3
:100BCE00FFEE34FF8F82F583EDF0E0F0900056E0FB
:100BDE00FCA3E0FDA3E0FEA3E0FF78081207A0ADA2
:100BEE0007E975F050A42410FBE5F034FFFA9000ED
:100BFE0042E075F008A42BFFE5F03A8F82F583ED05
:100C0E00F0900056A3A3A3E0FD900042E075F0081B
:100C1E00A4FBAAF0E975F050A42BFBE5F03AFAEB31
:100C2E002411FFEA34FF8F82F583EDF090005AE035
:100C3E00FCA3E0FDA3E0FEA3E0FF78081207A0EB03
:100C4E002412FDEA34FF8D82F583EFF090005AA353
:100C5E00A3A3E0FD900042E075F008A4FBAAF0E922
:100C6E0075F050A42BFFE5F03ACF2413CF34FF8F4D
:100C7E0082F583EDF0E975F050A42414FFE5F0340D
:100C8E00FFCF2BCF3A020E11900041E0FBFF7E000A
:100C9E007C007D50120626EF2425FDEE34FBFCA3CE
:100CAE00E0F975F008A42DFFE5F03C8F82F583E4A2
:100CBE00F0900052E0FCA3E0FDA3E0FEA3E0FF787D
:100CCE00081207A0AA07EBFF7E007C007D501206DB
:100CDE0026EF2410FFEE34FB8F82F583EAF09000AE
:100CEE0052A3A3A3E0FB900041E0FAFF7E001206A0
:100CFE0026EF2411FDEE34FB8D82F583EBF0900090
:100D0E004DE0FDEF2412FFEE34FB8F82F583EDF004
:100D1E00E0F0900056E0FCA3E0FDA3E0FEA3E0FFB0
:100D2E0078081207A0AB07EAFF7E007C007D501208
:100D3E000626EF2420FDEE34FBFCE975F008A42D09
:100D4E00FFE5F03C8F82F583EBF0900056A3A3A352
:100D5E00E0FB900041E0FAFF7E007C007D50120621
:100D6E0026AC06AD07E975F008A42DFFEC35F0CFE3
:100D7E002421CF34FB8F82F583EBF090005AE0FCF8
:100D8E00A3E0FDA3E0FEA3E0FF78081207A0AB07E7
:100D9E00EAFF7E007C007D50120626AC06AD07E908
:100DAE0075F008A42DFFEC35F0CF2422CF34FB8F45
:100DBE0082F583EBF090005AA3A3A3E0FB900041D1
:100DCE00E0FAFF7E007C007D50120626AC06AD07D1
:100DDE00E975F008A42DFFEC35F0CF2423CF34FBBA
:100DEE008F82F583EBF0EAFF7E007C007D501206C9
:100DFE0026EF2424FDEE34FBFCE975F008A42DFF4C
:100E0E00E5F03C8F82F583E04480F0E4F5BA900083
:100E1E0041E0146014146015146016146017146009
:100E2E00182405701743F6012243F6102243F701EA
:0C0E3E002243F7102243FE012243FE1065
:010E4A002285
:1020A500AB0575BA80EFC39403500EEF75F050A4DD
:1020B5002414FDE5F034FF80107E007C007D501275
:1020C5000626EF2424FDEE34FBFCEB75F008A42D69
:1020D500FFE5F03C8F82F583E0547FF0E4F5BA220A
:0100110022CC
:10224C00D294D29500000000C29400000000C29508
:01225C00225F
:10220400C295C29400000000D29500000000D29450
:052214000000000022A3
:1020E5007E80EE601B5F7004C2948002D294000073
:1020F5000000D29500000000C295EEC313FE80E2F9
:10210500D29400000000D295A29492000000000035
:05211500C295A200B319
:01211A0022A2
:10211B00D2947E80EE601D00000000D295209405C5
:10212B00F45FFF8003EF4EFF00000000C295EEC38B
:10213B0013FE80E0D29400000000D2950000000056
:02214B00C2953B
:01214D00226F
:10214E00D2947E80EE601D00000000D29520940592
:10215E00F45FFF8003EF4EFF00000000C295EEC358
:10216E0013FE80E0C29400000000D2950000000033
:02217E00C29508
:01218000223C
:1021B200759A1075D7E875D6FF53B4BF53B3BF53A2
:1021C200B47F53B37F43BA01758E1475AF01D2AF9A
:0121D20022EA
:09229600EC4D4E4F60012280FE68
:08229F007F0F7E5ADEFEDFFC1A
:0122A7002214
:10206000803AE4FFFEFDFC900041E0F8A3E0F9A314
:10207000E0FAA3E0FBD3120779402912229F9000D7
:1020800041E0FCA3E0FDA3E0FEA3E0FFEF24FFFF9F
:10209000EE34FFFEED34FFFDEC34FFFC9000411206
:0520A00007B380BE2221
:10004600020407E86480F8E933E83360110460F0DD
:10005600ED33EC337009E8FCE9FDEAFEEBFF220420
:1000660060DED3EB9FEA9EE99DE8C2E78CF0C2F71B
:1000760095F0400CE8CCF8E9CDF9EACEFAEBCFFBE7
:100086001203D285D0F05804700320D5B3E804706B
:10009600075002B2D502041192D5EC0460F7E4CC05
:1000A600C0E0C398F8603B94186008400DD0E0FBB0
:1000B6000203E9E4FBFAC9FC8028E830E406E4C957
:1000C600FBE4CAFCE830E305E4C9CACBFCE8540704
:1000D6006010F8C3E913F9EA13FAEB13FBEC13FC0F
:1000E600D8F130F52FC3E49CFCEF9BFFEE9AFEEDB2
:1000F60099FDD0E0FBEF4E4D4C701222DB0302045B
:100106000EEC2CFCEF33FFEE33FEED33FDED30E766
:10011600EB0203E9EF2BFFEE3AFEED39FDD0E0FBF3
:1001260050130BBB0003020411ED13FDEE13FEEF9B
:0801360013FFEC13FC0203E9C6
:10013E00EC4D6011E8497017ED33EC3304600DE4BB
:10014E00FCFFFEFD22E933E8330470F802040712C7
:10015E0003D258046009E4CC2481500628500902C9
:10016E00041128400302040EC0E0EB4A7044B9802B
:10017E0006D0E0FB0203FDEF4E701CBD8008EBFFC6
:10018E00EAFEE9FD80EBE98DF0A4FEE5F002022720
:10019E00E9CDF9EAFEEBFFEF89F0A4FCE5F0CE899C
:1001AE00F0A42EFFE435F0CD89F0A42DFEE435F059
:1001BE008067EF4E7005BD80D780C3EF8BF0A4AC87
:1001CE00F0EE8BF0A42CFCE435F0F8EF8AF0A42CC2
:1001DE00E5F038FCE433CB8DF0A42CFCE5F03BF8D5
:1001EE00EE8AF0A42CFCE5F038F8E433CF89F0A4C5
:1001FE002CFCE5F038CF3400CE89F0A42FFFE5F0CB
:10020E003EFEE433C98DF0A42EFEE5F039CD8AF022
:10021E00A42FFFE5F03EFEE43DFD33D0E0FB50079A
:10022E000BBB000F020411EC2CFCEF33FFEE33FE80
:06023E00ED33FD0203E9AF
:10024400020411EC5D046005E8590470030204071C
:100254001203D2580460F6EC4860F2EC7004FDFE20
:10026400FF22C860DB2481C85009C398600250068D
:1002740002040E9850CAF582E9294B4A7005AB82F4
:100284000203FD75F0007C1A7880C3EF9BEE9AEDB3
:1002940099400DC3EF9BFFEE9AFEED99FDE842F005
:1002A400DC23ACF0D0E0FFD0E0FED0E0FDAB822058
:1002B400E7101BEB60BAEC2CFCEF33FFEE33FEEDE2
:1002C40033FD0203E9E803F830E705C0F075F000F8
:1002D400EF2FFFEE33FEED33FD40B830E7C280AAC6
:1002E40074F8CC6480CCC86480C8F58204604FC3C1
:1002F400EB9FF5F0EA9E42F0E99D42F0E89C45F060
:10030400603C501DE5825FFFE582D313CB5BCBF4E9
:100314002B5582FB50280ABA002409B90020088012
:100324001DE5825BFBE582D313CF5FCFF4C3132FAC
:100334005582FF50090EBE00050DBD00010CC3EB34
:100344009FF5F0EA9E42F0E99D42F0E89C45F0609A
:0903540007CC4820E701B3EC22BC
:10035D0075F020800E75F010800575F0087D007E1B
:10036D00007F003392D530D50312076BEC3340106C
:10037D00EF33FFEE33FEED33FDEC33FCD5F0ED2224
:0E038D00E5F0247EA2D513CC92E7CDCEFF2260
:10039B00EDD2E7CD33EC3392D524814006E4FFFE5A
:1003AB00FDFC22FCE4CFCECDCC24E0501174FF80B9
:1003BB00EDC3CC13CCCD13CDCE13CECF13CF047056
:0703CB00F030D5DE02076BE4
:100E4B00E5082444F582E43400F583E0050822909C
:100E5B000041300703900044E475F0011207F002E3
:100E6B0005CE2000E97F2ED2008018EF540F24907E
:100E7B00D43440D4FF30040BEF24BFB41A0050031A
:100E8B002461FFE50960021509050CE50C700205EC
:100E9B000B30070E900041E475F0011207F0EF02E2
:100EAB00061402226C7403D2078003E4C207F50810
:100EBB00900041120807E4F509F50BF50CE5096004
:100ECB00077F20120E8E80F5750AFFC201C200C289
:100EDB0002C203C205C206C208120E5AFF700D30C1
:100EEB0007057F00120E9FAF0CAE0B22B4255FC21D
:100EFB00D5C204120E5AFF24D0B40A00501A75F052
:100F0B000A780930D50508B6FF0106C6A426F620D7
:100F1B00D5047002D20380D924CFB41A00EF500449
:100F2B00C2E5D204021191D20180C6D20080C0D298
:100F3B000280BCD2D580BAD20580B47F20120E8E2F
:100F4B002002077401B5090040F1120E4BFF120E7F
:100F5B008E020EC8D208D2068095120E4BFB120ED3
:100F6B004BFA120E4BF94A4B7006798F7A127BFFB4
:100F7B0020022EE509602A7E008E82758300120501
:100F8B00E760060EEE650A70F0C2D5EBC0E0EAC072
:100F9B00E0E9C0E0EE1211F2D0E0F9D0E0FAD0E0D7
:100FAB00FB1205CEFF60AAEBC0E0EAC0E0E9C0E0AF
:100FBB00120E8ED0E02401F9D0E03400FAD0E0FB21
:100FCB00E50A0460DCD50AD98087D20280A212110F
:100FDB00D460F7E50A70010412041CA90A600DE540
:100FEB000A600914F50A12127CEF60F3EA30E7028B
:100FFB00F404C3995079EAF4250A0430E701E404B8
:10100B00F50A800D1211D460C1EA050A250A1204F3
:10101B001CEA900070F030E701E4250A04D50A04BD
:10102B00200501141211F2E4C0E012127C90007042
:10103B00E0601320E70714F0120E76802204F0D044
:10104B00E014C0E07F00120E76E50A6007120E6D09
:10105B00150A800B300503120E6DD0E0020EC8D0BE
:10106B00E00480C41211D4609EE50A0412041C90A3
:10107B000070EAF0E50A2005026001042404121155
:01108B00F272
:10108C0074FF04C0E012127C120E76E50A200502F1
:10109C006003120E6DD0E0B50AE87F45120E809009
:1010AC000070E07F2B30E7047F2DF404C0E0120EBB
:1010BC008ED0E075F00A84C0F0120E77D0E0120EDC
:1010CC0077020EC8791080027908C206C20880081F
:1010DC00D2D5790A8004790AC2D5E50A047002F5E2
:1010EC000AE4FAFDFEFF120E4BFC7B0820011312E2
:1010FC000E4BFD7B1030000A120E4BFE120E4BFFF6
:10110C007B20EC3382D592D55013C3E43000069F7C
:10111C00FFE49EFEE42001039DFDE49CFCE4CBF87F
:10112C00C201EC700CCFCECDCCE824F8F870F38073
:10113C0017C3EF33FFEE33FEED33FDEC33FCEB3333
:10114C00FB994002FB0FD8E9EB300105F8D0E0C465
:10115C0048B201C0E00AEC4D4E4F78207B0070C2C3
:10116C00EAB50A0040BCC0E01211F4D0F0D0E02087
:10117C000104C4C0E0C4B201C0F0120E77D0F0D5A7
:10118C00F0EB020EC81208100F655310D0580F3632
:10119C004C0F324210D44F10DC4410DC490F4B433F
:1011AC0010E255100F46106F450FD94712AF500F74
:1011BC003A2D0F3E2E0F612B0F42230F5F201298FA
:1011CC002A0EFA4800000F59E50AB4FF03750A0607
:1011DC00120E4BFC120E4BFD120E4BFE120E4BFF61
:1011EC00900069020459790AA2D52003143005092C
:1011FC00B910020404B9080104A2D520060250015A
:10120C00042002689202B509005034C0E07F2030FF
:10121C0003197F30A20272067205500F12124BC2D4
:10122C0002C206C205C2087F30800F300503E9C038
:10123C00E0120E8E300503D0E0F9D0E0B509CC30C9
:10124C0005177F30B9100C120E8E7F583004077FB3
:10125C00788003B90803120E8E3002057F2D020E22
:10126C008E7F202008F87F2B2006F322920280CF5D
:10127C007F00B40700500B2469F582E43400F58339
:10128C00E0FF22286E756C6C2900D201120E4B30D7
:10129C0001F8C201780930D50108F6020EFA2D507A
:1012AC00434958120E4B2403B405004001E490123C
:1012BC00AA93120E7F743A120E7FD20375090402A0
:0212CC0010D040
:1003D200E9D2E7C933E833F892D5EDD2E7CD33EC71
:0703E20033FC5002B2D522EA
:1003E900EC30E7100FBF000C0EBE00080DBD000475
:1003F9000BEB6014A2D5EB13FCED92E7FD2274FF21
:10040900FCFDFEFF22E480F8A2D574FF13FC7D8079
:03041900E480EF8D
:10041C00F920E73624F950037907E4F42402FBE5CC
:10042C0082158270021583DBF6E024FB501BE96019
:10043C0014E4F0E582158270021583E004F0B40A2E
:0D044C0008E4F0D9EE7401F00A22C2D522B6
:10045900ED33EC3392D5FA602AB4FF33EDC2E77B72
:10046900FF60067A04797EE4227A04798720D5042C
:100479007A047982224E614E002B494E46002D495D
:100489004E4600E47A08F0A3DAFC7B00740722C028
:1004990083C082ECC0E0EDC0E0EEC0E0EFC0E0EA6E
:1004A90075F010A4CAABF075F04DA42BFBE435F040
:1004B900FCEA2410FAEB34C5FBEC34D9FCEDC2E7B5
:1004C900FF75F056A4F42411C5F0F434C58FF0A4D7
:1004D9002AE5F03BE43CF020E71412058ED0E0FF5A
:1004E900D0E0FED0E0FDD0E0FC1202478014F40415
:1004F90012058ED0E0FFD0E0FED0E0FDD0E0FC1286
:10050900013ED082D083E0FAEDD2E7CD33EC33243B
:1005190082FBE4C3CF33CFCE33CECD33CD33DBF340
:100529007B0775F00A846004F0A31B0AE5F0F0A3C9
:100539008FF0740AA4FFACF08EF0740AA42CFEAC00
:10054900F050010C8DF0740AA42CFDE435F0F0A3F1
:05055900DBDE74072247
:10055E003F8000004120000042C80000447A0000A5
:10056E00461C400047C35000497424004B18968027
:10057E004CBEBC205A0E1BCA6753C21C749DC5AE1E
:10058E00FB60065407601C23231205BCEB54386035
:10059E00091205A81205B712013EECF8EDF9EEFAB4
:1005AE00EFCB22EB1205B780F1543803241C9005D3
:1005BE005EFE93FC0EEE93FD0EEE930ECE93FF2297
:03000000021C627D
:0C1C6200787FE4F6D8FD758121021CA9F2
:1005CE00BB010689828A83E0225002E722BBFE022B
:0905DE00E32289828A83E493225E
:1005E700BB010CE58229F582E5833AF583E02250C9
:1005F70006E92582F8E622BBFE06E92582F8E22213
:0D060700E58229F582E5833AF583E493222C
:10061400BB010689828A83F0225002F722BBFE01C5
:02062400F322BF
:10062600EF8DF0A4A8F0CF8CF0A428CE8DF0A42EE8
:02063600FE22A2
:10063800C5F0F8A3E028F0C5F0F8E582158270024D
:060648001583E038F022EA
:10064E00E88FF0A4CC8BF0A42CFCE98EF0A42CFC4B
:10065E008AF0EDA42CFCEA8EF0A4CDA8F08BF0A4C9
:10066E002DCC3825F0FDE98FF0A42CCD35F0FCEB28
:10067E008EF0A4FEA9F0EB8FF0A4CFC5F02ECD39ED
:0F068E00FEE43CFCEAA42DCE35F0FDE43CFC225A
:10069D0075F008758200EF2FFFEE33FECD33CDCC14
:1006AD0033CCC58233C5829BED9AEC99E582984097
:1006BD000CF582EE9BFEED9AFDEC99FC0FD5F0D674
:1006CD00E4CEFBE4CDFAE4CCF9A88222B800C1B99E
:1006DD000059BA002DEC8BF084CFCECDFCE5F0CBDC
:1006ED00F97818EF2FFFEE33FEED33FDEC33FCEB15
:1006FD0033FB10D703994004EB99FB0FD8E5E4F9D0
:10070D00FA227818EF2FFFEE33FEED33FDEC33FCBC
:10071D00C933C910D7059BE99A4007EC9BFCE99AB0
:10072D00F90FD8E0E4C9FAE4CCFB2275F010EF2FF5
:10073D00FFEE33FEED33FDCC33CCC833C810D707F5
:10074D009BEC9AE899400AED9BFDEC9AFCE899F830
:0E075D000FD5F0DAE4CDFBE4CCFAE4C8F922C3
:0E076B00C3E49FFFE49EFEE49DFDE49CFC229F
:10077900EB9FF5F0EA9E42F0E99D42F0EC6480C8F7
:0607890064809845F02297
:10078F00EB9FF5F0EA9E42F0E99D42F0E89C45F0C0
:01079F002237
:1007A000E8600FECC313FCED13FDEE13FEEF13FF37
:0307B000D8F1225B
:0C07B300ECF0A3EDF0A3EEF0A3EFF022B9
:1007BF00A8828583F0D083D0821207D61207D61273
:1007CF0007D61207D6E473E493A3C583C5F0C58398
:1007DF00C8C582C8F0A3C583C5F0C583C8C582C884
:0107EF0022E7
:1007F000F8E0FBA3A3E0F925F0F0E5821582700292
:070800001583E0FA38F02235
:09080700EBF0A3EAF0A3E9F022F2
:10081000D083D082F8E4937012740193700DA3A377
:1008200093F8740193F5828883E47374029368608B
:06083000EFA3A3A380DF8B
:101C6E00021A34E493A3F8E493A34003F68001F23E
:101C7E0008DFF48029E493A3F85407240CC8C33377
:101C8E00C4540F4420C8834004F456800146F6DF46
:101C9E00E4800B0102040810204080901CEEE47ECC
:101CAE00019360BCA3FF543F30E509541FFEE4933B
:101CBE00A360010ECF54C025E060A840B8E493A302
:101CCE00FAE493A3F8E493A3C8C582C8CAC583CA2D
:101CDE00F0A3C8C582C8CAC583CADFE9DEE780BEE5
:011D70000072
:00000001FF
