:1030BA002825662C202566290D0A000D0A3D3D3D6E
:1030CA003D3D3D3D3D3D3D3D7374617274206368F5
:1030DA00617267696E6720766F6C746167653A2002
:1030EA0025336656203D3D3D3D3D3D3D3D3D3D3D03
:1030FA000D0A000D0A3D3D3D3D3D3D3D3D3D3D3DF9
:10310A00656E64206368617267696E6720766F6CAA
:10311A00746167653A2025336656203D3D3D3D3D45
:10312A003D3D3D3D3D3D0D0A003D3D3D3D3D3D3D65
:10313A003D3D3D3D74696D6520656C6170736564E4
:10314A003A2025316653203D3D3D3D3D3D3D3D3DC7
:10315A003D3D0D0A0073757065726361705F766F2D
:10316A006C743A2533662C207375706572636170CE
:10317A005F616D705F77616E743A2533662C206DDE
:10318A006370646174613A25640D0A006E6F77207A
:10319A006368617267696E673A2025642025252075
:1031AA000D0A00456C65634D61676E657469635FFE
:1031BA00313A256620562C20456C65634D61676E51
:1031CA00657469635F323A256620562C20456C6522
:1031DA00634D61676E657469635F333A256620568D
:1031EA002C20456C65634D61676E657469635F3455
:1031FA003A256620562C200D0A00726174655F4CD0
:10320A003A25640D0A00726174655F523A25640DAD
:02321A000A00A8
:1027C60044016A0000000041014100440166000026
:1027D60000004401720000000044011900000000DE
:1027E60044011D0000000044016E00000000440189
:1027F6000F000000004401210000000044012500F4
:102806000000004401390000000044017600000089
:102816000044013500000000420117000044013D5C
:102826000000000044012DC1C80000440129C1C8B0
:10283600000044013142C8000044011300000000BA
:102846004400000000000A440004000000004400A8
:10285600080000006444000C000000004400100062
:1028660000000A4400140000000041001800440063
:10287600190000000044001D000000C844002100AB
:10288600000000410025004400260000000144002D
:102896002A00000000C109C10A42002E00004200C1
:1028A6003003E841003200440033000000004400D9
:1028B600370000000A44003B0000000044003F00CF
:1028C6000007D044004300000000420047000044D7
:1028D6000049000007D044004D00000000420051AE
:1028E6000000440053000003E844005700000000C5
:1028F60044005B000001F444005F00000000440057
:1029060063000000004400670000000044006B0004
:1029160000000044006F0000000044007300000047
:102926000A4400770000000044007B0000000044D9
:10293600007F000000004400830000000044008780
:102946000000000044008B0000000A44008F0000D5
:10295600000044009300000000440097000000645B
:1029660044009B0000000044009F0000000044005B
:10297600A300000000602800A7000000000000007F
:102986000000000000000000000000000000000041
:102996000000000000000000000000000000000031
:1029A60000602800CF0000000000000000000000CA
:1029B6000000000000000000000000000000000011
:1029C600000000000000000000000000004400F7C6
:1029D600000000004400FB000000004400FF00006F
:1029E60000644401030000000044010700000000E9
:0729F60044010B000000008A
:06487B0090017A1209937E
:1048810090016AE0FCA3E0FDA3E0FEA3E0FF90013C
:104891007E12099390017EE0F8A3E0F9A3E0FAA368
:1048A100E0FB90016AE0FCA3E0FDA3E0FEA3E0C30E
:1048B1009BFFEE9AFEED99FDEC98FC90017AE0F8F1
:0F48C100A3E0F9A3E0FAA3E0FBD312084F50C520
:0148D00022C5
:1047C900900004E0F8A3E0F9A3E0FAA3E0FB90016C
:1047D9006AE0FCA3E0FDA3E0FEA3E0C39BFFEE9A21
:1047E900FEED99FDEC98FC900000E0F8A3E0F9A338
:1047F900E0FAA3E0FBD312084F501D90016AE0FCD8
:10480900A3E0FDA3E0FEA3E0FF9000041209937B5F
:08481900017A01794212348C8E
:014821002274
:1045180090000CE0F8A3E0F9A3E0FAA3E0FB900117
:104528006AE0FCA3E0FDA3E0FEA3E0C39BFFEE9AD4
:10453800FEED99FDEC98FC900008E0F8A3E0F9A3E3
:10454800E0FAA3E0FBD312084F504590016AE0FC63
:10455800A3E0FDA3E0FEA3E0FF90000C1209937B0B
:10456800FF7A3079BA90015AE0FCA3E0FDA3E0FE9F
:10457800A3E0FF90019212099390015EE0FCA3E092
:10458800FDA3E0FEA3E0FF9001961209931219C85B
:014598002200
:1035BA00900014E0F8A3E0F9A3E0FAA3E0FB90017D
:1035CA006AE0FCA3E0FDA3E0FEA3E0C39BFFEE9A42
:1035DA00FEED99FDEC98FC900010E0F8A3E0F9A349
:1035EA00E0FAA3E0FBD312084F40030236DF900152
:1035FA006AE0FCA3E0FDA3E0FEA3E0FF9000141242
:10360A000993900018E0701EA3120952E47B64FA31
:10361A00F9F8D31208395032900018E070047F018B
:10362A0080237F00801F90001974FF120954E4FB65
:10363A00FAF9F8C31208394011900018E070047FB3
:10364A000180027F00900018EFF090017C12099F20
:10365A0000002710900019E0FCA3E0FDA3E0FEA300
:10366A00E0FF900180120993E4900184F0A3F07DB9
:10367A00037F051212E990017C12099F00002710AE
:10368A00E47B04FAF9F8900019E0FCA3E0FDA3E05A
:10369A00FEA3E0FF12491D900180120993E49001F4
:1036AA0084F0A3F07D07FF1212E990017C12099FB2
:1036BA0000002710900019E0FCA3E0FDA3E0FEA3A0
:1036CA00E0FF900180120993E4900184F0A3F07D59
:0536DA0005FF1212E9DA
:0136DF0022C8
:10321C00900021E0F8A3E0F9A3E0FAA3E0FB900111
:10322C006AE0FCA3E0FDA3E0FEA3E0C39BFFEE9AE3
:10323C00FEED99FDEC98FC90001DE0F8A3E0F9A3DD
:10324C00E0FAA3E0FBD312084F400302335690017F
:10325C006AE0FCA3E0FDA3E0FEA3E0FF90002112D6
:10326C000993900025E070047F0180027F0090009C
:10327C0025EFF0900141E07009900025E070030209
:10328C003313E4FFFEFDFC90013DE0F8A3E0F9A34D
:10329C00E0FAA3E0FB12032490017C603640341268
:1032AC00099F000003E890018012099F00000000B4
:1032BC00E4900184F0A3F07D05FF1212E990017CEB
:1032CC0012099F000003E890018012099F00000082
:1032DC0032806912099F000003E890018012099F57
:1032EC0000000032E4900184F0A3F07D05FF12127F
:1032FC00E990017C12099F000003E89001801209FB
:10330C009F00000000803590017C12099F00000393
:10331C00E890018012099F00000000E4900184F005
:10332C00A3F07D05FF1212E990017C12099F0000A9
:10333C0003E890018012099F00000000E4900184D2
:0A334C00F0A3F07D037F051212E9E3
:013356002254
:103C8400124C3C900113120993E4FFFE7DC07CC0EA
:103C9400900113E0F8A3E0F9A3E0FAA3E0FB12001B
:103CA4008DE4FBFA79A0784012028790013D120955
:103CB40093E4FFFE7D807C3F90013DE0F8A3E0F9B2
:103CC400A3E0FAA3E0FB120324600B4009E4FFFE27
:103CD4007D807C3F800E90013DE0FCA3E0FDA3E0ED
:103CE400FEA3E0FF90013D120993E4FFFEFDFC906A
:103CF400013DE0F8A3E0F9A3E0FAA3E0FB120324FA
:103D04005007E4FFFEFDFC800E90013DE0FCA3E0C3
:103D1400FDA3E0FEA3E0FF90013D1209937FCD7E59
:103D2400CC7D4C7C3F90013DE0F8A3E0F9A3E0FAA0
:103D3400A3E0FB120324600840069001417401F0E3
:103D4400E4FFFE7DC87C4290013DE0F8A3E0F9A3C6
:103D5400E0FAA3E0FB12017E1203EC900117EEF0EF
:043D6400A3EFF022B7
:102A52009001D012099F41A000009001D412099F59
:102A62000000000090002AE0F8A3E0F9A3E0FAA336
:102A7200E0FB90016AE0FCA3E0FDA3E0FEA3E0C35B
:102A82009BFFEE9AFEED99FDEC98FC900026E0F893
:102A9200A3E0F9A3E0FAA3E0FBD312084F4003023C
:102AA2002C9C90016AE0FCA3E0FDA3E0FEA3E0FF02
:102AB20090002A120993900113E0F8A3E0F9A3E031
:102AC200FAA3E0FB9001D0E0FCA3E0FDA3E0FEA3AB
:102AD200E0FF1202879001D4120993124B2C50038B
:102AE200022C9C200933D2097BFF7A3079C59001F0
:102AF20013E0FCA3E0FDA3E0FEA3E0FF900192122D
:102B020009931219C890016AE0FCA3E0FDA3E0FE5C
:102B1200A3E0FF900033120993300A03022B9EE4D4
:102B2200FFFE7D307C41900113E0F8A3E0F9A3E0C1
:102B3200FAA3E0FB1203244063D20A7BFF7A3079C6
:102B4200FD900113E0FCA3E0FDA3E0FEA3E0FF90F3
:102B520001921209931219C8900033E0F8A3E0F928
:102B6200A3E0FAA3E0FB90016AE0FCA3E0FDA3E08E
:102B7200FEA3E0C39BFFEE9AFEED99FDEC98FCE408
:102B82001203AEE4FBFA797A78441202879001923A
:102B92001209937BFF7A3179331219C82009030293
:102BA2002C9C300A03022C9C7F677E667DB67C409B
:102BB2009001D4E0F8A3E0F9A3E0FAA3E0FB12014C
:102BC2007EE4FBFA79707842120324601D401B7F79
:102BD200677E667DB67C409001D4E0F8A3E0F9A35D
:102BE200E0FAA3E0FB12017E8007E4FFFE7D707C29
:102BF200421203EC90002EEEF0A3EFF0C3900031EE
:102C0200E09FFF900030E09EFED3EF9400EE6480E0
:102C12009480405190002EE0FEA3E0FFA3EEF0A3CB
:102C2200EFF01200007BFF7A31795F900113E0FC34
:102C3200A3E0FDA3E0FEA3E0FF90019212099390AE
:102C420001D4E0FCA3E0FDA3E0FEA3E0FF90019627
:102C520012099390002EE0FFA3E090019ACFF0A317
:102C6200EFF01219C8900032E0FF900117E0FCA3C8
:102C7200E0FDC39FFFEC9400FED3EF9400EE64806E
:102C820094804016900032EDF07BFF7A3179969075
:0A2C92000192ECF0A3EDF01219C856
:012C9C002215
:1040940090003BE0F8A3E0F9A3E0FAA3E0FB900171
:1040A4006AE0FCA3E0FDA3E0FEA3E0C39BFFEE9A5D
:1040B400FEED99FDEC98FC900037E0F8A3E0F9A33D
:1040C400E0FAA3E0FBD312084F507A90016AE0FCB7
:1040D400A3E0FDA3E0FEA3E0FF90003B1209939050
:1040E4000139E0FCA3E0FDA3E0FEA3E0FF9001356D
:1040F400E0F8A3E0F9A3E0FAA3E0FB12008D90013D
:1041040076E0F8A3E0F9A3E0FAA3E0FB12008D1235
:104114003926900139E0FCA3E0FDA3E0FEA3E0FF13
:10412400900135E0F8A3E0F9A3E0FAA3E0FB120064
:104134008D900176E0F8A3E0F9A3E0FAA3E0FB1286
:054144000089123A465B
:014149002253
:103E4800900043E0F8A3E0F9A3E0FAA3E0FB9001B7
:103E58006AE0FCA3E0FDA3E0FEA3E0C39BFFEE9AAB
:103E6800FEED99FDEC98FC90003FE0F8A3E0F9A383
:103E7800E0FAA3E0FBD312084F4003023F11900180
:103E88006AE0FCA3E0FDA3E0FEA3E0FF900043127C
:103E98000993900047E475F0011206F8FED3E5F0A7
:103EA8009404EE94004008900047E4F0A304F090D6
:103EB8000047E0FEA3E0FFEE704FEF24FE601F1402
:103EC8006031146019240370407F007E007DA07C5F
:103ED800421239267F007E007DA07C4280287F0028
:103EE8007E007D007C001239267F007E007D007CEC
:103EF8000080137F007E007D007CBF1239267F0082
:093F08007E007D007CBF123A46E8
:013F1100228D
:103F120090004DE0F8A3E0F9A3E0FAA3E0FB9001E2
:103F22006AE0FCA3E0FDA3E0FEA3E0C39BFFEE9AE0
:103F3200FEED99FDEC98FC900049E0F8A3E0F9A3AE
:103F4200E0FAA3E0FBD312084F4003023FD79001EF
:103F52006AE0FCA3E0FDA3E0FEA3E0FF90004D12A7
:103F62000993900051E475F0011206F8FED3E5F0D2
:103F72009404EE94004008900051E4F0A304F09001
:103F82000051E0FEA3E0FFEE704BEF24FE60191437
:103F920060251460132403703C7F507E007D007CFA
:103FA200001233577F5080247F007E007D007C000A
:103FB2001233577F0080157FCE7EFF7DFF7CFF127C
:103FC20033577FCE7EFF7DFF7CFF80067E007D0023
:053FD2007C00123B66BB
:013FD70022C7
:10420000900057E0F8A3E0F9A3E0FAA3E0FB9001E7
:104210006AE0FCA3E0FDA3E0FEA3E0C39BFFEE9AEF
:10422000FEED99FDEC98FC900053E0F8A3E0F9A3B3
:10423000E0FAA3E0FBD312084F507990016AE0FC4A
:10424000A3E0FDA3E0FEA3E0FF9000571209937FD7
:104250000812476EC004C005C006C0077F09124798
:104260006EC004C005C006C0077F0A12476EC004B6
:10427000C005C006C0077F0B12476E90019E120951
:1042800093D007D006D005D00490019A120993D09C
:1042900007D006D005D004900196120993D007D01C
:1042A00006D005D0049001921209937BFF7A3179F0
:0442B000AD1219C86A
:0142B40022E7
:1036E000E49001F0F0A3F0A3F0A3F090005FE0F805
:1036F000A3E0F9A3E0FAA3E0FB90016AE0FCA3E0F9
:10370000FDA3E0FEA3E0C39BFFEE9AFEED99FDEC66
:1037100098FC90005BE0F8A3E0F9A3E0FAA3E0FBDB
:10372000D312084F400302380390016AE0FCA3E083
:10373000FDA3E0FEA3E0FF90005F120993C2AF90EB
:103740000166E0FCA3E0FDA3E0FEA3E0FF90006BB8
:10375000120993900172E0FCA3E0FDA3E0FEA3E058
:10376000FF90006F120993D2AF900063A3A3E0FE15
:10377000A3E0FBAA0690006BA3A3E0FEA3E0C39B1B
:10378000FFEE9A9001F2F0A3EFF0900067A3A3E0A0
:10379000FEA3E0FBAA0690006FA3A3E0FEA3E0C394
:1037A0009BFFEE9A9001F0F0A3EFF090006BE0FC2D
:1037B000A3E0FDA3E0FEA3E0FF9000631209939055
:1037C000006FE0FCA3E0FDA3E0FEA3E0FF90006734
:1037D0001209937BFF7A3279049001F2E0FFA3E0B3
:1037E000900192CFF0A3EFF01219C87BFF7A3279E3
:1037F000109001F0E0FFA3E0900192CFF0A3EFF072
:033800001219C8D2
:0138030022A2
:0E4C5B009001BFEFF0124CA49001BFE0FF22C9
:102EBE0090017A12099F3D23D70A90017E12099F35
:102ECE003B449BA690018212099F3E4CCCCD9000B4
:102EDE0077E0F8A3E0F9A3E0FAA3E0FB90016AE043
:102EEE00FCA3E0FDA3E0FEA3E0C39BFFEE9AFEED84
:102EFE0099FDEC98FC900073E0F8A3E0F9A3E0FADA
:102F0E00A3E0FBD312084F40030230B990016AE0F0
:102F1E00FCA3E0FDA3E0FEA3E0FF9000771209936F
:102F2E00E47FD07E07FDFC90016AE0F8A3E0F9A3F0
:102F3E00E0FAA3E0FBC312084F50030230B9900130
:102F4E0029E0F8A3E0F9A3E0FAA3E0FB90015EE02C
:102F5E00FCA3E0FDA3E0FEA3E0FF12008990017A3E
:102F6E00E0F8A3E0F9A3E0FAA3E0FB12017E9000E3
:102F7E007B12099390007FE0F8A3E0F9A3E0FAA397
:102F8E00E0FBC000C001C002C003900129E0F8A31D
:102F9E00E0F9A3E0FAA3E0FB90015EE0FCA3E0FD04
:102FAE00A3E0FEA3E0FF12008990017EE0F8A3E00B
:102FBE00F9A3E0FAA3E0FB12017ED003D002D00108
:102FCE00D00012008D90007F120993900087E0F8D8
:102FDE00A3E0F9A3E0FAA3E0FB90015EE0FCA3E01E
:102FEE00FDA3E0FEA3E0FF120089900182E0F8A3AA
:102FFE00E0F9A3E0FAA3E0FB12017E900083120930
:10300E00937F9A7E997D197CBF90007FE0F8A3E0B4
:10301E00F9A3E0FAA3E0FB120324500A7F9A7E99EB
:10302E007D197CBF80357F9A7E997D197C3F9000FB
:10303E007FE0F8A3E0F9A3E0FAA3E0FB120324601B
:10304E000C400A7F9A7E997D197C3F800E90007FFE
:10305E00E0FCA3E0FDA3E0FEA3E0FF90007F1209D9
:10306E009390007FE0FCA3E0FDA3E0FEA3E0FF90C1
:10307E00007BE0F8A3E0F9A3E0FAA3E0FB12008DD9
:10308E00900083E0F8A3E0F9A3E0FAA3E0FB1200BE
:10309E008D90013912099390015EE0FCA3E0FDA32F
:0B30AE00E0FEA3E0FF900087120993F2
:0130B90022F4
:104BA200D288D2A843B70143B801D28AD2AA43B766
:054BB2000443B80422D9
:104A1200124B06E47B0CFAF9F8120799E47B0AFAC6
:104A2200F9F812070EE47BE87A03F9F8120799C342
:104A3200E49FFFE49EF58C8F8A5389F0D2A9D2AF0E
:024A4200D28C14
:014A4400224F
:10436100E4FB7D107F0112414A7B017D207F011218
:10437100414AD200C201C202C2037D107F01124430
:10438100957B017D0C7F0212414A7B017D087F05EF
:1043910012414A7B017D20E4FF12414A7B017D806D
:1043A100E4FF12414A7B017D107F0412414A7B01E7
:1043B1007D087F0412414A7B017D047F0412414A3A
:1043C1007B017D027F0412414A7B017D407F021205
:1043D100414A7B017D807F0212414AE4FB7D047FDB
:1043E1000312414AE4FB7D087F0312414AE4FB7D4D
:1043F100107F0312414AE4FB7D017F0512414AE42B
:08440100FB7D087F0402414A23
:104ADA00124B067B007AC279017800120799E47BAF
:104AEA0004FAF9F8120799C3E49FFFE49E759850F7
:0B4AFA008FD7F5D6758E15C2ACD2AF79
:014B0500228D
:084CA4008F993099FDC299229D
:102C9D0090018612099F3E99999A90018A12099F77
:102CAD004040000090008FE0F8A3E0F9A3E0FAA304
:102CBD00E0FB90016AE0FCA3E0FDA3E0FEA3E0C30E
:102CCD009BFFEE9AFEED99FDEC98FC90008BE0F8E1
:102CDD00A3E0F9A3E0FAA3E0FBD312084F400302EF
:102CED002EBD90016AE0FCA3E0FDA3E0FEA3E0FF92
:102CFD0090008F1209937F0812476E7BCD7ACC79A5
:102D0D00CC783E12028790017A1209937F091247FF
:102D1D006E7B1F7A85792B783F12028790017E1288
:102D2D0009937F0A12476E7B8F7AC27975783E12AE
:102D3D00028790018212099390017EE0FCA3E0FDD1
:102D4D00A3E0FEA3E0FF90017AE0F8A3E0F9A3E091
:102D5D00FAA3E0FB12008D900182E0F8A3E0F9A345
:102D6D00E0FAA3E0FB12008DC004C005C006C00749
:102D7D0090017AE0F8A3E0F9A3E0FAA3E0FB90015B
:102D8D0082E0FCA3E0FDA3E0FEA3E0FF120089D0EA
:102D9D0003D002D001D000120287900093E0F8A377
:102DAD00E0F9A3E0FAA3E0FB12008990018AE0F8B4
:102DBD00A3E0F9A3E0FAA3E0FB12017EC004C00575
:102DCD00C006C00790017EE0FCA3E0FDA3E0FEA3DA
:102DDD00E0FF90017AE0F8A3E0F9A3E0FAA3E0FBAD
:102DED0012008D900182E0F8A3E0F9A3E0FAA3E0D0
:102DFD00FB12008DC004C005C006C00790017AE02B
:102E0D00F8A3E0F9A3E0FAA3E0FB900182E0FCA3B4
:102E1D00E0FDA3E0FEA3E0FF120089900186E0F83B
:102E2D00A3E0F9A3E0FAA3E0FB12017ED003D002E8
:102E3D00D001D000120287D003D002D001D00012F1
:102E4D00008D90017612099390017EE0FCA3E0FDC8
:102E5D00A3E0FEA3E0FF90017AE0F8A3E0F9A3E080
:102E6D00FAA3E0FB12008D900182E0F8A3E0F9A334
:102E7D00E0FAA3E0FB12008DC004C005C006C00738
:102E8D0090017AE0F8A3E0F9A3E0FAA3E0FB90014A
:102E9D0082E0FCA3E0FDA3E0FEA3E0FF120089D0D9
:102EAD0003D002D001D00012028790009312099333
:012EBD0022F2
:1024FC0090017A12099F0000000090017E12099F42
:10250C000000000090018212099F00000000900161
:10251C008612099F0000000090009BE0F8A3E0F9F0
:10252C00A3E0FAA3E0FB90016AE0FCA3E0FDA3E0CA
:10253C00FEA3E0C39BFFEE9AFEED99FDEC98FC9098
:10254C000097E0F8A3E0F9A3E0FAA3E0FBD31208AC
:10255C004F40030227C590016AE0FCA3E0FDA3E015
:10256C00FEA3E0FF90009B120993C2AF900166E0BE
:10257C00FCA3E0FDA3E0FEA3E0FF90011912099378
:10258C00900172E0FCA3E0FDA3E0FEA3E0FF90014C
:10259C001D120993D2AF90009FE0F8A3E0F9A3E0DD
:1025AC00FAA3E0FB900119E0FCA3E0FDA3E0FEA37D
:1025BC00E0C39BFFEE9AFEED99FDEC98FC90017E3A
:1025CC001209939000A3E0F8A3E0F9A3E0FAA3E0CA
:1025DC00FB90011DE0FCA3E0FDA3E0FEA3E0C39B88
:1025EC00FFEE9AFEED99FDEC98FC90017A1209939E
:1025FC00900119E0FCA3E0FDA3E0FEA3E0FF900036
:10260C009F12099390011DE0FCA3E0FDA3E0FEA343
:10261C00E0FF9000A312099390017EE0FCA3E0FD83
:10262C00A3E0FEA3E0FFEC1203AE9000F7A3A3E03F
:10263C00FAA3E09000A775F004120A0EEA25E02533
:10264C00E02583F58312099390017AE0FCA3E0FD69
:10265C00A3E0FEA3E0FFEC1203AE9000F7A3A3E00F
:10266C00FAA3E09000CF75F004120A0EEA25E025DB
:10267C00E02583F5831209939000F7120952E47B4D
:10268C000AFAF9F8D312084F500A9000F712099F72
:10269C00000000009000FB12099F00000000E47F86
:1026AC000AFEFDFC9000FBE0F8A3E0F9A3E0FAA31E
:1026BC00E0FBC312084F4003022761900182E0FC4B
:1026CC00A3E0FDA3E0FEA3E0FF9000FBA3A3A3E027
:1026DC009000A775F004120A0EEA25E025E0258388
:1026EC00F583E0F8A3E0F9A3E0FAA3E0FB12008D78
:1026FC00900182120993900186E0FCA3E0FDA3E017
:10270C00FEA3E0FF9000FBA3A3E0FAA3E09000CFB0
:10271C0075F004120A0EEA25E025E02583F583E026
:10272C00F8A3E0F9A3E0FAA3E0FB12008D90018678
:10273C001209939000FBE0FCA3E0FDA3E0FEA3E0F4
:10274C002401FFE43EFEE43DFDE43CFC9000FB1262
:10275C0009930226AA900182E0FCA3E0FDA3E0FE0F
:10276C00A3E0FFE4FBFA7920784112028790018202
:10277C00120993900186E0FCA3E0FDA3E0FEA3E028
:10278C00FFE4FBFA79207841120287900186120946
:10279C0093900182E0FCA3E0FDA3E0FEA3E0FF9098
:1027AC00016E120993900186E0FCA3E0FDA3E0FE0C
:0927BC00A3E0FF90010F12099344
:0127C50022F1
:1021CF0090017A12099F0000000090017E12099F72
:1021DF000000000090018212099F00000000900192
:1021EF008612099F0000000090018A12099F3DCCC2
:1021FF00CCCD90018E12099F38D1B717900103E013
:10220F00F8A3E0F9A3E0FAA3E0FB90016AE0FCA3D6
:10221F00E0FDA3E0FEA3E0C39BFFEE9AFEED99FD68
:10222F00EC98FC9000FFE0F8A3E0F9A3E0FAA3E03C
:10223F00FBD312084F40030224FB90016AE0FCA37A
:10224F00E0FDA3E0FEA3E0FF9001031209939001CC
:10225F000FE0FCA3E0FDA3E0FEA3E0FF90016EE022
:10226F00F8A3E0F9A3E0FAA3E0FB12008DE4FBFA78
:10227F00F9784012028790017A120993900125E0B4
:10228F00FCA3E0FDA3E0FEA3E0FF900121E0F8A393
:10229F00E0F9A3E0FAA3E0FB12008DE4FBFAF97872
:1022AF004012028790017E12099390017AE0F8A301
:1022BF00E0F9A3E0FAA3E0FB900131E0FCA3E0FD1D
:1022CF00A3E0FEA3E0FF1200899001821209939010
:1022DF00017EE0F8A3E0F9A3E0FAA3E0FB9001315F
:1022EF00E0FCA3E0FDA3E0FEA3E0FF120089900154
:1022FF0086120993900182E0FCA3E0FDA3E0FEA308
:10230F00E0FF90018AE0F8A3E0F9A3E0FAA3E0FB75
:10231F0012017E900107120993E4FFFE7DA07CC19C
:10232F00900107E0F8A3E0F9A3E0FAA3E0FB1203A2
:10233F00245009E4FFFE7DA07CC18033E4FFFE7DC5
:10234F00A07C41900107E0F8A3E0F9A3E0FAA3E035
:10235F00FB120324600B4009E4FFFE7DA07C41804B
:10236F000E900107E0FCA3E0FDA3E0FEA3E0FF90C9
:10237F00010712099390010BE0F8A3E0F9A3E0FA2B
:10238F00A3E0FBC000C001C002C003900186E0FCC7
:10239F00A3E0FDA3E0FEA3E0FF90018EE0F8A3E031
:1023AF00F9A3E0FAA3E0FB12017ED003D002D00123
:1023BF00D00012008D90010B1209937FCD7ECC7D42
:1023CF00CC7C3D90010BE0F8A3E0F9A3E0FAA3E089
:1023DF00FB1203246031402F90012DE0F8A3E0F9A8
:1023EF00A3E0FAA3E0FB90015EE0FCA3E0FDA3E015
:1023FF00FEA3E0FF120089E4FBFA797078C11203A3
:10240F00246004400280467FCD7ECC7DCC7CBD9085
:10241F00010BE0F8A3E0F9A3E0FAA3E0FB12032419
:10242F00503590012DE0F8A3E0F9A3E0FAA3E0FB0B
:10243F0090015EE0FCA3E0FDA3E0FEA3E0FF12002D
:10244F0089E4FBFA79707841120324500A90010B4A
:10245F0012099F00000000E4FFFE7D487CC290013E
:10246F000BE0F8A3E0F9A3E0FAA3E0FB120324507A
:10247F0009E4FFFE7D487CC28033E4FFFE7D487C8B
:10248F004290010BE0F8A3E0F9A3E0FAA3E0FB12FE
:10249F000324600B4009E4FFFE7D487C42800E90D0
:1024AF00010BE0FCA3E0FDA3E0FEA3E0FF90010B16
:1024BF00120993900107E0FCA3E0FDA3E0FEA3E067
:1024CF00FF90012DE0F8A3E0F9A3E0FAA3E0FB12DF
:1024DF00008D90012912099390010BE0FCA3E0FD00
:0C24EF00A3E0FEA3E0FF9001351209936A
:0124FB0022BE
:1048D100124A1212000E124361124ADA7F05124C7B
:1048E10077E4FF124C777F04124C77D200124BCC45
:1048F100124BA2123FD8124C697B017A0179421204
:104901001DE0123C8412321C1247C91224FC1245CC
:0C491100181221CF122EBE122C9D80E641
:030003000245991A
:10459900C0E0C0F0C083C08263A201C083C082C0F2
:1045A900D075D000C000C001C002C004C005C0065B
:1045B900C007900166E0FCA3E0FDA3E0FEA3E0FFD5
:1045C90030CA12E4FAF9F8EF2401FFEA3EFEE93DA8
:1045D900FDE83C800FEF24FFFFEE34FFFEED34FFD2
:1045E900FDEC34FFFC900166120993D007D006D088
:1045F90005D004D002D001D000D0D0D082D08363BE
:0B460900A201D082D083D0F0D0E032BC
:03000B0002482286
:10482200C0E0C0F0C083C08263A201C083C082C066
:10483200D075D000C000C004C005C006C0079001FA
:104842006AE0FCA3E0FDA3E0FEA3E0240AFFE43E4D
:10485200FEE43DFDE43CFC90016A120993D007D0CE
:1048620006D005D004D000D0D0D082D08363A2017C
:09487200D082D083D0F0D0E032F6
:030013000246148E
:10461400C0E0C0F0C083C08263A201C083C082C076
:10462400D075D000C000C001C002C004C005C006DF
:10463400C007900172E0FCA3E0FDA3E0FEA3E0FF4D
:1046440020C812E4FAF9F8EF2401FFEA3EFEE93D3E
:10465400FDE83C800FEF24FFFFEE34FFFEED34FF56
:10466400FDEC34FFFC900172120993D007D006D000
:1046740005D004D002D001D000D0D0D082D0836342
:0B468400A201D082D083D0F0D0E03241
:0300530002000A9E
:01000A0032C3
:03005B0002468FCB
:10468F00C0E0C0F0C083C08263A201C083C082C0FB
:10469F00D075D000C000C001C002C004C005C00664
:1046AF00C007900172E0FCA3E0FDA3E0FEA3E0FFD2
:1046BF0020B612E4FAF9F8EF2401FFEA3EFEE93DD5
:1046CF00FDE83C800FEF24FFFFEE34FFFEED34FFDB
:1046DF00FDEC34FFFC900172120993D007D006D085
:1046EF0005D004D002D001D000D0D0D082D08363C7
:0B46FF00A201D082D083D0F0D0E032C6
:0300830002001167
:0100110032BC
:104C3C007F0312476EE4FBFA7930784112017E2231
:104B2C007F0212476EE4FBFA7930784112017EE481
:104B3C00FBFA7980784112032460054003D380018D
:024B4C00C32282
:10005E0067785F7A65726F3A25662C2067795F7ACA
:10006E0065726F3A25662C20677A5F7A65726F3AF1
:05007E0025660D0A00DB
:1029FD004401C0000000004401C400000000440177
:102A0D00C8000000004401CC3F4CCCCD042E3F80CB
:102A1D000000043200000000043600000000043AFB
:102A2D000000000004220000000004260000000049
:062A3D00042A0000000065
:074C8500D295124C8CC29580
:044C8C007F0BDFFEBD
:014C90002201
:104B6F00124C8C124C8CD294D295124C8C124C8CC1
:0A4B7F00C294124C8CC295024C8CBB
:0F4C4C00124C8CC294D295124C8CD294024C8C88
:104BF600D294124C8CD295124C8CA294C295124C23
:024C06008C22FE
:024BB700AE0747
:104BB900E4FDEE25E0FE9294124C850DEDB408F269
:034BC900024BF6A6
:104B4E00E4FED294FDEE25E0FED295124C8CA2949A
:104B5E00E4334EFEC295124C8C0DEDB408E7AF0651
:014B6E002224
:104B8900AC05AB07124B6F7FD0124BB7AF03124B7B
:094B9900B7AF04124BB7024C4CFB
:104AAB00124C8C124C8C124C8C124C8CE4FD7F6B88
:104ABB00124B897D077F19124B897D047F1A124B8C
:0F4ACB00897D087F1B124B897D087F1C024B8958
:0B470A0090018FEBF0A3EAF0A3E9F0B0
:10471500124B6F7FD0124BB77F3B124BB7124B6FCB
:104725007FD1124BB7E4FC124B4E90018FE0FBA3F7
:10473500E0FAA3E0F98C82758300EF1206C4C294F7
:10474500124C850CECB40DDF124B4E90018FE0FB43
:10475500A3E0FAA3E0F9AE048E82758300EF12069A
:09476500C4D294124C85024C4CA4
:0B0AAA0090018FEBF0A3EAF0A3E9F04D
:100AB5001208737B397AFA798E783C12017E90019F
:100AC5009212099390018FE0FBA3E0FAA3E0F9905D
:100AD50000041208937B397AFA798E783C12017EEC
:100AE50090019612099390018FE0FBA3E0FAA3E031
:100AF500F99000081208937B397AFA798E783C12BE
:100B0500017E90019A12099390018FE0FBA3E0FA10
:100B1500A3E0F9900010120893A804A905AA06AB52
:100B25000712017EC004C005C006C00790018FE012
:100B3500FBA3E0FAA3E0F990000C120893A804A91E
:100B450005AA06AB0712017ED003D002D001D00062
:100B550012008DC004C005C006C00790018FE0FBE0
:100B6500A3E0FAA3E0F9900014120893A804A905DC
:100B7500AA06AB0712017ED003D002D001D0001225
:100B8500008D1242B98F0B8E0A8D098C0890018F4A
:100B9500E0FBA3E0FAA3E0240CF9E43AFAC003C0B1
:100BA50002C001120873AB0BAA0AA909A808120210
:100BB50087D001D002D0031208C390018FE0FBA3B8
:100BC500E0FAA3E02410F9E43AFAC003C002C00138
:100BD500120873AB0BAA0AA909A808120287D0014B
:100BE500D002D0031208C390018FE0FBA3E0FAA363
:100BF500E02414F9E43AFAC003C002C001120873F4
:100C0500AB0BAA0AA909A808120287D001D002D005
:100C1500031208C37836120901782E120929120128
:100C25007EC004C005C006C007783A1209017832B3
:100C350012092912017ED003D002D001D000120082
:100C450089E4FBFAF9784012017E783E120987782B
:100C55003A120901783612092912017EC004C0052D
:100C6500C006C0077832120901782E12092912012F
:100C75007ED003D002D001D00012008DE4FBFAF93A
:100C8500784012017E78421209877832120901787C
:100C95003212092912017EC004C005C006C00778BA
:100CA5002E120901782E12092912017ED003D002D5
:100CB500D001D000120089C004C005C006C0077865
:100CC50036120901783612092912017EA804A905F0
:100CD500AA06AB07D007D006D005D004120089C0FC
:100CE50004C005C006C007783A120901783A12090E
:100CF5002912017ED003D002D001D00012008D78D8
:100D05004612098790018FE0FBA3E0FAA3E0F99072
:100D15000014120893784212092912017EC004C0FA
:100D250005C006C00790018FE0FBA3E0FAA3E0F938
:100D3500900010120893784612092912017ED003FB
:100D4500D002D001D000120089784A12098790019B
:100D55008FE0FBA3E0FAA3E0F990000C120893786A
:100D65004612092912017EC004C005C006C00790BD
:100D7500018FE0FBA3E0FAA3E0F9900014120893B9
:100D8500783E12092912017ED003D002D001D0008D
:100D9500120089784E12098790018FE0FBA3E0FAD3
:100DA500A3E0F9900010120893783E120929120168
:100DB5007EC004C005C006C00790018FE0FBA3E01C
:100DC500FAA3E0F990000C1208937842120929124F
:100DD500017ED003D002D001D000120089785212D2
:100DE50009877822120929C000C001C002C0037F0B
:100DF5006F7E127D837C3A784A12092912017ED0D2
:100E050003D002D001D00012008D78221209877814
:100E150026120929C000C001C002C0037F6F7E12DF
:100E25007D837C3A784E12092912017ED003D002C7
:100E3500D001D00012008D7826120987782A120970
:100E450029C000C001C002C0037F6F7E127D837C74
:100E55003A785212092912017ED003D002D001D06E
:100E65000012008D782A120987784A12090190012B
:100E7500CCE0F8A3E0F9A3E0FAA3E0FB12017E9031
:100E85000192E0F8A3E0F9A3E0FAA3E0FB12008DDC
:100E9500782212092912008D900192120993784E39
:100EA5001209019001CCE0F8A3E0F9A3E0FAA3E070
:100EB500FB12017E900196E0F8A3E0F9A3E0FAA306
:100EC500E0FB12008D782612092912008D900196FB
:100ED50012099378521209019001CCE0F8A3E0F9C8
:100EE500A3E0FAA3E0FB12017E90019AE0F8A3E0EB
:100EF500F9A3E0FAA3E0FB12008D782A1209291262
:100F0500008D90019A120993782E120929C000C00C
:100F150001C002C003783212090112039D900192AB
:100F2500E0F8A3E0F9A3E0FAA3E0FB12017EC00418
:100F3500C005C006C007900196E0FCA3E0FDA3E054
:100F4500FEA3E0FF783612092912017EA804A9053F
:100F5500AA06AB07D007D006D005D004120089C079
:100F650004C005C006C00790019AE0FCA3E0FDA3FC
:100F7500E0FEA3E0FF783A12092912017EA804A930
:100F850005AA06AB07D007D006D005D00412008904
:100F95007B0A7AD779A3783B12017ED003D002D0A1
:100FA50001D00012008D782E120987783212092996
:100FB500C000C001C002C00390019AE0FCA3E0FD9F
:100FC500A3E0FEA3E0FF783612092912017EC004D2
:100FD500C005C006C007900192E0FCA3E0FDA3E0B8
:100FE500FEA3E0FF782E12092912017ED003D0025C
:100FF500D001D00012008DC004C005C006C0079006
:101005000196E0FCA3E0FDA3E0FEA3E0FF783A1221
:10101500092912017EA804A905AA06AB07D007D0A5
:1010250006D005D0041200897B0A7AD779A3783BCC
:1010350012017ED003D002D001D00012008D78328B
:101045001209877836120929C000C001C002C00301
:1010550090019AE0FCA3E0FDA3E0FEA3E0FF783257
:1010650012092912017EC004C005C006C0079001FF
:1010750096E0FCA3E0FDA3E0FEA3E0FF782E1209B5
:101085002912017ED003D002D001D000120089C000
:1010950004C005C006C007900192E0FCA3E0FDA3D3
:1010A500E0FEA3E0FF783A12092912017ED003D0B1
:1010B50002D001D00012008D7B0A7AD779A3783B44
:1010C50012017ED003D002D001D00012008D7836F7
:1010D500120987783A120929C000C001C002C0036D
:1010E500900196E0FCA3E0FDA3E0FEA3E0FF7832CB
:1010F50012092912017EC004C005C006C00790016F
:101105009AE0FCA3E0FDA3E0FEA3E0FF782E120920
:101115002912017ED003D002D001D00012008DC06B
:1011250004C005C006C007900192E0FCA3E0FDA342
:10113500E0FEA3E0FF783612092912017EA804A972
:1011450005AA06AB07D007D006D005D00412008942
:101155007B0A7AD779A3783B12017ED003D002D0DF
:1011650001D00012008D783A1209877832120901F0
:10117500783212092912017EC004C005C006C007D5
:10118500782E120901782E12092912017ED003D07A
:1011950002D001D00012008DC004C005C006C007F2
:1011A5007836120901783612092912017ED003D04A
:1011B50002D001D00012008DC004C005C006C007D2
:1011C500783A120901A804A905AA06AB0712017EFF
:1011D500D003D002D001D00012008D1242B98F0B7E
:1011E5008E0A8D098C08782E120901AB0BAA0AA963
:1011F50009A808120287782E120987783212090188
:10120500AB0BAA0AA909A808120287783212098726
:101215007836120901AB0BAA0AA909A80812028798
:101225007836120987783A120901AB0BAA0AA9097F
:10123500A808120287783A120987783A12090178C4
:101245003212092912017EC004C005C006C0077804
:1012550036120901782E12092912017ED003D00217
:10126500D001D000120089E4FBFAF9784012017E22
:101275001249A17BE17A2E7965784212017E9001AF
:101285008FE0FBA3E0FAA3E0F99000181208DD78DF
:101295003A120901783612092912017EC004C005E7
:1012A500C006C0077832120901782E1209291201E9
:1012B5007ED003D002D001D00012008DE4FBFAF9F4
:1012C500784012017E1249A17BE17A2E7965784238
:1012D50012017E90018FE0FBA3E0FAA3E0F99000F4
:0412E5001C0208DD02
:0B1DE00090017AEBF0A3EAF0A3E9F019
:101DEB00E4A3F0A3F09001C012099F000000009043
:101DFB0001C412099F000000009001C812099F0046
:101E0B0000000090017AE0FBA3E0FAA3E0F9900058
:101E1B000C1209EA000000009000101209EA000001
:101E2B0000009000141209EA000000001209D00013
:101E3B0000000090017AE0FBA3E0FAA3E0F9900028
:101E4B00041209EA000000009000081209EA0000E1
:101E5B000000E490017DF0A3F07B017A01797F1201
:101E6B00470A90017AE0FBA3E0FAA3E0240CF9E423
:101E7B003AFAC003C002C001120873C004C005C007
:101E8B0006C00790017FE0FCA3E0FDEC1203B3E476
:101E9B00FBFAF97846120287A804A905AA06AB0734
:101EAB00D007D006D005D00412008DD001D002D0BF
:101EBB00031208C390017AE0FBA3E0FAA3E024101D
:101ECB00F9E43AFAC003C002C001120873C004C09F
:101EDB0005C006C007900181E0FCA3E0FDEC1203F6
:101EEB00B3E4FBFAF97846120287A804A905AA06FF
:101EFB00AB07D007D006D005D00412008DD001D08F
:101F0B0002D0031208C390017AE0FBA3E0FAA3E02E
:101F1B002414F9E43AFAC003C002C001120873C0DA
:101F2B0004C005C006C007900183E0FCA3E0FDECF4
:101F3B001203B3E4FBFAF97846120287A804A90549
:101F4B00AA06AB07D007D006D005D00412008DD05F
:101F5B0001D002D0031208C39001C0E0F8A3E0F94E
:101F6B00A3E0FAA3E0FBC000C001C002C0039001D4
:101F7B0087E0FCA3E0FDEC1203B3E4FBFA79837872
:101F8B0042120287D003D002D001D00012008D90F4
:101F9B0001C01209939001C4E0F8A3E0F9A3E0FAA1
:101FAB00A3E0FBC000C001C002C003900189E0FCAC
:101FBB00A3E0FDEC1203B3E4FBFA7983784212023F
:101FCB0087D003D002D001D00012008D9001C41233
:101FDB0009939001C8E0F8A3E0F9A3E0FAA3E0FBB2
:101FEB00C000C001C002C00390018BE0FCA3E0FD68
:101FFB00EC1203B3E4FBFA79837842120287D00325
:10200B00D002D001D00012008D9001C8120993901C
:10201B00017EE004F0700690017DE004F0C39001B6
:10202B007EE0946490017DE0648094805003021EF6
:10203B006490017AE0FBA3E0FAA3E0240CF9E43A04
:10204B00FAC003C002C001120873E4FBFA79C87826
:10205B0042120287D001D002D0031208C390017A3A
:10206B00E0FBA3E0FAA3E02410F9E43AFAC003C0C2
:10207B0002C001120873E4FBFA79C8784212028796
:10208B00D001D002D0031208C390017AE0FBA3E089
:10209B00FAA3E02414F9E43AFAC003C002C0011217
:1020AB000873E4FBFA79C87842120287D001D00298
:1020BB00D0031208C39001C0E0FCA3E0FDA3E0FE37
:1020CB00A3E0FFE4FBFA79C878421202879001C0C3
:1020DB001209939001C4E0FCA3E0FDA3E0FEA3E092
:1020EB00FFE4FBFA79C878421202879001C4120907
:1020FB00939001C8E0FCA3E0FDA3E0FEA3E0FFE4A6
:10210B00FBFA79C878421202879001C812099390A2
:10211B0001CCE0FCA3E0FDA3E0FEA3E0FFE4FBFAAF
:10212B007920784112017E9001CC120993E4900141
:10213B007DF0A3F090017AE0FBA3E0FAA3E0F912A3
:10214B000AAA90017EE004F0700690017DE004F095
:10215B00C390017EE094C890017DE0648094804040
:10216B00D39001CCE0FCA3E0FDA3E0FEA3E0FFE4F1
:10217B00FBFA792078411202879001CC1209937BEC
:10218B00FF7A00795E9001C0E0FCA3E0FDA3E0FEC6
:10219B00A3E0FF9001921209939001C4E0FCA3E02D
:1021AB00FDA3E0FEA3E0FF9001961209939001C8F6
:1021BB00E0FCA3E0FDA3E0FEA3E0FF90019A12096F
:0421CB00930219C89A
:0E4C6900124AAB7FE87E037D007C0002487B90
:0B348C0090017AEBF0A3EAF0A3E9F056
:103497007B017A01797D12470A90017DE0FCA3E068
:1034A700FDEC1203B3E4FBFAF978461202879001A8
:1034B7007AE0FBA3E0FAA3E0F990000C1208DD9094
:1034C700017FE0FCA3E0FDEC1203B3E4FBFAF9781B
:1034D7004612028790017AE0FBA3E0FAA3E0F99095
:1034E70000101208DD900181E0FCA3E0FDEC12035F
:1034F700B3E4FBFAF9784612028790017AE0FBA35E
:10350700E0FAA3E0F99000141208DD900185E0FCD1
:10351700A3E0FDEC1203B3E4FBFA798378421202CD
:10352700879001C0E0F8A3E0F9A3E0FAA3E0FB125B
:10353700008990017AE0FBA3E0FAA3E0F91208C33F
:10354700900187E0FCA3E0FDEC1203B3E4FBFA79FA
:103557008378421202879001C4E0F8A3E0F9A3E060
:10356700FAA3E0FB12008990017AE0FBA3E0FAA33B
:10357700E0F99000041208DD900189E0FCA3E0FD6A
:10358700EC1203B3E4FBFA798378421202879001C5
:10359700C8E0F8A3E0F9A3E0FAA3E0FB12008990E2
:1035A700017AE0FBA3E0FAA3E0F99000081208DD36
:0335B700020AAA5B
:104B0600E59D701990FE01E0C394027F0050077E78
:104B1600807D517C01227EC07DA87C00227F007EA4
:064B2600407DFA7C012233
:03000E00D2AF224C
:03005600C2AF2214
:104C08004D4F544F525F4B5F434F4D503A25660D01
:024C18000A0090
:0E2A43004401EC3C23D70A4401E88000000067
:103FD800D2A6D2A79001EC12099F3C23D70AE4FF8E
:103FE800FE7D207C419001ECE0F8A3E0F9A3E0FA23
:103FF800A3E0FB12032460054003024093E4FFFEA4
:104008007D807C3F9001ECE0F8A3E0F9A3E0FAA3FF
:10401800E0FB12008DC004C005C006C007E4FFFE27
:104028007D307C419001ECE0F8A3E0F9A3E0FAA32D
:10403800E0FB12017ED003D002D001D0001202872B
:10404800E4FBFA79C07840120324501D7BFF7A4CB8
:1040580079089001ECE0FCA3E0FDA3E0FEA3E0FFFB
:104068009001921209930219C89001ECE0FCA3E0B8
:10407800FDA3E0FEA3E0FF7B0A7AD77923783C1200
:0C408800008D9001EC120993023FE6222B
:063926009001D812099384
:10392C009001DC12099F00000000E4FFFE7D807C0A
:10393C00BF9001D8E0F8A3E0F9A3E0FAA3E0FB12F2
:10394C0003245009E4FFFE7D807CBF8033E4FFFE3E
:10395C007D807C3F9001D8E0F8A3E0F9A3E0FAA3C6
:10396C00E0FB120324600B4009E4FFFE7D807C3FEA
:10397C00800E9001D8E0FCA3E0FDA3E0FEA3E0FFE5
:10398C009001D812099390013DE0FCA3E0FDA3E067
:10399C00FEA3E0FF9001ECE0F8A3E0F9A3E0FAA3AA
:1039AC00E0FB12008DC004C005C006C0079001ECFE
:1039BC00E0FCA3E0FDA3E0FEA3E0FF9001D8E0F85B
:1039CC00A3E0F9A3E0FAA3E0FB12017ED003D0023E
:1039DC00D001D0001202879001DC1209939001DC17
:1039EC00E0F8A3E0F9A3E0FAA3E0FBC000C001C03B
:1039FC0002C0039001E8E0F8A3E0F9A3E0FAA3E029
:103A0C00FBE4FFFE7D807C3F120089D003D002D006
:103A1C0001D00012017E9001DC120993E4FFFE7DBF
:103A2C00C87C429001DCE0F8A3E0F9A3E0FAA3E043
:0A3A3C00FB12017E1203EC02335767
:063A46009001E01209935B
:103A4C009001E412099F00000000E4FFFE7D807CE1
:103A5C00BF9001E0E0F8A3E0F9A3E0FAA3E0FB12C9
:103A6C0003245009E4FFFE7D807CBF8033E4FFFE1D
:103A7C007D807C3F9001E0E0F8A3E0F9A3E0FAA39D
:103A8C00E0FB120324600B4009E4FFFE7D807C3FC9
:103A9C00800E9001E0E0FCA3E0FDA3E0FEA3E0FFBC
:103AAC009001E012099390013DE0FCA3E0FDA3E03E
:103ABC00FEA3E0FF9001ECE0F8A3E0F9A3E0FAA389
:103ACC00E0FB12008DC004C005C006C0079001ECDD
:103ADC00E0FCA3E0FDA3E0FEA3E0FF9001E0E0F832
:103AEC00A3E0F9A3E0FAA3E0FB12017ED003D0021D
:103AFC00D001D0001202879001E41209939001E4E6
:103B0C00E0F8A3E0F9A3E0FAA3E0FBC000C001C019
:103B1C0002C003E4FFFE7D807C3F9001E8E0F8A347
:103B2C00E0F9A3E0FAA3E0FB12008DD003D002D0A1
:103B3C0001D00012017E9001E4120993E4FFFE7D96
:103B4C00C87C429001E4E0F8A3E0F9A3E0FAA3E01A
:0A3B5C00FB12017E1203EC023B662F
:103357009001F4120993E47F64FEFDFC9001F4E010
:10336700F8A3E0F9A3E0FAA3E0FBD3120839400879
:10337700E47F64FEFDFC800E9001F4E0FCA3E0FD19
:10338700A3E0FEA3E0FF9001F412099374FF7F9C72
:10339700FEFDFC9001F4E0F8A3E0F9A3E0FAA3E056
:1033A700FBC3120839500974FF7F9CFEFDFC800E99
:1033B7009001F4E0FCA3E0FDA3E0FEA3E0FF900191
:1033C700F41209939001F4E0FCA3E0FDA3E0FEA34F
:1033D700E0FF12082B9001F4120993E4FFFEFDFCB5
:1033E7009001F4E0F8A3E0F9A3E0FAA3E0FBD3121D
:1033F700083990017C403F12099F000065909001B9
:103407008012099F00000000E4900184F0A3F07D82
:10341700047F041212E990017C12099F0000659055
:103427009001F4E0FCA3E0FDA3E0FEA3E0FF900120
:1034370080120993804012099F000065909001F463
:10344700E0FCA3E0FDA3E0FEA3E0FF12082B900140
:1034570080120993E4900184F0A3F07D047F0412A5
:1034670012E990017C12099F00006590900180127B
:10347700099F00000000E4900184F0A3F07D037F22
:05348700041212E9220D
:103B66009001F8120993E47F64FEFDFC9001F8E0F1
:103B7600F8A3E0F9A3E0FAA3E0FBD3120839400862
:103B8600E47F64FEFDFC800E9001F8E0FCA3E0FDFE
:103B9600A3E0FEA3E0FF9001F812099374FF7F9C57
:103BA600FEFDFC9001F8E0F8A3E0F9A3E0FAA3E03B
:103BB600FBC3120839500974FF7F9CFEFDFC800E82
:103BC6009001F8E0FCA3E0FDA3E0FEA3E0FF900176
:103BD600F8120993E4FFFEFDFC9001F8E0F8A3E07B
:103BE600F9A3E0FAA3E0FBD312083990017C403F29
:103BF60012099F0000659090018012099F00000045
:103C060000E4900184F0A3F07D027F041212E99093
:103C1600017C12099F000065909001F8E0FCA3E08A
:103C2600FDA3E0FEA3E0FF900180120993804012FD
:103C3600099F000065909001F8E0FCA3E0FDA3E079
:103C4600FEA3E0FF12082B900180120993E4900175
:103C560084F0A3F07D027F041212E990017C120920
:103C66009F0000659090018012099F00000000E40B
:0E3C7600900184F0A3F07D017F041212E92278
:104BCC00E4F5BCA20033C4333333548042BCE4F567
:054BDC00DE43DE202293
:05476E0090018EEFF048
:104773007F0F124C91124C1A90018FEEF0A3EFF0C1
:1047830090018EE0FF124C91124C1AAD07AC06E477
:104793001203B37BEC7A517998783F12017EC004FF
:1047A300C005C006C00790018FE0FCA3E0FDE41242
:1047B30003B3A804A905AA06AB07D007D006D00502
:0547C300D00412028782
:0147C80022CE
:0A4C910053BCF0EF42BC43BC4022CC
:104C1A00E5BC30E5FB120006AFBDEFFEADBEEDFF11
:014C2A002267
:0400060053BCDF22E6
:10414A00EF14603014604714605E146075147003D5
:10415A000241E6240560030241FFEB30E105ED422E
:10416A00938004EDF45293EB30E004ED429422ED97
:10417A00F4529422EB30E105ED42918004EDF452C1
:10418A0091EB30E004ED429222EDF4529222EB30B0
:10419A00E105ED42958004EDF45295EB30E004ED33
:1041AA00429622EDF4529622EB30E105ED42B180BF
:1041BA0004EDF452B1EB30E004ED42B222EDF452D8
:1041CA00B222EB30E105ED42B38004EDF452B3EBD9
:1041DA0030E004ED42B422EDF452B422EB30E105B2
:1041EA00ED42C98004EDF452C9EB30E004ED42CA55
:0641FA0022EDF452CA227E
:1044950075BA80EF2410FBE434FE3000098B82F5F9
:1044A50083E04DF0800C8B82F583E0FEEDF4FCEEAD
:1044B5005CF0EF2418FBE434FE3001098B82F583B0
:1044C500E04DF0800C8B82F583E0FEEDF4FCEE5CB4
:1044D500F0EF2420FBE434FE3002098B82F583E003
:1044E5004DF0800C8B82F583E0FEEDF4FCEE5CF084
:1044F500EF2428FFE434FE3003098F82F583E04D75
:10450500F0800C8F82F583E0FFEDF4FEEF5EF07531
:03451500BA802247
:0E4C77007401A807088002C333D8FC42F12262
:103D680090019BEDF0A3EBF0A90775BA80E9C39425
:103D7800035041E0FF7401A807088002C333D8FC50
:103D8800FDE975F050A42415FBE5F034FFFA900125
:103D98009BE075F008A42BFFE5F03A8F82F583EDE0
:103DA800F0E975F050A42414FDE5F034FFFC90010F
:103DB8009BE0804C90019CE0FF7401A807088002FA
:103DC800C333D8FCFBE9FF7E007C007D501206E679
:103DD800EF2425FDEE34FBFC90019BE0FA75F0081A
:103DE800A42DFFE5F03C8F82F583EBF0E9FF7E0020
:103DF8007C007D501206E6EF2424FDEE34FBFCEA3D
:103E080075F008A42DFFE5F03C8F82F583E044802F
:103E1800F0E4F5BAE914601414601514601614601F
:103E2800171460182405701743F6012243F6102270
:103E380043F7012243F7102243FE012243FE1022DA
:0812E90090017AEFF0A3EDF093
:1012F10090018674FFF0A312099F00000000900185
:101301008B12099F0000000090018F12099F0000BD
:10131100000090019312099F0000000090019712B4
:10132100099F00000000900185E0B40127E47F647B
:10133100FEFDFC900180E0F8A3E0F9A3E0FAA3E050
:10134100FBC312084F400D90018012099F0000005D
:101351006202141B900185E07025FFFEFDFC9001E7
:1013610080E0F8A3E0F9A3E0FAA3E0FBC312084F81
:10137100700D90018012099F0000000202141B9061
:101381000185E0701B7F64FEFDFC900180E0F8A305
:10139100E0F9A3E0FAA3E0FBC312084F4002806D1D
:1013A100900185E0701AFFFEFDFC900180E0F8A33A
:1013B100E0F9A3E0FAA3E0FBC312084F7002802119
:1013C100900185E0B40126E47F64FEFDFC9001807C
:1013D100E0F8A3E0F9A3E0FAA3E0FBC312084F4051
:1013E1000C90017AE0FFA3E0FD7B01802A9001854A
:1013F100E0B40126E4FFFEFDFC900180E0F8A3E0EB
:10140100F9A3E0FAA3E0FBC312084F700D90017A33
:10141100E0FFA3E0FDE4FB023D68900186E004F0FB
:10142100124B06C006C007900186E0FF3395E0FE2F
:10143100EF2401FFE43EAB07FA3395E0F9F8D0075A
:10144100D00612079990017CE0F8A3E0F9A3E0FA35
:10145100A3E0FB120799900187120993900186E09E
:10146100C36480948F5018E47FFF7E7FFDFCA3E06E
:10147100F8A3E0F9A3E0FAA3E0FB12084F509B9018
:101481000187E0FCA3E0FDA3E0FEA3E0FFA31209B6
:1014910093900180E0FCA3E0FDA3E0FEA3E0FF90B8
:1014A100018BE0F8A3E0F9A3E0FAA3E0FB12070E39
:1014B100E47B64FAF9F8120799E47B02FAF9F8126D
:1014C1000799900197120993900197E0FCA3E0FD21
:1014D100A3E0FEA3E0FFC004C005C006C007900161
:1014E10084E0FFE4FCFDFE90018BE0F8A3E0F9A3AA
:1014F100E0FAA3E0FB12070EE47B64FAF9F81207A5
:1015010099AB07AA06A905A804D007D006D005D033
:1015110004C3EF9BFFEE9AFEED99FDEC98FC900160
:1015210097120993900197E0FCEC335007E4FFFE1A
:10153100FDFC800E900197E0FCA3E0FDA3E0FEA37B
:10154100E0FF900197120993900185E06003021575
:10155100D87B02FAF9F890018BE0FCA3E0FDA3E04F
:10156100FEA3E0FF120799C004C005C006C00790A2
:101571000197E0FCA3E0FDA3E0FEA3E0FBAA06A91E
:1015810005A804D007D006D005D004C3EF9BFFEE19
:101591009AFEED99FDEC98FC90018F120993E47B82
:1015A10002FAF9F890018BE0FCA3E0FDA3E0FEA3B1
:1015B100E0FF120799A804A905AA06AB07900197B5
:1015C100E0FCA3E0FDA3E0FEA3E02BFFEA3EFEE981
:1015D1003DFDE83C021666900185E064016003026E
:1015E100166D7B02FAF9F890018BE0FCA3E0FDA3F4
:1015F100E0FEA3E0FF120799A804A905AA06AB071C
:10160100900197E0FCA3E0FDA3E0FEA3E02BFFEA3D
:101611003EFEE93DFDE83CFC90018F120993E47B1D
:1016210002FAF9F890018BE0FCA3E0FDA3E0FEA330
:10163100E0FF120799C004C005C006C007900197DA
:10164100E0FCA3E0FDA3E0FEA3E0FBAA06A905A838
:1016510004D007D006D005D004C3EF9BFFEE9AFE5D
:10166100ED99FDEC98FC90019312099375BA809065
:10167100017AE0C3940340030217A8E0F975F05022
:10168100A4FBAAF02415FDEA34FFFCA3E075F008E1
:10169100A42DFFE5F03C8F82F583E4F090018BE00F
:1016A100FCA3E0FDA3E0FEA3E0FF7808120860E4DC
:1016B1002BFDEA34FF8D82F583EFF090018BA3A31C
:1016C100A3E0FDE975F050A4FFAEF02401FBEE3478
:1016D100FF8B82F583EDF0900186E0FDEF2402FFA0
:1016E100EE34FF8F82F583EDF0E0F090018FE0FCA6
:1016F100A3E0FDA3E0FEA3E0FF7808120860AD07B8
:10170100E975F050A42410FBE5F034FFFA90017B59
:10171100E075F008A42BFFE5F03A8F82F583EDF038
:1017210090018FA3A3A3E0FD90017BE075F008A4D5
:10173100FBAAF0E975F050A42BFBE5F03AFAEB2493
:1017410011FFEA34FF8F82F583EDF0900193E0FC05
:10175100A3E0FDA3E0FEA3E0FF7808120860EB24FC
:1017610012FDEA34FF8D82F583EFF0900193A3A37C
:10177100A3E0FD90017BE075F008A4FBAAF0E975F8
:10178100F050A42BFFE5F03ACF2413CF34FF8F8222
:10179100F583EDF0E975F050A42414FFE5F034FF72
:1017A100CF2BCF3A02192390017AE0FBFF7E007C18
:1017B100007D501206E6EF2425FDEE34FBFCA3E08C
:1017C100F975F008A42DFFE5F03C8F82F583E4F074
:1017D10090018BE0FCA3E0FDA3E0FEA3E0FF78080D
:1017E100120860AA07EBFF7E007C007D501206E61E
:1017F100EF2410FFEE34FB8F82F583EAF090018B2A
:10180100A3A3A3E0FB90017AE0FAFF7E001206E6B3
:10181100EF2411FDEE34FB8D82F583EBF090018610
:10182100E0FDEF2412FFEE34FB8F82F583EDF0E053
:10183100F090018FE0FCA3E0FDA3E0FEA3E0FF78C0
:1018410008120860AB07EAFF7E007C007D5012069B
:10185100E6EF2420FDEE34FBFCE975F008A42DFF32
:10186100E5F03C8F82F583EBF090018FA3A3A3E019
:10187100FB90017AE0FAFF7E007C007D501206E6C3
:10188100AC06AD07E975F008A42DFFEC35F0CF24C7
:1018910021CF34FB8F82F583EBF0900193E0FCA321
:1018A100E0FDA3E0FEA3E0FF7808120860AB07EAC1
:1018B100FF7E007C007D501206E6AC06AD07E9759F
:1018C100F008A42DFFEC35F0CF2422CF34FB8F821A
:1018D100F583EBF0900193A3A3A3E0FB90017AE0E1
:1018E100FAFF7E007C007D501206E6AC06AD07E9EA
:1018F10075F008A42DFFEC35F0CF2423CF34FB8FF6
:1019010082F583EBF0EAFF7E007C007D501206E653
:10191100EF2424FDEE34FBFCE975F008A42DFFE56E
:10192100F03C8F82F583E04480F0E4F5BA90017ACF
:10193100E014601414601514601614601714601814
:101941002405701743F6012243F6102243F70122C2
:0B19510043F7102243FE012243FE106A
:01195C002268
:10496100AB0575BA80EFC39403500EEF75F050A4F8
:104971002414FDE5F034FF80107E007C007D501290
:1049810006E6EF2424FDEE34FBFCEB75F008A42DC4
:10499100FFE5F03C8F82F583E0547FF0E4F5BA2225
:10001600124B067B007AC279017800120799E47BBD
:1000260004FAF9F8120799C3E49FFFE49E759A1043
:100036008FD7F5D653B4BF53B3BF53B47F53B37FF3
:0B00460043BA01758E1475AF01D2AFF4
:01005100228C
:0100120022CB
:104C2B00D294D29500000000C29400000000C295FF
:014C3B002256
:104BE100C295C29400000000D29500000000D2944A
:054BF10000000000229D
:1049DC007E80EE601B5F7004C2948002D294000053
:1049EC000000D29500000000C295EEC313FE80E2D9
:1049FC00D29400000000D295A294920B000000000B
:054A0C00C295A20BB3EE
:014A11002282
:104A4500D2947E80EE601D00000000D29520940572
:104A5500F45FFF8003EF4EFF00000000C295EEC338
:104A650013FE80E0D29400000000D2950000000003
:024A7500C295E8
:014A7700221C
:104A7800D2947E80EE601D00000000D2952094053F
:104A8800F45FFF8003EF4EFF00000000C295EEC305
:104A980013FE80E0C29400000000D29500000000E0
:024AA800C295B5
:014AAA0022E9
:094C9B00EC4D4E4F60012280FE39
:10008600020458E86480F8E933E83360110460F04C
:10009600ED33EC337009E8FCE9FDEAFEEBFF2204E0
:1000A60060DED3EB9FEA9EE99DE8C2E78CF0C2F7DB
:1000B60095F0400CE8CCF8E9CDF9EACEFAEBCFFBA7
:1000C60012042385D0F05804700320D5B3E80470D9
:1000D600075002B2D502046292D5EC0460F7E4CC74
:1000E600C0E0C398F8603B94186008400DD0E0FB70
:1000F60002043AE4FBFAC9FC8028E830E406E4C9C5
:10010600FBE4CAFCE830E305E4C9CACBFCE85407C3
:100116006010F8C3E913F9EA13FAEB13FBEC13FCCE
:10012600D8F130F52FC3E49CFCEF9BFFEE9AFEED71
:1001360099FDD0E0FBEF4E4D4C701222DB0302041A
:100146005FEC2CFCEF33FFEE33FEED33FDED30E7D5
:10015600EB02043AEF2BFFEE3AFEED39FDD0E0FB61
:1001660050130BBB0003020462ED13FDEE13FEEF0A
:0801760013FFEC13FC02043A34
:10017E00EC4D6011E8497017ED33EC3304600DE47B
:10018E00FCFFFEFD22E933E8330470F80204581236
:10019E00042358046009E4CC248150062850090237
:1001AE00046228400302045FC0E0EB4A7044B98049
:1001BE0006D0E0FB02044EEF4E701CBD8008EBFF34
:1001CE00EAFEE9FD80EBE98DF0A4FEE5F0020267A0
:1001DE00E9CDF9EAFEEBFFEF89F0A4FCE5F0CE895C
:1001EE00F0A42EFFE435F0CD89F0A42DFEE435F019
:1001FE008067EF4E7005BD80D780C3EF8BF0A4AC47
:10020E00F0EE8BF0A42CFCE435F0F8EF8AF0A42C81
:10021E00E5F038FCE433CB8DF0A42CFCE5F03BF894
:10022E00EE8AF0A42CFCE5F038F8E433CF89F0A484
:10023E002CFCE5F038CF3400CE89F0A42FFFE5F08A
:10024E003EFEE433C98DF0A42EFEE5F039CD8AF0E2
:10025E00A42FFFE5F03EFEE43DFD33D0E0FB50075A
:10026E000BBB000F020462EC2CFCEF33FFEE33FEEF
:06027E00ED33FD02043A1D
:10028400020462EC5D046005E8590470030204583A
:10029400120423580460F6EC4860F2EC7004FDFE8E
:1002A400FF22C860DB2481C85009C398600250064D
:1002B40002045F9850CAF582E9294B4A7005AB8263
:1002C40002044E75F0007C1A7880C3EF9BEE9AED21
:1002D40099400DC3EF9BFFEE9AFEED99FDE842F0C5
:1002E400DC23ACF0D0E0FFD0E0FED0E0FDAB822018
:1002F400E7101BEB60BAEC2CFCEF33FFEE33FEEDA2
:1003040033FD02043AE803F830E705C0F075F00065
:10031400EF2FFFEE33FEED33FD40B830E7C280AA85
:1003240074F8CC6480CCC86480C8F58204604FC380
:10033400EB9FF5F0EA9E42F0E99D42F0E89C45F01F
:10034400603C501DE5825FFFE582D313CB5BCBF4A9
:100354002B5582FB50280ABA002409B900200880D2
:100364001DE5825BFBE582D313CF5FCFF4C3132F6C
:100374005582FF50090EBE00050DBD00010CC3EBF4
:100384009FF5F0EA9E42F0E99D42F0E89C45F0605A
:0903940007CC4820E701B3EC227C
:10039D00ED33EC33600A047003BD8004ECB2E7FC6E
:0103AD00222D
:1003AE0075F020800E75F010800575F0087D007ECA
:1003BE00007F003392D530D50312082BEC3340105A
:1003CE00EF33FFEE33FEED33FDEC33FCD5F0ED22D3
:0E03DE00E5F0247EA2D513CC92E7CDCEFF220F
:1003EC00EDD2E7CD33EC3392D524814006E4FFFE09
:1003FC00FDFC22FCE4CFCECDCC24E0501174FF8068
:10040C00EDC3CC13CCCD13CDCE13CECF13CF047004
:07041C00F030D5DE02082BD1
:10195D00E5082492F582E43401F583E00508229030
:10196D00018F300703900192E475F001120A1A02FB
:10197D00066C2000E97F2ED2008018EF540F2490C2
:10198D00D43440D4FF30040BEF24BFB41A005003FD
:10199D002461FFE50960021509050CE50C700205CF
:1019AD000B30070E90018FE475F001120A1AEF0249
:1019BD0006B2024C5B7403D2078003E4C207F5083C
:1019CD0090018F120A31E4F509F50BF50CE509606C
:1019DD00077F201219A080F5750AFFC201C200C24F
:1019ED0002C203C205C206C20812196CFF700D3087
:1019FD0007057F001219B1AF0CAE0B22B4255FC2E3
:101A0D00D5C20412196CFF24D0B40A00501A75F017
:101A1D000A780930D50508B6FF0106C6A426F620BA
:101A2D00D5047002D20380D924CFB41A00EF50042C
:101A3D00C2E5D204021CA3D20180C6D20080C0D25E
:101A4D000280BCD2D580BAD20580B47F201219A0F5
:101A5D002002077401B5090040F112195DFF12193A
:101A6D00A00219DAD208D206809512195DFB12195F
:101A7D005DFA12195DF94A4B700679A17A1D7BFF4B
:101A8D0020022EE509602A7E008E827583001206E3
:101A9D008560060EEE650A70F0C2D5EBC0E0EAC0B7
:101AAD00E0E9C0E0EE121D04D0E0F9D0E0FAD0E09C
:101ABD00FB12066CFF60AAEBC0E0EAC0E0E9C0E0F3
:101ACD001219A0D0E02401F9D0E03400FAD0E0FBE7
:101ADD00E50A0460DCD50AD98087D20280A2121CE7
:101AED00E660F7E50A70010412046DA90A600DE5C0
:101AFD000A600914F50A121D8EEF60F3EA30E70251
:101B0D00F404C3995079EAF4250A0430E701E4049A
:101B1D00F50A800D121CE660C1EA050A250A1204B9
:101B2D006DEA9001BEF030E701E4250A04D50A0400
:101B3D0020050114121D04E4C0E0121D8E9001BE9B
:101B4D00E0601320E70714F0121988802204F0D00A
:101B5D00E014C0E07F00121988E50A600712197FB2
:101B6D00150A800B30050312197FD0E00219DAD067
:101B7D00E00480C4121CE6609EE50A0412046D9018
:101B8D0001BEEAF0E50A2005026001042404121DDD
:011B9D000443
:101B9E0074FF04C0E0121D8E121988E50A2005029A
:101BAE00600312197FD0E0B50AE87F4512199290B2
:101BBE0001BEE07F2B30E7047F2DF404C0E0121944
:101BCE00A0D0E075F00A84C0F0121989D0E0121985
:101BDE00890219DA791080027908C206C2088008D3
:101BEE00D2D5790A8004790AC2D5E50A047002F5C5
:101BFE000AE4FAFDFEFF12195DFC7B0820011312A8
:101C0E00195DFD7B1030000A12195DFE12195DFF81
:101C1E007B20EC3382D592D55013C3E43000069F5F
:101C2E00FFE49EFEE42001039DFDE49CFCE4CBF862
:101C3E00C201EC700CCFCECDCCE824F8F870F38056
:101C4E0017C3EF33FFEE33FEED33FDEC33FCEB3316
:101C5E00FB994002FB0FD8E9EB300105F8D0E0C448
:101C6E0048B201C0E00AEC4D4E4F78207B0070C2A6
:101C7E00EAB50A0040BCC0E0121D06D0F0D0E0204C
:101C8E000104C4C0E0C4B201C0F0121989D0F0D56D
:101C9E00F0EB0219DA120A3A1A77531BE2581A4875
:101CAE004C1A44421BE64F1BEE441BEE491A5D4391
:101CBE001BF4551B21461B81451AEB471DC1501ABB
:101CCE004C2D1A502E1A732B1A54231A71201DAA3A
:101CDE002A1A0C4800001A6BE50AB4FF03750A06AF
:101CEE0012195DFC12195DFD12195DFE12195DFFD0
:101CFE009001B70204AA790AA2D52003143005096F
:101D0E00B910020404B9080104A2D520060250013C
:101D1E00042002689202B509005034C0E07F2030E2
:101D2E0003197F30A20272067205500F121D5DC29A
:101D3E0002C206C205C2087F30800F300503E9C01B
:101D4E00E01219A0300503D0E0F9D0E0B509CC308F
:101D5E0005177F30B9100C1219A07F583004077F79
:101D6E00788003B908031219A03002057F2D0219DD
:101D7E00A07F202008F87F2B2006F322920280CF2E
:101D8E007F00B40700500B24B7F582E43401F583CD
:101D9E00E0FF22286E756C6C2900D20112195D309D
:101DAE0001F8C201780930D50108F6021A0C2D503F
:101DBE0043495812195D2403B405004001E4901DF7
:101DCE00BC93121991743A121991D2037509040237
:021DDE001BE206
:1042B50002045822EDA2E7D2E7F9EC3340F260F3AD
:1042C500B4FF08ED547F70E8020462F82481C2E06F
:1042D500C0E0F40428FAC313FCED92E7FD90019EBB
:1042E500120993EEA2E7E9BA7F02C31334009400E2
:1042F500FA75F091A4E5F013F494FE8AF0A433E581
:10430500F033248CD313FDE492E7FE7F007C3F75E8
:104315008302ECC0E0F8EDC0E0F9EEC0E0FAEFC0D2
:10432500E0FB8583F090019E12090D85F083120252
:1043350087D0E0FBD0E0FAD0E0F9D0E0F812008DAC
:10434500ED6480FD30E7011CD583C7ED33CC33F830
:0C435500D0E0A2E71328C313CC13FD2214
:1049A100ECC0E0F8EDC0E0F9EEC0E0FAEFC0E0FBEA
:1049B10012017EEC6480FC7B007A007980783F12E2
:1049C100008D1242B9D0E0CFFBD0E0CEFAD0E0CDDD
:0B49D100F9D0E0CCF812028702382475
:10042300E9D2E7C933E833F892D5EDD2E7CD33EC1F
:0704330033FC5002B2D52298
:10043A00EC30E7100FBF000C0EBE00080DBD000423
:10044A000BEB6014A2D5EB13FCED92E7FD2274FFCF
:10045A00FCFDFEFF22E480F8A2D574FF13FC7D8028
:03046A00E480EF3C
:10046D00F920E73624F950037907E4F42402FBE57B
:10047D0082158270021583DBF6E024FB501BE960C8
:10048D0014E4F0E582158270021583E004F0B40ADD
:0D049D0008E4F0D9EE7401F00A22C2D52265
:1004AA00ED33EC3392D5FA602AB4FF33EDC2E77B21
:1004BA00FF60067A0479CFE4227A0479D820D50439
:1004CA007A0479D3224E614E002B494E46002D49BB
:1004DA004E4600E47A08F0A3DAFC7B00740722C0D7
:1004EA0083C082ECC0E0EDC0E0EEC0E0EFC0E0EA1D
:1004FA0075F010A4CAABF075F04DA42BFBE435F0EF
:10050A00FCEA2410FAEB34C5FBEC34D9FCEDC2E763
:10051A00FF75F056A4F42411C5F0F434C58FF0A485
:10052A002AE5F03BE43CF020E7141205DFD0E0FFB7
:10053A00D0E0FED0E0FDD0E0FC1202878014F40483
:10054A001205DFD0E0FFD0E0FED0E0FDD0E0FC12E3
:10055A00017ED082D083E0FAEDD2E7CD33EC3324AA
:10056A0082FBE4C3CF33CFCE33CECD33CD33DBF3EF
:10057A007B0775F00A846004F0A31B0AE5F0F0A378
:10058A008FF0740AA4FFACF08EF0740AA42CFEACAF
:10059A00F050010C8DF0740AA42CFDE435F0F0A3A0
:0505AA00DBDE740722F6
:10380400BE1249253E4CCCCDBEAAAAAB3F800000D7
:103814003E7ADBB03EED63383F24BC7D3F490FDB8D
:10382400ED33ECC2E7CC339200B4FF13ED547F6068
:10383400030204587FDB7E0F7DC97C3F023919C225
:1038440001C3947F401E7007EDD2E794904015EFBA
:10385400FBEEFAEDF9ECF87F007E007D807C3F12F0
:103864000287D201ED33EC33248430E705E4C0E071
:10387400806B04FAEDD2E754F0C333DAFD54073415
:10388400002323C0E0CCC0E0F8EDC0E0F9EEC0E0D6
:10389400FAEFC0E0FBE41203B8EC24FEFC90019EB6
:1038A40012099312017E7B007A007980783F12001E
:1038B4008D90019EE0B2E7CCF0A3E0CDF0A3E0CE82
:1038C400F0A3E0CFF0D0E0FBD0E0FAD0E0F9D0E014
:1038D400F812008D90019E12093612028790019E03
:1038E400120993903804740312061F90019E120962
:1038F4003612017ED0E0600F2410F582E43438F5EE
:103904008312094212008D30010B7BDB7A0F79C9D7
:1039140078BF12008DED33EC336006ECA20092E721
:02392400FC2283
:1005AF003F8000004120000042C80000447A000054
:1005BF00461C400047C35000497424004B189680D6
:1005CF004CBEBC205A0E1BCA6753C21C749DC5AECD
:1005DF00FB60065407601C232312060DEB54386092
:1005EF00091205F912060812017EECF8EDF9EEFA80
:1005FF00EFCB22EB12060880F1543803241C900530
:10060F00AFFE93FC0EEE93FD0EEE930ECE93FF22F4
:10061F00C0E0EFFBEEFAEDF9ECF812017ED0E0F559
:10062F00F0EFFBEEFAEDF9ECF8120919A3A3A3A36F
:10063F00E8C0E0E9C0E0EAC0E0EBC0E0C0F01201C2
:10064F007E120942A3A3A3A312008DD0F0D0E0FB2A
:0D065F00D0E0FAD0E0F9D0E0F8D5F0D422D8
:03000000024409AE
:0C440900787FE4F6D8FD75815502445020
:10066C00BB010689828A83E0225002E722BBFE028C
:09067C00E32289828A83E49322BF
:10068500BB010CE58229F582E5833AF583E022502A
:1006950006E92582F8E622BBFE06E92582F8E22274
:0D06A500E58229F582E5833AF583E493228E
:1006B200BB010689828A83F0225002F722BBFE0127
:0206C200F32221
:1006C400F8BB010DE58229F582E5833AF583E8F06C
:1006D400225006E92582C8F622BBFE05E92582C818
:0206E400F22200
:1006E600EF8DF0A4A8F0CF8CF0A428CE8DF0A42E28
:0206F600FE22E2
:1006F800C5F0F8A3E028F0C5F0F8E582158270028D
:060708001583E038F02229
:10070E00E88FF0A4CC8BF0A42CFCE98EF0A42CFC8A
:10071E008AF0EDA42CFCEA8EF0A4CDA8F08BF0A408
:10072E002DCC3825F0FDE98FF0A42CCD35F0FCEB67
:10073E008EF0A4FEA9F0EB8FF0A4CFC5F02ECD392C
:0F074E00FEE43CFCEAA42DCE35F0FDE43CFC2299
:10075D0075F008758200EF2FFFEE33FECD33CDCC53
:10076D0033CCC58233C5829BED9AEC99E5829840D6
:10077D000CF582EE9BFEED9AFDEC99FC0FD5F0D6B3
:10078D00E4CEFBE4CDFAE4CCF9A88222B800C1B9DD
:10079D000059BA002DEC8BF084CFCECDFCE5F0CB1B
:1007AD00F97818EF2FFFEE33FEED33FDEC33FCEB54
:1007BD0033FB10D703994004EB99FB0FD8E5E4F90F
:1007CD00FA227818EF2FFFEE33FEED33FDEC33FCFC
:1007DD00C933C910D7059BE99A4007EC9BFCE99AF0
:1007ED00F90FD8E0E4C9FAE4CCFB2275F010EF2F35
:1007FD00FFEE33FEED33FDCC33CCC833C810D70735
:10080D009BEC9AE899400AED9BFDEC9AFCE899F86F
:0E081D000FD5F0DAE4CDFBE4CCFAE4C8F92202
:10491D00C2D5E830E70FB2D5E4C39BFBE49AFAE4C5
:10492D0099F9E498F8EC30E717B2D512495312070C
:10493D0099E4C39BFBE49AFAE499F9E498F88003AF
:10494D0012079930D50DE4C39FFFE49EFEE49DFD53
:04495D00E49CFC22B8
:0E082B00C3E49FFFE49EFEE49DFDE49CFC22DE
:10083900EB9FF5F0EA9E42F0E99D42F0EC6480C836
:0608490064809845F022D6
:10084F00EB9FF5F0EA9E42F0E99D42F0E89C45F0FF
:01085F002276
:10086000E8600FECC313FCED13FDEE13FEEF13FF76
:03087000D8F1229A
:10087300BB010789828A8302090D5005E9F8020941
:1008830001BBFE05E9F8020A6089828A830209191D
:10089300BB010DE58229F582E5833AF58302090D53
:1008A3005007E92582F8020901BBFE07E92582F812
:1008B300020A60E58229F582E5833AF58302091984
:1008C300BB010789828A830209935005E9F802096B
:0A08D30087BBFE05E9F8020A6C225B
:1008DD00BB010DE58229F582E5833AF58302099383
:1008ED005007E92582F8020987BBFE07E92582F842
:0408FD00020A6C225D
:0C090100E6FC08E6FD08E6FE08E6FF2222
:0C090D00E0FCA3E0FDA3E0FEA3E0FF225D
:10091900E493FC740193FD740293FE740393FF2224
:0D092900E6FB08E6F908E6FA08E6CBF8223E
:0C093600E0F8A3E0F9A3E0FAA3E0FB2244
:10094200E493F8740193F9740293FA740393FB220B
:100952007401FF3395E0FEFDFCA3A3A3E02FFFF09B
:10096200E582158270021583E03EFEF0E582158273
:1009720070021583E03DFDF0E58215827002158359
:05098200E03CFCF02246
:0C098700ECF608EDF608EEF608EFF6229C
:0C099300ECF0A3EDF0A3EEF0A3EFF022D7
:10099F00A8828583F0D083D0821209B61209B612CD
:1009AF0009B61209B6E473E493A3C583C5F0C583F2
:1009BF00C8C582C8F0A3C583C5F0C583C8C582C8A2
:0109CF002205
:1009D000BB010789828A8302099F5005E9F8020A50
:0A09E00078BBFE05E9F8020A912237
:1009EA00BB010DE58229F582E5833AF58302099F69
:1009FA005007E92582F8020A78BBFE07E92582F842
:040A0A00020A912229
:0C0A0E00A42582F582E5F03583F58322F3
:100A1A00F8E0FBA3A3E0F925F0F0E5821582700265
:070A2A001583E0FA38F02209
:090A3100EBF0A3EAF0A3E9F022C6
:100A3A00D083D082F8E4937012740193700DA3A34B
:100A4A0093F8740193F5828883E47374029368605F
:060A5A00EFA3A3A380DF5F
:104415000248D1E493A3F8E493A34003F68001F2A4
:1044250008DFF48029E493A3F85407240CC8C333A8
:10443500C4540F4420C8834004F456800146F6DF77
:10444500E4800B01020408102040809027C6E47E1A
:10445500019360BCA3FF543F30E509541FFEE4936C
:10446500A360010ECF54C025E060A840B8E493A333
:10447500FAE493A3F8E493A3C8C582C8CAC583CA5E
:10448500F0A3C8C582C8CAC583CADFE9DEE780BE16
:012A51000084
:0C0A6000E2FC08E2FD08E2FE08E2FF22D2
:0C0A6C00ECF208EDF208EEF208EFF222C6
:100A7800D083D082E493F608740193F60874029345
:090A8800F608740393F67404737C
:100A9100D083D082E493F208740193F20874029334
:090AA100F208740393F27404736B
:00000001FF
