BL51 BANKED LINKER/LOCATER V6.22                                                        08/21/2020  21:33:22  PAGE 1


BL51 BANKED LINKER/LOCATER V6.22, INVOKED BY:
C:\KEIL_V5\C51\BIN\BL51.EXE .\Objects\STARTUP.obj, .\Objects\main.obj, .\Objects\mpu6050.obj, .\Objects\utils.obj TO .\O
>> bjects\freescale15_mcu2 PRINT (.\Listings\freescale15_mcu2.m51) RAMSIZE (256)


MEMORY MODEL: LARGE WITH FLOATING POINT ARITHMETIC


INPUT MODULES INCLUDED:
  .\Objects\STARTUP.obj (?C_STARTUP)
  .\Objects\main.obj (MAIN)
  .\Objects\mpu6050.obj (MPU6050)
  .\Objects\utils.obj (UTILS)
  C:\KEIL_V5\C51\LIB\C51FPL.LIB (?C?FPADD)
  C:\KEIL_V5\C51\LIB\C51FPL.LIB (?C?FPMUL)
  C:\KEIL_V5\C51\LIB\C51FPL.LIB (?C?FPDIV)
  C:\KEIL_V5\C51\LIB\C51FPL.LIB (?C?FCAST)
  C:\KEIL_V5\C51\LIB\C51FPL.LIB (PRINTF)
  C:\KEIL_V5\C51\LIB\C51FPL.LIB (ATAN2)
  C:\KEIL_V5\C51\LIB\C51FPL.LIB (ASIN)
  C:\KEIL_V5\C51\LIB\C51FPL.LIB (?C?FPGETOPN)
  C:\KEIL_V5\C51\LIB\C51FPL.LIB (?C?FPCMP)
  C:\KEIL_V5\C51\LIB\C51FPL.LIB (?C?FPROUND)
  C:\KEIL_V5\C51\LIB\C51FPL.LIB (?C?FPCONVERT)
  C:\KEIL_V5\C51\LIB\C51FPL.LIB (SQRT)
  C:\KEIL_V5\C51\LIB\C51FPL.LIB (ATAN)
  C:\KEIL_V5\C51\LIB\C51FPL.LIB (?C?FTNPWR)
  C:\KEIL_V5\C51\LIB\C51FPL.LIB (?C?FPSERIES)
  C:\KEIL_V5\C51\LIB\C51L.LIB (?C_INIT)
  C:\KEIL_V5\C51\LIB\C51L.LIB (?C?CLDPTR)
  C:\KEIL_V5\C51\LIB\C51L.LIB (?C?CLDOPTR)
  C:\KEIL_V5\C51\LIB\C51L.LIB (?C?CSTPTR)
  C:\KEIL_V5\C51\LIB\C51L.LIB (?C?CSTOPTR)
  C:\KEIL_V5\C51\LIB\C51L.LIB (?C?ILDIX)
  C:\KEIL_V5\C51\LIB\C51L.LIB (?C?ILDPTR)
  C:\KEIL_V5\C51\LIB\C51L.LIB (?C?ILDOPTR)
  C:\KEIL_V5\C51\LIB\C51L.LIB (?C?ISTPTR)
  C:\KEIL_V5\C51\LIB\C51L.LIB (?C?ISTOPTR)
  C:\KEIL_V5\C51\LIB\C51L.LIB (?C?LNEG)
  C:\KEIL_V5\C51\LIB\C51L.LIB (?C?ULCMP)
  C:\KEIL_V5\C51\LIB\C51L.LIB (?C?LLDPTR)
  C:\KEIL_V5\C51\LIB\C51L.LIB (?C?LLDOPTR)
  C:\KEIL_V5\C51\LIB\C51L.LIB (?C?LSTPTR)
  C:\KEIL_V5\C51\LIB\C51L.LIB (?C?LSTOPTR)
  C:\KEIL_V5\C51\LIB\C51L.LIB (?C?LLDXDATA)
  C:\KEIL_V5\C51\LIB\C51L.LIB (?C?LLDCODE)
  C:\KEIL_V5\C51\LIB\C51L.LIB (?C?LLDXDATA0)
  C:\KEIL_V5\C51\LIB\C51L.LIB (?C?LLDCODE0)
  C:\KEIL_V5\C51\LIB\C51L.LIB (?C?LLDPTR0)
  C:\KEIL_V5\C51\LIB\C51L.LIB (?C?LLDOPTR0)
  C:\KEIL_V5\C51\LIB\C51L.LIB (?C?LSTXDATA)
  C:\KEIL_V5\C51\LIB\C51L.LIB (?C?PLDIXDATA)
  C:\KEIL_V5\C51\LIB\C51L.LIB (?C?PSTXDATA)
  C:\KEIL_V5\C51\LIB\C51L.LIB (?C?CCASE)
  C:\KEIL_V5\C51\LIB\C51L.LIB (?C?LLDIDATA)
  C:\KEIL_V5\C51\LIB\C51L.LIB (?C?LLDPDATA)
  C:\KEIL_V5\C51\LIB\C51L.LIB (?C?LLDIDATA0)
  C:\KEIL_V5\C51\LIB\C51L.LIB (?C?LLDPDATA0)
BL51 BANKED LINKER/LOCATER V6.22                                                      08/21/2020  21:33:22  PAGE 2


  C:\KEIL_V5\C51\LIB\C51L.LIB (?C?LSTIDATA)
  C:\KEIL_V5\C51\LIB\C51L.LIB (?C?LSTPDATA)


LINK MAP OF MODULE:  .\Objects\freescale15_mcu2 (?C_STARTUP)


            TYPE    BASE      LENGTH    RELOCATION   SEGMENT NAME
            -----------------------------------------------------

            * * * * * * *   D A T A   M E M O R Y   * * * * * * *
            REG     0000H     0008H     ABSOLUTE     "REG BANK 0"
            DATA    0008H     0005H     UNIT         _DATA_GROUP_
                    000DH     0013H                  *** GAP ***
            BIT     0020H.0   0001H.1   UNIT         _BIT_GROUP_
            BIT     0021H.1   0000H.1   UNIT         ?BI?MPU6050
                    0021H.2   0000H.6                *** GAP ***
            IDATA   0022H     002AH     UNIT         ?ID?MPU6050
            IDATA   004CH     0001H     UNIT         ?STACK

            * * * * * * *  X D A T A   M E M O R Y  * * * * * * *
            XDATA   0000H     0031H     UNIT         _XDATA_GROUP_
            XDATA   0031H     0028H     UNIT         ?XD?MAIN

            * * * * * * *   C O D E   M E M O R Y   * * * * * * *
            CODE    0000H     0003H     ABSOLUTE     
            CODE    0003H     0008H     UNIT         ?PR?_UART_SEND_BYTE?MAIN
            CODE    000BH     0003H     ABSOLUTE     
            CODE    000EH     08AEH     UNIT         ?C?LIB_CODE
            CODE    08BCH     0878H     UNIT         ?CO?MPU6050
            CODE    1134H     0483H     UNIT         ?PR?PRINTF?PRINTF
            CODE    15B7H     02CCH     UNIT         ?PR?_DMPGETYAWPITCHROLL?MPU6050
            CODE    1883H     01E9H     UNIT         ?PR?DMPINITIALIZE?MPU6050
            CODE    1A6CH     01C1H     UNIT         ?PR?_DMPGETQUATERNION1?MPU6050
            CODE    1C2DH     0122H     UNIT         ?PR?ATAN?ATAN
            CODE    1D4FH     00D7H     UNIT         ?PR?_DMPGETQUATERNION2?MPU6050
            CODE    1E26H     00ACH     UNIT         ?PR?SQRT?SQRT
            CODE    1ED2H     009DH     UNIT         ?PR?_ATAN2?ATAN2
            CODE    1F6FH     0095H     UNIT         ?PR?TASK_PRINT_MPUDATA?MAIN
            CODE    2004H     0090H     UNIT         ?PR?LOADFIRMWARE?MPU6050
            CODE    2094H     008FH     UNIT         ?PR?_WRITEBITS?MPU6050
            CODE    2123H     008CH     UNIT         ?C_C51STARTUP
            CODE    21AFH     0084H     UNIT         ?PR?_GET_MPU6050_ANGLE?MPU6050
            CODE    2233H     007FH     UNIT         ?PR?_READBITS?MPU6050
            CODE    22B2H     007BH     UNIT         ?PR?_WRITEBIT?MPU6050
            CODE    232DH     0079H     UNIT         ?PR?_I2CREADS?MPU6050
            CODE    23A6H     006DH     UNIT         ?PR?LOADCFGUPD?MPU6050
            CODE    2413H     0057H     UNIT         ?PR?T0_ISR?MAIN
            CODE    246AH     0057H     UNIT         ?PR?_I2_FS?MPU6050
            CODE    24C1H     0052H     UNIT         ?PR?TASK_LED?MAIN
            CODE    2513H     004BH     UNIT         ?PR?I2_JS?MPU6050
            CODE    255EH     0046H     UNIT         ?PR?_READBIT?MPU6050
            CODE    25A4H     0045H     UNIT         ?PR?_XDMPUPDATES?MPU6050
            CODE    25E9H     003BH     UNIT         ?C_INITSEG
            CODE    2624H     003BH     UNIT         ?PR?ASIN?ASIN
            CODE    265FH     0033H     UNIT         ?PR?PORT_INIT?MAIN
            CODE    2692H     002DH     UNIT         ?PR?INITMPU6050?MPU6050
BL51 BANKED LINKER/LOCATER V6.22                                                      08/21/2020  21:33:22  PAGE 3


            CODE    26BFH     002CH     UNIT         ?PR?_I2CWRITE?MPU6050
            CODE    26EBH     0029H     UNIT         ?PR?GETDEVICEID?MPU6050
            CODE    2714H     001DH     UNIT         ?PR?MAIN?MAIN
            CODE    2731H     001DH     UNIT         ?PR?I2_QS?MPU6050
            CODE    274EH     001DH     UNIT         ?PR?GETFIFOCOUNT?MPU6050
            CODE    276BH     001DH     UNIT         ?PR?DRV_MPU6050_INIT?MPU6050
            CODE    2788H     001BH     UNIT         ?PR?I2_TZ?MPU6050
            CODE    27A3H     0019H     UNIT         ?PR?INIT_T0_INTERRUPT?MAIN
            CODE    27BCH     0015H     UNIT         ?PR?_DELAYMS?MPU6050
            CODE    27D1H     0011H     UNIT         ?PR?UART_INIT?MAIN
            CODE    27E2H     000FH     UNIT         ?CO?MAIN
            CODE    27F1H     000EH     UNIT         ?PR?_PUTCHAR?MAIN
            CODE    27FFH     000EH     UNIT         ?PR?_I2CREAD?MPU6050
            CODE    280DH     0008H     UNIT         ?PR?_READDMP?MPU6050
            CODE    2815H     0003H     UNIT         ?PR?_DELAYUS2X?MPU6050



OVERLAY MAP OF MODULE:   .\Objects\freescale15_mcu2 (?C_STARTUP)


SEGMENT                                    BIT_GROUP          DATA_GROUP          XDATA_GROUP
  +--> CALLED SEGMENT                   START    LENGTH     START    LENGTH     START    LENGTH
-----------------------------------------------------------------------------------------------
?C_C51STARTUP                           -----    -----      -----    -----      -----    -----
  +--> ?PR?MAIN?MAIN
  +--> ?C_INITSEG

?PR?MAIN?MAIN                           -----    -----      -----    -----      -----    -----
  +--> ?PR?PORT_INIT?MAIN
  +--> ?PR?UART_INIT?MAIN
  +--> ?PR?DRV_MPU6050_INIT?MPU6050
  +--> ?PR?INIT_T0_INTERRUPT?MAIN
  +--> ?PR?TASK_LED?MAIN
  +--> ?PR?TASK_PRINT_MPUDATA?MAIN
  +--> ?PR?_GET_MPU6050_ANGLE?MPU6050

?PR?DRV_MPU6050_INIT?MPU6050            -----    -----      -----    -----      -----    -----
  +--> ?PR?INITMPU6050?MPU6050
  +--> ?PR?GETDEVICEID?MPU6050
  +--> ?PR?DMPINITIALIZE?MPU6050
  +--> ?PR?_WRITEBIT?MPU6050

?PR?INITMPU6050?MPU6050                 -----    -----      -----    -----      -----    -----
  +--> ?PR?_WRITEBITS?MPU6050
  +--> ?PR?_WRITEBIT?MPU6050

?PR?_WRITEBITS?MPU6050                  -----    -----      -----    -----      0008H    0006H
  +--> ?PR?_I2CREAD?MPU6050
  +--> ?PR?_I2CWRITE?MPU6050

?PR?_I2CREAD?MPU6050                    -----    -----      -----    -----      -----    -----
  +--> ?PR?_I2CREADS?MPU6050

?PR?_I2CREADS?MPU6050                   -----    -----      -----    -----      0019H    0003H
  +--> ?PR?I2_QS?MPU6050
  +--> ?PR?_I2_FS?MPU6050
BL51 BANKED LINKER/LOCATER V6.22                                                      08/21/2020  21:33:22  PAGE 4


  +--> ?PR?I2_JS?MPU6050
  +--> ?PR?I2_TZ?MPU6050

?PR?_I2_FS?MPU6050                      -----    -----      -----    -----      -----    -----
  +--> ?PR?_I2CWRITE?MPU6050
  +--> ?PR?I2_QS?MPU6050

?PR?_I2CWRITE?MPU6050                   -----    -----      -----    -----      -----    -----
  +--> ?PR?I2_QS?MPU6050
  +--> ?PR?I2_TZ?MPU6050

?PR?I2_JS?MPU6050                       0020H.0  0000H.1    -----    -----      -----    -----

?PR?_WRITEBIT?MPU6050                   -----    -----      -----    -----      0015H    0004H
  +--> ?PR?_I2CREAD?MPU6050
  +--> ?PR?_I2CWRITE?MPU6050

?PR?GETDEVICEID?MPU6050                 -----    -----      -----    -----      0000H    0001H
  +--> ?PR?_READBITS?MPU6050

?PR?_READBITS?MPU6050                   -----    -----      -----    -----      0008H    0008H
  +--> ?PR?_I2CREAD?MPU6050

?PR?DMPINITIALIZE?MPU6050               -----    -----      -----    -----      0000H    0008H
  +--> ?PR?_WRITEBIT?MPU6050
  +--> ?PR?_DELAYMS?MPU6050
  +--> ?PR?_I2CWRITE?MPU6050
  +--> ?PR?_I2CREAD?MPU6050
  +--> ?PR?_READBIT?MPU6050
  +--> ?PR?_READBITS?MPU6050
  +--> ?PR?LOADFIRMWARE?MPU6050
  +--> ?PR?LOADCFGUPD?MPU6050
  +--> ?PR?_WRITEBITS?MPU6050
  +--> ?PR?_XDMPUPDATES?MPU6050
  +--> ?PR?GETFIFOCOUNT?MPU6050

?PR?_DELAYMS?MPU6050                    -----    -----      -----    -----      -----    -----
  +--> ?PR?_DELAYUS2X?MPU6050

?PR?_READBIT?MPU6050                    -----    -----      -----    -----      0008H    0005H
  +--> ?PR?_I2CREAD?MPU6050

?PR?LOADFIRMWARE?MPU6050                -----    -----      -----    -----      0008H    0003H
  +--> ?PR?_I2_FS?MPU6050
  +--> ?CO?MPU6050
  +--> ?PR?I2_TZ?MPU6050

?PR?LOADCFGUPD?MPU6050                  -----    -----      -----    -----      0008H    0001H
  +--> ?CO?MPU6050
  +--> ?PR?_I2CWRITE?MPU6050
  +--> ?PR?_I2_FS?MPU6050
  +--> ?PR?I2_TZ?MPU6050

?PR?_XDMPUPDATES?MPU6050                -----    -----      -----    -----      -----    -----
  +--> ?CO?MPU6050
  +--> ?PR?_I2CWRITE?MPU6050
  +--> ?PR?_I2_FS?MPU6050
BL51 BANKED LINKER/LOCATER V6.22                                                      08/21/2020  21:33:22  PAGE 5


  +--> ?PR?I2_TZ?MPU6050

?PR?GETFIFOCOUNT?MPU6050                -----    -----      -----    -----      0015H    0002H
  +--> ?PR?_I2CREADS?MPU6050

?PR?TASK_PRINT_MPUDATA?MAIN             -----    -----      -----    -----      -----    -----
  +--> ?CO?MAIN
  +--> ?PR?PRINTF?PRINTF

?PR?PRINTF?PRINTF                       0020H.0  0001H.1    0008H    0005H      0000H    0030H
  +--> ?PR?_PUTCHAR?MAIN

?PR?_PUTCHAR?MAIN                       -----    -----      -----    -----      0030H    0001H
  +--> ?PR?_UART_SEND_BYTE?MAIN

?PR?_GET_MPU6050_ANGLE?MPU6050          -----    -----      -----    -----      0000H    0015H
  +--> ?PR?GETFIFOCOUNT?MPU6050
  +--> ?PR?_I2CREAD?MPU6050
  +--> ?PR?_WRITEBIT?MPU6050
  +--> ?PR?_READDMP?MPU6050
  +--> ?PR?_DMPGETQUATERNION2?MPU6050
  +--> ?PR?_DMPGETYAWPITCHROLL?MPU6050

?PR?_READDMP?MPU6050                    -----    -----      -----    -----      -----    -----
  +--> ?PR?_I2CREADS?MPU6050

?PR?_DMPGETQUATERNION2?MPU6050          -----    -----      -----    -----      0015H    000FH
  +--> ?PR?_DMPGETQUATERNION1?MPU6050

?PR?_DMPGETQUATERNION1?MPU6050          -----    -----      -----    -----      0024H    000AH

?PR?_DMPGETYAWPITCHROLL?MPU6050         -----    -----      -----    -----      0015H    0006H
  +--> ?PR?_ATAN2?ATAN2
  +--> ?PR?ASIN?ASIN

?PR?_ATAN2?ATAN2                        -----    -----      -----    -----      001BH    0008H
  +--> ?PR?ATAN?ATAN

?PR?ATAN?ATAN                           0020H.0  0000H.2    -----    -----      0023H    0004H

?PR?ASIN?ASIN                           -----    -----      -----    -----      -----    -----
  +--> ?PR?SQRT?SQRT
  +--> ?PR?ATAN?ATAN

?PR?SQRT?SQRT                           -----    -----      -----    -----      001BH    0004H



SYMBOL TABLE OF MODULE:  .\Objects\freescale15_mcu2 (?C_STARTUP)

  VALUE           TYPE          NAME
  ----------------------------------

  -------         MODULE        ?C_STARTUP
  C:2123H         SEGMENT       ?C_C51STARTUP
  I:004CH         SEGMENT       ?STACK
  C:0000H         PUBLIC        ?C_STARTUP
BL51 BANKED LINKER/LOCATER V6.22                                                      08/21/2020  21:33:22  PAGE 6


  D:00E0H         SYMBOL        ACC
  D:00F0H         SYMBOL        B
  D:0083H         SYMBOL        DPH
  D:0082H         SYMBOL        DPL
  N:0000H         SYMBOL        IBPSTACK
  N:0100H         SYMBOL        IBPSTACKTOP
  N:0080H         SYMBOL        IDATALEN
  C:2126H         SYMBOL        IDATALOOP
  N:0000H         SYMBOL        PBPSTACK
  N:0100H         SYMBOL        PBPSTACKTOP
  N:0000H         SYMBOL        PDATALEN
  N:0000H         SYMBOL        PDATASTART
  N:0000H         SYMBOL        PPAGE
  N:0000H         SYMBOL        PPAGEENABLE
  D:00A0H         SYMBOL        PPAGE_SFR
  D:0081H         SYMBOL        SP
  C:2123H         SYMBOL        STARTUP1
  N:0000H         SYMBOL        XBPSTACK
  N:0000H         SYMBOL        XBPSTACKTOP
  N:0000H         SYMBOL        XDATALEN
  N:0000H         SYMBOL        XDATASTART
  C:0000H         LINE#         126
  C:2123H         LINE#         133
  C:2125H         LINE#         134
  C:2126H         LINE#         135
  C:2127H         LINE#         136
  C:2129H         LINE#         185
  C:212CH         LINE#         196
  -------         ENDMOD        ?C_STARTUP

  -------         MODULE        MAIN
  C:0000H         SYMBOL        _ICE_DUMMY_
  D:0092H         PUBLIC        P1M0
  D:0093H         PUBLIC        P0M1
  D:0096H         PUBLIC        P2M0
  D:0091H         PUBLIC        P1M1
  D:0080H         PUBLIC        P0
  D:00B2H         PUBLIC        P3M0
  D:0095H         PUBLIC        P2M1
  D:0090H         PUBLIC        P1
  D:00B4H         PUBLIC        P4M0
  D:00B1H         PUBLIC        P3M1
  D:00A0H         PUBLIC        P2
  D:00CAH         PUBLIC        P5M0
  D:00B3H         PUBLIC        P4M1
  D:00B0H         PUBLIC        P3
  D:00C9H         PUBLIC        P5M1
  D:00C0H         PUBLIC        P4
  D:00C8H         PUBLIC        P5
  B:00A8H.7       PUBLIC        EA
  D:00E8H         PUBLIC        P6
  D:00F8H         PUBLIC        P7
  D:00BAH         PUBLIC        P_SW2
  X:0041H         PUBLIC        ypr_i16
  D:00A8H         PUBLIC        IE
  C:27A3H         PUBLIC        init_t0_interrupt
  C:1F6FH         PUBLIC        task_print_mpudata
BL51 BANKED LINKER/LOCATER V6.22                                                      08/21/2020  21:33:22  PAGE 7


  B:00A8H.4       PUBLIC        ES
  D:00B8H         PUBLIC        IP
  B:0098H.1       PUBLIC        TI
  D:00D8H         PUBLIC        CCON
  C:2714H         PUBLIC        main
  D:0099H         PUBLIC        SBUF
  C:2413H         PUBLIC        T0_isr
  D:0098H         PUBLIC        SCON
  D:0089H         PUBLIC        TMOD
  D:0088H         PUBLIC        TCON
  D:008EH         PUBLIC        AUXR
  B:00A8H.1       PUBLIC        ET0
  C:24C1H         PUBLIC        task_led
  D:008CH         PUBLIC        TH0
  D:00D6H         PUBLIC        T2H
  D:008AH         PUBLIC        TL0
  D:00D7H         PUBLIC        T2L
  C:27D1H         PUBLIC        uart_init
  B:00C8H.3       PUBLIC        LED
  B:0088H.4       PUBLIC        TR0
  X:0047H         PUBLIC        ypr
  C:265FH         PUBLIC        port_init
  C:0003H         PUBLIC        _uart_send_byte
  X:0053H         PUBLIC        TH0_RELOAD
  X:0054H         PUBLIC        TL0_RELOAD
  X:0055H         PUBLIC        uw_tick
  D:00D0H         PUBLIC        PSW
  C:27F1H         PUBLIC        _putchar
  D:0094H         PUBLIC        P0M0
  -------         PROC          TASK_LED
  -------         DO            
  X:0031H         SYMBOL        task_interval
  X:0035H         SYMBOL        tick_reg
  -------         ENDDO         
  C:24C1H         LINE#         32
  C:24C1H         LINE#         33
  C:24C1H         LINE#         37
  C:24FCH         LINE#         38
  C:2510H         LINE#         42
  C:2512H         LINE#         43
  -------         ENDPROC       TASK_LED
  -------         PROC          TASK_PRINT_MPUDATA
  -------         DO            
  X:0039H         SYMBOL        task_interval
  X:003DH         SYMBOL        tick_reg
  -------         ENDDO         
  C:1F6FH         LINE#         45
  C:1F6FH         LINE#         46
  C:1F6FH         LINE#         50
  C:1FAAH         LINE#         51
  C:1FBEH         LINE#         55
  C:2003H         LINE#         56
  -------         ENDPROC       TASK_PRINT_MPUDATA
  -------         PROC          _PUTCHAR
  X:0030H         SYMBOL        c
  C:27F1H         LINE#         58
  C:27F6H         LINE#         59
BL51 BANKED LINKER/LOCATER V6.22                                                      08/21/2020  21:33:22  PAGE 8


  C:27F6H         LINE#         60
  C:27F9H         LINE#         61
  C:27FEH         LINE#         62
  -------         ENDPROC       _PUTCHAR
  -------         PROC          MAIN
  C:2714H         LINE#         64
  C:2714H         LINE#         65
  C:2714H         LINE#         66
  C:2717H         LINE#         67
  C:271AH         LINE#         68
  C:271DH         LINE#         69
  C:2720H         LINE#         71
  C:2720H         LINE#         72
  C:2720H         LINE#         73
  C:2723H         LINE#         74
  C:2726H         LINE#         75
  C:272FH         LINE#         95
  -------         ENDPROC       MAIN
  -------         PROC          T0_ISR
  C:2413H         LINE#         108
  C:242AH         LINE#         110
  C:2430H         LINE#         111
  C:2436H         LINE#         112
  C:2455H         LINE#         113
  -------         ENDPROC       T0_ISR
  -------         PROC          INIT_T0_INTERRUPT
  C:27A3H         LINE#         122
  C:27A3H         LINE#         123
  C:27A3H         LINE#         125
  C:27A9H         LINE#         126
  C:27AFH         LINE#         127
  C:27B2H         LINE#         128
  C:27B5H         LINE#         130
  C:27B7H         LINE#         131
  C:27B9H         LINE#         132
  C:27BBH         LINE#         133
  -------         ENDPROC       INIT_T0_INTERRUPT
  -------         PROC          PORT_INIT
  C:265FH         LINE#         136
  C:265FH         LINE#         137
  C:265FH         LINE#         140
  C:2662H         LINE#         141
  C:2664H         LINE#         142
  C:2666H         LINE#         143
  C:2668H         LINE#         144
  C:266AH         LINE#         145
  C:266CH         LINE#         146
  C:266EH         LINE#         147
  C:2670H         LINE#         148
  C:2672H         LINE#         149
  C:2674H         LINE#         150
  C:2676H         LINE#         151
  C:2678H         LINE#         156
  C:267BH         LINE#         157
  C:267EH         LINE#         159
  C:2681H         LINE#         160
  C:2684H         LINE#         162
BL51 BANKED LINKER/LOCATER V6.22                                                      08/21/2020  21:33:22  PAGE 9


  C:2687H         LINE#         164
  C:268EH         LINE#         165
  C:2691H         LINE#         167
  -------         ENDPROC       PORT_INIT
  -------         PROC          UART_INIT
  C:27D1H         LINE#         200
  C:27D1H         LINE#         201
  C:27D1H         LINE#         211
  C:27D4H         LINE#         212
  C:27D7H         LINE#         213
  C:27DAH         LINE#         214
  C:27DDH         LINE#         215
  C:27DFH         LINE#         216
  C:27E1H         LINE#         218
  -------         ENDPROC       UART_INIT
  -------         PROC          _UART_SEND_BYTE
  D:0007H         SYMBOL        dat
  C:0003H         LINE#         220
  C:0003H         LINE#         221
  C:0003H         LINE#         222
  C:0005H         LINE#         223
  C:0008H         LINE#         224
  C:000AH         LINE#         225
  -------         ENDPROC       _UART_SEND_BYTE
  -------         ENDMOD        MAIN

  -------         MODULE        MPU6050
  C:0000H         SYMBOL        _ICE_DUMMY_
  D:0080H         PUBLIC        P0
  D:0090H         PUBLIC        P1
  D:00A0H         PUBLIC        P2
  D:00B0H         PUBLIC        P3
  D:00C0H         PUBLIC        P4
  D:00C8H         PUBLIC        P5
  C:2004H         PUBLIC        loadfirmware
  D:00E8H         PUBLIC        P6
  D:00F8H         PUBLIC        P7
  D:00A8H         PUBLIC        IE
  C:15B7H         PUBLIC        _dmpGetyawpitchroll
  C:232DH         PUBLIC        _i2creads
  C:25A4H         PUBLIC        _xdmpUpdates
  D:00B8H         PUBLIC        IP
  B:00D0H.7       PUBLIC        CY
  C:1105H         PUBLIC        dmpUpdates
  C:2807H         PUBLIC        _i2cread
  C:23A6H         PUBLIC        loadcfgupd
  C:26EBH         PUBLIC        getDeviceID
  D:00D8H         PUBLIC        CCON
  C:21AFH         PUBLIC        _get_mpu6050_angle
  C:26BFH         PUBLIC        _i2cwrite
  B:0021H.1       PUBLIC        ack
  C:2237H         PUBLIC        _readBits
  C:27BCH         PUBLIC        _DelayMs
  D:0098H         PUBLIC        SCON
  D:0088H         PUBLIC        TCON
  B:0090H.4       PUBLIC        sda
  C:255EH         PUBLIC        _readBit
BL51 BANKED LINKER/LOCATER V6.22                                                      08/21/2020  21:33:22  PAGE 10


  C:209BH         PUBLIC        _writeBits
  B:0090H.5       PUBLIC        scl
  C:1A6CH         PUBLIC        _dmpGetQuaternion1
  C:1D4FH         PUBLIC        _dmpGetQuaternion2
  C:22B8H         PUBLIC        _writeBit
  I:0022H         PUBLIC        dmpdatas
  C:2483H         PUBLIC        _i2_fs
  C:2513H         PUBLIC        i2_js
  C:1883H         PUBLIC        dmpInitialize
  C:1045H         PUBLIC        dmpcfgupddata
  C:2731H         PUBLIC        i2_qs
  C:280DH         PUBLIC        _readdmp
  C:276BH         PUBLIC        drv_mpu6050_init
  C:2815H         PUBLIC        _DelayUs2x
  C:2788H         PUBLIC        i2_tz
  C:274EH         PUBLIC        getFIFOCount
  C:2692H         PUBLIC        initMPU6050
  D:00D0H         PUBLIC        PSW
  C:08BCH         PUBLIC        dmpmemorydata
  -------         PROC          _DELAYUS2X
  D:0007H         SYMBOL        t
  C:2815H         LINE#         218
  C:2815H         LINE#         219
  C:2815H         LINE#         220
  C:2817H         LINE#         221
  -------         ENDPROC       _DELAYUS2X
  -------         PROC          _DELAYMS
  D:0006H         SYMBOL        t
  C:27BCH         LINE#         223
  C:27BEH         LINE#         224
  C:27BEH         LINE#         226
  C:27C4H         LINE#         227
  C:27C4H         LINE#         229
  C:27C9H         LINE#         230
  C:27CEH         LINE#         231
  C:27D0H         LINE#         232
  -------         ENDPROC       _DELAYMS
  -------         PROC          I2_QS
  C:2731H         LINE#         236
  C:2731H         LINE#         237
  C:2731H         LINE#         238
  C:2733H         LINE#         239
  C:2735H         LINE#         240
  C:2739H         LINE#         241
  C:273BH         LINE#         242
  C:2743H         LINE#         243
  C:274BH         LINE#         244
  C:274DH         LINE#         245
  -------         ENDPROC       I2_QS
  -------         PROC          I2_TZ
  C:2788H         LINE#         247
  C:2788H         LINE#         248
  C:2788H         LINE#         249
  C:278AH         LINE#         250
  C:278CH         LINE#         251
  C:2794H         LINE#         252
  C:279CH         LINE#         253
BL51 BANKED LINKER/LOCATER V6.22                                                      08/21/2020  21:33:22  PAGE 11


  C:279EH         LINE#         254
  C:27A2H         LINE#         255
  -------         ENDPROC       I2_TZ
  C:2472H         SYMBOL        L?0136
  C:2474H         SYMBOL        L?0137
  -------         PROC          L?0135
  -------         ENDPROC       L?0135
  C:2472H         SYMBOL        L?0136
  C:2474H         SYMBOL        L?0137
  -------         PROC          _I2_FS
  D:0007H         SYMBOL        Data
  -------         DO            
  D:0006H         SYMBOL        i
  -------         ENDDO         
  C:2483H         LINE#         256
  C:2483H         LINE#         257
  C:2483H         LINE#         258
  C:2485H         LINE#         259
  C:2485H         LINE#         260
  C:2485H         LINE#         261
  C:2489H         LINE#         262
  C:248BH         LINE#         263
  C:248DH         LINE#         264
  C:2495H         LINE#         265
  C:249DH         LINE#         266
  C:249FH         LINE#         268
  C:24A4H         LINE#         270
  C:24A6H         LINE#         271
  C:24A8H         LINE#         272
  C:24B0H         LINE#         273
  C:24B8H         LINE#         274
  C:24BCH         LINE#         275
  C:24BEH         LINE#         276
  C:24C0H         LINE#         277
  -------         ENDPROC       _I2_FS
  -------         PROC          I2_JS
  B:0020H.0       SYMBOL        _ack
  -------         DO            
  D:0007H         SYMBOL        i
  D:0006H         SYMBOL        Data
  -------         ENDDO         
  C:2513H         LINE#         279
  C:2513H         LINE#         280
  C:2513H         LINE#         281
  C:2516H         LINE#         282
  C:2516H         LINE#         283
  C:2516H         LINE#         284
  C:251AH         LINE#         285
  C:251CH         LINE#         286
  C:2524H         LINE#         287
  C:252CH         LINE#         288
  C:2532H         LINE#         289
  C:2534H         LINE#         290
  C:2538H         LINE#         291
  C:253DH         LINE#         293
  C:2541H         LINE#         294
  C:2543H         LINE#         295
BL51 BANKED LINKER/LOCATER V6.22                                                      08/21/2020  21:33:22  PAGE 12


  C:254BH         LINE#         296
  C:2553H         LINE#         297
  C:2555H         LINE#         298
  C:2557H         LINE#         299
  C:255BH         LINE#         300
  C:255DH         LINE#         301
  -------         ENDPROC       I2_JS
  -------         PROC          _I2CWRITE
  D:0004H         SYMBOL        addr
  D:0005H         SYMBOL        Data
  C:26BFH         LINE#         309
  C:26C1H         LINE#         310
  C:26C1H         LINE#         311
  C:26C4H         LINE#         312
  C:26C9H         LINE#         313
  C:26CFH         LINE#         314
  C:26D4H         LINE#         315
  C:26DAH         LINE#         316
  C:26DFH         LINE#         317
  C:26E5H         LINE#         318
  C:26E8H         LINE#         319
  C:26EAH         LINE#         320
  -------         ENDPROC       _I2CWRITE
  C:27FFH         SYMBOL        L?0139
  C:2803H         SYMBOL        L?0140
  -------         PROC          L?0138
  -------         ENDPROC       L?0138
  C:27FFH         SYMBOL        L?0139
  C:2803H         SYMBOL        L?0140
  -------         PROC          _I2CREAD
  D:0007H         SYMBOL        addr
  D:0001H         SYMBOL        Data
  C:2807H         LINE#         326
  C:2807H         LINE#         327
  C:2807H         LINE#         337
  C:280CH         LINE#         338
  -------         ENDPROC       _I2CREAD
  -------         PROC          _I2CREADS
  D:0004H         SYMBOL        addr
  D:0005H         SYMBOL        length
  X:0019H         SYMBOL        Data
  -------         DO            
  D:0004H         SYMBOL        i
  -------         ENDDO         
  C:232DH         LINE#         345
  C:233AH         LINE#         346
  C:233AH         LINE#         348
  C:233BH         LINE#         349
  C:233EH         LINE#         350
  C:2343H         LINE#         351
  C:2349H         LINE#         352
  C:234EH         LINE#         353
  C:2354H         LINE#         354
  C:2357H         LINE#         355
  C:235CH         LINE#         356
  C:2362H         LINE#         357
  C:2369H         LINE#         358
BL51 BANKED LINKER/LOCATER V6.22                                                      08/21/2020  21:33:22  PAGE 13


  C:2369H         LINE#         359
  C:2382H         LINE#         360
  C:2385H         LINE#         361
  C:23A0H         LINE#         362
  C:23A3H         LINE#         363
  C:23A5H         LINE#         364
  -------         ENDPROC       _I2CREADS
  C:22B2H         SYMBOL        L?0133
  C:22B4H         SYMBOL        L?0134
  -------         PROC          L?0132
  -------         ENDPROC       L?0132
  C:22B2H         SYMBOL        L?0133
  C:22B4H         SYMBOL        L?0134
  -------         PROC          _WRITEBIT
  X:0015H         SYMBOL        addr
  X:0016H         SYMBOL        bitNum
  X:0017H         SYMBOL        Data
  -------         DO            
  X:0018H         SYMBOL        b
  -------         ENDDO         
  C:22B8H         LINE#         372
  C:22C5H         LINE#         373
  C:22C5H         LINE#         375
  C:22D1H         LINE#         376
  C:22D1H         LINE#         377
  C:231DH         LINE#         378
  C:232AH         LINE#         379
  C:232AH         LINE#         381
  C:232CH         LINE#         382
  -------         ENDPROC       _WRITEBIT
  -------         PROC          L?0141
  -------         ENDPROC       L?0141
  -------         PROC          _WRITEBITS
  X:0008H         SYMBOL        addr
  X:0009H         SYMBOL        bitStart
  X:000AH         SYMBOL        length
  X:000BH         SYMBOL        Data
  -------         DO            
  X:000CH         SYMBOL        b
  X:000DH         SYMBOL        mask
  -------         ENDDO         
  C:209BH         LINE#         390
  C:20A8H         LINE#         391
  C:20A8H         LINE#         399
  C:20ADH         LINE#         400
  C:20B9H         LINE#         401
  C:20B9H         LINE#         402
  C:20EFH         LINE#         403
  C:2101H         LINE#         404
  C:2104H         LINE#         405
  C:210DH         LINE#         406
  C:2110H         LINE#         407
  C:211DH         LINE#         408
  C:2120H         LINE#         409
  C:2120H         LINE#         411
  C:2122H         LINE#         412
  -------         ENDPROC       _WRITEBITS
BL51 BANKED LINKER/LOCATER V6.22                                                      08/21/2020  21:33:22  PAGE 14


  -------         PROC          _READBIT
  D:0007H         SYMBOL        addr
  X:0008H         SYMBOL        bitNum
  X:0009H         SYMBOL        Data
  -------         DO            
  X:000CH         SYMBOL        b
  -------         ENDDO         
  C:255EH         LINE#         419
  C:256CH         LINE#         420
  C:256CH         LINE#         422
  C:2578H         LINE#         423
  C:2578H         LINE#         424
  C:259EH         LINE#         425
  C:25A1H         LINE#         426
  C:25A1H         LINE#         428
  C:25A1H         LINE#         429
  C:25A3H         LINE#         430
  C:25A3H         LINE#         431
  -------         ENDPROC       _READBIT
  -------         PROC          L?0142
  -------         ENDPROC       L?0142
  -------         PROC          _READBITS
  D:0007H         SYMBOL        addr
  X:0009H         SYMBOL        bitStart
  X:000AH         SYMBOL        length
  X:000BH         SYMBOL        Data
  -------         DO            
  X:000EH         SYMBOL        b
  X:000FH         SYMBOL        mask
  -------         ENDDO         
  C:2237H         LINE#         439
  C:223FH         LINE#         440
  C:223FH         LINE#         446
  C:2244H         LINE#         447
  C:2250H         LINE#         448
  C:2250H         LINE#         450
  C:2286H         LINE#         451
  C:228CH         LINE#         452
  C:229BH         LINE#         453
  C:22ACH         LINE#         454
  C:22AFH         LINE#         455
  C:22AFH         LINE#         457
  C:22B1H         LINE#         458
  -------         ENDPROC       _READBITS
  -------         PROC          LOADFIRMWARE
  -------         DO            
  X:0008H         SYMBOL        datanum
  D:0001H         SYMBOL        ye
  D:0003H         SYMBOL        i
  D:0005H         SYMBOL        j
  D:0002H         SYMBOL        bank
  X:000AH         SYMBOL        addr
  -------         ENDDO         
  C:2004H         LINE#         479
  C:2004H         LINE#         480
  C:2004H         LINE#         481
  C:200BH         LINE#         483
BL51 BANKED LINKER/LOCATER V6.22                                                      08/21/2020  21:33:22  PAGE 15


  C:200CH         LINE#         484
  C:200EH         LINE#         486
  C:200EH         LINE#         487
  C:200EH         LINE#         488
  C:2012H         LINE#         489
  C:2016H         LINE#         491
  C:2018H         LINE#         492
  C:201FH         LINE#         493
  C:201FH         LINE#         494
  C:2021H         LINE#         495
  C:2021H         LINE#         496
  C:2021H         LINE#         497
  C:2021H         LINE#         498
  C:2024H         LINE#         499
  C:2026H         LINE#         500
  C:2026H         LINE#         501
  C:2042H         LINE#         502
  C:2048H         LINE#         503
  C:204DH         LINE#         504
  C:2054H         LINE#         505
  C:2057H         LINE#         506
  C:205AH         LINE#         507
  C:2060H         LINE#         508
  C:2062H         LINE#         509
  C:2062H         LINE#         510
  C:2062H         LINE#         511
  C:2062H         LINE#         512
  C:2065H         LINE#         513
  C:2067H         LINE#         514
  C:2067H         LINE#         515
  C:2083H         LINE#         516
  C:2089H         LINE#         517
  C:208EH         LINE#         518
  C:2091H         LINE#         519
  C:2093H         LINE#         520
  -------         ENDPROC       LOADFIRMWARE
  -------         PROC          LOADCFGUPD
  -------         DO            
  D:0002H         SYMBOL        line
  D:0007H         SYMBOL        bank
  D:0003H         SYMBOL        datacounts
  D:0001H         SYMBOL        bytes2write
  X:0008H         SYMBOL        offset
  D:0005H         SYMBOL        writingcounts
  D:0007H         SYMBOL        special
  -------         ENDDO         
  C:23A6H         LINE#         521
  C:23A6H         LINE#         522
  C:23A6H         LINE#         525
  C:23A8H         LINE#         531
  C:23A9H         LINE#         532
  C:23A9H         LINE#         533
  C:23B2H         LINE#         534
  C:23BBH         LINE#         535
  C:23C4H         LINE#         536
  C:23CBH         LINE#         537
  C:23CEH         LINE#         538
BL51 BANKED LINKER/LOCATER V6.22                                                      08/21/2020  21:33:22  PAGE 16


  C:23CEH         LINE#         539
  C:23CEH         LINE#         540
  C:23D1H         LINE#         541
  C:23D8H         LINE#         542
  C:23D8H         LINE#         543
  C:23E4H         LINE#         544
  C:23EAH         LINE#         545
  C:23EDH         LINE#         546
  C:23F0H         LINE#         547
  C:23F0H         LINE#         548
  C:23F8H         LINE#         549
  C:23FBH         LINE#         550
  C:23FBH         LINE#         554
  C:2402H         LINE#         555
  C:2404H         LINE#         557
  C:2407H         LINE#         558
  C:2407H         LINE#         559
  C:240DH         LINE#         560
  C:2410H         LINE#         561
  C:2412H         LINE#         562
  -------         ENDPROC       LOADCFGUPD
  -------         PROC          _XDMPUPDATES
  D:0003H         SYMBOL        datacounts
  -------         DO            
  D:0005H         SYMBOL        writingcounts
  D:0007H         SYMBOL        bank
  D:0001H         SYMBOL        offset
  D:0002H         SYMBOL        bytes2write
  -------         ENDDO         
  C:25A4H         LINE#         564
  C:25A6H         LINE#         565
  C:25A6H         LINE#         567
  C:25ADH         LINE#         568
  C:25B3H         LINE#         569
  C:25B9H         LINE#         570
  C:25C0H         LINE#         571
  C:25C4H         LINE#         572
  C:25C4H         LINE#         573
  C:25C4H         LINE#         574
  C:25C7H         LINE#         575
  C:25CEH         LINE#         576
  C:25CEH         LINE#         577
  C:25DAH         LINE#         578
  C:25E0H         LINE#         579
  C:25E3H         LINE#         580
  C:25E6H         LINE#         581
  C:25E8H         LINE#         582
  -------         ENDPROC       _XDMPUPDATES
  -------         PROC          GETFIFOCOUNT
  -------         DO            
  X:0015H         SYMBOL        i
  -------         ENDDO         
  C:274EH         LINE#         584
  C:274EH         LINE#         585
  C:274EH         LINE#         587
  C:275BH         LINE#         588
  C:276AH         LINE#         589
BL51 BANKED LINKER/LOCATER V6.22                                                      08/21/2020  21:33:22  PAGE 17


  -------         ENDPROC       GETFIFOCOUNT
  -------         PROC          _READDMP
  D:0001H         SYMBOL        Data
  C:280DH         LINE#         594
  C:280DH         LINE#         595
  C:280DH         LINE#         596
  C:2814H         LINE#         597
  -------         ENDPROC       _READDMP
  -------         PROC          DMPINITIALIZE
  -------         DO            
  X:0000H         SYMBOL        hwRevision
  X:0001H         SYMBOL        otpValid
  X:0002H         SYMBOL        mpuIntStatus
  X:0003H         SYMBOL        xgOffsetTC
  X:0004H         SYMBOL        ygOffsetTC
  X:0005H         SYMBOL        zgOffsetTC
  X:0006H         SYMBOL        fifoCount
  -------         ENDDO         
  C:1883H         LINE#         600
  C:1883H         LINE#         601
  C:1883H         LINE#         605
  C:188CH         LINE#         606
  C:1891H         LINE#         607
  C:189AH         LINE#         608
  C:18A1H         LINE#         609
  C:18A8H         LINE#         610
  C:18B3H         LINE#         611
  C:18BAH         LINE#         612
  C:18C5H         LINE#         613
  C:18DCH         LINE#         614
  C:18EFH         LINE#         615
  C:1902H         LINE#         616
  C:1909H         LINE#         617
  C:1912H         LINE#         618
  C:1919H         LINE#         619
  C:191EH         LINE#         620
  C:1923H         LINE#         621
  C:192BH         LINE#         622
  C:1933H         LINE#         623
  C:1941H         LINE#         624
  C:1948H         LINE#         625
  C:194FH         LINE#         626
  C:195DH         LINE#         627
  C:196BH         LINE#         628
  C:1973H         LINE#         629
  C:197AH         LINE#         630
  C:1981H         LINE#         631
  C:1987H         LINE#         632
  C:1998H         LINE#         633
  C:19A9H         LINE#         634
  C:19BAH         LINE#         635
  C:19BFH         LINE#         636
  C:19C4H         LINE#         637
  C:19C7H         LINE#         638
  C:19D2H         LINE#         640
  C:19D5H         LINE#         642
  C:19DCH         LINE#         643
BL51 BANKED LINKER/LOCATER V6.22                                                      08/21/2020  21:33:22  PAGE 18


  C:19E3H         LINE#         644
  C:19EAH         LINE#         645
  C:19F1H         LINE#         646
  C:19F4H         LINE#         647
  C:19FDH         LINE#         648
  C:1A06H         LINE#         649
  C:1A0FH         LINE#         650
  C:1A14H         LINE#         651
  C:1A19H         LINE#         652
  C:1A1EH         LINE#         653
  C:1A31H         LINE#         654
  C:1A34H         LINE#         656
  C:1A37H         LINE#         657
  C:1A3CH         LINE#         658
  C:1A4FH         LINE#         659
  C:1A52H         LINE#         661
  C:1A55H         LINE#         662
  C:1A5AH         LINE#         663
  C:1A63H         LINE#         664
  C:1A66H         LINE#         665
  C:1A69H         LINE#         667
  C:1A6BH         LINE#         668
  -------         ENDPROC       DMPINITIALIZE
  -------         PROC          INITMPU6050
  C:2692H         LINE#         670
  C:2692H         LINE#         671
  C:2692H         LINE#         672
  C:26A1H         LINE#         673
  C:26A8H         LINE#         674
  C:26B6H         LINE#         675
  -------         ENDPROC       INITMPU6050
  -------         PROC          GETDEVICEID
  -------         DO            
  X:0000H         SYMBOL        b
  -------         ENDDO         
  C:26EBH         LINE#         678
  C:26EBH         LINE#         679
  C:26EBH         LINE#         680
  C:26F0H         LINE#         681
  C:2706H         LINE#         682
  C:2713H         LINE#         684
  -------         ENDPROC       GETDEVICEID
  -------         PROC          _DMPGETQUATERNION1
  X:0024H         SYMBOL        _data
  X:0027H         SYMBOL        packet
  -------         DO            
  X:002AH         SYMBOL        i
  X:002CH         SYMBOL        k
  -------         ENDDO         
  C:1A6CH         LINE#         691
  C:1A77H         LINE#         692
  C:1A77H         LINE#         694
  C:1AA3H         LINE#         695
  C:1AD5H         LINE#         696
  C:1B07H         LINE#         697
  C:1B39H         LINE#         698
  C:1B55H         LINE#         699
BL51 BANKED LINKER/LOCATER V6.22                                                      08/21/2020  21:33:22  PAGE 19


  C:1B55H         LINE#         700
  C:1B78H         LINE#         701
  C:1B78H         LINE#         702
  C:1B83H         LINE#         703
  C:1B83H         LINE#         704
  C:1B9EH         LINE#         705
  C:1BA9H         LINE#         706
  C:1BD9H         LINE#         707
  C:1BF4H         LINE#         708
  C:1BF6H         LINE#         710
  C:1C17H         LINE#         711
  C:1C17H         LINE#         713
  C:1C28H         LINE#         714
  C:1C2CH         LINE#         715
  -------         ENDPROC       _DMPGETQUATERNION1
  -------         PROC          _DMPGETQUATERNION2
  X:0015H         SYMBOL        q
  X:0018H         SYMBOL        packet
  -------         DO            
  X:001BH         SYMBOL        qI
  X:0023H         SYMBOL        status
  -------         ENDDO         
  C:1D4FH         LINE#         718
  C:1D5AH         LINE#         719
  C:1D5AH         LINE#         721
  C:1D7BH         LINE#         722
  C:1D80H         LINE#         723
  C:1DA4H         LINE#         724
  C:1DCBH         LINE#         725
  C:1DF2H         LINE#         726
  C:1E19H         LINE#         727
  C:1E1EH         LINE#         728
  C:1E1EH         LINE#         729
  C:1E25H         LINE#         730
  -------         ENDPROC       _DMPGETQUATERNION2
  -------         PROC          _DMPGETYAWPITCHROLL
  X:0015H         SYMBOL        ypr
  X:0018H         SYMBOL        q
  C:15B7H         LINE#         733
  C:15C2H         LINE#         734
  C:15C2H         LINE#         736
  C:16E2H         LINE#         738
  C:1756H         LINE#         740
  -------         ENDPROC       _DMPGETYAWPITCHROLL
  -------         PROC          DRV_MPU6050_INIT
  C:276BH         LINE#         754
  C:276BH         LINE#         755
  C:276BH         LINE#         756
  C:276EH         LINE#         757
  C:2774H         LINE#         758
  C:2774H         LINE#         759
  C:277AH         LINE#         760
  C:277CH         LINE#         762
  C:277CH         LINE#         763
  C:277FH         LINE#         764
  -------         ENDPROC       DRV_MPU6050_INIT
  -------         PROC          _GET_MPU6050_ANGLE
BL51 BANKED LINKER/LOCATER V6.22                                                      08/21/2020  21:33:22  PAGE 20


  X:0000H         SYMBOL        ypr
  -------         DO            
  X:0003H         SYMBOL        q
  X:0013H         SYMBOL        zd
  X:0014H         SYMBOL        i
  -------         ENDDO         
  C:21AFH         LINE#         774
  C:21BAH         LINE#         775
  C:21BAH         LINE#         786
  C:21C2H         LINE#         787
  C:21C9H         LINE#         788
  C:21D9H         LINE#         789
  C:21D9H         LINE#         790
  C:21DCH         LINE#         791
  C:21DEH         LINE#         792
  C:21E5H         LINE#         793
  C:21E5H         LINE#         794
  C:21F8H         LINE#         795
  C:2201H         LINE#         797
  C:2201H         LINE#         799
  C:2217H         LINE#         800
  -------         ENDPROC       _GET_MPU6050_ANGLE
  -------         ENDMOD        MPU6050

  -------         MODULE        UTILS
  C:0000H         SYMBOL        _ICE_DUMMY_
  -------         ENDMOD        UTILS

  -------         MODULE        ?C?FPADD
  C:0015H         PUBLIC        ?C?FPADD
  C:0011H         PUBLIC        ?C?FPSUB
  -------         ENDMOD        ?C?FPADD

  -------         MODULE        ?C?FPMUL
  C:0106H         PUBLIC        ?C?FPMUL
  -------         ENDMOD        ?C?FPMUL

  -------         MODULE        ?C?FPDIV
  C:020FH         PUBLIC        ?C?FPDIV
  -------         ENDMOD        ?C?FPDIV

  -------         MODULE        ?C?FCAST
  C:02B6H         PUBLIC        ?C?FCASTC
  C:02B1H         PUBLIC        ?C?FCASTI
  C:02ACH         PUBLIC        ?C?FCASTL
  -------         ENDMOD        ?C?FCAST

  -------         MODULE        PRINTF
  X:0000H         PUBLIC        ?_PRINTF?BYTE
  X:0000H         PUBLIC        ?_SPRINTF?BYTE
  C:119FH         PUBLIC        _PRINTF
  C:1199H         PUBLIC        _SPRINTF
  -------         ENDMOD        PRINTF

  -------         MODULE        ATAN2
  X:001BH         PUBLIC        ?_atan2?BYTE
  C:1ED2H         PUBLIC        _atan2
BL51 BANKED LINKER/LOCATER V6.22                                                      08/21/2020  21:33:22  PAGE 21


  -------         ENDMOD        ATAN2

  -------         MODULE        ASIN
  C:2624H         PUBLIC        _ASIN
  -------         ENDMOD        ASIN

  -------         MODULE        ?C?FPCMP
  C:0336H         PUBLIC        ?C?FPCMP
  C:0334H         PUBLIC        ?C?FPCMP3
  -------         ENDMOD        ?C?FPCMP

  -------         MODULE        ?C?FPROUND
  C:03ADH         PUBLIC        ?C?FPROUND
  -------         ENDMOD        ?C?FPROUND

  -------         MODULE        ?C?FPCONVERT
  C:03EAH         PUBLIC        ?C?FPCONVERT
  -------         ENDMOD        ?C?FPCONVERT

  -------         MODULE        SQRT
  C:1E2AH         PUBLIC        _SQRT
  -------         ENDMOD        SQRT

  -------         MODULE        ATAN
  C:1C4DH         PUBLIC        _ATAN
  -------         ENDMOD        ATAN

  -------         MODULE        ?C?FTNPWR
  C:051FH         PUBLIC        ?C?FTNPWR
  -------         ENDMOD        ?C?FTNPWR

  -------         MODULE        ?C?CLDPTR
  C:05ACH         PUBLIC        ?C?CLDPTR
  -------         ENDMOD        ?C?CLDPTR

  -------         MODULE        ?C?CLDOPTR
  C:05C5H         PUBLIC        ?C?CLDOPTR
  -------         ENDMOD        ?C?CLDOPTR

  -------         MODULE        ?C?CSTPTR
  C:05F2H         PUBLIC        ?C?CSTPTR
  -------         ENDMOD        ?C?CSTPTR

  -------         MODULE        ?C?CSTOPTR
  C:0604H         PUBLIC        ?C?CSTOPTR
  -------         ENDMOD        ?C?CSTOPTR

  -------         MODULE        ?C?ILDIX
  C:0626H         PUBLIC        ?C?ILDIX
  -------         ENDMOD        ?C?ILDIX

  -------         MODULE        ?C?ILDPTR
  C:063CH         PUBLIC        ?C?ILDPTR
  -------         ENDMOD        ?C?ILDPTR

  -------         MODULE        ?C?ILDOPTR
  C:0667H         PUBLIC        ?C?ILDOPTR
BL51 BANKED LINKER/LOCATER V6.22                                                      08/21/2020  21:33:22  PAGE 22


  -------         ENDMOD        ?C?ILDOPTR

  -------         MODULE        ?C?ISTPTR
  C:069FH         PUBLIC        ?C?ISTPTR
  -------         ENDMOD        ?C?ISTPTR

  -------         MODULE        ?C?ISTOPTR
  C:06BEH         PUBLIC        ?C?ISTOPTR
  -------         ENDMOD        ?C?ISTOPTR

  -------         MODULE        ?C?LNEG
  C:06EBH         PUBLIC        ?C?LNEG
  -------         ENDMOD        ?C?LNEG

  -------         MODULE        ?C?ULCMP
  C:06F9H         PUBLIC        ?C?ULCMP
  -------         ENDMOD        ?C?ULCMP

  -------         MODULE        ?C?LLDPTR
  C:070AH         PUBLIC        ?C?LLDPTR
  -------         ENDMOD        ?C?LLDPTR

  -------         MODULE        ?C?LLDOPTR
  C:072AH         PUBLIC        ?C?LLDOPTR
  -------         ENDMOD        ?C?LLDOPTR

  -------         MODULE        ?C?LSTPTR
  C:075AH         PUBLIC        ?C?LSTPTR
  -------         ENDMOD        ?C?LSTPTR

  -------         MODULE        ?C?LSTOPTR
  C:0774H         PUBLIC        ?C?LSTOPTR
  -------         ENDMOD        ?C?LSTOPTR

  -------         MODULE        ?C?LLDXDATA
  C:0798H         PUBLIC        ?C?LLDXDATA
  -------         ENDMOD        ?C?LLDXDATA

  -------         MODULE        ?C?LLDCODE
  C:07A4H         PUBLIC        ?C?LLDCODE
  -------         ENDMOD        ?C?LLDCODE

  -------         MODULE        ?C?LLDXDATA0
  C:07B4H         PUBLIC        ?C?LLDXDATA0
  -------         ENDMOD        ?C?LLDXDATA0

  -------         MODULE        ?C?LLDCODE0
  C:07C0H         PUBLIC        ?C?LLDCODE0
  -------         ENDMOD        ?C?LLDCODE0

  -------         MODULE        ?C?LLDPTR0
  C:07D0H         PUBLIC        ?C?LLDPTR0
  -------         ENDMOD        ?C?LLDPTR0

  -------         MODULE        ?C?LLDOPTR0
  C:07F0H         PUBLIC        ?C?LLDOPTR0
  -------         ENDMOD        ?C?LLDOPTR0
BL51 BANKED LINKER/LOCATER V6.22                                                      08/21/2020  21:33:22  PAGE 23



  -------         MODULE        ?C?LSTXDATA
  C:0820H         PUBLIC        ?C?LSTXDATA
  -------         ENDMOD        ?C?LSTXDATA

  -------         MODULE        ?C?PLDIXDATA
  C:082CH         PUBLIC        ?C?PLDIXDATA
  -------         ENDMOD        ?C?PLDIXDATA

  -------         MODULE        ?C?PSTXDATA
  C:0843H         PUBLIC        ?C?PSTXDATA
  -------         ENDMOD        ?C?PSTXDATA

  -------         MODULE        ?C?CCASE
  C:084CH         PUBLIC        ?C?CCASE
  -------         ENDMOD        ?C?CCASE

  -------         MODULE        ?C?LLDIDATA
  C:0872H         PUBLIC        ?C?LLDIDATA
  -------         ENDMOD        ?C?LLDIDATA

  -------         MODULE        ?C?LLDPDATA
  C:087EH         PUBLIC        ?C?LLDPDATA
  -------         ENDMOD        ?C?LLDPDATA

  -------         MODULE        ?C?LLDIDATA0
  C:088AH         PUBLIC        ?C?LLDIDATA0
  -------         ENDMOD        ?C?LLDIDATA0

  -------         MODULE        ?C?LLDPDATA0
  C:0897H         PUBLIC        ?C?LLDPDATA0
  -------         ENDMOD        ?C?LLDPDATA0

  -------         MODULE        ?C?LSTIDATA
  C:08A4H         PUBLIC        ?C?LSTIDATA
  -------         ENDMOD        ?C?LSTIDATA

  -------         MODULE        ?C?LSTPDATA
  C:08B0H         PUBLIC        ?C?LSTPDATA
  -------         ENDMOD        ?C?LSTPDATA

Program Size: data=57.2 xdata=89 code=10264
LINK/LOCATE RUN COMPLETE.  0 WARNING(S),  0 ERROR(S)
