:102C12002825662C202566290D0A000D0A3D3D3D1A
:102C22003D3D3D3D3D3D3D3D7374617274206368A1
:102C3200617267696E6720766F6C746167653A20AE
:102C420025336656203D3D3D3D3D3D3D3D3D3D3DAF
:102C52000D0A000D0A3D3D3D3D3D3D3D3D3D3D3DA5
:102C6200656E64206368617267696E6720766F6C57
:102C7200746167653A2025336656203D3D3D3D3DF2
:102C82003D3D3D3D3D3D0D0A003D3D3D3D3D3D3D12
:102C92003D3D3D3D74696D6520656C617073656491
:102CA2003A2025316653203D3D3D3D3D3D3D3D3D74
:102CB2003D3D0D0A0073757065726361705F766FDA
:102CC2006C743A2533662C2073757065726361707B
:102CD2005F616D705F77616E743A2533662C206D8B
:102CE2006370646174613A25640D0A006E6F772027
:102CF2006368617267696E673A2025642025252022
:102D02000D0A00456C65634D61676E657469635FAA
:102D1200313A256620562C20456C65634D61676EFD
:102D2200657469635F323A256620562C20456C65CE
:102D3200634D61676E657469635F333A2566205639
:102D42002C20456C65634D61676E657469635F3401
:102D52003A256620562C200D0A00726174655F4C7C
:102D62003A25640D0A00726174655F523A25640D5A
:022D72000A0055
:1028AE004401150000000044011100000000440125
:1028BE0019000000004400E50000000044011D0066
:1028CE000000004200D700004400E9000000004470
:1028DE0000DD3F0000004400D9000000004400E18C
:1028EE00000000004400D30000000044000000007F
:1028FE00000A4400040000000044000800000064C8
:10290E0044000C00000000440010000001F44400DC
:10291E0014000000004400180000000144001C00D8
:10292E00000000C109C10A4200200000420022033B
:10293E00E841002400440025000000004400290066
:10294E0000000A44002D0000000044003100000386
:10295E00E844003500000000420039000044003B0E
:10296E00000003E844003F00000000440043000064
:10297E0003E84400470000000044004B0000000044
:10298E0044004F000000004400530000000A4400C1
:10299E00570000000044005B0000000044005F0090
:1029AE0000000044006300000000440067000000C7
:1029BE000044006B0000006444006F0000000044FF
:1029CE000073000000004400770000000060280043
:1029DE007B0000000000000000000000000000006E
:1029EE0000000000000000000000000000000000D9
:1029FE00000000000000000000602800A30000009E
:102A0E0000000000000000000000000000000000B8
:102A1E0000000000000000000000000000000000A8
:102A2E0000000000004400CB000000004400CF0076
:032A3E0000000095
:063E1A00900121120923B2
:103E2000900115E0FCA3E0FDA3E0FEA3E0FF9001FC
:103E300025120923900125E0F8A3E0F9A3E0FAA3F5
:103E4000E0FB900115E0FCA3E0FDA3E0FEA3E0C3CE
:103E50009BFFEE9AFEED99FDEC98FC900121E0F8B5
:0F3E6000A3E0F9A3E0FAA3E0FBD31207DF50C5FC
:013E6F002230
:103D6800900004E0F8A3E0F9A3E0FAA3E0FB9001D7
:103D780015E0FCA3E0FDA3E0FEA3E0C39BFFEE9AE1
:103D8800FEED99FDEC98FC900000E0F8A3E0F9A3A3
:103D9800E0FAA3E0FBD31207DF501D900115E0FC09
:103DA800A3E0FDA3E0FEA3E0FF9000041209237B3B
:083DB800017A0079ED122EAB37
:013DC00022E0
:103B320090000CE0F8A3E0F9A3E0FAA3E0FB900107
:103B420015E0FCA3E0FDA3E0FEA3E0C39BFFEE9A19
:103B5200FEED99FDEC98FC900008E0F8A3E0F9A3D3
:103B6200E0FAA3E0FBD31207DF5045900115E0FC19
:103B7200A3E0FDA3E0FEA3E0FF90000C1209237B6B
:103B8200FF7A2C7912900105E0FCA3E0FDA3E0FE90
:103B9200A3E0FF900139120923900109E0FCA3E0A0
:103BA200FDA3E0FEA3E0FF90013D12092312195884
:013BB20022F0
:103416009000D7E0FFA3E0900121CFF0A3EFF0905A
:103426000014E0F8A3E0F9A3E0FAA3E0FB9001158D
:10343600E0FCA3E0FDA3E0FEA3E0C39BFFEE9AFE43
:10344600ED99FDEC98FC900010E0F8A3E0F9A3E0FC
:10345600FAA3E0FBD31207DF400302350190011502
:10346600E0FCA3E0FDA3E0FEA3E0FF900014120938
:1034760023D3900122E0945A900121E06480948045
:103486004006E4F0A37464F0C3900122E0940A902D
:103496000121E0648094805004E4F0A3F090012FB1
:1034A60012092F000003E8900121E0FEA3E0FFC30C
:1034B60074649FFFE49EFE3395E0FDFC9001331299
:1034C6000923E4900137F0A3F07D05FF12127990ED
:1034D600012F12092F000003E8900121E0FEA3E06E
:1034E600FFEE3395E0FDFC900133120923E49001D1
:0B34F60037F0A3F07D037F0512127970
:0135010022A7
:10321C009000D3E0F8A3E0F9A3E0FAA3E0FBC00030
:10322C00C001C002C0031242169000D3E0F8A3E024
:10323C00F9A3E0FAA3E0FB1200197BCD7ACC79CC90
:10324C00783D12010ED003D002D001D00012001D27
:10325C009000D3120923E4FFFE7DA07CC09000D324
:10326C00E0F8A3E0F9A3E0FAA3E0FB12001DE4FBF5
:10327C00FA79E078401202179000E9120923E4FF72
:10328C00FE7D807C3F9000E9E0F8A3E0F9A3E0FA32
:10329C00A3E0FB1202B4600B4009E4FFFE7D807CCE
:1032AC003F800E9000E9E0FCA3E0FDA3E0FEA3E06C
:1032BC00FF9000E9120923E4FFFEFDFC9000E9E019
:1032CC00F8A3E0F9A3E0FAA3E0FB1202B45007E480
:1032DC00FFFEFDFC800E9000E9E0FCA3E0FDA3E006
:1032EC00FEA3E0FF9000E9120923E4FFFE7DC87CF9
:1032FC00429000E9E0F8A3E0F9A3E0FAA3E0FB12A6
:0E330C00010E12037C9000D7EEF0A3EFF0222A
:10246F0090012112092F41A0000090012512092F80
:10247F000000000090001CE0F8A3E0F9A3E0FAA32D
:10248F00E0FB900115E0FCA3E0FDA3E0FEA3E0C399
:10249F009BFFEE9AFEED99FDEC98FC900018E0F88A
:1024AF00A3E0F9A3E0FAA3E0FBD31207DF40030296
:1024BF0026B9900115E0FCA3E0FDA3E0FEA3E0FF29
:1024CF0090001C1209239000D3E0F8A3E0F9A3E0D9
:1024DF00FAA3E0FB900121E0FCA3E0FDA3E0FEA343
:1024EF00E0FF1202179001251209231240EA500350
:1024FF000226B9200933D2097BFF7A2C791D90006F
:10250F00D3E0FCA3E0FDA3E0FEA3E0FF90013912AE
:10251F000923121958900115E0FCA3E0FDA3E0FE7A
:10252F00A3E0FF900025120923300A030225BBE424
:10253F00FFFE7D407C419000D3E0F8A3E0F9A3E0DB
:10254F00FAA3E0FB1202B44063D20A7BFF7A2C7924
:10255F00559000D3E0FCA3E0FDA3E0FEA3E0FF90C5
:10256F000139120923121958900025E0F8A3E0F958
:10257F00A3E0FAA3E0FB900115E0FCA3E0FDA3E0CC
:10258F00FEA3E0C39BFFEE9AFEED99FDEC98FCE4F1
:10259F0012033EE4FBFA797A78441202179001395C
:1025AF001209237BFF7A2C798B1219582009030209
:1025BF0026B9300A030226B97F677E667DB67C4056
:1025CF00900125E0F8A3E0F9A3E0FAA3E0FB1201E4
:1025DF000EE4FBFA797078421202B4601D401B7F43
:1025EF00677E667DB67C40900125E0F8A3E0F9A3F5
:1025FF00E0FAA3E0FB12010E8007E4FFFE7D707C82
:10260F004212037C900020EEF0A3EFF0C390002362
:10261F00E09FFF900022E09EFED3EF9400EE6480D7
:10262F0094804051900020E0FEA3E0FFA3EEF0A3C2
:10263F00EFF012412D7BFF7A2C79B79000D3E0FC9D
:10264F00A3E0FDA3E0FEA3E0FF9001391209239060
:10265F000125E0FCA3E0FDA3E0FEA3E0FF90013D18
:10266F00120923900020E0FFA3E0900141CFF0A3D7
:10267F00EFF0121958900024E0FF9000D7E0FCA370
:10268F00E0FDC39FFFEC9400FED3EF9400EE648057
:10269F0094804016900024EDF07BFF7A2C79EE9019
:0A26AF000139ECF0A3EDF012195808
:0126B90022FE
:102A8F0090012112092F0000000090012512092F3B
:102A9F000000000090002DE0F8A3E0F9A3E0FAA3F6
:102AAF00E0FB900115E0FCA3E0FDA3E0FEA3E0C373
:102ABF009BFFEE9AFEED99FDEC98FC900029E0F853
:102ACF00A3E0F9A3E0FAA3E0FBD31207DF40030270
:102ADF002C11900115E0FCA3E0FDA3E0FEA3E0FFA5
:102AEF0090002D12092390011DE0FCA3E0FDA3E04F
:102AFF00FEA3E0FF9000E5E0F8A3E0F9A3E0FAA35E
:102B0F00E0FB12001D90017BE0F8A3E0F9A3E0FACF
:102B1F00A3E0FB12010EC004C005C006C007900061
:102B2F00E9E0FCA3E0FDA3E0FEA3E0FF90017BE062
:102B3F00F8A3E0F9A3E0FAA3E0FB12001DA804A993
:102B4F0005AA06AB07D007D006D005D0041202178E
:102B5F0090012112092390011DE0F8A3E0F9A3E0F1
:102B6F00FAA3E0FB9000E5E0FCA3E0FDA3E0FEA3E9
:102B7F00E0FF12001990017BE0F8A3E0F9A3E0FA5F
:102B8F00A3E0FB12010EC004C005C006C0079000F1
:102B9F00E9E0FCA3E0FDA3E0FEA3E0FF90017BE0F2
:102BAF00F8A3E0F9A3E0FAA3E0FB12001DA804A923
:102BBF0005AA06AB07D007D006D005D0041202171E
:102BCF00900125120923E4FFFE7DC87C429001216C
:102BDF00E0F8A3E0F9A3E0FAA3E0FB12010E120361
:102BEF007C1230FBE4FFFE7DC87C42900125E0F8AB
:102BFF00A3E0F9A3E0FAA3E0FB12010E12037C128B
:022C0F002D7422
:012C110022A0
:1035E200900035E0F8A3E0F9A3E0FAA3E0FB900134
:1035F20015E0FCA3E0FDA3E0FEA3E0C39BFFEE9A6F
:10360200FEED99FDEC98FC900031E0F8A3E0F9A3FF
:10361200E0FAA3E0FBD31207DF40030236A79001D2
:1036220015E0FCA3E0FDA3E0FEA3E0FF900035124D
:103632000923900039E475F001120688FED3E5F003
:103642009404EE94004008900039E4F0A304F09052
:103652000039E0FEA3E0FFEE704BEF24FE60191488
:1036620060251460132403703C7F327E007D007C51
:10367200001230FB7F3280247F007E007D007C00C0
:103682001230FB7F0080157FCE7EFF7DFF7CFF1214
:1036920030FB7FCE7EFF7DFF7CFF80067E007D00BB
:0536A2007C00122D74F4
:0136A7002200
:10381A0090003FE0F8A3E0F9A3E0FAA3E0FB9001EF
:10382A0015E0FCA3E0FDA3E0FEA3E0C39BFFEE9A34
:10383A00FEED99FDEC98FC90003BE0F8A3E0F9A3BB
:10384A00E0FAA3E0FBD31207DF5079900115E0FC00
:10385A00A3E0FDA3E0FEA3E0FF90003F1209237F4F
:10386A0008123D0DC004C005C006C0077F09123DFD
:10387A000DC004C005C006C0077F0A123D0DC00472
:10388A00C005C006C0077F0B123D0D900145120905
:10389A0023D007D006D005D004900141120923D0C5
:1038AA0007D006D005D00490013D120923D007D0D5
:1038BA0006D005D0049001391209237BFF7A2D79AD
:0438CA000512195872
:0138CE0022D7
:10331A00E4900177F0A3F0A3F0A3F0900047E0F85F
:10332A00A3E0F9A3E0FAA3E0FB900115E0FCA3E017
:10333A00FDA3E0FEA3E0C39BFFEE9AFEED99FDEC30
:10334A0098FC900043E0F8A3E0F9A3E0FAA3E0FBBD
:10335A00D31207DF4003023415900115E0FCA3E005
:10336A00FDA3E0FEA3E0FF900047120923C2AF903D
:10337A00004BA3A3E0FEA3E0FBAA06900111A3A3BE
:10338A00E0FEA3E0C39BFFEE9A900179F0A3EFF071
:10339A0090004FA3A3E0FEA3E0FBAA06900119A3A5
:1033AA00A3E0FEA3E0C39BFFEE9A900177F0A3EFA0
:1033BA00F0900111E0FCA3E0FDA3E0FEA3E0FF9082
:1033CA00004B120923900119E0FCA3E0FDA3E0FEE3
:1033DA00A3E0FF90004F120923D2AF7BFF7A2D7929
:1033EA005C900179E0FFA3E0900139CFF0A3EFF000
:1033FA001219587BFF7A2D7968900177E0FFA3E0D4
:0B340A00900139CFF0A3EFF012195829
:013415002294
:0E423500900166EFF012427E900166E0FF22DB
:1026BA0090012112092F3CA3D70A90012512092F54
:1026CA003A83126F90012912092F3DCCCCCD90008C
:1026DA0057E0F8A3E0F9A3E0FAA3E0FB900115E0C4
:1026EA00FCA3E0FDA3E0FEA3E0C39BFFEE9AFEED90
:1026FA0099FDEC98FC900053E0F8A3E0F9A3E0FA06
:10270A00A3E0FBD31207DF40030228AD900115E0D6
:10271A00FCA3E0FDA3E0FEA3E0FF9000571209230B
:10272A00E47F887E13FDFC900115E0F8A3E0F9A38D
:10273A00E0FAA3E0FBC31207DF50030228AD9000C2
:10274A00D9E0F8A3E0F9A3E0FAA3E0FB900109E0DD
:10275A00FCA3E0FDA3E0FEA3E0FF12001990012113
:10276A00E0F8A3E0F9A3E0FAA3E0FB12010E90005F
:10277A005B12092390005FE0F8A3E0F9A3E0FAA353
:10278A00E0FBC000C001C002C0039000D9E0F8A37A
:10279A00E0F9A3E0FAA3E0FB900109E0FCA3E0FD65
:1027AA00A3E0FEA3E0FF120019900125E0F8A3E0E0
:1027BA00F9A3E0FAA3E0FB12010ED003D002D00184
:1027CA00D00012001D90005F120923900067E0F804
:1027DA00A3E0F9A3E0FAA3E0FB900109E0FCA3E07F
:1027EA00FDA3E0FEA3E0FF120019900129E0F8A37F
:1027FA00E0F9A3E0FAA3E0FB12010E9000631209CC
:10280A0023E4FFFEFD7CBF90005FE0F8A3E0F9A39C
:10281A00E0FAA3E0FB1202B45008E4FFFEFD7CBF1D
:10282A008031E4FFFEFD7C3F90005FE0F8A3E0F911
:10283A00A3E0FAA3E0FB1202B4600A4008E4FFFE38
:10284A00FD7C3F800E90005FE0FCA3E0FDA3E0FE6C
:10285A00A3E0FF90005F12092390005FE0FCA3E071
:10286A00FDA3E0FEA3E0FF90005BE0F8A3E0F9A37C
:10287A00E0FAA3E0FB12001D900063E0F8A3E0F980
:10288A00A3E0FAA3E0FB12001D9000E512092390D1
:10289A000109E0FCA3E0FDA3E0FEA3E0FF900067CE
:0328AA00120923ED
:0128AD002208
:10417C00D288D2A843B70143B801D28AD2AA43B796
:05418C000443B8042209
:103FAB0012409FE47B0CFAF9F8120729E47B0AFA1A
:103FBB00F9F812069EE47BE87A03F9F8120729C395
:103FCB00E49FFFE49EF58C8F8A5389F0D2A9D2AF80
:023FDB00D28C86
:013FDD0022C1
:10397B00E4FB7D107F011237647B017D207F0112F8
:10398B003764D200C201C202C2037D107F01123A1A
:10399B00AF7B017D0C7F021237647B017D087F05B5
:1039AB001237647B017D20E4FF1237647B017D803D
:1039BB00E4FF1237647B017D107F041237647B01B7
:1039CB007D087F041237647B017D047F041237640A
:1039DB007B017D027F041237647B017D407F0212E5
:1039EB0037647B017D807F02123764E4FB7D047FAB
:1039FB0003123764E4FB7D087F03123764E4FB7D1D
:103A0B00107F03123764E4FB7D017F05123764E4FA
:083A1B00FB7D087F0402376403
:1040730012409F7B007AC279017800120729E47B02
:1040830004FAF9F8120729C3E49FFFE49E759850D8
:0B4093008FD7F5D6758E15C2ACD2AFEA
:01409E0022FF
:08427E008F993099FDC29922CD
:10215F00E4900121F0A3F0A3F0A3F0A312092F0044
:10216F0000000090012912092F0000000090012D9E
:10217F0012092F0000000090013112092F000000FA
:10218F000090013512092F0000000090013912094B
:10219F002F3DCCCCCD90006FE0F8A3E0F9A3E0FA8F
:1021AF00A3E0FB900115E0FCA3E0FDA3E0FEA3E09C
:1021BF00C39BFFEE9AFEED99FDEC98FC90006BE04F
:1021CF00F8A3E0F9A3E0FAA3E0FBD31207DF400383
:1021DF0002246E900115E0FCA3E0FDA3E0FEA3E056
:1021EF00FF90006F120923C2AF900111E0FCA3E032
:1021FF00FDA3E0FEA3E0FF90012512092390011932
:10220F00E0FCA3E0FDA3E0FEA3E0FF90012912098B
:10221F0023D2AF900073A3A3E0FEA3E0FBAA069026
:10222F000125A3A3E0FEA3E0C39BFFEE9A90012339
:10223F00F0A3EFF0900077A3A3E0FEA3E0FBAA06C4
:10224F00900129A3A3E0FEA3E0C39BFFEE9A9001A8
:10225F0021F0A3EFF0900125E0FCA3E0FDA3E0FE49
:10226F00A3E0FF900073120923900129E0FCA3E083
:10227F00FDA3E0FEA3E0FF90007712092390012356
:10228F00E0FCA3E0FDEC1203439000CBA3A3E0FA24
:10229F00A3E090007B75F00412099EEA25E025E08B
:1022AF002583F583120923900121E0FCA3E0FDECC7
:1022BF001203439000CBA3A3E0FAA3E09000A37511
:1022CF00F00412099EEA25E025E02583F583120923
:1022DF00239000CB1208E2E47B0AFAF9F8D3120735
:1022EF00DF500A9000CB12092F000000009000CFA2
:1022FF0012092F00000000E47F0AFEFDFC9000CFC2
:10230F00E0F8A3E0F9A3E0FAA3E0FBC31207DF4074
:10231F00030223BD90012DE0FCA3E0FDA3E0FEA38B
:10232F00E0FF9000CFA3A3A3E090007B75F0041211
:10233F00099EEA25E025E02583F583E0F8A3E0F97F
:10234F00A3E0FAA3E0FB12001D90012D12092390C8
:10235F000131E0FCA3E0FDA3E0FEA3E0FF9000CF7E
:10236F00A3A3E0FAA3E09000A375F00412099EEA7C
:10237F0025E025E02583F583E0F8A3E0F9A3E0FA53
:10238F00A3E0FB12001D9001311209239000CFE052
:10239F00FCA3E0FDA3E0FEA3E02401FFE43EFEE486
:1023AF003DFDE43CFC9000CF12092302230690016F
:1023BF002DE0FCA3E0FDA3E0FEA3E0FFE4FBFA7930
:1023CF0020784112021790012D120923900131E05C
:1023DF00FCA3E0FDA3E0FEA3E0FFE4FBFA79207885
:1023EF0041120217900131120923900131E0FCA331
:1023FF00E0FDA3E0FEA3E0FF90012DE0F8A3E0F9DC
:10240F00A3E0FAA3E0FB12001DE4FBFAF9784012F7
:10241F000217900135120923900135E0F8A3E0F976
:10242F00A3E0FAA3E0FB9000E1E0FCA3E0FDA3E052
:10243F00FEA3E0FF120019900139E0F8A3E0F9A321
:10244F00E0FAA3E0FB12010E9000DDE0F8A3E0F943
:0F245F00A3E0FAA3E0FB12001D9000D91209239D
:01246E00224B
:103E7000123FAB12000E12397B1240737F051242C3
:103E800051E4FF1242517F04124251D2001241A666
:103E900012417C1236A81242437B017A0079ED125E
:103EA0001D707F0A12412D12341612321C12246F1B
:0E3EB000123D6812215F1226BA122A8F80E995
:03000300023BB30A
:103BB300C0E0C0F0C083C08263A201C083C082C0E2
:103BC300D075D000C000C001C002C004C005C0064B
:103BD300C007900111E0FCA3E0FDA3E0FEA3E0FF1A
:103BE30030B412E4FAF9F8EF2401FFEA3EFEE93DAE
:103BF300FDE83C800FEF24FFFFEE34FFFEED34FFC2
:103C0300FDEC34FFFC900111120923D007D006D03C
:103C130005D004D002D001D000D0D0D082D08363AD
:0B3C2300A201D082D083D0F0D0E032AC
:03000B00023DC1F2
:103DC100C0E0C0F0C083C08263A201C083C082C0D2
:103DD100D075D000C000C004C005C006C007900166
:103DE10015E0FCA3E0FDA3E0FEA3E0240AFFE43E0E
:103DF100FEE43DFDE43CFC900115120923D007D0FF
:103E010006D005D004D000D0D0D082D08363A201E7
:093E1100D082D083D0F0D0E03261
:03001300023C2E7E
:103C2E00C0E0C0F0C083C08263A201C083C082C066
:103C3E00D075D000C000C001C002C004C005C006CF
:103C4E00C007900119E0FCA3E0FDA3E0FEA3E0FF96
:103C5E0030C812E4FAF9F8EF2401FFEA3EFEE93D1E
:103C6E00FDE83C800FEF24FFFFEE34FFFEED34FF46
:103C7E00FDEC34FFFC900119120923D007D006D0B9
:103C8E0005D004D002D001D000D0D0D082D0836332
:0B3C9E00A201D082D083D0F0D0E03231
:01000A0022D3
:10412D00900129EFF01242057F5E123F7540051296
:0C413D0041BB80F1900129E0FF023F75BA
:104216007F03123D0DE4FBFA7930784112010E223C
:1040EA007F02123D0DE4FBFA7930784112010EE4A9
:1040FA00FBFA798078411202B460054003D380014B
:02410A00C322CE
:1041D0004D4F544F525F4B5F434F4D503A25660D44
:0241E0000A00D3
:072A410044017B3C23D70A8E
:1036A800D2A6D2A790017B12092F3C23D70AE4FFA8
:1036B800FE7D207C4190017BE0F8A3E0F9A3E0FACD
:1036C800A3E0FB1202B460054003023763E4FFFE87
:1036D8007D807C3F90017BE0F8A3E0F9A3E0FAA3AA
:1036E800E0FB12001DC004C005C006C007E4FFFED1
:1036F8007D407C4190017BE0F8A3E0F9A3E0FAA3C8
:10370800E0FB12010ED003D002D001D00012021744
:10371800E4FBFA79A078401202B4501D7BFF7A418D
:1037280079D090017BE0FCA3E0FDA3E0FEA3E0FFDD
:1037380090013912092302195890017BE0FCA3E09B
:10374800FDA3E0FEA3E0FF7B0A7AD77923783C1239
:0C375800001D90017B1209230236B622EE
:1030FB00900129120923E47F64FEFDFC900129E075
:10310B00F8A3E0F9A3E0FAA3E0FBD31207C9400848
:10311B00E47F64FEFDFC800E900129E0FCA3E0FD42
:10312B00A3E0FEA3E0FF90012912092374FF7F9C0B
:10313B00FEFDFC900129E0F8A3E0F9A3E0FAA3E07F
:10314B00FBC31207C9500974FF7F9CFEFDFC800E68
:10315B00900129E0FCA3E0FDA3E0FEA3E0FF9001BA
:10316B0029120923E4FFFEFDFC900129E0F8A3E0FE
:10317B00F9A3E0FAA3E0FBD31207C990012F40405B
:10318B0012092F00006590900129E0FCA3E0FDA33C
:10319B00E0FEA3E0FF900133120923E4900137F026
:1031AB00A304F07D047F0412127990012F12092FD2
:1031BB000000659090013312092F00000000804140
:1031CB0012092F0000659090013312092F000000A7
:1031DB0000E4900137F0A304F07D047F0412127910
:1031EB0090012F12092F00006590900129E0FCA39C
:1031FB00E0FDA3E0FEA3E0FF1207BB900133120931
:10320B0023E4900137F0A304F07D037F04121279BD
:01321B002290
:102D7400900129120923E47F64FEFDFC900129E0FF
:102D8400F8A3E0F9A3E0FAA3E0FBD31207C94008D3
:102D9400E47F64FEFDFC800E900129E0FCA3E0FDCD
:102DA400A3E0FEA3E0FF90012912092374FF7F9C96
:102DB400FEFDFC900129E0F8A3E0F9A3E0FAA3E00A
:102DC400FBC31207C9500974FF7F9CFEFDFC800EF3
:102DD400900129E0FCA3E0FDA3E0FEA3E0FF900145
:102DE40029120923900129E0FCA3E0FDA3E0FEA33E
:102DF400E0FF1207BB900129120923E4FFFEFDFC4A
:102E0400900129E0F8A3E0F9A3E0FAA3E0FBD312D0
:102E140007C990012F404012092F000065909001CE
:102E240029E0FCA3E0FDA3E0FEA3E0FF9001331240
:102E34000923E4900137F0A304F07D027F04121209
:102E44007990012F12092F00006590900133120927
:102E54002F00000000804112092F000065909001AE
:102E64003312092F00000000E4900137F0A304F0AE
:102E74007D027F0412127990012F12092F00006540
:102E840090900129E0FCA3E0FDA3E0FEA3E0FF1283
:102E940007BB900133120923E4900137F0A304F037
:072EA400FD7F0412127922E8
:1040C50067785F7A65726F3A25662C2067795F7A23
:1040D50065726F3A25662C20677A5F7A65726F3A4A
:0540E50025660D0A0034
:102A48004401670000000044016B000000004401DD
:102A58006F000000004401733F4CCCCD042E3F8032
:102A68000000043200000000043600000000043AB0
:102A780000000000042200000000042600000000FE
:062A8800042A000000001A
:07425F00D295124266C295E0
:044266007F0BDFFEED
:01426A002231
:10414900124266124266D294D295124266124266B1
:0A415900C294124266C2950242664B
:0F422600124266C294D295124266D29402426648
:1041E200D294124266D295124266A294C2951242AB
:0241F200662243
:02419100AE0777
:10419300E4FDEE25E0FE929412425F0DEDB408F2C9
:0341A3000241E2F4
:10410C00E4FED294FDEE25E0FED295124266A29416
:10411C00E4334EFEC2951242660DEDB408E7AF06CD
:01412C002270
:10416300AC05AB071241497FD0124191AF03124115
:0941730091AF04124191024226B1
:10404400124266124266124266124266E4FD7F6BB9
:104054001241637D077F191241637D047F1A124167
:0F406400637D087F1B1241637D087F1C0241634F
:0B3CA900900136EBF0A3EAF0A3E9F075
:103CB4001241497FD01241917F3B124191124149F7
:103CC4007FD1124191E4FC12410C900136E0FBA338
:103CD400E0FAA3E0F98C82758300EF120654C294D3
:103CE40012425F0CECB40DDF12410C900136E0FB84
:103CF400A3E0FAA3E0F9AE048E82758300EF120606
:093D040054D29412425F024226DF
:0B0A3A00900136EBF0A3EAF0A3E9F016
:100A45001208037B397AFA798E783C12010E9001EF
:100A550039120923900136E0FBA3E0FAA3E0F990EF
:100A650000041208237B397AFA798E783C12010E3C
:100A750090013D120923900136E0FBA3E0FAA3E0C3
:100A8500F99000081208237B397AFA798E783C129E
:100A9500010E900141120923900136E0FBA3E0FA13
:100AA500A3E0F9900010120823A804A905AA06AB33
:100AB5000712010EC004C005C006C007900136E04C
:100AC500FBA3E0FAA3E0F990000C120823A804A9FF
:100AD50005AA06AB0712010ED003D002D001D00043
:100AE50012001DC004C005C006C007900136E0FB1A
:100AF500A3E0FAA3E0F9900014120823A804A905BD
:100B0500AA06AB0712010ED003D002D001D0001205
:100B1500001D1238D38F0B8E0A8D098C0890013673
:100B2500E0FBA3E0FAA3E0240CF9E43AFAC003C021
:100B350002C001120803AB0BAA0AA909A8081202F0
:100B450017D001D002D003120853900136E0FBA361
:100B5500E0FAA3E02410F9E43AFAC003C002C001A8
:100B6500120803AB0BAA0AA909A808120217D0019B
:100B7500D002D003120853900136E0FBA3E0FAA39C
:100B8500E02414F9E43AFAC003C002C001120803D4
:100B9500AB0BAA0AA909A808120217D001D002D0E6
:100BA500031208537836120891782E1208B91201EB
:100BB5000EC004C005C006C007783A120891783205
:100BC5001208B912010ED003D002D001D0001200D4
:100BD50019E4FBFAF9784012010E783E12091778EC
:100BE5003A12089178361208B912010EC004C005F0
:100BF500C006C0077832120891782E1208B9120182
:100C05000ED003D002D001D00012001DE4FBFAF98A
:100C1500784012010E78421209177832120891783D
:100C2500321208B912010EC004C005C006C007780B
:100C35002E120891782E1208B912010ED003D00297
:100C4500D001D000120019C004C005C006C0077845
:100C55003612089178361208B912010EA804A905B2
:100C6500AA06AB07D007D006D005D004120019C0DC
:100C750004C005C006C007783A120891783A1208F0
:100C8500B912010ED003D002D001D00012001D7898
:100C950046120917900136E0FBA3E0FAA3E0F990AC
:100CA500001412082378421208B912010EC004C0BC
:100CB50005C006C007900136E0FBA3E0FAA3E0F902
:100CC50090001012082378461208B912010ED003BD
:100CD500D002D001D000120019784A1209179001EC
:100CE50036E0FBA3E0FAA3E0F990000C12082378A4
:100CF500461208B912010EC004C005C006C007900F
:100D05000136E0FBA3E0FAA3E0F9900014120823F2
:100D1500783E1208B912010ED003D002D001D000DE
:100D2500120019784E120917900136E0FBA3E0FA7C
:100D3500A3E0F9900010120823783E1208B91201B9
:100D45000EC004C005C006C007900136E0FBA3E055
:100D5500FAA3E0F990000C12082378421208B912A0
:100D6500010ED003D002D001D00012001978521222
:100D7500091778221208B9C000C001C002C0037F5C
:100D85006F7E127D837C3A784A1208B912010ED023
:100D950003D002D001D00012001D78221209177865
:100DA500261208B9C000C001C002C0037F6F7E12C1
:100DB5007D837C3A784E1208B912010ED003D00219
:100DC500D001D00012001D7826120917782A1208C2
:100DD500B9C000C001C002C0037F6F7E127D837C55
:100DE5003A78521208B912010ED003D002D001D0C0
:100DF5000012001D782A120917784A1208919001ED
:100E050073E0F8A3E0F9A3E0FAA3E0FB12010E906A
:100E15000139E0F8A3E0F9A3E0FAA3E0FB12001D15
:100E250078221208B912001D900139120923784E53
:100E3500120891900173E0F8A3E0F9A3E0FAA3E0AA
:100E4500FB12010E90013DE0F8A3E0F9A3E0FAA33F
:100E5500E0FB12001D78261208B912001D90013D15
:100E65001209237852120891900173E0F8A3E0F972
:100E7500A3E0FAA3E0FB12010E900141E0F8A3E024
:100E8500F9A3E0FAA3E0FB12001D782A1208B912B3
:100E9500001D900141120923782E1208B9C000C027
:100EA50001C002C003783212089112032D90013956
:100EB500E0F8A3E0F9A3E0FAA3E0FB12010EC004F9
:100EC500C005C006C00790013DE0FCA3E0FDA3E01E
:100ED500FEA3E0FF78361208B912010EA804A90591
:100EE500AA06AB07D007D006D005D004120019C05A
:100EF50004C005C006C007900141E0FCA3E0FDA3C6
:100F0500E0FEA3E0FF783A1208B912010EA804A981
:100F150005AA06AB07D007D006D005D004120019E4
:100F25007B0A7AD779A3783B12010ED003D002D081
:100F350001D00012001D782E12091778321208B957
:100F4500C000C001C002C003900141E0FCA3E0FD68
:100F5500A3E0FEA3E0FF78361208B912010EC00423
:100F6500C005C006C007900139E0FCA3E0FDA3E081
:100F7500FEA3E0FF782E1208B912010ED003D002AD
:100F8500D001D00012001DC004C005C006C00790E6
:100F9500013DE0FCA3E0FDA3E0FEA3E0FF783A12EB
:100FA50008B912010EA804A905AA06AB07D007D0F7
:100FB50006D005D0041200197B0A7AD779A3783BAD
:100FC50012010ED003D002D001D00012001D7832DC
:100FD50012091778361208B9C000C001C002C00353
:100FE500900141E0FCA3E0FDA3E0FEA3E0FF783221
:100FF5001208B912010EC004C005C006C007900151
:101005003DE0FCA3E0FDA3E0FEA3E0FF782E12087F
:10101500B912010ED003D002D001D000120019C0C0
:1010250004C005C006C007900139E0FCA3E0FDA39C
:10103500E0FEA3E0FF783A1208B912010ED003D002
:1010450002D001D00012001D7B0A7AD779A3783B24
:1010550012010ED003D002D001D00012001D783647
:10106500120917783A1208B9C000C001C002C003BE
:1010750090013DE0FCA3E0FDA3E0FEA3E0FF783294
:101085001208B912010EC004C005C006C0079001C0
:1010950041E0FCA3E0FDA3E0FEA3E0FF782E1208EB
:1010A500B912010ED003D002D001D00012001DC02C
:1010B50004C005C006C007900139E0FCA3E0FDA30C
:1010C500E0FEA3E0FF78361208B912010EA804A9C4
:1010D50005AA06AB07D007D006D005D00412001923
:1010E5007B0A7AD779A3783B12010ED003D002D0C0
:1010F50001D00012001D783A1209177832120891B2
:1011050078321208B912010EC004C005C006C00726
:10111500782E120891782E1208B912010ED003D03C
:1011250002D001D00012001DC004C005C006C007D2
:10113500783612089178361208B912010ED003D00C
:1011450002D001D00012001DC004C005C006C007B2
:10115500783A120891A804A905AA06AB0712010E50
:10116500D003D002D001D00012001D1238D38F0B4E
:101175008E0A8D098C08782E120891AB0BAA0AA944
:1011850009A808120217782E120917783212089149
:10119500AB0BAA0AA909A808120217783212091777
:1011A5007836120891AB0BAA0AA909A808120217EA
:1011B5007836120917783A120891AB0BAA0AA909D1
:1011C500A808120217783A120917783A1208917886
:1011D500321208B912010EC004C005C006C0077856
:1011E50036120891782E1208B912010ED003D002DA
:1011F500D001D000120019E4FBFAF9784012010E73
:10120500123F3A7BE17A2E7965784212010E900100
:1012150036E0FBA3E0FAA3E0F990001812086D7818
:101225003A12089178361208B912010EC004C005A9
:10123500C006C0077832120891782E1208B912013B
:101245000ED003D002D001D00012001DE4FBFAF944
:10125500784012010E123F3A7BE17A2E7965784289
:1012650012010E900136E0FBA3E0FAA3E0F990002D
:041275001C02086DE2
:0B1D7000900121EBF0A3EAF0A3E9F0E2
:101D7B00E4A3F0A3F090016712092F00000000907C
:101D8B00016B12092F0000000090016F12092F0048
:101D9B00000000900121E0FBA3E0FAA3E0F9900022
:101DAB000C12097A0000000090001012097A000052
:101DBB00000090001412097A000000001209600064
:101DCB00000000900121E0FBA3E0FAA3E0F99000F2
:101DDB000412097A0000000090000812097A000032
:101DEB000000E4900124F0A3F07B017A0179261224
:101DFB003CA9900121E0FBA3E0FAA3E0240CF9E459
:101E0B003AFAC003C002C001120803C004C005C0E7
:101E1B0006C007900126E0FCA3E0FDEC120343E4AF
:101E2B00FBFAF97846120217A804A905AA06AB0714
:101E3B00D007D006D005D00412001DD001D002D09F
:101E4B0003120853900121E0FBA3E0FAA3E0241056
:101E5B00F9E43AFAC003C002C001120803C004C07F
:101E6B0005C006C007900128E0FCA3E0FDEC1203BF
:101E7B0043E4FBFAF97846120217A804A905AA064F
:101E8B00AB07D007D006D005D00412001DD001D06F
:101E9B0002D003120853900121E0FBA3E0FAA3E068
:101EAB002414F9E43AFAC003C002C001120803C0BB
:101EBB0004C005C006C00790012AE0FCA3E0FDECBE
:101ECB00120343E4FBFAF97846120217A804A9059A
:101EDB00AA06AB07D007D006D005D00412001DD040
:101EEB0001D002D003120853900167E0F8A3E0F988
:101EFB00A3E0FAA3E0FBC000C001C002C003900145
:101F0B002EE0FCA3E0FDEC120343E4FBFA798378AB
:101F1B0042120217D003D002D001D00012001D9044
:101F2B00016712092390016BE0F8A3E0F9A3E0FA33
:101F3B00A3E0FBC000C001C002C003900130E0FC75
:101F4B00A3E0FDEC120343E4FBFA7983784212021F
:101F5B0017D003D002D001D00012001D90016B12DC
:101F6B00092390016FE0F8A3E0F9A3E0FAA3E0FBEB
:101F7B00C000C001C002C003900132E0FCA3E0FD31
:101F8B00EC120343E4FBFA79837842120217D00375
:101F9B00D002D001D00012001D90016F12092390C6
:101FAB000125E004F07006900124E004F0C39001D9
:101FBB0025E09464900124E0648094805003021D1A
:101FCB00F4900121E0FBA3E0FAA3E0240CF9E43A3E
:101FDB00FAC003C002C001120803E4FBFA79C87807
:101FEB0042120217D001D002D003120853900121E4
:101FFB00E0FBA3E0FAA3E02410F9E43AFAC003C033
:10200B0002C001120803E4FBFA79C87842120217E6
:10201B00D001D002D003120853900121E0FBA3E0C2
:10202B00FAA3E02414F9E43AFAC003C002C0011287
:10203B000803E4FBFA79C87842120217D001D002E8
:10204B00D003120853900167E0FCA3E0FDA3E0FE70
:10205B00A3E0FFE4FBFA79C87842120217900167FC
:10206B0012092390016BE0FCA3E0FDA3E0FEA3E0CB
:10207B00FFE4FBFA79C8784212021790016B120940
:10208B002390016FE0FCA3E0FDA3E0FEA3E0FFE4DF
:10209B00FBFA79C8784212021790016F120923904C
:1020AB000173E0FCA3E0FDA3E0FEA3E0FFE4FBFA79
:1020BB007920784112010E900173120923E49001EB
:1020CB0024F0A3F0900121E0FBA3E0FAA3E0F912C6
:1020DB000A3A900125E004F07006900124E004F028
:1020EB00C3900125E094C8900124E0648094804063
:1020FB00D3900173E0FCA3E0FDA3E0FEA3E0FFE4BB
:10210B00FBFA792078411202179001731209237B95
:10211B00FF7A4079C5900167E0FCA3E0FDA3E0FEE8
:10212B00A3E0FF90013912092390016BE0FCA3E0BF
:10213B00FDA3E0FEA3E0FF90013D12092390016F88
:10214B00E0FCA3E0FDA3E0FEA3E0FF900141120938
:04215B0023021958EA
:0E4243001240447FF47E017D007C00023E1A92
:0B2EAB00900121EBF0A3EAF0A3E9F096
:102EB6007B017A017924123CA9900124E0FCA3E06D
:102EC600FDEC120343E4FBFAF9784612021790016F
:102ED60021E0FBA3E0FAA3E0F990000C12086D9044
:102EE6000126E0FCA3E0FDEC120343E4FBFAF978CB
:102EF60046120217900121E0FBA3E0FAA3E0F99045
:102F0600001012086D900128E0FCA3E0FDEC12030E
:102F160043E4FBFAF97846120217900121E0FBA37D
:102F2600E0FAA3E0F990001412086D90012CE0FC81
:102F3600A3E0FDEC120343E4FBFA79837842120224
:102F460017900167E0F8A3E0F9A3E0FAA3E0FB120B
:102F56000019900121E0FBA3E0FAA3E0F91208535F
:102F660090012EE0FCA3E0FDEC120343E4FBFA79AA
:102F760083784212021790016BE0F8A3E0F9A3E010
:102F8600FAA3E0FB120019900121E0FBA3E0FAA3EB
:102F9600E0F990000412086D900130E0FCA3E0FD1A
:102FA600EC120343E4FBFA7983784212021790018C
:102FB6006FE0F8A3E0F9A3E0FAA3E0FB1200199092
:102FC6000121E0FBA3E0FAA3E0F990000812086DE6
:032FD600020A3AB2
:10409F00E59D701990FE01E0C394027F0050077EEA
:1040AF00807D517C01227EC07DA87C00227F007E16
:0640BF00407DFA7C0122A5
:03000E00D2AF224C
:03428600C2AF22A2
:1041A600E4F5BCA20033C4333333548042BCE4F597
:0541B600DE43DE2022C3
:053D0D00900129EFF018
:103D12007F0F12426B1241F490012AEEF0A3EFF0F2
:103D2200900129E0FF12426B1241F4AD07AC06E4A8
:103D32001203437BEC7A517998783F12010EC0044A
:103D4200C005C006C00790012AE0FCA3E0FDE41212
:103D52000343A804A905AA06AB07D007D006D005DD
:053D6200D0041202175D
:013D67002239
:0A426B0053BCF0EF42BC43BC4022FC
:1041F400E5BC30E5FB120006AFBDEFFEADBEEDFF42
:014204002297
:0400060053BCDF22E6
:10376400EF14603014604714605E146075147003C5
:1037740002380024056003023819EB30E105ED42FC
:10378400938004EDF45293EB30E004ED429422ED87
:10379400F4529422EB30E105ED42918004EDF452B1
:1037A40091EB30E004ED429222EDF4529222EB30A0
:1037B400E105ED42958004EDF45295EB30E004ED23
:1037C400429622EDF4529622EB30E105ED42B180AF
:1037D40004EDF452B1EB30E004ED42B222EDF452C8
:1037E400B222EB30E105ED42B38004EDF452B3EBC9
:1037F40030E004ED42B422EDF452B422EB30E105A2
:10380400ED42C98004EDF452C9EB30E004ED42CA44
:0638140022EDF452CA226D
:103AAF0075BA80EF2410FBE434FE3000098B82F5E9
:103ABF0083E04DF0800C8B82F583E0FEEDF4FCEE9D
:103ACF005CF0EF2418FBE434FE3001098B82F583A0
:103ADF00E04DF0800C8B82F583E0FEEDF4FCEE5CA4
:103AEF00F0EF2420FBE434FE3002098B82F583E0F3
:103AFF004DF0800C8B82F583E0FEEDF4FCEE5CF074
:103B0F00EF2428FFE434FE3003098F82F583E04D64
:103B1F00F0800C8F82F583E0FFEDF4FEEF5EF07521
:033B2F00BA802237
:0E4251007401A807088002C333D8FC42F12292
:1035020090014EEDF0A3EBF0A90775BA80E9C394E0
:10351200035041E0FF7401A807088002C333D8FCBE
:10352200FDE975F050A42415FBE5F034FFFA900193
:103532004EE075F008A42BFFE5F03A8F82F583ED9B
:10354200F0E975F050A42414FDE5F034FFFC90017D
:103552004EE0804C90014FE0FF7401A80708800202
:10356200C333D8FCFBE9FF7E007C007D5012067657
:10357200EF2425FDEE34FBFC90014EE0FA75F008D5
:10358200A42DFFE5F03C8F82F583EBF0E9FF7E008E
:103592007C007D50120676EF2424FDEE34FBFCEA1B
:1035A20075F008A42DFFE5F03C8F82F583E044809E
:1035B200F0E4F5BAE914601414601514601614608E
:1035C200171460182405701743F6012243F61022DF
:1035D20043F7012243F7102243FE012243FE102249
:0812790090012DEFF0A3EDF050
:1012810090013974FFF0A312092F000000009001B2
:101291003E12092F0000000090014212092F0000A8
:1012A100000090014612092F0000000090014A122F
:1012B100092F00000000900138E0B40127E47F64A9
:1012C100FEFDFC900133E0F8A3E0F9A3E0FAA3E00E
:1012D100FBC31207DF400D90013312092F000000FC
:1012E100620213AB900138E07025FFFEFDFC900116
:1012F10033E0F8A3E0F9A3E0FAA3E0FBC31207DFB0
:10130100700D90013312092F000000020213AB90FF
:101311000138E0701B7F64FEFDFC900133E0F8A30F
:10132100E0F9A3E0FAA3E0FBC31207DF4002806DFE
:10133100900138E0701AFFFEFDFC900133E0F8A344
:10134100E0F9A3E0FAA3E0FBC31207DF70028021FA
:10135100900138E0B40126E47F64FEFDFC90013386
:10136100E0F8A3E0F9A3E0FAA3E0FBC31207DF4032
:101371000C90012DE0FFA3E0FD7B01802A90013854
:10138100E0B40126E4FFFEFDFC900133E0F8A3E0A8
:10139100F9A3E0FAA3E0FBC31207DF700D90012D62
:1013A100E0FFA3E0FDE4FB023502900139E004F027
:1013B10012409FC006C007900139E0FF3395E0FE5F
:1013C100EF2401FFE43EAB07FA3395E0F9F8D007CB
:1013D100D00612072990012FE0F8A3E0F9A3E0FA63
:1013E100A3E0FB12072990013A120923900139E089
:1013F100C36480948F5018E47FFF7E7FFDFCA3E0DF
:10140100F8A3E0F9A3E0FAA3E0FB1207DF509B90F9
:10141100013AE0FCA3E0FDA3E0FEA3E0FFA3120973
:1014210023900133E0FCA3E0FDA3E0FEA3E0FF90E5
:10143100013EE0F8A3E0F9A3E0FAA3E0FB12069E67
:10144100E47B64FAF9F8120729E47B02FAF9F8124D
:10145100072990014A12092390014AE0FCA3E0FD0B
:10146100A3E0FEA3E0FFC004C005C006C0079001D1
:1014710037E0FFE4FCFDFE90013EE0F8A3E0F9A3B4
:10148100E0FAA3E0FB12069EE47B64FAF9F8120786
:1014910029AB07AA06A905A804D007D006D005D014
:1014A10004C3EF9BFFEE9AFEED99FDEC98FC9001D1
:1014B1004A12092390014AE0FCEC335007E4FFFE95
:1014C100FDFC800E90014AE0FCA3E0FDA3E0FEA339
:1014D100E0FF90014A120923900138E060030215F0
:1014E100687B02FAF9F890013EE0FCA3E0FDA3E07D
:1014F100FEA3E0FF120729C004C005C006C0079083
:10150100014AE0FCA3E0FDA3E0FEA3E0FBAA06A9DB
:1015110005A804D007D006D005D004C3EF9BFFEE89
:101521009AFEED99FDEC98FC900142120923E47BAF
:1015310002FAF9F890013EE0FCA3E0FDA3E0FEA36E
:10154100E0FF120729A804A905AA06AB0790014AE2
:10155100E0FCA3E0FDA3E0FEA3E02BFFEA3EFEE9F1
:101561003DFDE83C0215F6900138E064016003029C
:1015710015FD7B02FAF9F890013EE0FCA3E0FDA322
:10158100E0FEA3E0FF120729A804A905AA06AB07FC
:1015910090014AE0FCA3E0FDA3E0FEA3E02BFFEAFB
:1015A1003EFEE93DFDE83CFC900142120923E47B4B
:1015B10002FAF9F890013EE0FCA3E0FDA3E0FEA3EE
:1015C100E0FF120729C004C005C006C00790014A08
:1015D100E0FCA3E0FDA3E0FEA3E0FBAA06A905A8A9
:1015E10004D007D006D005D004C3EF9BFFEE9AFECE
:1015F100ED99FDEC98FC90014612092375BA809093
:10160100012DE0C394034003021738E0F975F0504F
:10161100A4FBAAF02415FDEA34FFFCA3E075F00851
:10162100A42DFFE5F03C8F82F583E4F090013EE0CC
:10163100FCA3E0FDA3E0FEA3E0FF78081207F0E4BD
:101641002BFDEA34FF8D82F583EFF090013EA3A3D9
:10165100A3E0FDE975F050A4FFAEF02401FBEE34E8
:10166100FF8B82F583EDF0900139E0FDEF2402FF5D
:10167100EE34FF8F82F583EDF0E0F0900142E0FC63
:10168100A3E0FDA3E0FEA3E0FF78081207F0AD0799
:10169100E975F050A42410FBE5F034FFFA90012E17
:1016A100E075F008A42BFFE5F03A8F82F583EDF0A9
:1016B100900142A3A3A3E0FD90012EE075F008A4E0
:1016C100FBAAF0E975F050A42BFBE5F03AFAEB2404
:1016D10011FFEA34FF8F82F583EDF0900146E0FCC3
:1016E100A3E0FDA3E0FEA3E0FF78081207F0EB24DE
:1016F10012FDEA34FF8D82F583EFF0900146A3A33A
:10170100A3E0FD90012EE075F008A4FBAAF0E975B5
:10171100F050A42BFFE5F03ACF2413CF34FF8F8292
:10172100F583EDF0E975F050A42414FFE5F034FFE2
:10173100CF2BCF3A0218B390012DE0FBFF7E007C46
:10174100007D50120676EF2425FDEE34FBFCA3E06C
:10175100F975F008A42DFFE5F03C8F82F583E4F0E4
:1017610090013EE0FCA3E0FDA3E0FEA3E0FF7808CA
:101771001207F0AA07EBFF7E007C007D501206766F
:10178100EF2410FFEE34FB8F82F583EAF090013EE7
:10179100A3A3A3E0FB90012DE0FAFF7E00120676E1
:1017A100EF2411FDEE34FB8D82F583EBF0900139CE
:1017B100E0FDEF2412FFEE34FB8F82F583EDF0E0C4
:1017C100F0900142E0FCA3E0FDA3E0FEA3E0FF787E
:1017D100081207F0AB07EAFF7E007C007D5012067D
:1017E10076EF2420FDEE34FBFCE975F008A42DFF13
:1017F100E5F03C8F82F583EBF0900142A3A3A3E0D7
:10180100FB90012DE0FAFF7E007C007D50120676F0
:10181100AC06AD07E975F008A42DFFEC35F0CF2437
:1018210021CF34FB8F82F583EBF0900146E0FCA3DE
:10183100E0FDA3E0FEA3E0FF78081207F0AB07EAA2
:10184100FF7E007C007D50120676AC06AD07E9757F
:10185100F008A42DFFEC35F0CF2422CF34FB8F828A
:10186100F583EBF0900146A3A3A3E0FB90012DE0EB
:10187100FAFF7E007C007D50120676AC06AD07E9CA
:1018810075F008A42DFFEC35F0CF2423CF34FB8F66
:1018910082F583EBF0EAFF7E007C007D5012067634
:1018A100EF2424FDEE34FBFCE975F008A42DFFE5DF
:1018B100F03C8F82F583E04480F0E4F5BA90012D8D
:1018C100E014601414601514601614601714601885
:1018D1002405701743F6012243F6102243F7012233
:0B18E10043F7102243FE012243FE10DB
:0118EC0022D9
:103EBE00AB0575BA80EFC39403500EEF75F050A4A6
:103ECE002414FDE5F034FF80107E007C007D50123E
:103EDE000676EF2424FDEE34FBFCEB75F008A42DE2
:103EEE00FFE5F03C8F82F583E0547FF0E4F5BA22D3
:103EFE0012409F7B007AC279017800120729E47B79
:103F0E0004FAF9F8120729C3E49FFFE49E759A108C
:103F1E008FD7F5D653B4BF53B3BF53B47F53B37FCC
:0B3F2E0043BA01758E1475AF01D2AFCD
:013F39002265
:0100110022CC
:10420500D294D29500000000C29400000000C2952F
:014215002286
:1041BB00C295C29400000000D29500000000D2947A
:0541CB000000000022CD
:103F75007E80EE601B5F7004C2948002D2940000C4
:103F85000000D29500000000C295EEC313FE80E24A
:103F9500D29400000000D295A29492000000000087
:053FA500C295A200B36B
:013FAA0022F4
:103FDE00D2947E80EE601D00000000D295209405E4
:103FEE00F45FFF8003EF4EFF00000000C295EEC3AA
:103FFE0013FE80E0D29400000000D2950000000075
:02400E00C29559
:01401000228D
:10401100D2947E80EE601D00000000D295209405B0
:10402100F45FFF8003EF4EFF00000000C295EEC376
:1040310013FE80E0C29400000000D2950000000051
:02404100C29526
:01404300225A
:09427500EC4D4E4F60012280FE69
:100016000203E8E86480F8E933E83360110460F02D
:10002600ED33EC337009E8FCE9FDEAFEEBFF220450
:1000360060DED3EB9FEA9EE99DE8C2E78CF0C2F74B
:1000460095F0400CE8CCF8E9CDF9EACEFAEBCFFB17
:100056001203B385D0F05804700320D5B3E80470BA
:10006600075002B2D50203F292D5EC0460F7E4CC55
:10007600C0E0C398F8603B94186008400DD0E0FBE0
:100086000203CAE4FBFAC9FC8028E830E406E4C9A6
:10009600FBE4CAFCE830E305E4C9CACBFCE8540734
:1000A6006010F8C3E913F9EA13FAEB13FBEC13FC3F
:1000B600D8F130F52FC3E49CFCEF9BFFEE9AFEEDE2
:1000C60099FDD0E0FBEF4E4D4C701222DB0302038C
:1000D600EFEC2CFCEF33FFEE33FEED33FDED30E7B6
:1000E600EB0203CAEF2BFFEE3AFEED39FDD0E0FB43
:1000F60050130BBB00030203F2ED13FDEE13FEEFEC
:0801060013FFEC13FC0203CA15
:10010E00EC4D6011E8497017ED33EC3304600DE4EB
:10011E00FCFFFEFD22E933E8330470F80203E81217
:10012E0003B358046009E4CC248150062850090218
:10013E0003F22840030203EFC0E0EB4A7044B9809B
:10014E0006D0E0FB0203DEEF4E701CBD8008EBFF15
:10015E00EAFEE9FD80EBE98DF0A4FEE5F00201F781
:10016E00E9CDF9EAFEEBFFEF89F0A4FCE5F0CE89CC
:10017E00F0A42EFFE435F0CD89F0A42DFEE435F089
:10018E008067EF4E7005BD80D780C3EF8BF0A4ACB7
:10019E00F0EE8BF0A42CFCE435F0F8EF8AF0A42CF2
:1001AE00E5F038FCE433CB8DF0A42CFCE5F03BF805
:1001BE00EE8AF0A42CFCE5F038F8E433CF89F0A4F5
:1001CE002CFCE5F038CF3400CE89F0A42FFFE5F0FB
:1001DE003EFEE433C98DF0A42EFEE5F039CD8AF053
:1001EE00A42FFFE5F03EFEE43DFD33D0E0FB5007CB
:1001FE000BBB000F0203F2EC2CFCEF33FFEE33FED1
:06020E00ED33FD0203CAFE
:100214000203F2EC5D046005E8590470030203E88C
:100224001203B3580460F6EC4860F2EC7004FDFE6F
:10023400FF22C860DB2481C85009C39860025006BD
:100244000203EF9850CAF582E9294B4A7005AB8244
:100254000203DE75F0007C1A7880C3EF9BEE9AED02
:1002640099400DC3EF9BFFEE9AFEED99FDE842F035
:10027400DC23ACF0D0E0FFD0E0FED0E0FDAB822088
:10028400E7101BEB60BAEC2CFCEF33FFEE33FEED12
:1002940033FD0203CAE803F830E705C0F075F00047
:1002A400EF2FFFEE33FEED33FD40B830E7C280AAF6
:1002B40074F8CC6480CCC86480C8F58204604FC3F1
:1002C400EB9FF5F0EA9E42F0E99D42F0E89C45F090
:1002D400603C501DE5825FFFE582D313CB5BCBF41A
:1002E4002B5582FB50280ABA002409B90020088043
:1002F4001DE5825BFBE582D313CF5FCFF4C3132FDD
:100304005582FF50090EBE00050DBD00010CC3EB64
:100314009FF5F0EA9E42F0E99D42F0E89C45F060CA
:0903240007CC4820E701B3EC22EC
:10032D00ED33EC33600A047003BD8004ECB2E7FCDE
:01033D00229D
:10033E0075F020800E75F010800575F0087D007E3A
:10034E00007F003392D530D5031207BBEC3340103B
:10035E00EF33FFEE33FEED33FDEC33FCD5F0ED2243
:0E036E00E5F0247EA2D513CC92E7CDCEFF227F
:10037C00EDD2E7CD33EC3392D524814006E4FFFE79
:10038C00FDFC22FCE4CFCECDCC24E0501174FF80D8
:10039C00EDC3CC13CCCD13CDCE13CECF13CF047075
:0703AC00F030D5DE0207BBB3
:1018ED00E5082439F582E43401F583E005082290FA
:1018FD000136300703900139E475F0011209AA028F
:10190D0005FC2000E97F2ED2008018EF540F2490A3
:10191D00D43440D4FF30040BEF24BFB41A0050036D
:10192D002461FFE50960021509050CE50C7002053F
:10193D000B30070E900136E475F0011209AAEF0283
:10194D0006420242357403D2078003E4C207F5084C
:10195D009001361209C1E4F509F50BF50CE50960A6
:10196D00077F2012193080F5750AFFC201C200C22F
:10197D0002C203C205C206C2081218FCFF700D3068
:10198D0007057F00121941AF0CAE0B22B4255FC2C3
:10199D00D5C2041218FCFF24D0B40A00501A75F0F9
:1019AD000A780930D50508B6FF0106C6A426F6202B
:1019BD00D5047002D20380D924CFB41A00EF50049D
:1019CD00C2E5D204021C33D20180C6D20080C0D23F
:1019DD000280BCD2D580BAD20580B47F20121930D6
:1019ED002002077401B5090040F11218EDFF12191C
:1019FD003002196AD208D20680951218EDFB121822
:101A0D00EDFA1218EDF94A4B700679317A1D7BFF0C
:101A1D0020022EE509602A7E008E82758300120653
:101A2D001560060EEE650A70F0C2D5EBC0E0EAC097
:101A3D00E0E9C0E0EE121C94D0E0F9D0E0FAD0E07D
:101A4D00FB1205FCFF60AAEBC0E0EAC0E0E9C0E0D4
:101A5D00121930D0E02401F9D0E03400FAD0E0FBC7
:101A6D00E50A0460DCD50AD98087D20280A2121C57
:101A7D007660F7E50A7001041203FDA90A600DE511
:101A8D000A600914F50A121D1EEF60F3EA30E70231
:101A9D00F404C3995079EAF4250A0430E701E4040B
:101AAD00F50A800D121C7660C1EA050A250A12039B
:101ABD00FDEA900165F030E701E4250A04D50A043A
:101ACD0020050114121C94E4C0E0121D1E90016546
:101ADD00E0601320E70714F0121918802204F0D0EB
:101AED00E014C0E07F00121918E50A600712190F03
:101AFD00150A800B30050312190FD0E002196AD0B8
:101B0D00E00480C4121C76609EE50A041203FD9069
:101B1D000165EAF0E50A2005026001042404121CA7
:011B2D009423
:101B2E0074FF04C0E0121D1E121918E50A200502EA
:101B3E00600312190FD0E0B50AE87F451219229002
:101B4E000165E07F2B30E7047F2DF404C0E012190D
:101B5E0030D0E075F00A84C0F0121919D0E01219D5
:101B6E001902196A791080027908C206C208800823
:101B7E00D2D5790A8004790AC2D5E50A047002F535
:101B8E000AE4FAFDFEFF1218EDFC7B082001131289
:101B9E0018EDFD7B1030000A1218EDFE1218EDFF45
:101BAE007B20EC3382D592D55013C3E43000069FD0
:101BBE00FFE49EFEE42001039DFDE49CFCE4CBF8D3
:101BCE00C201EC700CCFCECDCCE824F8F870F380C7
:101BDE0017C3EF33FFEE33FEED33FDEC33FCEB3387
:101BEE00FB994002FB0FD8E9EB300105F8D0E0C4B9
:101BFE0048B201C0E00AEC4D4E4F78207B0070C217
:101C0E00EAB50A0040BCC0E0121C96D0F0D0E0202D
:101C1E000104C4C0E0C4B201C0F0121919D0F0D54D
:101C2E00F0EB02196A1209CA1A07531B725819D817
:101C3E004C19D4421B764F1B7E441B7E4919ED4333
:101C4E001B84551AB1461B11451A7B471D5150195D
:101C5E00DC2D19E02E1A032B19E4231A01201D3A4C
:101C6E002A199C48000019FBE50AB4FF03750A0601
:101C7E001218EDFC1218EDFD1218EDFE1218EDFF04
:101C8E0090015E02043A790AA2D5200314300509A8
:101C9E00B910020404B9080104A2D52006025001AD
:101CAE00042002689202B509005034C0E07F203053
:101CBE0003197F30A20272067205500F121CEDC27C
:101CCE0002C206C205C2087F30800F300503E9C08C
:101CDE00E0121930300503D0E0F9D0E0B509CC3070
:101CEE0005177F30B9100C1219307F583004077F5A
:101CFE00788003B908031219303002057F2D0219BE
:101D0E00307F202008F87F2B2006F322920280CF0E
:101D1E007F00B40700500B245EF582E43401F58396
:101D2E00E0FF22286E756C6C2900D2011218ED307E
:101D3E0001F8C201780930D50108F602199C2D5020
:101D4E004349581218ED2403B405004001E4901DD8
:101D5E004C93121921743A121921D20375090402F7
:021D6E001B72E6
:1038CF000203E822EDA2E7D2E7F9EC3340F260F30E
:1038DF00B4FF08ED547F70E80203F2F82481C2E0D0
:1038EF00C0E0F40428FAC313FCED92E7FD90014504
:1038FF00120923EEA2E7E9BA7F02C3133400940042
:10390F00FA75F091A4E5F013F494FE8AF0A433E570
:10391F00F033248CD313FDE492E7FE7F007C3F75D8
:10392F008302ECC0E0F8EDC0E0F9EEC0E0FAEFC0C2
:10393F00E0FB8583F090014512089D85F08312020C
:10394F0017D0E0FBD0E0FAD0E0F9D0E0F812001D7C
:10395F00ED6480FD30E7011CD583C7ED33CC33F820
:0C396F00D0E0A2E71328C313CC13FD2204
:103F3A00ECC0E0F8EDC0E0F9EEC0E0FAEFC0E0FB5B
:103F4A0012010EEC6480FC7B007A007980783F12C3
:103F5A00001D1238D3D0E0CFFBD0E0CEFAD0E0CDAE
:0B3F6A00F9D0E0CCF8120217022FF98A
:1003B300E9D2E7C933E833F892D5EDD2E7CD33EC90
:0703C30033FC5002B2D52209
:1003CA00EC30E7100FBF000C0EBE00080DBD000494
:1003DA000BEB6014A2D5EB13FCED92E7FD2274FF40
:1003EA00FCFDFEFF22E480F8A2D574FF13FC7D8099
:0303FA00E480EFAD
:1003FD00F920E73624F950037907E4F42402FBE5EC
:10040D0082158270021583DBF6E024FB501BE96038
:10041D0014E4F0E582158270021583E004F0B40A4D
:0D042D0008E4F0D9EE7401F00A22C2D522D5
:10043A00ED33EC3392D5FA602AB4FF33EDC2E77B91
:10044A00FF60067A04795FE4227A04796820D50489
:10045A007A047963224E614E002B494E46002D499B
:10046A004E4600E47A08F0A3DAFC7B00740722C047
:10047A0083C082ECC0E0EDC0E0EEC0E0EFC0E0EA8D
:10048A0075F010A4CAABF075F04DA42BFBE435F05F
:10049A00FCEA2410FAEB34C5FBEC34D9FCEDC2E7D4
:1004AA00FF75F056A4F42411C5F0F434C58FF0A4F6
:1004BA002AE5F03BE43CF020E71412056FD0E0FF98
:1004CA00D0E0FED0E0FDD0E0FC1202178014F40464
:1004DA0012056FD0E0FFD0E0FED0E0FDD0E0FC12C4
:1004EA00010ED082D083E0FAEDD2E7CD33EC33248B
:1004FA0082FBE4C3CF33CFCE33CECD33CD33DBF360
:10050A007B0775F00A846004F0A31B0AE5F0F0A3E8
:10051A008FF0740AA4FFACF08EF0740AA42CFEAC1F
:10052A00F050010C8DF0740AA42CFDE435F0F0A310
:05053A00DBDE74072266
:102FD900BE1249253E4CCCCDBEAAAAAB3F8000000B
:102FE9003E7ADBB03EED63383F24BC7D3F490FDBC1
:102FF900ED33ECC2E7CC339200B4FF13ED547F609C
:10300900030203E87FDB7E0F7DC97C3F0230EEC2FD
:1030190001C3947F401E7007EDD2E794904015EFED
:10302900FBEEFAEDF9ECF87F007E007D807C3F1223
:103039000217D201ED33EC33248430E705E4C0E014
:10304900806B04FAEDD2E754F0C333DAFD54073448
:10305900002323C0E0CCC0E0F8EDC0E0F9EEC0E009
:10306900FAEFC0E0FBE4120348EC24FEFC900145B2
:1030790012092312010E7B007A007980783F120031
:103089001D900145E0B2E7CCF0A3E0CDF0A3E0CE7E
:10309900F0A3E0CFF0D0E0FBD0E0FAD0E0F9D0E047
:1030A900F812001D9001451208C612021790014539
:1030B900120923902FD974031205AF900145120804
:1030C900C612010ED0E0600F24E5F582E4342FF535
:1030D900831208D212001D30010B7BDB7A0F79C9EC
:1030E90078BF12001DED33EC336006ECA20092E7C5
:0230F900FC22B7
:10053F003F8000004120000042C80000447A0000C4
:10054F00461C400047C35000497424004B18968046
:10055F004CBEBC205A0E1BCA6753C21C749DC5AE3D
:10056F00FB60065407601C232312059DEB54386073
:10057F000912058912059812010EECF8EDF9EEFA41
:10058F00EFCB22EB12059880F1543803241C900511
:10059F003FFE93FC0EEE93FD0EEE930ECE93FF22D5
:1005AF00C0E0EFFBEEFAEDF9ECF812010ED0E0F53A
:1005BF00F0EFFBEEFAEDF9ECF81208A9A3A3A3A351
:1005CF00E8C0E0E9C0E0EAC0E0EBC0E0C0F0120133
:1005DF000E1208D2A3A3A3A312001DD0F0D0E0FBEC
:0D05EF00D0E0FAD0E0F9D0E0F8D5F0D42249
:03000000023A239E
:0C3A2300787FE4F6D8FD758155023A6A00
:1005FC00BB010689828A83E0225002E722BBFE02FD
:09060C00E32289828A83E493222F
:10061500BB010CE58229F582E5833AF583E022509A
:1006250006E92582F8E622BBFE06E92582F8E222E4
:0D063500E58229F582E5833AF583E49322FE
:10064200BB010689828A83F0225002F722BBFE0197
:02065200F32291
:10065400F8BB010DE58229F582E5833AF583E8F0DC
:10066400225006E92582C8F622BBFE05E92582C888
:02067400F22270
:10067600EF8DF0A4A8F0CF8CF0A428CE8DF0A42E98
:02068600FE2252
:10068800C5F0F8A3E028F0C5F0F8E58215827002FD
:060698001583E038F0229A
:10069E00E88FF0A4CC8BF0A42CFCE98EF0A42CFCFB
:1006AE008AF0EDA42CFCEA8EF0A4CDA8F08BF0A479
:1006BE002DCC3825F0FDE98FF0A42CCD35F0FCEBD8
:1006CE008EF0A4FEA9F0EB8FF0A4CFC5F02ECD399D
:0F06DE00FEE43CFCEAA42DCE35F0FDE43CFC220A
:1006ED0075F008758200EF2FFFEE33FECD33CDCCC4
:1006FD0033CCC58233C5829BED9AEC99E582984047
:10070D000CF582EE9BFEED9AFDEC99FC0FD5F0D623
:10071D00E4CEFBE4CDFAE4CCF9A88222B800C1B94D
:10072D000059BA002DEC8BF084CFCECDFCE5F0CB8B
:10073D00F97818EF2FFFEE33FEED33FDEC33FCEBC4
:10074D0033FB10D703994004EB99FB0FD8E5E4F97F
:10075D00FA227818EF2FFFEE33FEED33FDEC33FC6C
:10076D00C933C910D7059BE99A4007EC9BFCE99A60
:10077D00F90FD8E0E4C9FAE4CCFB2275F010EF2FA5
:10078D00FFEE33FEED33FDCC33CCC833C810D707A5
:10079D009BEC9AE899400AED9BFDEC9AFCE899F8E0
:0E07AD000FD5F0DAE4CDFBE4CCFAE4C8F92273
:0E07BB00C3E49FFFE49EFEE49DFDE49CFC224F
:1007C900EB9FF5F0EA9E42F0E99D42F0EC6480C8A7
:0607D90064809845F02247
:1007DF00EB9FF5F0EA9E42F0E99D42F0E89C45F070
:0107EF0022E7
:1007F000E8600FECC313FCED13FDEE13FEEF13FFE7
:03080000D8F1220A
:10080300BB010789828A8302089D5005E9F8020823
:1008130091BBFE05E9F80209F089828A830208A9DF
:10082300BB010DE58229F582E5833AF58302089D34
:100833005007E92582F8020891BBFE07E92582F8F3
:100843000209F0E58229F582E5833AF5830208A9D6
:10085300BB010789828A830209235005E9F802094B
:0A08630017BBFE05E9F80209FC22AC
:10086D00BB010DE58229F582E5833AF58302092363
:10087D005007E92582F8020917BBFE07E92582F822
:04088D000209FC223E
:0C089100E6FC08E6FD08E6FE08E6FF2293
:0C089D00E0FCA3E0FDA3E0FEA3E0FF22CE
:1008A900E493FC740193FD740293FE740393FF2295
:0D08B900E6FB08E6F908E6FA08E6CBF822AF
:0C08C600E0F8A3E0F9A3E0FAA3E0FB22B5
:1008D200E493F8740193F9740293FA740393FB227C
:1008E2007401FF3395E0FEFDFCA3A3A3E02FFFF00C
:1008F200E582158270021583E03EFEF0E5821582E4
:1009020070021583E03DFDF0E582158270021583C9
:05091200E03CFCF022B6
:0C091700ECF608EDF608EEF608EFF6220C
:0C092300ECF0A3EDF0A3EEF0A3EFF02247
:10092F00A8828583F0D083D082120946120946121D
:10093F000946120946E473E493A3C583C5F0C58342
:10094F00C8C582C8F0A3C583C5F0C583C8C582C812
:01095F002275
:10096000BB010789828A8302092F5005E9F8020A30
:0A09700008BBFE05E9F8020A212287
:10097A00BB010DE58229F582E5833AF58302092F49
:10098A005007E92582F8020A08BBFE07E92582F822
:04099A00020A21220A
:0C099E00A42582F582E5F03583F5832264
:1009AA00F8E0FBA3A3E0F925F0F0E58215827002D6
:0709BA001583E0FA38F0227A
:0909C100EBF0A3EAF0A3E9F02237
:1009CA00D083D082F8E4937012740193700DA3A3BC
:1009DA0093F8740193F5828883E4737402936860D0
:0609EA00EFA3A3A380DFD0
:103A2F00023E70E493A3F8E493A34003F68001F2FF
:103A3F0008DFF48029E493A3F85407240CC8C33398
:103A4F00C4540F4420C8834004F456800146F6DF67
:103A5F00E4800B01020408102040809028AEE47E21
:103A6F00019360BCA3FF543F30E509541FFEE4935C
:103A7F00A360010ECF54C025E060A840B8E493A323
:103A8F00FAE493A3F8E493A3C8C582C8CAC583CA4E
:103A9F00F0A3C8C582C8CAC583CADFE9DEE780BE06
:012A8E000047
:0C09F000E2FC08E2FD08E2FE08E2FF2243
:0C09FC00ECF208EDF208EEF208EFF22237
:100A0800D083D082E493F608740193F608740293B5
:090A1800F608740393F6740473EC
:100A2100D083D082E493F208740193F208740293A4
:090A3100F208740393F2740473DB
:00000001FF
