:03000000021C4E91
:0C1C4E00787FE4F6D8FD758155021C95E6
:102152002825662C202566290D0A007379735F6392
:082162006C6B3A25660D0A00C2
:101D5B0044008200000000440046000001F44400EF
:101D6B004A0000000044004E0000000A44005200EC
:101D7B000000004400560000006444005A000000BC
:011D8B000057
:061E970090000012079606
:101E9D00900082E0FCA3E0FDA3E0FEA3E0FF900034
:101EAD0004120796900004E0F8A3E0F9A3E0FAA36A
:101EBD00E0FB900082E0FCA3E0FDA3E0FEA3E0C305
:101ECD009BFFEE9AFEED99FDEC98FC900000E0F87A
:0F1EDD00A3E0F9A3E0FAA3E0FBD312069A50C5E5
:011EEC0022D3
:101EED0090004AE0F8A3E0F9A3E0FAA3E0FB90002C
:101EFD0082E0FCA3E0FDA3E0FEA3E0C39BFFEE9A0E
:101F0D00FEED99FDEC98FC900046E0F8A3E0F9A3F6
:101F1D00E0FAA3E0FBC312069A5016900082E0FC93
:101F2D00A3E0FDA3E0FEA3E0FF90004A120796B2E6
:011F3D00CBD8
:011F3E002280
:101E3E00900052E0F8A3E0F9A3E0FAA3E0FB9000D3
:101E4E0082E0FCA3E0FDA3E0FEA3E0C39BFFEE9ABD
:101E5E00FEED99FDEC98FC90004EE0F8A3E0F9A39E
:101E6E00E0FAA3E0FBC312069A501D900082E0FC3C
:101E7E00A3E0FDA3E0FEA3E0FF9000521207967BC5
:081E8E00017A00795E1219527D
:011E96002229
:101CDA0090005AE0F8A3E0F9A3E0FAA3E0FB900031
:101CEA0082E0FCA3E0FDA3E0FEA3E0C39BFFEE9A23
:101CFA00FEED99FDEC98FC900056E0F8A3E0F9A3FC
:101D0A00E0FAA3E0FBC312069A5045900082E0FC79
:101D1A00A3E0FDA3E0FEA3E0FF90005A1207967B22
:101D2A00FF7A217952900076E0FCA3E0FDA3E0FE61
:101D3A00A3E0FF90001812079690007AE0FCA3E057
:101D4A00FDA3E0FEA3E0FF90001C12079612114BC0
:011D5A002266
:0E21A000900045EFF0120003900045E0FF2292
:101FC500122089121FFB12205D1220B3E41202BDFC
:101FD5009000181207967BFF7A21795D12114B123A
:101FE50021AE7B017A00795E121563121EED121E79
:061FF5003E121CDA80F52B
:03000B00021F3F92
:101F3F00C0E0C0F0C083C082C0D075D000C000C068
:101F4F0004C005C006C007900082E0FCA3E0FDA31B
:101F5F00E0FEA3E02401FFE43EFEE43DFDE43CFC93
:101F6F00900082120796D007D006D005D004D0007B
:0B1F7F00D0D0D082D083D0F0D0E03270
:102089001220B3E47B0CFAF9F81205FAE47BE87A3A
:1020990003F9F81205FAC3E49FFFE49EF58C8F8AD1
:0920A9005389F0D2A9D2AFD28C08
:0120B200220B
:101FFB00E4F594F593F592F591F596F595F5B2F523
:10200B00B1F5B4F5B3F5CAF5C94392205391DF533B
:10201B0092EF5391EF43BA8090FE11E04410F053CE
:03202B00BA7F2257
:10205D001220B37B007AC2790178001205FAE47B75
:10206D0004FAF9F81205FAC3E49FFFE49E7598503F
:0B207D008FD7F5D6758E15C2ACD2AF20
:012088002235
:080003008F993099FDC299228A
:1020D90067785F7A65726F3A25662C2067795F7A2F
:1020E90065726F3A25662C20677A5F7A65726F3A56
:0520F90025660D0A0040
:101D8C004400860000000044008A0000000044006B
:101D9C008E000000004400923F4CCCCD042E3F80BE
:101DAC000000043200000000043600000000043A79
:101DBC0000000000042200000000042600000000C7
:061DCC00042A00000000E3
:0721BC00D2951221C3C29568
:0421C3007F0BDFFEB1
:0121C70022F5
:10211F001221C31221C3D294D2951221C31221C30B
:0A212F00C2941221C3C2950221C31D
:0F2191001221C3C294D2951221C3D2940221C34A
:10217F00D2941221C3D2951221C3A294C2951221D7
:02218F00C32269
:02216A00AE07BE
:10216C00E4FDEE25E0FE92941221BC0DEDB408F2D4
:03217C0002217FBE
:1020FE00E4FED294FDEE25E0FED2951221C3A29409
:10210E00E4334EFEC2951221C30DEDB408E7AF06BF
:01211E00229E
:10213900AC05AB0712211F7FD012216AAF03122110
:092149006AAF0412216A0221911F
:10202E001221C31221C31221C31221C3E4FD7F6BFF
:10203E001221397D077F191221397D047F1A122151
:0F204E00397D087F1B1221397D087F1C02213943
:0B1DDA00900015EBF0A3EAF0A3E9F085
:101DE50012211F7FD012216A7F3B12216A12211F07
:101DF5007FD112216AE4FC1220FE900015E0FBA3BE
:101E0500E0FAA3E0F98C82758300EF12059CC29479
:101E15001221BC0CECB40DDF1220FE900015E0FB86
:101E2500A3E0FAA3E0F9AE048E82758300EF1205F4
:091E35009CD2941221BC022191FF
:0B08A100900015EBF0A3EAF0A3E9F0D3
:1008AC001206AB7B397AFA798E783C1201069000ED
:1008BC0018120796900015E0FBA3E0FAA3E0F9905C
:1008CC0000041206CB7B397AFA798E783C12010639
:1008DC0090001C120796900015E0FBA3E0FAA3E031
:1008EC00F99000081206CB7B397AFA798E783C1293
:1008FC000106900020120796900015E0FBA3E0FA89
:10090C00A3E0F99000101206CBA804A905AA06AB27
:10091C0007120106C004C005C006C007900015E010
:10092C00FBA3E0FAA3E0F990000C1206CBA804A9F3
:10093C0005AA06AB07120106D003D002D001D000E5
:10094C00120015C004C005C006C007900015E0FBDE
:10095C00A3E0FAA3E0F99000141206CBA804A905B1
:10096C00AA06AB07120106D003D002D001D00012A8
:10097C000015121BA68F0B8E0A8D098C0890001582
:10098C00E0FBA3E0FAA3E0240CF9E43AFAC003C0BC
:10099C0002C0011206ABAB0BAA0AA909A8081202E5
:1009AC000FD001D002D0031206FB900015E0FBA380
:1009BC00E0FAA3E02410F9E43AFAC003C002C00143
:1009CC001206ABAB0BAA0AA909A80812020FD00198
:1009DC00D002D0031206FB900015E0FBA3E0FAA3B3
:1009EC00E02414F9E43AFAC003C002C0011206ABC9
:1009FC00AB0BAA0AA909A80812020FD001D002D089
:100A0C00031206FB7836120739782E120761120191
:100A1C0006C004C005C006C007783A120739783200
:100A2C00120761120106D003D002D001D0001200CF
:100A3C0011E4FBFAF97840120106783E12078A7825
:100A4C003A1207397836120761120106C004C00544
:100A5C00C006C0077832120739782E1207611201CE
:100A6C0006D003D002D001D000120015E4FBFAF935
:100A7C007840120106784212078A783212073978C8
:100A8C0032120761120106C004C005C006C0077807
:100A9C002E120739782E120761120106D003D002EC
:100AAC00D001D000120011C004C005C006C00778E8
:100ABC00361207397836120761120106A804A90507
:100ACC00AA06AB07D007D006D005D004120011C07F
:100ADC0004C005C006C007783A120739783A1207E5
:100AEC0061120106D003D002D001D000120015789B
:100AFC004612078A900015E0FBA3E0FAA3E0F990F8
:100B0C0000141206CB7842120761120106C004C011
:100B1C0005C006C007900015E0FBA3E0FAA3E0F9BE
:100B2C009000101206CB7846120761120106D00312
:100B3C00D002D001D000120011784A12078A90001E
:100B4C0015E0FBA3E0FAA3E0F990000C1206CB78B9
:100B5C0046120761120106C004C005C006C007900A
:100B6C000015E0FBA3E0FAA3E0F99000141206CB09
:100B7C00783E120761120106D003D002D001D000DA
:100B8C00120011784E12078A900015E0FBA3E0FAD0
:100B9C00A3E0F99000101206CB783E120761120107
:100BAC0006C004C005C006C007900015E0FBA3E01A
:100BBC00FAA3E0F990000C1206CB784212076112EE
:100BCC000106D003D002D001D000120011785212CD
:100BDC00078A7822120761C000C001C002C0037FDF
:100BEC006F7E127D837C3A784A120761120106D01F
:100BFC0003D002D001D000120015782212078A7897
:100C0C0026120761C000C001C002C0037F6F7E12B4
:100C1C007D837C3A784E120761120106D003D00214
:100C2C00D001D000120015782612078A782A1207F4
:100C3C0061C000C001C002C0037F6F7E127D837C47
:100C4C003A7852120761120106D003D002D001D0BB
:100C5C0000120015782A12078A784A120739900078
:100C6C0092E0F8A3E0F9A3E0FAA3E0FB12010690EE
:100C7C000018E0F8A3E0F9A3E0FAA3E0FB120015DA
:100C8C007822120761120015900018120796784E00
:100C9C00120739900092E0F8A3E0F9A3E0FAA3E080
:100CAC00FB12010690001CE0F8A3E0F9A3E0FAA304
:100CBC00E0FB120015782612076112001590001C3B
:100CCC001207967852120739900092E0F8A3E0F9D7
:100CDC00A3E0FAA3E0FB120106900020E0F8A3E0E9
:100CEC00F9A3E0FAA3E0FB120015782A12076112AF
:100CFC000015900020120796782E120761C000C0D4
:100D0C0001C002C00378321207391202AC900018ED
:100D1C00E0F8A3E0F9A3E0FAA3E0FB120106C0049B
:100D2C00C005C006C00790001CE0FCA3E0FDA3E0DA
:100D3C00FEA3E0FF7836120761120106A804A9058C
:100D4C00AA06AB07D007D006D005D004120011C0FC
:100D5C0004C005C006C007900020E0FCA3E0FDA382
:100D6C00E0FEA3E0FF783A120761120106A804A97D
:100D7C0005AA06AB07D007D006D005D00412001187
:100D8C007B0A7AD779A3783B120106D003D002D024
:100D9C0001D000120015782E12078A7832120761E2
:100DAC00C000C001C002C003900020E0FCA3E0FD25
:100DBC00A3E0FEA3E0FF7836120761120106C0041F
:100DCC00C005C006C007900018E0FCA3E0FDA3E03E
:100DDC00FEA3E0FF782E120761120106D003D002A9
:100DEC00D001D000120015C004C005C006C0079089
:100DFC00001CE0FCA3E0FDA3E0FEA3E0FF783A12A8
:100E0C000761120106A804A905AA06AB07D007D0F2
:100E1C0006D005D0041200117B0A7AD779A3783B4F
:100E2C00120106D003D002D001D000120015783286
:100E3C0012078A7836120761C000C001C002C003D5
:100E4C00900020E0FCA3E0FDA3E0FEA3E0FF7832DD
:100E5C00120761120106C004C005C006C00790004D
:100E6C001CE0FCA3E0FDA3E0FEA3E0FF782E12073C
:100E7C0061120106D003D002D001D000120011C0C3
:100E8C0004C005C006C007900018E0FCA3E0FDA359
:100E9C00E0FEA3E0FF783A120761120106D003D0FE
:100EAC0002D001D0001200157B0A7AD779A3783BC7
:100EBC00120106D003D002D001D0001200157836F2
:100ECC0012078A783A120761C000C001C002C00341
:100EDC0090001CE0FCA3E0FDA3E0FEA3E0FF783251
:100EEC00120761120106C004C005C006C0079000BD
:100EFC0020E0FCA3E0FDA3E0FEA3E0FF782E1207A8
:100F0C0061120106D003D002D001D000120015C02E
:100F1C0004C005C006C007900018E0FCA3E0FDA3C8
:100F2C00E0FEA3E0FF7836120761120106A804A9BF
:100F3C0005AA06AB07D007D006D005D004120011C5
:100F4C007B0A7AD779A3783B120106D003D002D062
:100F5C0001D000120015783A12078A78321207393C
:100F6C007832120761120106C004C005C006C00722
:100F7C00782E120739782E120761120106D003D091
:100F8C0002D001D000120015C004C005C006C00775
:100F9C0078361207397836120761120106D003D061
:100FAC0002D001D000120015C004C005C006C00755
:100FBC00783A120739A804A905AA06AB071201064C
:100FCC00D003D002D001D000120015121BA68F0B3B
:100FDC008E0A8D098C08782E120739AB0BAA0AA938
:100FEC0009A80812020F782E12078A7832120739D4
:100FFC00AB0BAA0AA909A80812020F783212078AA9
:10100C007836120739AB0BAA0AA909A80812020FE5
:10101C00783612078A783A120739AB0BAA0AA90953
:10102C00A80812020F783A12078A783A1207397810
:10103C0032120761120106C004C005C006C0077851
:10104C0036120739782E120761120106D003D0022E
:10105C00D001D000120011E4FBFAF978401201061D
:10106C00121F8A7BE17A2E79657842120106900074
:10107C0015E0FBA3E0FAA3E0F9900018120715782D
:10108C003A1207397836120761120106C004C005FE
:10109C00C006C0077832120739782E120761120188
:1010AC0006D003D002D001D000120015E4FBFAF9EF
:1010BC007840120106121F8A7BE17A2E79657842FC
:1010CC00120106900015E0FBA3E0FAA3E0F99000F2
:0410DC001C020715D6
:0B156300900000EBF0A3EAF0A3E9F019
:10156E00E4A3F0A3F09000861207A2000000009002
:10157E00008A1207A20000000090008E1207A2003F
:10158E00000000900000E0FBA3E0FAA3E0F9900059
:10159E000C1207ED000000009000101207ED000085
:1015AE0000009000141207ED000000001207D30097
:1015BE00000000900000E0FBA3E0FAA3E0F9900029
:1015CE00041207ED000000009000081207ED000065
:1015DE000000E4900003F0A3F07B017A007905127D
:1015EE001DDA900000E0FBA3E0FAA3E0240CF9E47E
:1015FE003AFAC003C002C0011206ABC004C005C057
:10160E0006C007900005E0FCA3E0FDEC1202C2E468
:10161E00FBFAF9784612020FA804A905AA06AB0731
:10162E00D007D006D005D004120015D001D002D0BC
:10163E00031206FB900000E0FBA3E0FAA3E02410E7
:10164E00F9E43AFAC003C002C0011206ABC004C0EE
:10165E0005C006C007900007E0FCA3E0FDEC1202F7
:10166E00C2E4FBFAF9784612020FA804A905AA06ED
:10167E00AB07D007D006D005D004120015D001D08C
:10168E0002D0031206FB900000E0FBA3E0FAA3E0F9
:10169E002414F9E43AFAC003C002C0011206ABC02A
:1016AE0004C005C006C007900009E0FCA3E0FDECF5
:1016BE001202C2E4FBFAF9784612020FA804A90539
:1016CE00AA06AB07D007D006D005D004120015D05D
:1016DE0001D002D0031206FB900086E0F8A3E0F9D9
:1016EE00A3E0FAA3E0FBC000C001C002C00390005B
:1016FE000DE0FCA3E0FDEC1202C2E4FBFA79837864
:10170E004212020FD003D002D001D0001200159069
:10171E00008612079690008AE0F8A3E0F9A3E0FA9B
:10172E00A3E0FBC000C001C002C00390000FE0FCAC
:10173E00A3E0FDEC1202C2E4FBFA798378421202B6
:10174E000FD003D002D001D00012001590008A12E3
:10175E00079690008EE0F8A3E0F9A3E0FAA3E0FB71
:10176E00C000C001C002C003900011E0FCA3E0FD68
:10177E00EC1202C2E4FBFA7983784212020FD00314
:10178E00D002D001D00012001590008E1207969054
:10179E000004E004F07006900003E004F0C3900033
:1017AE0004E09464900003E064809480500302157A
:1017BE00E7900000E0FBA3E0FAA3E0240CF9E43A82
:1017CE00FAC003C002C0011206ABE4FBFA79C87876
:1017DE004212020FD001D002D0031206FB9000007D
:1017EE00E0FBA3E0FAA3E02410F9E43AFAC003C048
:1017FE0002C0011206ABE4FBFA79C8784212020F5E
:10180E00D001D002D0031206FB900000E0FBA3E053
:10181E00FAA3E02414F9E43AFAC003C002C001129C
:10182E0006ABE4FBFA79C8784212020FD001D0025F
:10183E00D0031206FB900086E0FCA3E0FDA3E0FEC1
:10184E00A3E0FFE4FBFA79C8784212020F900086FB
:10185E0012079690008AE0FCA3E0FDA3E0FEA3E051
:10186E00FFE4FBFA79C8784212020F90008A120741
:10187E009690008EE0FCA3E0FDA3E0FEA3E0FFE463
:10188E00FBFA79C8784212020F90008E12079690DA
:10189E000092E0FCA3E0FDA3E0FEA3E0FFE4FBFA70
:1018AE0079207841120106900092120796E490007A
:1018BE0003F0A3F0900000E0FBA3E0FAA3E0F9121E
:1018CE0008A1900004E004F07006900003E004F01C
:1018DE00C3900004E094C8900003E06480948040BC
:1018EE00D3900092E0FCA3E0FDA3E0FEA3E0FFE4B2
:1018FE00FBFA7920784112020F9000921207967B24
:10190E00FF7A2079D9900086E0FCA3E0FDA3E0FEEB
:10191E00A3E0FF90001812079690008AE0FCA3E067
:10192E00FDA3E0FEA3E0FF90001C12079690008E30
:10193E00E0FCA3E0FDA3E0FEA3E0FF900020120771
:04194E009602114BA1
:0E21AE0012202E7FF47E017D007C00021E9721
:0B195200900000EBF0A3EAF0A3E9F026
:10195D007B017A007903121DDA900003E0FCA3E00D
:10196D00FDEC1202C2E4FBFAF9784612020F900068
:10197D0000E0FBA3E0FAA3E0F990000C120715902C
:10198D000005E0FCA3E0FDEC1202C2E4FBFAF978DD
:10199D004612020F900000E0FBA3E0FAA3E0F990DD
:1019AD000010120715900007E0FCA3E0FDEC1202F9
:1019BD00C2E4FBFAF9784612020F900000E0FBA397
:1019CD00E0FAA3E0F990001412071590000BE0FC6B
:1019DD00A3E0FDEC1202C2E4FBFA79837842120215
:1019ED000F900086E0F8A3E0F9A3E0FAA3E0FB1264
:1019FD000011900000E0FBA3E0FAA3E0F91206FB52
:101A0D0090000DE0FCA3E0FDEC1202C2E4FBFA79BC
:101A1D0083784212020F90008AE0F8A3E0F9A3E068
:101A2D00FAA3E0FB120011900000E0FBA3E0FAA383
:101A3D00E0F990000412071590000FE0FCA3E0FD03
:101A4D00EC1202C2E4FBFA7983784212020F900085
:101A5D008EE0F8A3E0F9A3E0FAA3E0FB12001190E9
:101A6D000000E0FBA3E0FAA3E0F9900008120715CF
:031A7D000208A1BB
:071DD2004400960000000030
:1020B300E59D701990FE01E0C394027F0050077EF6
:1020C300807D517C01227EC07DA87C00227F007E22
:0620D300407DFA7C0122B1
:10000E00020330E86480F8E933E83360110460F0ED
:10001E00ED33EC337009E8FCE9FDEAFEEBFF220458
:10002E0060DED3EB9FEA9EE99DE8C2E78CF0C2F753
:10003E0095F0400CE8CCF8E9CDF9EACEFAEBCFFB1F
:10004E001202FB85D0F05804700320D5B3E804707B
:10005E00075002B2D502033A92D5EC0460F7E4CC15
:10006E00C0E0C398F8603B94186008400DD0E0FBE8
:10007E00020312E4FBFAC9FC8028E830E406E4C966
:10008E00FBE4CAFCE830E305E4C9CACBFCE854073C
:10009E006010F8C3E913F9EA13FAEB13FBEC13FC47
:1000AE00D8F130F52FC3E49CFCEF9BFFEE9AFEEDEA
:1000BE0099FDD0E0FBEF4E4D4C701222DB03020394
:1000CE0037EC2CFCEF33FFEE33FEED33FDED30E776
:1000DE00EB020312EF2BFFEE3AFEED39FDD0E0FB03
:1000EE0050130BBB000302033AED13FDEE13FEEFAC
:0800FE0013FFEC13FC020312D6
:10010600EC4D6011E8497017ED33EC3304600DE4F3
:10011600FCFFFEFD22E933E8330470F802033012D7
:1001260002FB58046009E4CC2481500628500902D9
:10013600033A284003020337C0E0EB4A7044B98013
:1001460006D0E0FB020326EF4E701CBD8008EBFFD5
:10015600EAFEE9FD80EBE98DF0A4FEE5F00201EF91
:10016600E9CDF9EAFEEBFFEF89F0A4FCE5F0CE89D4
:10017600F0A42EFFE435F0CD89F0A42DFEE435F091
:100186008067EF4E7005BD80D780C3EF8BF0A4ACBF
:10019600F0EE8BF0A42CFCE435F0F8EF8AF0A42CFA
:1001A600E5F038FCE433CB8DF0A42CFCE5F03BF80D
:1001B600EE8AF0A42CFCE5F038F8E433CF89F0A4FD
:1001C6002CFCE5F038CF3400CE89F0A42FFFE5F003
:1001D6003EFEE433C98DF0A42EFEE5F039CD8AF05B
:1001E600A42FFFE5F03EFEE43DFD33D0E0FB5007D3
:1001F6000BBB000F02033AEC2CFCEF33FFEE33FE91
:06020600ED33FD020312BE
:10020C0002033AEC5D046005E85904700302033004
:10021C001202FB580460F6EC4860F2EC7004FDFE30
:10022C00FF22C860DB2481C85009C39860025006C5
:10023C000203379850CAF582E9294B4A7005AB8204
:10024C0002032675F0007C1A7880C3EF9BEE9AEDC2
:10025C0099400DC3EF9BFFEE9AFEED99FDE842F03D
:10026C00DC23ACF0D0E0FFD0E0FED0E0FDAB822090
:10027C00E7101BEB60BAEC2CFCEF33FFEE33FEED1A
:10028C0033FD020312E803F830E705C0F075F00007
:10029C00EF2FFFEE33FEED33FD40B830E7C280AAFE
:1002AC00ED33EC33600A047003BD8004ECB2E7FC60
:0102BC00221F
:1002BD0075F020800E75F010800575F0087D007EBC
:1002CD00007F003392D530D50312068CEC334010ED
:1002DD00EF33FFEE33FEED33FDEC33FCD5F0ED22C5
:0E02ED00E5F0247EA2D513CC92E7CDCEFF2201
:1010E000E5082418F582E43400F583E00508229031
:1010F0000015300703900018E475F0011208110282
:1011000005442000E97F2ED2008018EF540F249070
:10111000D43440D4FF30040BEF24BFB41A00500382
:101120002461FFE50960021509050CE50C70020554
:101130000B30070E900015E475F001120811EF0254
:10114000058A0221A07403D2078003E4C207F508D0
:10115000900015120828E4F509F50BF50CE5096077
:10116000077F2012112380F5750AFFC201C200C259
:1011700002C203C205C206C2081210EFFF700D3092
:1011800007057F00121134AF0CAE0B22B4255FC2ED
:10119000D5C2041210EFFF24D0B40A00501A75F023
:1011A0000A780930D50508B6FF0106C6A426F62040
:1011B000D5047002D20380D924CFB41A00EF5004B2
:1011C000C2E5D204021426D20180C6D20080C0D269
:1011D0000280BCD2D580BAD20580B47F2012112300
:1011E0002002077401B5090040F11210E0FF12114E
:1011F0002302115DD208D20680951210E0FB121076
:10120000E0FA1210E0F94A4B700679247A157BFF58
:1012100020022EE509602A7E008E82758300120569
:101220005D60060EEE650A70F0C2D5EBC0E0EAC064
:10123000E0E9C0E0EE121487D0E0F9D0E0FAD0E0A7
:10124000FB120544FF60AAEBC0E0EAC0E0E9C0E0A1
:10125000121123D0E02401F9D0E03400FAD0E0FBF1
:10126000E50A0460DCD50AD98087D20280A2121474
:101270006960F7E50A700104120345A90A600DE5EB
:101280000A600914F50A121511EF60F3EA30E7025B
:10129000F404C3995079EAF4250A0430E701E40420
:1012A000F50A800D12146960C1EA050A250A1203C5
:1012B00045EA900044F030E701E4250A04D50A0429
:1012C00020050114121487E4C0E0121511900044A7
:1012D000E0601320E70714F012110B802204F0D015
:1012E000E014C0E07F0012110BE50A600712110242
:1012F000150A800B300503121102D0E002115DD0F7
:10130000E00480C4121469609EE50A04120345904B
:101310000044EAF0E50A20050260010424041214E6
:011320008745
:1013210074FF04C0E012151112110BE50A20050229
:101331006003121102D0E0B50AE87F451211159041
:101341000044E07F2B30E7047F2DF404C0E012114C
:1013510023D0E075F00A84C0F012110CD0E0121114
:101361000C02115D791080027908C206C20880085A
:10137100D2D5790A8004790AC2D5E50A047002F54A
:101381000AE4FAFDFEFF1210E0FC7B0820011312B3
:1013910010E0FD7B1030000A1210E0FE1210E0FF99
:1013A1007B20EC3382D592D55013C3E43000069FE5
:1013B100FFE49EFEE42001039DFDE49CFCE4CBF8E8
:1013C100C201EC700CCFCECDCCE824F8F870F380DC
:1013D10017C3EF33FFEE33FEED33FDEC33FCEB339C
:1013E100FB994002FB0FD8E9EB300105F8D0E0C4CE
:1013F10048B201C0E00AEC4D4E4F78207B0070C22C
:10140100EAB50A0040BCC0E0121489D0F0D0E02057
:101411000104C4C0E0C4B201C0F012110CD0F0D577
:10142100F0EB02115D12083111FA5313655811CB1B
:101431004C11C74213694F13714413714911E043B1
:1014410013775512A446130445126E4715445011E3
:10145100CF2D11D32E11F62B11D72311F420152DD9
:101461002A118F48000011EEE50AB4FF03750A0640
:101471001210E0FC1210E0FD1210E0FE1210E0FF6D
:1014810090003D020382790AA2D520031430050998
:10149100B910020404B9080104A2D52006025001C2
:1014A100042002689202B509005034C0E07F203068
:1014B10003197F30A20272067205500F1214E0C2A6
:1014C10002C206C205C2087F30800F300503E9C0A1
:1014D100E0121123300503D0E0F9D0E0B509CC309A
:1014E10005177F30B9100C1211237F583004077F84
:1014F100788003B908031211233002057F2D0211F0
:10150100237F202008F87F2B2006F322920280CF30
:101511007F00B40700500B243DF582E43400F583CD
:10152100E0FF22286E756C6C2900D2011210E030A8
:1015310001F8C201780930D50108F602118F2D504A
:101541004349581210E02403B405004001E490150A
:101551003F93121114743A121114D2037509040243
:02156100136510
:101BA20002033022EDA2E7D2E7F9EC3340F260F310
:101BB200B4FF08ED547F70E802033AF82481C2E0D2
:101BC200C0E0F40428FAC313FCED92E7FD90002470
:101BD200120796EEA2E7E9BA7F02C313340094001B
:101BE200FA75F091A4E5F013F494FE8AF0A433E5BB
:101BF200F033248CD313FDE492E7FE7F007C3F7523
:101C02008302ECC0E0F8EDC0E0F9EEC0E0FAEFC00C
:101C1200E0FB8583F090002412074585F0831202D1
:101C22000FD0E0FBD0E0FAD0E0F9D0E0F8120015D6
:101C3200ED6480FD30E7011CD583C7ED33CC33F86A
:0C1C4200D0E0A2E71328C313CC13FD224E
:101F8A00ECC0E0F8EDC0E0F9EEC0E0FAEFC0E0FB2B
:101F9A00120106EC6480FC7B007A007980783F129B
:101FAA000015121BA6D0E0CFFBD0E0CEFAD0E0CDD0
:0B1FBA00F9D0E0CCF812020F021AA0D0
:1002FB00E9D2E7C933E833F892D5EDD2E7CD33EC49
:07030B0033FC5002B2D522C1
:10031200EC30E7100FBF000C0EBE00080DBD00044C
:100322000BEB6014A2D5EB13FCED92E7FD2274FFF8
:10033200FCFDFEFF22E480F8A2D574FF13FC7D8051
:03034200E480EF65
:10034500F920E73624F950037907E4F42402FBE5A4
:1003550082158270021583DBF6E024FB501BE960F1
:1003650014E4F0E582158270021583E004F0B40A06
:0D03750008E4F0D9EE7401F00A22C2D5228E
:10038200ED33EC3392D5FA602AB4FF33EDC2E77B4A
:10039200FF60067A0379A7E4227A0379B020D504B4
:1003A2007A0379AB224E614E002B494E46002D490D
:1003B2004E4600E47A08F0A3DAFC7B00740722C000
:1003C20083C082ECC0E0EDC0E0EEC0E0EFC0E0EA46
:1003D20075F010A4CAABF075F04DA42BFBE435F018
:1003E200FCEA2410FAEB34C5FBEC34D9FCEDC2E78D
:1003F200FF75F056A4F42411C5F0F434C58FF0A4AF
:100402002AE5F03BE43CF020E7141204B7D0E0FF09
:10041200D0E0FED0E0FDD0E0FC12020F8014F40424
:100422001204B7D0E0FFD0E0FED0E0FDD0E0FC1235
:100432000106D082D083E0FAEDD2E7CD33EC33244B
:1004420082FBE4C3CF33CFCE33CECD33CD33DBF318
:100452007B0775F00A846004F0A31B0AE5F0F0A3A1
:100462008FF0740AA4FFACF08EF0740AA42CFEACD8
:10047200F050010C8DF0740AA42CFDE435F0F0A3C9
:05048200DBDE7407221F
:101A8000BE1249253E4CCCCDBEAAAAAB3F80000079
:101A90003E7ADBB03EED63383F24BC7D3F490FDB2F
:101AA000ED33ECC2E7CC339200B4FF13ED547F600A
:101AB000030203307FDB7E0F7DC97C3F021B95C292
:101AC00001C3947F401E7007EDD2E794904015EF5C
:101AD000FBEEFAEDF9ECF87F007E007D807C3F1292
:101AE000020FD201ED33EC33248430E705E4C0E08B
:101AF000806B04FAEDD2E754F0C333DAFD540734B7
:101B0000002323C0E0CCC0E0F8EDC0E0F9EEC0E077
:101B1000FAEFC0E0FBE41202C7EC24FEFC900024C4
:101B20001207961201067B007A007980783F120036
:101B300015900024E0B2E7CCF0A3E0CDF0A3E0CE16
:101B4000F0A3E0CFF0D0E0FBD0E0FAD0E0F9D0E0B5
:101B5000F812001590002412076E12020F90002454
:101B6000120796901A8074031204F790002412074B
:101B70006E120106D0E0600F248CF582E4341AF571
:101B80008312077A12001530010B7BDB7A0F79C9BB
:101B900078BF120015ED33EC336006ECA20092E73B
:021BA000FC2225
:100487003F8000004120000042C80000447A00007D
:10049700461C400047C35000497424004B189680FF
:1004A7004CBEBC205A0E1BCA6753C21C749DC5AEF6
:1004B700FB60065407601C23231204E5EB543860E5
:1004C700091204D11204E0120106ECF8EDF9EEFA74
:1004D700EFCB22EB1204E080F1543803241C900484
:1004E70087FE93FC0EEE93FD0EEE930ECE93FF2246
:1004F700C0E0EFFBEEFAEDF9ECF8120106D0E0F5FB
:10050700F0EFFBEEFAEDF9ECF8120751A3A3A3A362
:10051700E8C0E0E9C0E0EAC0E0EBC0E0C0F01201EB
:100527000612077AA3A3A3A3120015D0F0D0E0FB0D
:0D053700D0E0FAD0E0F9D0E0F8D5F0D42201
:101C5A00021FC5E493A3F8E493A34003F68001F2BC
:101C6A0008DFF48029E493A3F85407240CC8C3338B
:101C7A00C4540F4420C8834004F456800146F6DF5A
:101C8A00E4800B0102040810204080901D5BE47E72
:101C9A00019360BCA3FF543F30E509541FFEE4934F
:101CAA00A360010ECF54C025E060A840B8E493A316
:101CBA00FAE493A3F8E493A3C8C582C8CAC583CA41
:101CCA00F0A3C8C582C8CAC583CADFE9DEE780BEF9
:011DD9000009
:10054400BB010689828A83E0225002E722BBFE02B5
:09055400E32289828A83E49322E8
:10055D00BB010CE58229F582E5833AF583E0225053
:10056D0006E92582F8E622BBFE06E92582F8E2229D
:0D057D00E58229F582E5833AF583E49322B7
:10058A00BB010689828A83F0225002F722BBFE0150
:02059A00F3224A
:10059C00F8BB010DE58229F582E5833AF583E8F095
:1005AC00225006E92582C8F622BBFE05E92582C841
:0205BC00F22229
:1005BE0075F008758200EF2FFFEE33FECD33CDCCF4
:1005CE0033CCC58233C5829BED9AEC99E582984077
:1005DE000CF582EE9BFEED9AFDEC99FC0FD5F0D654
:1005EE00E4CEFBE4CDFAE4CCF9A88222B800C1B97E
:1005FE000059BA002DEC8BF084CFCECDFCE5F0CBBC
:10060E00F97818EF2FFFEE33FEED33FDEC33FCEBF4
:10061E0033FB10D703994004EB99FB0FD8E5E4F9AF
:10062E00FA227818EF2FFFEE33FEED33FDEC33FC9C
:10063E00C933C910D7059BE99A4007EC9BFCE99A90
:10064E00F90FD8E0E4C9FAE4CCFB2275F010EF2FD5
:10065E00FFEE33FEED33FDCC33CCC833C810D707D5
:10066E009BEC9AE899400AED9BFDEC9AFCE899F810
:0E067E000FD5F0DAE4CDFBE4CCFAE4C8F922A3
:0E068C00C3E49FFFE49EFEE49DFDE49CFC227F
:10069A00EB9FF5F0EA9E42F0E99D42F0E89C45F0B6
:0106AA00222D
:1006AB00BB010789828A830207455005E9F80207D7
:1006BB0039BBFE05E9F802085789828A8302075184
:1006CB00BB010DE58229F582E5833AF583020745E7
:1006DB005007E92582F8020739BBFE07E92582F8A6
:1006EB00020857E58229F582E5833AF58302075123
:1006FB00BB010789828A830207965005E9F8020736
:0A070B008ABBFE05E9F8020863222C
:10071500BB010DE58229F582E5833AF5830207964B
:100725005007E92582F802078ABBFE07E92582F80A
:040735000208632231
:0C073900E6FC08E6FD08E6FE08E6FF22EC
:0C074500E0FCA3E0FDA3E0FEA3E0FF2227
:10075100E493FC740193FD740293FE740393FF22EE
:0D076100E6FB08E6F908E6FA08E6CBF82208
:0C076E00E0F8A3E0F9A3E0FAA3E0FB220E
:10077A00E493F8740193F9740293FA740393FB22D5
:0C078A00ECF608EDF608EEF608EFF6229B
:0C079600ECF0A3EDF0A3EEF0A3EFF022D6
:1007A200A8828583F0D083D0821207B91207B912CA
:1007B20007B91207B9E473E493A3C583C5F0C583EF
:1007C200C8C582C8F0A3C583C5F0C583C8C582C8A1
:0107D2002204
:1007D300BB010789828A830207A25005E9F8020850
:0A07E3006FBBFE05E9F8020888224A
:1007ED00BB010DE58229F582E5833AF5830207A267
:1007FD005007E92582F802086FBBFE07E92582F84C
:04080D000208882233
:10081100F8E0FBA3A3E0F925F0F0E5821582700270
:070821001583E0FA38F02214
:09082800EBF0A3EAF0A3E9F022D1
:10083100D083D082F8E4937012740193700DA3A356
:1008410093F8740193F5828883E47374029368606A
:06085100EFA3A3A380DF6A
:0C085700E2FC08E2FD08E2FE08E2FF22DD
:0C086300ECF208EDF208EEF208EFF222D1
:10086F00D083D082E493F608740193F60874029350
:09087F00F608740393F674047387
:10088800D083D082E493F208740193F2087402933F
:09089800F208740393F274047376
:00000001FF
