:030000000210C823
:0C10C800787FE4F6D8FD758120020A66EE
:10000300FB00003E000B003600010002000300006D
:1000130000650054FFEF0000FA80000B128200011C
:1000230000020000000000000000000000000000CB
:1000330000280000FFFF4581FFFFFA720000000067
:10004300000003E80000000100017FFFFFFE8001C4
:10005300001B000000000000000000000000000082
:10006300003E03304000000002CAE3093E80000066
:1000730020000000000000004000000060000000BD
:1000830041FF000000000B2A0000165500002182EA
:10009300FD872650FD800000001F00000005800042
:1000A3000000000000010000000200000003000047
:1000B300400000000000046F0002653200005EC0D3
:1000C30040000000000000000000000000000000ED
:1000D300FB8C6F5DFD5D08D9007C733B006C12CC1B
:1000E3003200139D3200D0D632000800400001F4E4
:1000F300FFE68079020000000000D0D60000271040
:10010300FB000000400000000000000000000000B1
:1001130000000001000000000000010001000000D9
:100123000000FA36FFBC308E0005FBF0FFD95BC838
:10013300FFD09ABE000010A9FFF41EB200CEBBF799
:100143000000000100000004000200020200000C95
:10015300FFC280000001800000CF8000400000004B
:100163000000000100000000000006000000001471
:10017300000000000000000000000000000000007C
:10018300000000000000000000000000000000006C
:10019300000000000000000000000000000000005C
:1001A30000000000033F68B6793528BCC67ED16CD9
:1001B30080000000400000000000B26A0000000060
:1001C300000000000000000000003FF000000030CD
:1001D300000000000000000000000000000000001C
:1001E300000000000000000000000000000000000C
:1001F3000000254D002F706D000005AE000C02D0ED
:100203000000000000650054FFEF00000000000044
:10021300000001000044000000000C000000010089
:10022300000000000065000000540000FFEF000024
:1002330000000000000000000000000000000000BB
:10024300400000000000000000000000000000006B
:10025300400000000000000000000000000000005B
:100263000000000100000002000000000000000088
:10027300000000000000000000000000000000007B
:10028300000000000000000000000000000000006B
:10029300001B000000000000000000000000000040
:1002A300000000000000000000000000000000004B
:1002B30000000000000000000000000040000000FB
:1002C300001B000000000000000000000000000010
:1002D300000000000000000000000000000000001B
:1002E300000000000000000000000000000000000B
:1002F30000000000000000000000000000000000FB
:10030300D8DCBAA2F1DEB2B8B4A88191F74A907FE3
:10031300916AF3F9DBA8F9B0BAA080F2CE81F3C2F7
:10032300F1C1F2C3F3CCA2B280F1C6D880BAA7DF81
:10033300DFDFF2A7C3CBC5B6F087A2942448703C95
:1003430095406834589B78A2F183922D557DD8B19E
:10035300B4B8A1D09180F270F370F27C80A8F1015F
:10036300B09887D943D886C988BAA1F20EB89780C6
:10037300F1A9DFDFDFAADFDFDFF2AAC5CDC7A90C52
:10038300C92C97979797F1A989264666B0B4BA8086
:10039300ACDEF2CAF1B28C02A9B69800890E161E21
:1003A300B8A9B4992C547CB08AA896365676F1B97C
:1003B300AFB4B083C0B8A89711B18F98B9AFF02488
:1003C3000844106418F1A329557DAF83B593AFF0AA
:1003D300002850F1A3869F61A6DADEDFD9FAA3864F
:1003E30096DB31A6D9F8DFBAA68FC2C5C7B28CC1D6
:1003F300B8A2DFDFDFA3DFDFDFD8D8F1B8A8B2868A
:10040300B4980D355DB8AA98B0872D353DB2B6BA0C
:10041300AF8C96198F9FA70E161EB49AB8AA872C75
:10042300547CB9A3DEDFDFA3B180F2C4CDC9F1B838
:10043300A9B499830D355D89B9A32D557DB593A3D2
:100443000E161EA92C547CB8B4B0F19783A811845E
:10045300A50998A383F0DA240844106418D8F1A5F9
:1004630029557DA58595021A2E3A565A4048F9F327
:10047300A3D9F8F098832408441064189782A8F14C
:1004830011F098A2240844106418DAF3DED883A587
:100493009401D9A302F1A2C3C5C7D8F18492A24D96
:1004A300DA2AD84869D92AD86855DA32D85071D9A6
:1004B30032D8705DDA3AD85879D93AD87893A34DBF
:1004C300DA2AD84869D92AD86855DA32D85071D986
:1004D30032D8705DDA3AD85879D93AD878A88A9A56
:1004E300F02850789EF38818F19F1D98A8D908D852
:1004F300C89F129EF315A8DA1210D8F1AFC89787D8
:1005030034B5B994A421F3D922D8F22DF3D92AD83A
:10051300F235F3D932D881A4606061D961D86C68AF
:1005230069D969D8747071D971D8B1A384193D5D43
:10053300A3831A3E5E931030811011B8B0AF8F942D
:10054300F2DA3ED8B49AA88729DAF8D8879A35DA46
:10055300F8D8879A3DDAF8D8B1B9A49885022E560F
:10056300A581000C14A397B08AF12DD928D84DD9B1
:1005730048D86DD968D8B1840DDA0ED8A32983DAA7
:100583002C0ED8A3844983DA2C4C0ED8B8B0A88A91
:100593009AF520AADADFD8A840AAD0DADED8A86074
:1005A300AADAD0DFD8F19786A8319B069907AB97D3
:1005B30028889BF00C201440B8B0B4A88C9CF0049D
:1005C3002851791D301438B282ABD0982C50507812
:1005D300789BF11AB0F08A9CA82951798B2951791B
:1005E3008A2470598B2058718A4469388B39406842
:1005F3008A6448318B304960A58820097158446862
:10060300113964493019F1AC002C547CF08CA804E6
:10061300285078F1889726A85998AC8C022646660C
:10062300F0899CA829517924705944693864483168
:10063300A98809205970AB11384069A8193148605D
:100643008CA83C415C207C00F187981986A86E76C3
:100653007EA999882D557D9EB9A38A228A6E8A56D2
:100663008A5E9FB183062646660E2E4E6E9DB8ADFA
:10067300002C547CF2B18CB499B9A32D557D819192
:10068300AC38AD3AB58391AC2DD928D84DD948D8DB
:100693006DD968D88C9DAE29D904AED851D904AE92
:1006A300D879D904D881F39DAD008DAE1981ADD928
:1006B30001D8F2AEDA26D88E912983A7D9ADADAD94
:1006C300ADF32AD8D8F1B0AC89913E5E76F3AC2E67
:1006D3002EF1B18C5A9CAC2C2828289CAC3018A83D
:1006E300988128343C9724A728343C9C24F2B08971
:1006F300AC912C4C6C8A9B2DD9D8D851D9D8D879A8
:10070300D9D8D8F19E88A331DAD8D8912DD928D851
:100713004DD948D86DD968D8B18393353D8025DA52
:10072300D8D88569DAD8D8B49381A328343CF3ABFD
:100733008BF8A391B609B4D9ABDEFAB0879CB9A301
:10074300DDF1A3A3A3A395F1A3A3A39DF1A3A3A366
:10075300A3F2A3B49080F2A3A3A3A3A3A3A3A3A3ED
:10076300A3B2A3A3A3A3A3A3B087B599F1A3A3A300
:1007730098F1A3A3A3A397A3A3A3A3F39BA3A3DC8E
:10078300B9A7F1262626D8D8FF037B034CCD6C03EB
:10079300AB0336567600680402CB47A20218040066
:1007A300058BC1010C0400000000037F060CC92C5B
:1007B300979797038903264666006C022000024040
:1007C300040000000002440400000000024804008A
:1007D300000000024C04000000000250040000006E
:1007E300000254040000000002580400000000024C
:1007F3005C040000000002BC040000000001EC04E3
:1008030000004000037F060CC92C9797970402034E
:100813000D355D040904872D353D00A3010000005B
:100823000001078601FE074105F120283038077EC5
:1008330001300746019A074704F1283038076C0452
:10084300F1283038021602000101B202FFFF0190C5
:10085300040923A135016A020600016008000000B3
:10086300000000000000600440000000016202007C
:080873000000600400400000D9
:0310DC00DFFE2212
:10109500AE07AF061EEF600C7FF51210DC7FF51270
:0510A50010DC80EE22CA
:10105B00D294D29500000000C29400000000000062
:0D106B0000000000000000000000C29522FF
:10103800C2940000000000000000D29500000000EB
:10104800000000000000000000000000D294000032
:0310580000002273
:100DFC007F6D120FE3900037E0FD7F6E120FE31250
:090E0C00105B7FD0120E157F6F00
:100E1500E4FEEF25E0FF9294D2950000000000006B
:100E250000000000000000000000C2950EEEB408AE
:100E3500E1D294D2950000000000000000000000FF
:0D0E45000000000000A2949200C295D2941B
:010E5200227D
:100E5300E4FFFEEE25E0FED2950000000000000056
:100E6300000000000000000000A294E4334EFEC224
:100E730095000000000FEFB408D9A2019294D29517
:100E8300000000000000000000000000000000005F
:0A0E9300C295D29400000000AF06E3
:010E9D002232
:100FE300AC0712105B7FD0120E153000037F002276
:100FF300AF04120E153000037F0022AF05120E1549
:0C1003003000037F00221210387F012211
:0810BA007A00792F7B017F3AD7
:0610C2007D01120D162253
:0D0D160090003DEBF0A3EAF0A3E9F0AC077C
:100D23001D12105B7FD0120E153000037F0022AF1F
:100D330004120E153000037F002212105B7FD112C4
:100D43000E153000037F0022E4FCECC39D501CC24F
:100D530001120E5390003DE0FBA3E0FAA3E0F98CEF
:100D630082758300EF120EB00C80DFD201120E5396
:100D730090003DE0FBA3E0FAA3E0F9AE058E827597
:0B0D83008300EF120EB01210387F0149
:010D8E002242
:060C9B007D027B017F6A6F
:0D0CA100900036EDF0A3EBF0900035EFF081
:100CAE007B017A0079381210C2EF6059900037E05C
:100CBE006020900036E0FF74017E00A807088005D2
:100CCE00C333CE33CED8F9FF900038E0FDEF4DFFA1
:100CDE008021900036E0FF74017E00A80708800591
:100CEE00C333CE33CED8F9F4FF900038E0FDE4FEE6
:100CFE00EF5DFF900038EFF0900035E0FF90003888
:070D0E00E0FD020FE37F008E
:010D150022BB
:070B9000F07B027D047F1BD6
:0D0B9700900036EDF0A3EBF0900035EFF08C
:100BA400E490003AF07B017A0079391210C2EF60C8
:100BB40064900037E0FD74017E00A805088005C339
:100BC40033CE33CED8F924FFFFEE34FFFE90003647
:100BD400E0C39D04FDEFA805088005C333CE33CEE2
:100BE400D8F9FF90003AF0900038E0FEA80508809C
:100BF40002C333D8FC900038F05FFEF0A3E0FDEFB1
:100C0400F4FFED5FF0E04EF0900035E0FF90003926
:070C1400E0FD020FE37F0089
:010C1B0022B6
:0E0EE800900035EDF0A3EBF0A3EAF0A3E9F0E3
:100EF6007B017A0079391210C2EF6029900035E043
:100F0600FF7401A807088002C333D8FCFF9000399C
:100F1600E05FFF900036E0FBA3E0FAA3E0F9EF12F2
:070F26000E9E7F01227F00F7
:010F2D0022A1
:040C1C007B067D06D0
:080C2000900036EDF0A3EBF0AB
:100C2800E490003CF07B017A00793B1210C2EF603F
:100C38005F900037E0FD74017E00A805088005C3B9
:100C480033CE33CED8F924FFFFEE34FFFE900036C2
:100C5800E0C39D04FDEFA805088005C333CE33CE5D
:100C6800D8F9FF90003CF090003BE05FF0E0FFA86F
:100C780005088002C313D8FC90003BF0E0FF900009
:100C880038E0FBA3E0FAA3E0F9EF120E9E7F012201
:020C98007F00DB
:010C9A002237
:100B0000E4900035F0A3F0FAA3F0EAB407047B0800
:100B100080027B10E4F9E9C39B503BAD02120DFC4F
:100B2000E4FD900035E475F001120ED2FE74032549
:100B3000F0F58274003EF583E493FF120E15300049
:100B4000037F00220DEDB410D9900037E02410F09F
:100B50001210380980C00AEA640870AE7D07120DD1
:100B6000FCE4FB900035E475F001120ED2FE740334
:100B700025F0F58274003EF583E493FF120E1530E4
:0F0B800000037F00220BEBB409D91210387F015C
:010B8F002243
:100D8F00E4FBFAAF030BEF90078C93FFAE030BEE70
:100D9F0093900035F0AE030BEE90078C93F9AD07EF
:100DAF007F6D120FE3900035120E04E4FDEDC39931
:100DBF005015AF030BEF90078C93FF120E153000F9
:100DCF00037F00220D80E6E97017AF030BEF90074A
:100DDF008C93B401097D327F38120FE380037F00BB
:0C0DEF00220AEA641E709C1210387F017A
:010DFB0022D5
:020F2E00AB070F
:100F30000BEF90084C93FFAE030BEE93F9AE030B4F
:100F4000EE93FAAD077F6D120FE3AF01AD07120EFE
:100F500006E4FDEDC39A5015AF030BEF90084C93D8
:100F6000FF120E153000037F00220D80E6121038AC
:020F70007F01FF
:010F7200225C
:101078007B017A0079357D027F72120D169000355A
:0C108800E0FEA3E07C002400FFEC3EFE34
:011094002239
:0810D4007D2A7F74120D162223
:10087B007B017D077F6B120CA17F1E121095E4FB91
:10088B007D067F6B120CA17D707F6D120FE37D06D1
:10089B007F6E120FE37B017A00792D7F6F1210C2EE
:1008AB00E4FD7F6D120FE37B017A00792EE4FF12DA
:1008BB000EE89000387401F0A37400F0A37430F0CC
:1008CB007B067D06E4FF120C209000387401F0A328
:1008DB007400F0A37431F07F01120C1C900038747B
:1008EB0001F0A37400F0A37432F07F02120C1C7D94
:1008FB0001120C9D7F14121095120B00EF7002FF6A
:10090B0022120D8FEF7002FF229000387403F0FB60
:10091B007D027F6B120B977D127F38120FE37D04E4
:10092B007F19120FE39000387401F07B030D7F1ACF
:10093B00120B979000387403F0FB7D027F1A120B99
:10094B00979000387403120B907D037F70120FE3A6
:10095B00E4FD7F71120FE3E4FBFF120CA1E49000A6
:10096B0038F07B067D06FF120B97E4900038F07B86
:10097B00067D067F01120B97E4900038F07B067D15
:10098B00067F02120B97E4FF120F2EEF7002FF226D
:10099B007F05120F2EEF7002FF22120C9B121078A4
:1009AB00900033EEF0A3EFF0120C9B7D027F1F1231
:1009BB000FE37D9C7F21120FE37D507F20120FE30D
:1009CB00E4FD7F22120FE3120C9B7B017D067F6AF5
:1009DB00120CA17B017D077F6A120CA17B017D03A9
:1009EB007F6A120CA17F0C120F2EEF7002FF227F79
:1009FB0011120F2EEF7002FF227F1C120F2EEF70C1
:100A0B0002FF22121078900033EEF0A3EFF0C394A4
:100A1B0003EE940040ED120C9B1210BA7F23120FC1
:100A2B002EEF7002FF22121078900033EEF0A3EF3E
:100A3B00F0C39403EE940040ED120C9B1210BA7F9E
:100A4B0028120F2EEF7002FF22E4FB7D077F6A1244
:0A0A5B000CA1120C9B1210BA7F01CF
:010A6500226E
:100FB6009000387401F07B037D027F6B120B97E47F
:100FC600900038120B90E4900038F07B027D047F8D
:0D0FD6001C120B977B017D067F6B020CA1A6
:10100F00E490002DF090003804F0A37400F0A37466
:10101F002DF07B067D067F75120C2090002DE0B41D
:08102F0034047F0180027F0000
:011037002296
:100F7300E4F594F593F592F591F596F595F5B2F5BB
:100F8300B1F5B4F5B3F5CAF5C94392205391DF53D4
:100F930092EF5391EF43BA8090FE11E04410F05367
:100FA300BA7F75985075D7E875D6FF758E15C2ACA4
:030FB300D2AF2298
:0810AA00E0FF1210B2A3E0FF09
:0810B2008F993099FDC29922CB
:100A6600120F73120FB612100FEF600812087BEF09
:100A7600700280FE120C9B7B017D07802C12107881
:100A860090002BEEF0A3EFF07A00792A1210BE90B8
:100A9600002AE020E40FC390002CE0944890002B3D
:100AA600E09403400B7B017D027F6A120CA180CD8E
:100AB60090002AE030E1C6C390002CE0942A900012
:100AC6002BE09400500D12107890002BEEF0A3EF5F
:100AD600F080E47B017A0079001210D4EF609E90DA
:100AE60000001210AA9000041210AA90000812101A
:0A0AF600AA90000C1210AA020A8355
:100E9E00BB010689828A83F0225002F722BBFE0133
:020EAE00F3222D
:100EB000F8BB010DE58229F582E5833AF583E8F078
:100EC000225006E92582C8F622BBFE05E92582C824
:020ED000F2220C
:100ED200A3F8E0C5F025F0F0E582158270021583D3
:060EE200E0C838F0E82230
:00000001FF
